:020000040800F2
:10000000E8C90624AD0200080B7300086525030843
:1000100009730008851100087FAF00080000000088
:10002000000000000000000000000000179300081E
:100030002B14000800000000FD0200085B0500080A
:10004000C7020008C7020008C7020008C70200086C
:10005000C7020008C7020008C7020008C70200085C
:10006000C7020008C7020008C7020008C70200084C
:10007000C7020008C7020008C7020008C70200083C
:10008000C7020008C7020008C7020008C70200082C
:10009000C7020008C7020008C7020008C70200081C
:1000A000C7020008C7020008C7020008C70200080C
:1000B000C1960008C7020008C7020008C70200086E
:1000C000C7020008C7020008C7020008C7020008EC
:1000D000C7020008C5A30008C7020008CDA3000896
:1000E000C7020008C702000800000000C70200089D
:1000F000C7020008C7020008C7020008C7020008BC
:10010000C7020008358A0008C7020008C7020008B5
:10011000C7020008C7020008C7020008C70200089B
:10012000C7020008C7020008C7020008C70200088B
:10013000C7020008451D0008C7020008C7020008E2
:1001400000000000000000000000000000000000AF
:10015000C7020008C7020008C7020008C70200085B
:10016000C7020008C7020008C7020008C70200084B
:10017000C7020008C7020008C7020008000000000C
:10018000C7020008C7020008C7020008C70200082B
:10019000C7020008C7020008C7020008C70200081B
:1001A00079710008C7020008C7020008C7020008EA
:1001B000C7020008C7020008C7020008C7020008FB
:1001C000C7020008C7020008C7020008C7020008EB
:1001D000C7020008B5750008C7020008C70200087A
:1001E000C7020008C7020008C7020008C7020008CB
:1001F000C7020008C7020008C7020008C7020008BB
:10020000C7020008C7020008C7020008C7020008AA
:10021000C7020008C7020008C7020008C70200089A
:10022000C7020008C7020008C7020008000000005B
:10023000C7020008C702000800000000C70200084B
:10024000C7020008C7020008C7020008C70200086A
:10025000C7020008C7020008C7020008C70200085A
:10026000C7020008C7020008C7020008C70200084A
:10027000C7020008C7020008C7020008000000000B
:10028000C7020008C7020008C702000800000000FB
:1002900000000000C7020008DFF80CD000F05AFC94
:1002A0000048004795190308E8C906240648804716
:1002B00006480047FEE7FEE7FEE7FEE7FEE7FEE74B
:1002C000FEE7FEE7FEE7FEE78993000899020008D3
:1002D0004FF00000304A1060EFF3148020F004006B
:1002E00080F3148862B64FF080504FF0E021C1F8DF
:1002F000040DBFF34F8FBFF36F8FFEE772B601B5EA
:100300002AF072FEBDE8014062B62448244A4FF04C
:100310000003016891B10360EFF3098C2CE9F00F41
:100320001EF0100F01D12CED108A1E4C4CF804ED7C
:100330002568C1F808C00DB18D61236072B61168DF
:10034000D1B1016062B64F68174C8D6907F10107A2
:100350004F60256003B42AF02BFE03BCD1F808C01F
:100360005CF804EB1EF0100F01D1BCEC108ABCE865
:10037000F00F8CF30988704772B61168016009B9F3
:1003800062B6F9E74FF000674FF0E028C8F8047D47
:1003900062B6D8E7704700006C0A0024500A0024B7
:1003A000540A0024800A0024800A0024000000006F
:1003B000026922F00702A2F144026FF00203136007
:1003C0004FF0000353609360D360136153619361F6
:1003D000D361136253629362D362136353634FF02A
:1003E000FF339363D1634FF080731364826070476F
:1003F0002249086800F101000860214B1A683AB1EF
:10040000A2F101021A601AB91E4B4FF001001860E8
:100410001D490868026822B11C4B4FF001021A60A6
:1004200008E000F104001A4B1A68904201D1194B00
:1004300018680860184B1A6812B918490868D0B1D2
:100440002DE901401649086808B12CF055FC154B00
:100450001A6872B12CF002FB1348016849B91348BD
:100460000168134A136813484FF08052994200D034
:100470000260BDE80140BFF34F8F70477C0A002443
:10048000800A0024840A0024940A0024880A002494
:10049000980A0024900A0024840A0024880A002470
:1004A000880A0024840A00246C0A0024500A0024CC
:1004B000540A002404ED00E00000000000000000E9
:1004C00078B20024E8C9062400000008FCB2002429
:1004D00000000008001000E07F1A06000000FF4046
:1004E00072B65FF824005FF8241001F10401016086
:1004F0004FF0E0205FF83010C0F8081D5FF83400BE
:100500005FF83410096801605FF83800016841F055
:10051000010101604FF0E0205FF8441041614FF0AD
:10052000070101614FF00001C0F8181D4FF07F4135
:10053000C0F81C1D5FF85C10C0F8201D7047FFF765
:10054000FEBFFFF7FEBFFFF7FEBF01B52AF0A8FC14
:100550002AF0F4FCBDE80140704701B52AF0A0FC88
:10056000FFF746FF2AF0EAFCBDE801407047FFF7BD
:10057000FEBFFFF7FEBF2DE9F05F05460020924663
:100580009B4688460646814640241BE02846414655
:100590004746224600F0B8F853465A46C01A9141E1
:1005A00010D311461846224600F09FF82D1A67EB2B
:1005B00001084F4622460120002100F096F817EB73
:1005C00000094E41201EA4F10104DFDC48463146FB
:1005D0002A464346BDE8F09F0649074A086850434B
:1005E00043F239021044086040087047014908602E
:1005F00070470000000000246D4EC64110B5441A3B
:100600000346944209D28318114403E011F8014DC6
:1006100003F8014D521EF9D210BD40EA0104A407AF
:1006200003D009E010C9121F10C3042AFAD203E054
:1006300011F8014B03F8014B521EF9D210BDD2B292
:1006400001E000F8012B491EFBD270470022F6E7BB
:1006500010B513460A4604461946FFF7F0FF204638
:1006600010BD421C10F8011B0029FBD1801A7047F5
:1006700010B5002200E0521C835C8C5CA34201D1C7
:10068000002BF8D1D8B2E1B2401A10BD30B5044603
:100690000020034600E05B1C934203D2E05CCD5C8B
:1006A000401BF8D030BD0EB540F23342029200221A
:1006B000CDE90022134600F046F803B000BD30B586
:1006C0000B46014600202022012409E021FA02F510
:1006D0009D4205D303FA02F5491B04FA02F52844AA
:1006E000151EA2F10102F1DC30BD202A04DB203A04
:1006F00000FA02F1002070479140C2F1200320FA75
:1007000003F3194390407047202A04DB203A21FA72
:1007100002F00021704721FA02F3D040C2F120021A
:10072000914008431946704710B5141E73F1000438
:1007300008DA401C41F1000192185B411A4301D1D3
:1007400020F0010010BD2DE9F04D92469B4611B1FD
:10075000B1FA81F202E0B0FA80F220329046FFF75F
:10076000C4FF04460F4640EA0A0041EA0B01534623
:100770005A46084313D0114653EA010019D0C8F174
:1007800040025046FFF7C0FF05460E465046594608
:100790004246FFF7AAFF084305D0012004E02046A7
:1007A0003946BDE8F08D0020054346EAE0762C434B
:1007B00037430A986305E40AA0EB08000022FD0A0B
:1007C00044EA47540A3002D500200146E9E7010512
:1007D00010196941DDE9084500196941BDE8F04D8E
:1007E000A2E72DE9FE4F804681EA0300C00F0C46C8
:1007F000009021F0004123F00045B8EB0200A94130
:1008000005D24046214690461C460B46024623F040
:100810000040104347D0270DC7F30A00C3F30A5125
:100820000290401A019040286BDAC3F3130040F4A1
:10083000801B0098924620B10023D2EB030A63EBA1
:100840000B0B01985946C0F140025046FFF74DFF8F
:1008500006460D4650465946019A00F08DF910EBB8
:1008600008006141002487EA115284EAE7731A43C1
:1008700040D0009A62B3019A012A4FEA075215DC70
:10088000001B61EB02014FF0004202EA0752CDE982
:100890000042001C41F5801132462B46FFF753FF02
:1008A00003B0BDE8F08F40462146F9E7001B61EB3D
:1008B0000201001C41F5801300185B412018A2F5CD
:1008C000001747EB030140EAD570B6196D4111E0FE
:1008D0006D084FEA360645EAC0754FEA0752001B1D
:1008E00061EB0201001C41F5801149084FEA30001C
:1008F0000019514132462B4603B0BDE8F04FFFF7D7
:1009000013BF0098012240000023D0EB020263EBEA
:10091000E073009821464FEAE074B8EB000061EB09
:100920000401E9E783F000435BE781F0004158E709
:100930002DE9FE4F81EA030404F0004421F0004158
:1009400000944FF0000B23F0004350EA01045ED006
:1009500052EA03045BD0C3F30A54C1F30A552C4492
:10096000A4F2F3340194A0FB0254C1F3130141F447
:100970008011C3F3130343F4801301FB024400FB13
:10098000034E840A970A44EA815447EA8357A4FB3A
:10099000076802958D0A05FB07854FEA932C04FB37
:1009A0000C542705029D4FEA065847EA1637B5EB67
:1009B00008056EEB070C870E920E47EA811742EA94
:1009C0008312A7FB0201B6EB0B0164EB00042B0DB5
:1009D00043EA0C335E1844EB1C50DA465146E7FB01
:1009E0000201C5F313044FEA0B3343EA14534FEAF1
:1009F0000432019C43EA0603A4F10C040294009C17
:100A0000CDE900B4FFF79FFE03B0BDE8F08F0020F2
:100A10000146F9E72DE9F04D81EA030404F0004BAB
:100A200021F0004514464FF0000A23F0004150EA3F
:100A3000050220D054EA01021DD0C5F30A57024630
:100A4000C5F31303C1F31300C1F30A5640F4801534
:100A500043F48013A7EB0608101BD64608F2FD38B6
:100A600073EB050002D308F1010801E092185B4125
:100A7000B8F1000F03DA00200146BDE8F08D002038
:100A80004FF48011064684460EE0171B73EB0507F2
:100A900005D3121B63EB050306434CEA010C49081E
:100AA0004FEA300092185B4150EA0107EDD152EA5B
:100AB000030012D082EA040083EA0501084305D04E
:100AC000101BAB4106D20122002306E000224FF0AA
:100AD000004302E06FF0010253101AEB06004CEBEA
:100AE000085110EB0A0041EB0B01BDE8F04DFFF798
:100AF0001BBEC1F30A52C1F3130140F2FF3341F4AC
:100B000080119A4202DA00200146704740F23343D6
:100B10009A42A2F2334202DC5242FFF7F5BDFFF7E0
:100B2000E4BD000030B5041E71F1000404DB4FF099
:100B30000044404264EB0101141E73F1000405DB24
:100B40001C464FF00043524263EB0403994208BF36
:100B5000904230BD064C074D06E0E06840F00103CE
:100B600094E8070098471034AC42F6D3FFF798FB9F
:100B70004C6A06086C6A0608202A06DBCB17203A66
:100B800041FA02F043EAE07306E041FA02F3D04092
:100B9000C2F12002914008431946704770B58C1885
:100BA00010F8015B15F0070301D110F8013B2A1181
:100BB00006D110F8012B03E010F8016B01F8016B6E
:100BC0005B1EF9D12B0705D40023521E0DD401F86A
:100BD000013BFAE710F8013BCB1A921C03E013F833
:100BE000015B01F8015B521EF9D5A142D8D3002068
:100BF00070BD06F053BB00F019FCFCE706F086FB65
:100C0000FCE700000000000088B0514C20462CF0AA
:100C1000DBFC20462CF0CEFC05F0B0F82FF094F869
:100C20000520CDE902004DA14F4A504E00234FF060
:100C3000C808012700244FF48055CDF81880059787
:100C400004940195434800904348B04704A84AA142
:100C50004D4A002380E8900107200390CDE9015020
:100C6000434800904348B04704A84AA14D4A002396
:100C700080E8900111200390CDE901504348009095
:100C80004348B04704A84AA14D4A002380E8900198
:100C90001D200390CDE90150434800904348B047E0
:100CA000484849A10022342308302CF053FA8B48DD
:100CB0008C4A9FED258BD0E900A98548D2E9002315
:100CC000D0E9000110EB0A0041EB0901871841EB64
:100CD000030B08F021FB0134C82C2FD17F48D0E949
:100CE0000058B5EB0A0068EB0901FFF7DCFC41ECAA
:100CF000190B77487B4A3C46D0E90001D2E9002332
:100D0000401941EB0801871841EB0306381B66EBDD
:100D10000B01FFF7C8FC41EC100B2A48B0EE481B52
:100D20000024AA46C146B34689EE000B80ED000BB5
:100D300090ED000BA0EE481B80ED001B01202BF076
:100D400085FAC6E700BF00BF000000000000594060
:100D500080B30024C01E0024C02E002441707020E7
:100D60004D73702050726F00F70B0008B5D3020866
:100D70001861002418710024417070205461736B55
:100D80002055736572494600D90D0008F80D0024FE
:100D9000F81D0024417070205461736B2047554941
:100DA00000000000F30B0008882F0024883F002477
:100DB000417070204E4554582050726F0000000062
:100DC000FD0B0008A00700244170705072696E741A
:100DD0006653656D7000000082B0DFF8E8B0DFF8A0
:100DE000F4A0DFF80091604CDFF880812EF08EFFD8
:100DF00016285FD8012101FA00F03049084259D085
:100E00002F4D2846D847304890ED000B2F4853EC23
:100E1000102BD8472E4ED6E90001FFF744FC06F010
:100E2000AEFE2D4806F0C8FB2C4FD7E90001FFF7B6
:100E30003AFC06F0A4FE2A4806F0BEFBD9E9000100
:100E4000FFF731FC06F09BFE274806F0B5FBD6E91C
:100E50000001D7E9002380185941D9E900238018FF
:100E60005941FFF720FC9AED001A41EC100B1F4886
:100E7000B8EE411B80EE010B53EC102BD8472846EF
:100E8000D8471BA0D84729A0D8472646D6F8A8306F
:100E9000D6E90472D6E90A01B568FB1ACDE900303B
:100EA00040467B1B00F064F8D6F88860A64218BF65
:100EB000002EEBD114202BF0C9F997E792004000E7
:100EC000AE5F0608710F0008A0070024985F0608AF
:100ED000C80A00241000002466600608C00A002426
:100EE00036600608D00A00241F6006084D60060818
:100EF00020C8CECEF1D3C5CFC8BCB620C8CECEF167
:100F0000D5BBB4F3D0A120B5B1C7B0CAB9D3C3D54E
:100F1000BB2020D7EEB4F3D5BBCAB9D3C320202061
:100F2000C8CECEF1C3FB0D0A0000000020202050E7
:100F300072696F2020202020537461636B53697A9B
:100F400065202020437572537461636B202020203C
:100F50004D6178537461636B2020205461736B6E14
:100F6000616D650D0A00000050600024F05F060806
:100F700083B0B0B5B5B0044639A80DF10B050EC06D
:100F800039ABC92122460193284631F019FB0A48A2
:100F90004FF0FF3100F1080420462CF035F907A08E
:100FA000294631F0E9FA20462CF058F935B0BDE871
:100FB000B04003B0704700BFA007002425730000B5
:100FC00070B56C4C1E4E2046266004F0EFFF0546BF
:100FD00020460021266000F035F8002D18BF0125BD
:100FE000284670BD7047000080B5624805F0ACF837
:100FF000043818BF012080BDBCB55E4902204FF403
:1010000000340F4A00234FF48045C1E90023C1E9B1
:101010000235C1E9044001218DF807108DF8071051
:101020009DF8071001290AD1524C0021204600F0FA
:1010300015F8204605F04CFA002818BF0120BCBD69
:101040000070005280B5312002F0F8FC02480168BF
:1010500021F48031016080BDD444025870B586B05F
:10106000264E0021264CB06D40F48030B065B06D46
:1010700000F4803001900198706E40F002007066BC
:10108000706E00F0020001900198706E40F0040054
:101090007066706E00F0040001900198706E40F070
:1010A00008007066706E00F00800019001980C2036
:1010B000059002200490CDE902014FF4F850019010
:1010C00001AD2046294602F07FFA0420019029460E
:1010D00004F5806002F078FA30680521002240F4BF
:1010E00080303060306820F480303060312002F091
:1010F000C5FC312002F0B4FC06B070BD7C4402583F
:10110000000802581CB514460A46014600931948C7
:10111000234605F059FB002818BF01201CBD00BF65
:1011200080B513460A460146124805F0EFFB002839
:1011300018BF012080BD00BF114804302CF02EB92B
:101140001CB514460A46014600930A48234605F09A
:101150002DFC002818BF01201CBD00BF80B5134620
:101160000A460146034805F0D1FC002818BF0120BB
:1011700080BD00BF641D0624014804302CF00EB968
:10118000D80A0024FEE70A68036893420CD14A6833
:101190004368934208D18A688368934204D1C9683E
:1011A000C068401A06F09ABC00207047F8B5164691
:1011B0000C460546570905D0BA0028462146FFF7D8
:1011C00065FA60B916F01F000BD055F8271054F8D7
:1011D0002720C0F12000514031FA00F001D000205A
:1011E000F8BD0120F8BD016819B9416809B98168E5
:1011F00009B100207047C06806F070BC02680A6040
:1012000042684A6082688A60C068C860704710B5EA
:10121000029C5B1A241A101A634393FBF0F00844F3
:1012200010BD000010B50E4C204603F054FB0D48D5
:1012300021462CF06BFB2EF025F90B480B492DF0C5
:10124000D3FA0B48016821F000610160652002F0CB
:10125000F5FB204602F03AFDBDE81040FFF7B0BEB6
:101260005064012400000840B505002469DA020832
:10127000D844025880B5082804D240B206A151F8DB
:10128000200080BD03484FF48E7100F0E9FF00207C
:1012900080BD00BFC5670608880800240000000064
:1012A000B40800240000000000000000000000005E
:1012B00000000000000000001CB504460020019062
:1012C00001212068636901AA984700283DD420685D
:1012D000636901AA01219847002836D49DF80400CB
:1012E00040075CBF01201CBD2068636901AA002182
:1012F0009847002829D40198C10408D400F48071CB
:10130000800425D40420002908BF05201CBD2068C6
:10131000636901AA11219847002816D4019800F0AA
:101320000F0108291CBF06201CBD00F47040B0F559
:10133000005F12D0B0F5004F04BF02201CBDB0F515
:10134000804F14BF052003201CBD6FF004001CBD9E
:101350000220002908BF03201CBD04201CBD2DE96C
:10136000FC41044600200190606870B1A06980478C
:101370000546A0698047401BB0F5FA6FF9D90025F2
:10138000012060602846BDE8FC81A06800B180476C
:1013900001202060236900214FF40042012098477A
:1013A000002827D42068636901AA002198470028F3
:1013B0001DD4A0698047064600254FF0010801AF03
:1013C0009DF80500000618D5A0698047801BB0F580
:1013D000FA7F07D82068636900213A4698470028B9
:1013E000EED504E06FF001054FF00008E8E76FF07C
:1013F0000405C7E76FF00305C4E75FEAC870B5D11D
:10140000C0E710B570B1CA6862B18B6853B10C699E
:1014100044B1C0E90432D1E900218461C0E902216C
:10142000002010BD4FF0FF3010BD7047A2B000F09B
:1014300021FC0DF061F900204FF4FA712FF0DCFA75
:101440000DF127040FF27C65DFF8CC76DFF8F0872A
:1014500012AEDFF8D8A6DFF8B8964FF0300B0A20AE
:101460002AF0F4FE00202EF0FDFA10B102202FF039
:1014700093F8002021462FF00BFB0028EFD02846E0
:1014800031F038FD9DF82700A0F1310111295BD81A
:10149000DFE811F012006F00B700030123014201E1
:1014A0006C006C006C006C006C006C006C006C00DC
:1014B0006C006C0065005E00DFF87C0731F01AFDFF
:1014C000DFF850060090DFF85416DFF8542606F0D7
:1014D0007AF8002840F03881DFF86007354631F0AF
:1014E00009FD0FA8009041460EA801900DA802909A
:1014F0000CA803900BA804900AA8059011AA10ABA1
:1015000038460EF0D5FA002840F0228198F8000005
:101510002E28E6D0002800F01B811198DFF83C1738
:101520004646C006DFF8380758BF0846DFF83417CC
:10153000884688471099DFF83007C0470FF22C70B3
:101540003146C047B046CCE7612808D062280DD1AB
:101550000FF2745031F0CEFCFFF764FE7FE70FF21C
:10156000845031F0C7FC07F0B3F878E700F082FB55
:1015700075E7DFF8B40631F0BDFCDFF898050090A0
:10158000DFF89815DFF8982506F01DF8002840F0E0
:10159000DB803846DFF834160EF0C4FA28B10B2889
:1015A00003D0DFF8A40531F0A5FC4FF4F0700090F3
:1015B000DFF89815DFF81426012306F00CFE18B1A9
:1015C000DFF88C0531F096FCDFF8800506F0F5FCBD
:1015D00018B1DFF8800531F08DFCDFF85056284651
:1015E000FFF73FF80246DFF8640529460EF044FB9A
:1015F000002800F092810146DFF8340630F0BCFF8D
:101600008EE1DFF80C0631F075FCDFF8080500907C
:10161000DFF80815DFF8082505F0D5FF002840F0B1
:1016200093804FF4F0700090DFF82015DFF89C25D0
:10163000002306F0D0FD18B1DFF8140531F05AFC94
:10164000DFF8080506F0B9FC18B1DFF8080531F03D
:1016500051FCDFF8C0A5DFF8F4044FF48062334694
:1016600051460EF0DBFA0546129ADFF8AC055146FA
:1016700030F082FF1DB10FF2A45031F03BFCDFF8D7
:10168000CC040EF03BFA0028DFF8A0A400F03D8166
:10169000DFF8D80431F02EFC37E1DFF8480531F0EF
:1016A00029FCDFF870040090DFF87014DFF8702474
:1016B00005F089FF002847D13846DFF8E0140EF026
:1016C000CFF90B2800F03E810146002840F04D8103
:1016D000DFF8180531F00EFC38E1DFF8BC0431F01A
:1016E00009FCDFF830040090DFF83014DFF8302414
:1016F00005F069FF40BB3846DFF8A0140EF0C4F9CE
:10170000042800F034810146002840F03381DFF8DE
:101710009C0431F0EFFB30E10FF2E03031F0EAFBF6
:101720000020B0F5004F05D00BEB502109F8001058
:101730000130F6E7DFF8DC030090DFF8E013DFF8B4
:10174000E02305F040FFC8B10146DFF8D80396E179
:10175000DFF8F0042E460FF26C35816DDFF8E804F7
:10176000002900F07481B1F5007F00F06C81B1F5C3
:10177000807F40F06E81DFF8DC0468E1DFF8A813B9
:101780000A78501C08705146304630F005FF0FF2C1
:10179000A03031464FF4006230F0EEFE384631465C
:1017A0000EF0C0F928B10B2803D0DFF89C0331F00C
:1017B000A1FB4FF4F0700090DFF890133246012344
:1017C00006F009FD18B1DFF8880331F093FBDFF86C
:1017D0007C0306F0F2FB18B1DFF8780331F08AFBE6
:1017E0004FF0000A2EF0A4FA0546BAF1400F10D0CF
:1017F000DFF8580349464FF400420EF03DFA50B965
:101800000AF1010A5FEA4A70EFD12E2031F06CFB39
:10181000EBE7002005E00FF24030314630F0ACFE3F
:10182000012007902EF084FABAF1400F06D3411B35
:1018300006F0AAF9DFF8300330F09EFEC3480EF040
:101840005DF918B1DFF8240331F054FB38460EF08F
:1018500055FA10B1C6A031F04DFBDFF828034FF464
:10186000006130F089FE4FF4F0700090B7493246C5
:10187000002306F0B0FC10B1B54831F03BFBB34893
:1018800006F09BFB10B1B34831F034FB00252EF07D
:101890004FFA04460890402D00F00B81AB484946B2
:1018A0004FF4004211AB0EF0B9F9002840F0078167
:1018B0000135680702D12E2031F016FB0020B0F56B
:1018C000004F07D019F800100BEB502201308A426C
:1018D000F5D008E0BAF1400FDDD201250DF1270463
:1018E000DFF848A207E0A9480DF12704DFF83CA281
:1018F00031F000FB01252EF01BFA35B90899411A89
:1019000006F042F9A24830F037FE38460EF0CCF926
:1019100000286CA540F0B180A1E5C64831F0EAFA94
:101920008A4868A50EF0EAF810B1904831F0E2FA62
:1019300038460EF0E3F9002800F09980B04831F005
:10194000D9FA94E0A8480B2130F016FE38469C499D
:101950000EF086F80B2800F095800146002840F034
:101960009F80A44831F0C6FA90E0A84887E08C48F0
:101970008CA100E08E4830F0FFFD38468D490EF016
:1019800083F8042805D0014630B98B4831F0B2FA0B
:1019900005E08348874900E0884830F0EDFD38468F
:1019A0007E490EF071F8042805D0014630B97F4811
:1019B00031F0A0FA05E07A48784900E07C4830F040
:1019C000DBFD38467E490EF05FF8042805D001465D
:1019D00030B97C4831F08EFA05E07148784900E072
:1019E000794830F0C9FD384678490EF0AFF8042840
:1019F00005D0014630B9764831F07CFA05E06848F8
:101A0000724900E0734830F0B7FD0025142D3FF413
:101A10007CAF304651462A4630F0BEFD384631464E
:101A20000EF094F8042803D0024630B96B4800E069
:101A30006948314630F0A0FD03E06948314630F096
:101A40009BFD0135E2E7814831F054FA804831F0DE
:101A500051FA384631460EF03BF940B9DDE9120142
:101A6000000D0B0D40EA01327B4830F085FD384611
:101A70000EF01AF900283FF4F2AC0146454830F068
:101A80007BFDECE45A480B2130F076FD384649499D
:101A90000DF0E6FF0B2805D0014640B9574845E751
:101AA0005948ECE754480B2130F066FD40E75548B3
:101AB000E5E70DF12704DFF874A0079D1BE7324826
:101AC00012E700BF0D000000A1BE62202D20436C74
:101AD0006F736555736253746F72616765A1BF0D53
:101AE00000000000A1BE61202D204F70656E55736F
:101AF0006253746F72616765A1BF0D00A1BE36208D
:101B00002D20546573745370656564A1BF0D00008A
:101B100020DA00246078012420F8052434670608C0
:101B2000910C0308D9610608707800244A670608FA
:101B3000BFAACABCD0B4CEC4BCFE25732025644B5A
:101B400042202E2E2E0D0A007666060830D0002484
:101B500084660608646606082573CEC4BCFED0B44D
:101B6000CAA7B0DC0D0A00007D6006089266060870
:101B700066785F6D656469615F666C757368CAA736
:101B8000B0DC0D00A66106084D660608BC660608B6
:101B9000AF600608F2610608EC6506082A670608C9
:101BA0003F6206082F446972310000003E65060856
:101BB000B36206081E670608256506087B620608EC
:101BC0002F67060850650608E4620608586706088D
:101BD0006265060815630608586206086A62060808
:101BE0004C6306081A6606087661060895650608BD
:101BF0008E610608A9650608576106087A65060819
:101C000042660608E1600608326106080D610608B2
:101C1000D6650608E07100240F620608B6C1C8A1A7
:101C2000CAA7B0DC0D00000003660608C00000244F
:101C300022620608BD6506082D660608E1660608EC
:101C40002CCF0024641D0624F2630608DA6406081B
:101C500035640608B3630608BC6106081767060802
:101C600010670608792503084467060820202573B5
:101C70000D0A000010B50C480C4CA0470C48A047BA
:101C80000C48A0470C48A0470CA0A04712A0A047B2
:101C900015A0A04719A0A0471EA0A04723A0214639
:101CA000BDE81040084700BF7F630608F52E030813
:101CB0007F640608A0660608BC64060833202D2051
:101CC000B6C161726D666C792E747874CEC4BCFE38
:101CD000B5C4C4DAC8DD0D0034202D20B4B4BDA8CD
:101CE000C4BFC2BC0D00000035202D20C9BEB3FD0D
:101CF000CEC4BCFEBACDC4BFC2BC0D0036202D2060
:101D0000B6C1D0B4CEC4BCFECBD9B6C8B2E2CAD438
:101D10000D00000061202D20B4F2BFAA5344BFA8DB
:101D2000C4A3C4E255C5CC0D0000000062202D20E4
:101D3000B9D8B1D55344BFA8C4A3C4E255C5CC0D8E
:101D400000000000124801F007B800BF00207047F3
:101D500001F00CBD80B50E4801F026FB002080BDCF
:101D600080B513460A460146094801F0A5FA002845
:101D700018BF4FF0FF3080BD80B513460A460146BC
:101D8000034801F0F1FB002818BF4FF0FF3080BD81
:101D9000386301242DE9FE4FD0F828C000EB8C09F0
:101DA00059F8185FEB68002B00F14C81D1F800E086
:101DB000D1F808B01EF004042AD0EB684FF6FF7685
:101DC000B3434E6A3343EB60EB6843F48033EB601C
:101DD00003681E6E46F480161E665FEA0E7617D5FF
:101DE000D1E90B68AF68C7EA0646AE60EE6846F414
:101DF0000036EE60EE6826F4402646EA0806EE60FD
:101E00005E6E46F480165E661E6D46F080661E6548
:101E10001EF01003029307D11EF0140F0FD10127FB
:101E20006646CDE9002422E0AB6843F6FF76B34373
:101E30008E693343AB60EB6843F08063EB60EB6823
:101E40000CF1010643F08043EB60032EEB6843F096
:101E50000043EB6088BFACF1030600EB86039D698D
:101E6000EB68B3F1FF3F1DDDCDE900240227DBE97C
:101E70000032DBF808A02B6043F6FF78AB6823EA5A
:101E800008031A43794BAA60BAF1000F11D01C461F
:101E9000DAF80020DAF804306A60AA68224042EAE0
:101EA00003430BE0D9F80000C16821F00041C16094
:101EB000C8E000226A60DA46AA681340AB606C4C46
:101EC000EA68029BCBB947F6FF739A434B681A4303
:101ED000EA605FEACE72DDF8048005D04A69EB68FB
:101EE00023F440331A43EA605FEA8E6217D50A6929
:101EF000EB6823F040631A4310E0D1E9078322F432
:101F0000F00242EAC342EA60EA68224042EA08027A
:101F1000EA60EA68DDF8048042F48022EA60B8F101
:101F2000000F05D08A6AAB6823F440431A43AA60C5
:101F3000EA6842F00052EA60EA6822F08042EA6011
:101F4000EA6842F00042EA605FEA8E7205D5CA682C
:101F5000EB6823F060731A43EA600EF0010EDAF8C2
:101F60000820002A71D0EB6823F08053EB60731CCB
:101F7000032B88BFF31E00EB8305AD69EE6826F0E6
:101F80000056EE60EE68B6F1FF3F59DDD2E9006B16
:101F9000D2F808A02E60A04643F6FF74AE68A643B0
:101FA000BAF1000F46EA0B06AE6008D0DAE9002667
:101FB0006A602E4CAA68224042EA064605E00024E8
:101FC0006C609246AE68294C2640AE60EA68029C7E
:101FD0007CB947F6FF744E68A24344463243EA6038
:101FE000BEF1000F0FD04A69EE6826F44036324346
:101FF00008E002EA0802CE6944463243EA60EA6831
:1020000042F48022EA60EA6801371E4642F000424C
:10201000EA60EA6822F08042EA60A0E7D9F800109E
:10202000CA6822F00042CA600CF10101032988BF8E
:10203000ACF1030100EB81028C4602F11809013F6B
:10204000002FEBD10220BDE8FE8FA968009A21F095
:102050000041002A18BF01F10041A9608662E868CA
:1020600040F08050E8600020BDE8FE8FFFFF00C018
:102070000000FCFF10B500684FF4805247F60204E0
:102080008358A3430C682343835000F580504DF2DE
:1020900001040A798B6843EA02320B7B42EAC332BD
:1020A0004368A343134C1A4342604A7B0B6A43EADA
:1020B0000242D0F8003123400F4C1A43C0F80021EF
:1020C0000A7D0B6943EA02124B7F42EA0332D0F8E1
:1020D000043123401A43C0F80421084BD0F80821EA
:1020E0001A400B7F896941EAC3711143C0F8081196
:1020F00010BD00BF00C0FEFFEFEFC0FFFFFFC07FBD
:10210000B0B58A680B681A430B7942EAC3620B7B4D
:1021100042EAC3524B7B42EA83528B7B42EA4352F0
:10212000CB7B42EA03520B7C002B08BF42F4002217
:102130004B7C002B08BF42F40032D1E905341A432E
:102140008B7C42EA03420B7F2243434C42EA033238
:102150004B7F42EAC3228B7F002B08BF42F4806290
:10216000CB7F42EA43224B6A1A4391F82030002B7E
:1021700008BF42F48072CB6A00681A4391F8283095
:1021800042EA0312036823401A43026091F8383090
:10219000CA6B91F8314091F832501B0643EA426213
:1021A00091F8303042EA83424B6B42EA44422B4C76
:1021B0001A43002D08BF42F480324368234040F2A6
:1021C0000F141A43426091F840204B6C43EA0222FC
:1021D000C368A3434FF60D741A43C26091F85420AC
:1021E0000B6D43EA420291F84C30002B08BF42F0DD
:1021F00080028B6C42EA0342036F23401A4302675A
:10220000D0F8902091F8553091F8564022F0030212
:1022100044EA43031A43C0F89020D0F8002D8B6D98
:1022200022F072021A43C0F8002D91F86020CB6DA5
:10223000002A08BF43F0400391F8612091F8621032
:1022400043EA021242EAC101D0F8302D22F07B02AB
:102250001143C0F8301DB0BD838004000080F8C079
:1022600001B1FEE770470000F0B5B3F5804F0FD124
:1022700050F82230094C234091E8F000896923434B
:1022800043EA051343EA0623194341EA074101E003
:102290006FF0704140F822100020F0BD0000F0CF38
:1022A0002DE9F0410A6801F1080750F8223023F0C7
:1022B000010340F82230D1E900C3F0CFD1E9062E66
:1022C0002343082C08BF43F040032B4333433B43D5
:1022D00001F120071A434EEA020EF8CFD1E90D288A
:1022E00043EA0E032343104C2B4333433B431A432F
:1022F00050F82C3042EA080223401A4340F82C20C0
:102300000A6BB2F5801F05D10A684AB1026842F42F
:10231000801202600A681AB1496B026811430160B9
:102320000020BDE8F08100BF8004C0FF2DE9F04728
:1023300000EB8203694DAA46D3F80480D1E9042E4C
:10234000D1E90096D1E9027C8C6905EB025208F0D4
:10235000404545EA090545EA061545EA072545EAE7
:102360000C452A4322430EF1FE0442EA04625A60FD
:102370000268D2020BD54268096922F470020AEBA6
:1023800001511143426822F4700211434160002060
:10239000BDE8F0872DE9F0410B680268C3B101F197
:1023A0001C0522F4F8420E1D38CD1A4347F6FF7380
:1023B00022432A43026042689A4378CE1A434B690B
:1023C000896922432A4332431A431143416017E08B
:1023D0000F1D47F6FF73D1F8208022EA030CD1E9E4
:1023E000062E496AF8CF43EA0C0323432B433343B9
:1023F0003B431A4342EA0E0242EA080211430160DB
:102400000020BDE8F081426943F6FE739A4342EA38
:102410004101416100207047B0B591E81C006FF0A8
:102420001F05C96805EB441405696FF315052A43B8
:102430001A43224342EA412101610020B0BD00005D
:10244000F0B5836822B3234A234D4C696FF00F0720
:102450001A40CB6805EB03331A43204B03EB0453BC
:102460001A438260C26891E838000E69896902F0F7
:102470007042013B07EB0414013905F0CAFD1A4311
:10248000174B03EB06431A4342EA0161C1601EE0A9
:1024900091E874006FF00F0703F07043013A07EB07
:1024A000041405F0B6FD0E4C1A430B4B03EB063338
:1024B0001A430B6904EB0343084C1A434B698969BF
:1024C000013904EB03531A4342EA016181600020A1
:1024D000F0BD00BFFF0F0FFF00F0FFFF0000F0FF97
:1024E0000000FFFF6C480121A0F80710704700BFF3
:1024F000E0B50DF10701A320012200F005F89DF8D9
:102500000700654988718CBD2DE9F04190460C4665
:1025100006462FF009FAF14F7020B847F04DA84752
:10252000F0B2B847A8472FF0FFF97120B847A84785
:10253000A8F101050026F7B22FF0B0F9BD42E05531
:1025400003DD2FF06DF90136F5E72FF097F9BDE8BF
:10255000F0412FF0FBB900BF2DE9F04389B0DFF85F
:10256000389199F80700002800F08C8099F808004D
:102570000A28C0F08780002589F8085007F03AFB48
:1025800000285BD00DF103080020212289F80150BA
:102590004146FFF7B9FF4FF0000C002189F80950C0
:1025A0000A2D23D005EB450208EB02035A79EF2AE6
:1025B0001CD802F00F00DC781E799B7909EB050727
:1025C000013189F809101209023543EA0020B88266
:1025D000A30904F00F0046EA0020788109EB0C0003
:1025E0000CF1010C80F823308277D9E799F80600C6
:1025F0000A2810D055280ED1B9F80A40B4F5877FC3
:1026000088BF40F20F14B9F81450B5F5EF7F88BFBA
:1026100040F2DF150DE0B9F8144040F21F35B4F573
:10262000EF7F88BF40F2DF14B9F80A00A84238BF34
:10263000054699F80000D0B102201BE099F800008F
:1026400001281FD199F80100013089F80100C0B2BA
:10265000032817D30020B9F80420B9F80210A9F80C
:102660000000032009B0BDE8F04307F0DFBA012005
:1026700089F800002946224607F0D8FAA9F8044054
:10268000A9F8025009B0BDE8F08300BF0248017A02
:1026900001310172704700BFE00800241CB58E4C68
:1026A00000200C496A22E07140F2A26000F0F2F8CA
:1026B000207ABA2803D10948019001A902E06946AD
:1026C0000548009040F2DD60042200F0E3F80120AC
:1026D000E0801CBDC006002458020004E001200375
:1026E0002DE9F84391460C4606462FF01DF9DFF818
:1026F000E881D94F98F80800B847D84DA847072077
:10270000B847A847F0B2B847A8472FF00DF998F896
:1027100008000130C0B2B847A847A9F1010500265A
:10272000F7B22FF0BBF8BD42E05503DD2FF078F88B
:102730000136F5E72FF0A2F8BDE8F8432FF006B90F
:1027400070B58CB0644DA879002800F09A80E879C3
:102750001428C0F0968000206C46E871012240F2F7
:1027600021702146FFF7BCFF9DF80000C0070DD186
:102770002878012840F085800020AA886988287080
:1027800003200CB0BDE8704007F050BA611C40F265
:1027900022702122FFF7A4FF9DF80B109DF8112055
:1027A0009DF81830BDF800009DF81B60A975BDF8B4
:1027B0000410A5F809009DF8060085F82260287429
:1027C000BDF8020009BA0C0CEC81BDF8071000BA84
:1027D000000CA88109BA090C6982BDF8091009BA70
:1027E000090CA982BDF80C1009BA090C2983BDF89F
:1027F0000E1009BA090C69839DF8101029779DF80D
:10280000201085F8281043EA0221E983BDF8191049
:1028100009BA090C2984BDF81C1009BA090CA9844D
:10282000BDF81E1009BA090CE984297ABA290ED11B
:1028300040F2DF110E1AB0B2B0F5F07F28BF4FF4AE
:10284000F076B4F5487F28BF4FF448740DE040F2AD
:1028500057210E1AB0B2B0F5167F28BF4FF4167686
:10286000B4F5806F28BF4FF48064287808B1022047
:1028700001E001202870B2B2214607F0D7F9AE80FE
:102880006C800CB070BD00BF1348C1790131C171BB
:10289000704700BF2DE9F04114460D4680462FF0E9
:1028A00043F80D486C4F007AB8476C4EB04706208D
:1028B000B847B0475FFA88F0B847B0473CB115F861
:1028C000010B2FF009F82FF04FF8013CF6E7BDE8B7
:1028D000F0412FF03BB800BF08090024D9180308C5
:1028E0006919030810B5614C0020E07132202DF009
:1028F000F9F80120E08010BDE0B501A948F24010D0
:10290000042200F013F801988CBDBCB50C460546B6
:1029100001A948F24800042200F008F8BDF80400BC
:102920002880BDF806002080BCBD00002DE9F843DA
:1029300091460C4606462EF0F7FFDFF83081464FF1
:1029400098F80800B847454DA847300AB847A84747
:10295000F0B2B847A8472EF0E7FF98F8080001301A
:10296000C0B2B847A847A9F101050026F7B22EF07A
:1029700095FFBD42E05503DD2EF052FF0136F5E72D
:102980002EF07CFFBDE8F8432EF0E0BF70B58CB0B0
:10299000364EB07900285CD0F0790A2859D36946C0
:1029A00048F24E1001220024F471FFF7BFFF9DF89A
:1029B000000098B3694648F24E1008227470FFF781
:1029C000B5FF2EF0B1FF307A234CA047234DA84726
:1029D0008120A047A8474E20A047A8470020A04735
:1029E000A8472EF0B3FFBDF80440BDF80000BDF8C5
:1029F000061040F21F35A6F80900BDF80200F48168
:102A00003182B4F5EF7FB08188BF40F2DF14A84275
:102A100038BF05463078A0B1022014E03078012894
:102A200017D1707801307070C0B2022811D3002025
:102A3000B2887188308003200CB0BDE8704007F088
:102A4000F5B8012030702946224607F0EFF8B4802F
:102A500075800CB070BD00BFD91803086919030850
:102A60000248C1790131C171704700BF32090024A9
:102A70002DF038B8F0B5416CB1B3026C836C4FF0F7
:102A80008075002B18BF013100EB82044B1EE66AF3
:102A90000024A14220D037693760F56077692FB1F3
:102AA0007769B760F76847F00077F760F76847F035
:102AB0000047F760C76C1FB1F76847F08047F760C1
:102AC0009C4207D2571C032F88BFD71E00EB8702FA
:102AD000D66A3A460134DCE7016841F228128E508A
:102AE0000021C0E9111100E001210846F0BD704746
:102AF0000AB1042902D30121C16514E000EB810071
:102B0000C06A02600261C16841F08071C1602BB18E
:102B100083604361C16841F00071C160C16841F0E8
:102B20000041C160002108467047704702460120FD
:102B3000002900F0B3801268136803F00C03CB6225
:102B40001368C3F3001381F82830136803F060039F
:102B50004B62136820EA132381F820301368C3F313
:102B60004023CB77136820EA93238B771368C3F352
:102B7000C0234B771368C3F300330B77136803F458
:102B800000538B61136803F480434B611368C3F3F4
:102B900000438B74136820EA53434B74136820EA94
:102BA000D3430B741368C3F30053CB731368C3F39D
:102BB00040538B731368C3F380534B731368C3F391
:102BC000C0530B73136803F0E0638B601368C3F3A7
:102BD000C0630B71136803F0E0430B6053686FF33D
:102BE0009F334B63536820EA134381F832305368B4
:102BF000C3F3404381F831305368C3F3804381F815
:102C000030305368C3F3006381F838305368C3F33E
:102C10004463CB63D368C3F3002381F84030D368A7
:102C200003F00F034B64136FC3F3400381F8543078
:102C3000136FDB43DBB2DB0981F84C30136F03F019
:102C400070030B65136F1B0C8B64D2F8903003F08C
:102C5000010381F85630D2F89030C3F3400381F875
:102C60005530D2F8003D03F072038B65D2F8303D49
:102C700003F02303CB65D2F8303DC3F3C00381F8E2
:102C80006230D2F8303DC3F3001381F86130D2F8DE
:102C9000302D20EA921081F860000020704770B556
:102CA0000546A9B3686C0C4620B9284600F012FA14
:102CB000A0B3686C01382A6C002305EB8201C96A55
:102CC000A0B10B6923606B6963604E691EB1A46893
:102CD00063604B692360561C032E88BFD61EA46810
:102CE000CB68324601386FF3DF33E6E7C8680A691C
:102CF00022606FF3DF306A69C01A90420BD94B69CA
:102D000063B16260801AA26850604869106003E095
:102D10000120E86570BD6060002070BD012070BDBD
:102D200070B50546D0E910600C4620B9284600F081
:102D3000D1F970B1686C3044411E032988BF411F2E
:102D400005EB8100C06AC0686FF3DF3020600020AF
:102D500070BD012070BD000070B5044600684FF4DE
:102D60008B5641F23415815949060CD54119096831
:102D7000490608D5204600F0C9FA20684FF48B5167
:102D800048F2400242508159C9070CD041190968E4
:102D9000C90708D0204600F0D9FB20684FF48B51BA
:102DA00048F2010242504FF48B514158490422D558
:102DB00041F2341101440A6852041CD5E06D40F020
:102DC0000800E065CA6AC86AD20406D400F4CD409F
:102DD00020664FF4CD40C86209E041F20212104073
:102DE0002066086820F440400860E02060652046C6
:102DF000FFF77DFE2068D0F8B01001F4C041B1F5B6
:102E0000C04F0AD1D0F8B8006066E0206065204667
:102E100000F0D8F9002060662068D0F8B010C9062C
:102E20000AD5D0F8C00000F06000A066204600F08F
:102E300041FA0020A0662068D0F8B010890609D5B4
:102E4000D0F8C00000F00F00E0662046FFF76DFEEE
:102E50000020E06606480168490258BF70BD4FF483
:102E6000800101602046BDE8704000F07BBB00BFE0
:102E7000A80000582DE9F041A2B080B30446406D8F
:102E800010B9204600F0A0F923206065874801684A
:102E900041F002010160006800F002000990099809
:102EA000207A002818BF0120C00503F0B3FE206877
:102EB0004FF48056815941F00101815100F056FCD8
:102EC000054620688159C9070BD000F04FFC401B14
:102ED000B0F5FA7FF5D90420E065E02060650125B2
:102EE000DFE0D0F8005202F039FC7149714B421812
:102EF00025F470619A4202D841F4007115E06E4ADF
:102F00006E4B02449A4202D841F440710DE06C4A83
:102F10006C4B02449A4208D36B4A10446B4A90426D
:102F20008CBF41F4806141F480712068C0F80012C8
:102F300002F014FC6649002601254FF00208B0FBA0
:102F4000F1F021680138C1F8DC0040F20110ADF861
:102F5000320012968DF843608DF856508DF8285047
:102F60008DF884508DF84C60ADF8856018968DF81A
:102F70005C608DF830601D96ADF84060ADF835505E
:102F80000B9614961B968DF87A608DF864608DF818
:102F90004250ADF854608DF844508DF83160ADF872
:102FA00078601A968DF870508DF83450CDF87C808A
:102FB0004FF400500F904FF4C360169020202090E3
:102FC0004FF0405009904FF480400E9009A92046E0
:102FD000FFF796F84FF400104FF406710891069031
:102FE000049002958DF804500096ADF80C608DF8B1
:102FF0001460ADF81C6069462046FFF73BF827686F
:103000004FF4885160697A5868F394427A50810786
:1030100003D0E565E020606543E007F5885547F695
:10302000FE72A9689143002241EA4000A86004F1C1
:103030001801E068602A07D08318865018325E6055
:103040009E60DE6008C1F5E70321E9626861002245
:103050000021A162286204F12C002669602A09D0AF
:10306000B318B150183259609960C3E90411D9609E
:1030700008C0F3E704F13C001421FDF7E7FA032050
:103080002863EE6106F14800A86200256068818827
:10309000C7F800130068C7F80403E56510206065F1
:1030A000A065284622B0BDE8F08100BFF444025874
:1030B00000D3CEFEBFE1E40040F1E9FD3F787D01A1
:1030C00000796CFC005A6202001F0AFA7FF0FA02D3
:1030D00040420F00F0B5416C09B1002170E0C36BB4
:1030E00000240022002100EB8305ED6AEE68002E2B
:1030F00015D4032C13D8EE68F6003ED4ED6815F015
:10310000005518BF19464FF0010508BF551C5A1C41
:10311000032A88BFDA1E134601342A46E3E7002A51
:103120004BD0C0E90F3100EB810300244FF0807CCD
:10313000DD6A531EA2423CD0D5E904672E60C5F873
:103140000CC027B1AF60EE6846F00076EE60EE6826
:1031500046F00046EE60C66C1EB1EE6846F0804652
:10316000EE609C4207D24E1C032E88BFCE1E00EBA1
:103170008601CD6A31460134DCE7002A08BF1946D2
:103180005C1C032C88BFDC1E00EB84030132DB6A6D
:10319000DD68002D09D4DB685B0006D5012383645C
:1031A000631C032B88BFE31E1C46C0E90F410121AD
:1031B00005E0016841F228128D500022002142648E
:1031C0000846F0BD7047000070B586B03648374CF1
:1031D000374E016841F400410160016801F400418B
:1031E00001910199016841F480310160016801F4A5
:1031F000803101910199016841F400310160016859
:1032000001F4003101910199816841F0010181606F
:10321000816801F0010101910199816841F0020189
:103220008160816801F0020101910199816841F09A
:1032300004018160816801F00401019101998168B4
:1032400041F040018160806800F0400001900198E9
:1032500001200490862001900B200590002003900F
:103260000220029001AD20462946B0474FF400509D
:103270000190294604F58060B0473220019029462C
:1032800004F50060B0474FF420500190294604F542
:10329000C050B0473D200021002200F0EFFB3D2050
:1032A00000F0DEFB06B070BDD844025800000258A2
:1032B000C93500087047000070B5054600681C4617
:1032C000D0F80032DB0718D14905D0F80032BA4EE9
:1032D000334041EA024119430D31C0F8001200F0B9
:1032E00045FA06462868D0F80012C90707D000F052
:1032F0003DFA801BB0F57A7FF4D9012070BDD0F87B
:10330000040280B22060002070BD00BF94480169B3
:1033100041F00102026101B17047006821F096B8E6
:1033200080B531B1826D102A03D1FEF7A3FE0020D3
:1033300080BD012080BD80B531B1826D102A03D1DE
:10334000FEF7DEFE002080BD012080BD41B370B5D8
:10335000CE780B780A794C788D7843EA460343EAB5
:1033600082020B7A42EAC3024B7942EA03124B7A99
:10337000002B08BF42F02002CB79006842EA03220A
:103380008B79C96842EA4322064B42EA85221143FF
:10339000826841EAC4711A4011438160002070BD07
:1033A0000120704700F8FF7FB0B504460068D0F8F0
:1033B000005202F0D3F91249124B421825F4706101
:1033C0009A4202D841F4007115E00F4A0F4B0244B3
:1033D0009A4202D841F440710DE00D4A0D4B02446F
:1033E0009A4208D30C4A10440C4A90428CBF41F4D4
:1033F000806141F480712068C0F80012B0BD00BF48
:1034000000D3CEFEBFE1E40040F1E9FD3F787D014D
:1034100000796CFC005A6202001F0AFA7FF0FA027F
:1034200010B5416D10291CBF012010BD232141653D
:10343000002200F12C01042A07D051F82230013279
:10344000DC6844F08044DC60F5E704F051F94DF2AB
:10345000410304F0F1FD0A6B1A430A631021416530
:103460000121C16422218165002010BD416DB1B1EF
:103470002321416541F2041201688B5823F00103B6
:103480008B500A44536823F001035360734604F0E1
:10349000DCFB9E46102141658165002070470120BC
:1034A00070472DE9F843044661B1606D10280DD1D5
:1034B000154620460022FEF76DFC50B1E06D40F04D
:1034C000020002E0E06D40F00100E0650120BDE88F
:1034D000F883A16A04F1180220684B1C52F821708D
:1034E000032B88BFCB1EA36252F823104FF48952DE
:1034F000815000F03BF981464FF48B586E1CF86800
:10350000B0F1FF3F13DC206850F80810C90411D453
:10351000002EF4D000F02AF9A0EB0900A84201D84F
:10352000002DECD1E06D40F00400E0650AE00020E1
:10353000BDE8F883E16D00F58B5041F00801E165CD
:1035400000682066E0206065C0E70000044801696B
:1035500041F00402026101B17047006820F076BFBB
:103560000002043070470000B0B504460068D0F88F
:103570000052ED071AD10F4D9BB24905D0F8000259
:1035800041EA02416B600C4B18400843053028604B
:1035900000F0ECF805462068D0F80002C00707D01C
:1035A00000F0E4F8401BB0F57A7FF4D90120B0BDFB
:1035B0000020B0BD00820240F2FF00FC014804F090
:1035C0000DBE00BF200400582DE9FC4F5C4A0A24C0
:1035D0004FF0000A4FF0000990425A4A08BF0924F0
:1035E00002444FEAB223092B38BF4FEAB2240094B9
:1035F00000220E6836FA02F700F0A080012303FAD9
:1036000002F716EA070B00F09380D1F804E00323D9
:103610000EF0030CACF10105012D13D803FA09F5E6
:103620008468CB68AC4303FA09F36FEA05082343C7
:103630008360CEF300134468BC4393405700234398
:1036400043600BE003FA09F3BCF1030F4F466FEA46
:10365000030803D14F464FF0030C20E0C3688C6889
:1036600003EA0803BC402343C360BCF1020F16D138
:103670000AF01C030F2404FA03FC6FF0030404EAAD
:10368000520505442C6A24EA0C0C0C6904FA03F375
:1036900043EA0C032B62D1F804E00EF0030C04683B
:1036A0000CFA07F304EA0804234303601EF4403FC6
:1036B0003ED0264C264E236843F002032360236845
:1036C0000F2403F002030193019D0AF00C0322F082
:1036D00003059C40AF5927EA0404009F07FA03F34F
:1036E0002343AB514FF0B04633684D6843EA0B04B7
:1036F000EF0258BF23EA0B043460134EAF02336865
:1037000043EA0B0458BF23EA0B043460AF03D6F836
:10371000803043EA0B0458BF23EA0B04C6F880400C
:10372000ED03F36F43EA0B0458BF23EA0B04F4677D
:103730000AF1040A09F1020901325AE7BDE8FC8FD7
:10374000002402580000FEA704000058F444025868
:1037500008040058002A08BF09048161704700006E
:1037600001480068000C70470010005C0D480068BC
:10377000B0B122480068800B68B100BF013800BFBB
:1037800000BF00BF00BF00BF00BF00BF00BF00BF41
:1037900000BF00BFF0E704490868013008607047C7
:1037A00029F012BA88050024E075002480B50320B2
:1037B00000F08AF902F008F80E490F4B0A68096810
:1037C00001F00F01C2F30322595C9A5C01F01F0162
:1037D00002F01F02D040094A1060C8400849086042
:1037E0000F2000F00FF808B1012080BD00F024F98F
:1037F000002080BD18440258962F030810000024B2
:103800001400002400207047F8B504F098FB0AD09B
:1038100004F099FE04F0A2FB20684762002084F8BF
:10382000A00084F8A170F8BD704770B50446006828
:10383000866B456B710711D569070FD5416B21F078
:10384000040141630421C163D4F8A40040F00100E5
:10385000C4F8A40004F097FBFFF7E6FFB00717D504
:10386000A80715D52068416B21F0020141630221B0
:10387000C163D4F8A40040F00200C4F8A400002002
:1038800084F8A000042084F8A1002046FFF7CCFFB4
:10389000F0070CD0E8070AD02068416B21F0010145
:1038A00041630121C16304F06EFB00F081F8300731
:1038B00001D5280700D470BD2068416B21F00801B4
:1038C00041630821C163002084F8A000012084F82E
:1038D000A1002046BDE8704000F06CB8002863D01D
:1038E000B0B5044690F8A10028B9002084F8A000E3
:1038F000204600F05EF8022084F8A10094E80F0052
:1039000011438569194325F070458561226911438A
:10391000826911438161826824490A408260D4E946
:10392000052343EA024283681A438260C2680A4060
:10393000C260C268D4E9073545EA03431A43C2604E
:1039400002690A4002610269D4E9093545EA034384
:103950001A4302614269114041614169D4E90B2374
:1039600043EA024211434161C16A01F07F41C162F1
:1039700094F8362094F83510120442EA012194F8A4
:1039800034201144C26A1143C162416B41F0060107
:103990004163816941F0010181610020C4F8A40004
:1039A000012184F8A110B0BD0120704700F800F09B
:1039B00070477047704700000278114943780B60E8
:1039C000D2B143684B60037B42EA0372C37A42EA96
:1039D0000362837A42EAC342437B42EA8342837BA7
:1039E00042EA4342C37B42EA0342437A007A42EA14
:1039F000032242EA400001E00020486088607047EE
:103A000098ED00E00B48BFF35F8F016821F480312F
:103A10000160002101677047064940F00100086716
:103A2000086840F480300860BFF34F8FBFF36F8F9A
:103A3000704700BF24ED00E07047000000280CD460
:103A400000F01F010122400902FA01F1034A42F885
:103A50002010BFF34F8FBFF36F8F704780E100E0FE
:103A6000002808D400F01F010122400902FA01F1E8
:103A7000014A42F82010704700E100E0F0B5184B11
:103A80004FF0FF361C68C4F30224E51E84F00704DF
:103A900038BF002506FA05F7BA43042C28BF0424D2
:103AA00006FA04F4A14300F00F04A940043C1143BA
:103AB0002344044A09010C33B0F1FF3FC8BF831807
:103AC0001970F0BD00E400E005494FF6FF030A68F5
:103AD0001A4060F30A22034810430860704700BF91
:103AE0000CED00E00000FA0501688A6942F000620E
:103AF0008A610122C0F80025002280F8F424486D74
:103B0000024A104348650020704700BF03000010C0
:103B10007047006841620020704770B50068436AD2
:103B2000B1B1846A0139002503EB1443CCB2A5423C
:103B300007D200EB85060135D6F8046103EB164386
:103B4000F5E700EB810043EA0241C0F8041102E00E
:103B500043EA02418162002070BD00006D480068A8
:103B6000D0F8801109B1F12008477047F8B5694ACB
:103B700003F077FF02EB800675680AD0686F6A6B06
:103B800030B300202AB3E863686720460022002390
:103B900019E016F80C0F01283FD120460021002221
:103BA0000023AF6A00F050F9398AE86B88421BD9CC
:103BB000431A2A6B8B420A442A6388BF0B46B97B9F
:103BC000C01AE863204601B0BDE8F04000F08DB9AE
:103BD0001046A863022028620020686405F15000A6
:103BE000BDE8F8402BF0D2BE686F012808D1B97B40
:103BF000204600220023002600F077F96E67F8BD0A
:103C000002202862E96C00206864686BA86311B127
:103C100005F12000884704203070F8BD2DE9F843F5
:103C20003C4A03F01EFF02EB80077E680DD0204661
:103C300000F0DAF8B063022000213062716406F10E
:103C40005000BDE8F8432BF0A1BE3D4615F80C0F1F
:103C500002282ED12046002106F12008D6F828900F
:103C600000F0C2F80346D6E90D011944B163814260
:103C700007D92720F16C7064D9B14046BDE8F843FC
:103C800008470ED0B9F8100083420AD1306B99F87A
:103C90000E10C2183263204601B0BDE8F04300F0B8
:103CA000D3B8002070648020B87340462AF002FF29
:103CB00008B1BDE8F883032028700021002200230A
:103CC000204601B0BDE8F04300F00FB910B538B19F
:103CD0000446032084F8BD04206807F09BF808B16F
:103CE000012010BD204600F04EFD002084F8BD04E8
:103CF00010BD000010B5074C2068D0F8801111B13C
:103D0000F22088472068006A18B1BDE810402BF007
:103D10009FB810BD50B8002401F00F02090602EB55
:103D2000C20200EB820303F13C0258BF03F51F728D
:103D30000068114606F0E0BE10B5044601F00F0021
:103D400004F01CFC5DBF002281F87D2201F51F718B
:103D5000012244BF81F83D203C31087094F8BC0436
:103D6000012804BF022010BD04F032FB06F06EFCF7
:103D700004F06BB9B0B5044601F00F0062689042E0
:103D800001D901251BE004F0F9FB5DBF002281F899
:103D90007D2201F51F71012244BF81F83D203C3195
:103DA000087000258D7094F8BC04012801D102250B
:103DB00005E004F00DFB06F08BFD84F8BC542846AA
:103DC000B0BD10B503F050FF04BF022010BD04F0D9
:103DD000FFFA0A0602D406F0CBFE03E001F00F0161
:103DE00006F0E6FE04F031B901F00F0101EBC1016C
:103DF00000EB8100D0F890027047B0B5044601F0A6
:103E00000F0004F0BBFB5DBF002581F87D5201F57A
:103E10001F71012544BF81F83D503C318A600B7110
:103E200008704A7802B14883022B01D10020487102
:103E300094F8BC04012804BF0220B0BD04F0C8FA05
:103E400006F05AFB04F02ABBB0B501F00F010025C3
:103E500001EBC10400EB840404F5227784F87C12A2
:103E600084F87D5204F51F712CC7C368012B08BF6D
:103E7000C4F89822DAB2006806F06CFD0020B0BDEC
:103E8000B0B5044601F00F054068854284BF0120AB
:103E9000B0BD080609D401EBC100002104EB80008D
:103EA00080F87D1200F51F7108E005EBC5000121C7
:103EB00004EB800080F83D1000F13C0194F8BC2434
:103EC00001200D708870012A04BF0220B0BD84F863
:103ED000BC04206806F023FD2DB9217B206804F284
:103EE000C44206F0C9FC04F0D9BAB0B501F00F0520
:103EF00005EBC50100EB8104214601F83C5F01F1AF
:103F00000C0700252CC701234B70C368012B08BF89
:103F1000A265DAB2006806F01DFD0020B0BD000009
:103F20002DE9F04F89B005688246284606F070FEFC
:103F300010B109B0BDE8F08F03F0F1FB0028F8D014
:103F4000D5F80808C0F30D20CAF8FC0403F0E7FB1D
:103F50000146DAF80000890703D5416901F0020142
:103F6000416105F50061049106F07EFE0146DAF834
:103F700000000595C9063BD5816921F010018161DA
:103F80002C6A04F00F05C4F34340062818D0022819
:103F900027D147F6F07014EA000622D005EBC500E1
:103FA000340922460AEB80070598D7F8881206F0F4
:103FB0005FFED7F8880200EB1610C7F8880207E00A
:103FC0000AF2C4410598082206F052FEC4F30A140E
:103FD00005EBC5000AEB8000D0F890122144C0F830
:103FE0009012DAF80000816941F010018161059DAD
:103FF00006F03AFE00030DD403F091FB4003049E4B
:1040000000F1E18003F08BFB002800F1A681DAF8D3
:104010000000BAE1DAF8000006F005FE06460AF5EF
:1040200027744FF430684FF0000B0AF2C440089038
:10403000002EE1D0F00700F0B8805FFA8BF9DAF8D3
:104040000000494606F008FE0746C0075CD005EBB5
:10405000080001218160DAF8000008EB0001036C20
:104060008A68DAF80C50012D24D115072FD4950653
:1040700047D412F0280F059D46D1AC46DD4DAB422A
:1040800002D9120400F198802268096965466FF32D
:10409000DF41511A44F80C1CB8F5306F2CD1DAF816
:1040A0008C22002A00F08D80DAF888020844CAF8D1
:1040B000880221E0CF4D05F58075AB4211D1100487
:1040C000059D0AD4900617D52020886014E0C948C1
:1040D000059D834218D9100416D54FF4004088601E
:1040E00012E0B8F5306F059D06D1DAF88C1219B9D7
:1040F0000021089A06F0C0FB50464946FFF78EFDA6
:1041000002E020208860059D380722D505EB0800D5
:104110000821B84B8160DAF8001008EB01000A6C46
:1041200081689A4212D9090402D54FF40041816096
:10413000504600F061FBDAF80C00012809D1DAF8EA
:1041400000000121089A06F097FB02E0504600F0BB
:1041500053FBF80603D505EB080010218160B80772
:1041600016D56869000604D50499486840F4806053
:10417000486014F81D0C012806D1002004F81D0C1D
:104180004946504600F05CFA05EB080002218160C8
:10419000B80603D505EB080020218160B80404D5DA
:1041A00005EB08004FF400518160243408F1200829
:1041B00076080BF1010B3BE74FF400408860654641
:1041C000A2E7012195E7DAF8000006F025FD074691
:1041D0000AF2C4400022029005F510600690002FFC
:1041E0003FF410AFF80700F0B580D1B2DAF8000064
:1041F0000792089106F01EFD0446C00727D0079BD2
:104200000122716B03F00F0002FA00F021EA0000B6
:104210007063069800EB43108260DAF80C00012806
:1042200011D103EBC3000AEB8000D0E91112114455
:10423000816443B9DAF84C0028B9DAF800000121AA
:10424000029A06F019FB50460899FFF78FFC2007E9
:10425000079A04D50698082100EB42108160E00619
:1042600004D50698102100EB42108160600604D549
:104270000698402100EB42108160A00718D528461F
:10428000114606F095FC079A02EBC2000AEB80008B
:1042900010F83F1F012906D10021017050460899EE
:1042A00000F0CDF9079A0698022100EB42108160D8
:1042B00020064FD502EBC2000AEB800BD94659F815
:1042C0004C1FC84658F8040F814243D3DAF8004027
:1042D0000D1A5BF8441F039757460BF104068D42F5
:1042E00088BF0D4604EB421101F5106A15E03D7BD5
:1042F0003168DBF800300095151A20469D4288BFD2
:104300001D46ABB2089A06F0A7FD3068284430601D
:10431000D8F800002844C8F80000D9F80020DAF8DE
:104320001830E91C9BB2B3EB910F28BF8242DED854
:104330008242BA46059DDDE90376079A0AD802F063
:104340000F00012101FA00F0D4F8341821EA00002E
:10435000C4F834087F08013241E7706820F001009A
:1043600070609AF8F404012807D100208AF8F40458
:1043700000215046FFF7CCFB02E0504600F01EFA49
:1043800003F05CFF01F00041416106F06DFC0005A7
:1043900002D4DAF800000AE0B068C00702D0504644
:1043A00000F0BAFA03F04AFF01F40061416106F03F
:1043B0005BFC000117D503F041FF01F00061416192
:1043C0009AF8F41419B1504600F0A6FA0BE0012156
:1043D0008AF8F414406D0121C0F38300CAF8F80490
:1043E0005046FFF795FB03F09AF9C00404D4DAF8BD
:1043F000000055E00A30544FD5F80408102120F091
:104400000100C5F80408DAF8000006F0D1FB05F554
:104410001060DAF804104FF67F32A9B182600139DA
:10442000036823F400130360C0F80822D0F80032B8
:1044300023F40013C0F80032D0F8003243F00063D8
:10444000C0F800322030E8E7F06940F00110F06178
:10445000DAF8300040B1D6F8840040F00B00C6F81E
:10446000840006F1440006E0706942F22B01084323
:10447000706106F1100001680AF2C44241F00B01BC
:104480000160306820F4FE6030609AF80C10DAF8B1
:10449000000006F0F1F903F0D1FE01F48051416112
:1044A00006F0E2FB0146DAF80000890419D506F0AF
:1044B00057F8DAF8000006F09FFBCAF81000DAF8A7
:1044C000004001F04BF99AF810200146204606F012
:1044D00029FC504600F05AF903F0B0FE01F40051F7
:1044E000416106F0C1FB000702D4DAF8000007E0E2
:1044F000504600F06BF903F0A1FE01F008014161A4
:1045000006F0B2FB000606D403F009F9C00219D484
:10451000DAF8000038E00599012440F2A325886903
:1045200020F080008861DAF804008442ECD21AF8A6
:104530000500012803D1E1B25046FFF7EDFB243519
:104540000134F0E705980AF163040126012700F51C
:104550001265DAF80400874211D2286861780129CF
:1045600009D1B0F1FF3F06DC47F080002670C1B2F0
:104570005046FFF7D1FB243420350137E9E703F03B
:104580005DFE01F480114161059C06F06DFB800227
:1045900002D4DAF8000030E004F532610AF529703F
:1045A000DAF8042001230124944221D20D68067810
:1045B000012E14D1B5F1FF3F11DCDAF8FC6405F4EB
:1045C000803506F00106B54209D1059EB56945F072
:1045D0008005B56100F8013C75692D0603D52430CE
:1045E00020310134E0E70499486840F400704860E5
:1045F00003F024FE01F40011416106F035FB400098
:1046000002D4DAF8000007E05046FFF7A7FA03F0FB
:1046100015FE01F08041416106F026FB40077FF561
:1046200088ACDAF800004468610704D55046FFF70B
:1046300061FBDAF8000041682143416079E470478A
:1046400070472DE9F04F8BB0002800F087800446BA
:10465000056890F8BD0428B9002084F8BC04204601
:1046600000F092F8032084F8BD04E86BC00501D483
:104670000020E060206806F0F9F804F1040B04F172
:10468000140E04F1240A20680A90D4E90C509BE827
:104690000E089EE8C0509AE80007CDE90850CDE921
:1046A00000B602A880E8805005A880E800070A98B4
:1046B00005F064FF00284ED120680021002506F097
:1046C000F2FA616801200022D3B2994210D903EBBB
:1046D000C30604EB860686F83C20A6F8563086F81A
:1046E0003D00C6E91155F56486F840500132EBE70C
:1046F00000200022D3B299420FD903EBC30304EB8D
:10470000830383F87C22C3E9A100C3F88C0283F8F9
:10471000800283F87D020132ECE704F1140E04F10B
:10472000240AA0680A902268D4E9033BD4E90C501B
:104730009EE8C0509AE80007CDE90850CDE900B6E0
:1047400002A880E8805005A880E8000710460A9A71
:1047500005F0CEFF30B1022084F8BD0401200BB07B
:10476000BDE8F08F002084F83800012084F8BD04F3
:10477000606A012802D12046FFF7B6F9206805F0EB
:10478000ABFF0020EBE7704770470000B0B5664D07
:1047900004462868006A08B12AF05AFB20690124FF
:1047A00000284FF0010008BF02202968C1F85C0111
:1047B00029F00EF828680462B0BD00BF5A480068AE
:1047C000D0F8801109B1F3200847704756480068B7
:1047D000D0F8801109B1F0200847704710B503F0F8
:1047E00043FA04BF022010BD84F8381003F0F0FD36
:1047F00006F088FA03F029BCF8B505464A480822B5
:1048000005F2C4410068C469676807F178002BF0BD
:1048100020F8A0680021012279647A62B96320F04F
:104820000E00A06097F9783007F12000B3F1FF3F48
:1048300015DDA173394611F87E2F12B997F87F2044
:1048400002B30846BE6A2BF0A3F8B0F5807F786308
:104850000CD92046314628F02AFF002010E08021A4
:104860002273A173BDE8F8402AF024B90346002062
:10487000B17BB863FA6A3A632846FFF7E5FA02208B
:104880002073F8BD8021A1732AF014F90028F8D113
:1048900004202073002100220023284601B0BDE837
:1048A000F040FFF722BB00BF10B503F0DDF904BFF5
:1048B000022010BD03F0C0FE06D4A16A012903D175
:1048C000816B41F48031816306F04CF9206805F07A
:1048D000F7FE03F0BABBB0B503F0C6F904BF02207F
:1048E000B0BD0120256884F8BC04284605F0BEFF51
:1048F000206805F0F1FE2068102106F059F9E86BF8
:10490000C00506D4A06A012803D1A86B20F480302A
:10491000A86303F0C3BD000003480068D0F880110D
:1049200009B1F4200847704750B8002402480168D4
:1049300041F08071016070470C48025880B500F06A
:104940000DFF0249024A03F0F2BA00BF20440258A8
:10495000962F0308B0B51D498B6A8A6ACC6A4D6BE5
:10496000C2F305126AB104F0010403F081FA0CD01D
:10497000012B0DD013B90B689B060CD49FED161AB2
:1049800013E00021C0E900111DE09FED121A0CE0B8
:104990009FED0F1A09E00B68104CC3F3C10324FA12
:1049A00003F301EE103AB8EE411A0B6B9FED0C3A8F
:1049B00003F01CFE0A6B02F049FE0A6B03F04DFD8A
:1049C000096B03F0D1FC8160B0BD00BF0044025808
:1049D0000024744A20BCBE4B0024744C0090D003C9
:1049E00000000039B0B51C498B6A8A6ACC6ACD6B6D
:1049F000C2F30532B2B1C4F3001403F039FA15D092
:104A0000BBB90B689B0651BF9FED161A0B68C3F329
:104A1000C103154C42BF24FA03F301EE103AB8EE7D
:104A2000411A08E00021C0E9001112E09FED0C1AC4
:104A300001E09FED0A1A8B6B9FED0C3A03F0D6FD57
:104A40008A6B02F003FE8A6B03F007FD896B03F0AB
:104A50008BFC8160B0BD00BF004402580024744A42
:104A600020BCBE4B0024744C0090D00300000039E1
:104A7000B0B51C498B6A8A6ACC6A4D6CC2F3055288
:104A8000B2B1C4F3002403F0F3F915D0BBB90B683D
:104A90009B0651BF9FED161A0B68C3F3C103154C5B
:104AA00042BF24FA03F301EE103AB8EE411A08E0CF
:104AB0000021C0E9001112E09FED0C1A01E09FED0A
:104AC0000A1A0B6C9FED0C3A03F090FD0A6C02F091
:104AD000BDFD0A6C03F0C1FC096C03F045FC81606C
:104AE000B0BD00BF004402580024744A20BCBE4B35
:104AF0000024744C0090D00300000039F8B580F415
:104B000000220A4300F0808080F400720A4332D011
:104B100080F480620A4300F0888080F400620A43D7
:104B200038D080F480520A4300F08C8080F4005228
:104B30000A4300F0958080F480420A4337D080F425
:104B400000420A4343D080F480320A434FD080F4BD
:104B50008070084340F0DC808749086D00F0070250
:104B6000042A00F2D5808848DFE812F07800890036
:104B70009000D30098008049086DC0F38212042A87
:104B800000F2C6808048DFE812F069007A008100F8
:104B9000C40089007849886DC0F30262042A00F2DB
:104BA000B7807948DFE802F05A6B72B57A00724834
:104BB000816DC1F30271052900F2AA80DFE801F0DE
:104BC000038691989F8DBDE88F40FFF7B7BE6A4876
:104BD000016D01F04051B1F1005F00F07780B1F15B
:104BE000805F00F09280002940F0928075E062487A
:104BF000C16C0068C90340F18980000140F18880E0
:104C000001A8FFF7EFFE9FE05B48816D01F44031A2
:104C1000B1F5003F00F08480B1F5803F00F08E8058
:104C2000002940F0758000682AE05349886DC0F380
:104C30004252042A00F26C805348DFE802F00F2051
:104C4000276A2F004C49086DC0F30232042A5FD84E
:104C50004D48DFE802F003141B5E2300086855E0AE
:104C60004548016DC1F30241052951D8DFE801F043
:104C7000032E39404735BDE88F4000F08DBD0868F0
:104C8000000145D501A8FFF7ADFE05E008688000EA
:104C90003ED501A8FFF7ECFE01983AE0C86C0B681E
:104CA0000A6800F040505B0701D5002840D0D205CB
:104CB00002D5B0F1805F4ED00022B0F1005F04BF9A
:104CC00047F64002C0F27D1208684FE0006800011C
:104CD0001ED501A8FFF786FE20E000682749800363
:104CE00010E00068800013D501A8FFF7C1FE15E0B1
:104CF000016849070CD50068C0F3C1001AE00068DC
:104D00001F49C00501EAE07003E00068800102D499
:104D1000002004B080BD01A8FFF71CFE0298F8E750
:104D2000C16C0368026801F040515B070ED569B998
:104D3000C2F3C100134921FA00F0EAE700688000DD
:104D4000E6D501A8FFF794FE0398E2E7D20504D563
:104D5000B1F1805F01D10A48DBE70022B1F1005FC9
:104D600004BF47F64002C0F27D12006810F4003024
:104D700018BF1046CDE700BF0044025840787D01BF
:104D800000093D000090D0030080BB002DE9F047F2
:104D90000446C078A74F00071CD5A06E4FEA3051DB
:104DA000032908D8DFE801F002090C11F96941F480
:104DB0000031F96109E001260DE003F07EF801E021
:104DC00003F019FA064630B9A06E396C21F440118F
:104DD0000843386400266078BA46C00701D13546DA
:104DE00020E0A06D04280BD83546DFE800F0030C66
:104DF0000F121200F869354640F40030F86108E0FF
:104E0000012501270FE002F0E7FE01E003F047F87B
:104E100005462F463DB9A06D03F06DF821F007015E
:104E200003F0C1F83746607880071ED5E06D4FEA81
:104E3000B010042807D8DFE800F003090C0F0F00BA
:104E400003F0DAF808E0012501260FE002F0C4FEC5
:104E500001E003F024F805462E463DB9E06D03F06D
:104E60004AF821F4E07103F09EF83E46607840076E
:104E700002D4B046574623E0D4F8A80057464FEA7C
:104E80007050042807D8DFE800F0030A0D10100066
:104E900003F084F809E001254FF0010810E002F06A
:104EA0009BFE01E002F0FBFF0546A84645B9D4F899
:104EB000A800B96C0025B04621F460010843B8642D
:104EC0006078000720D5D4F8AC004FEA30600428A1
:104ED00007D8DFE800F003090C0F0F0003F05EF8BD
:104EE00008E00125012710E002F076FE01E002F063
:104EF000D6FF05462F4645B9D4F8AC0002F0F0FFC6
:104F000021F0E06103F026F84746E07880071DD5E0
:104F1000E06C4FEA3010032806D8DFE800F00B02FF
:104F2000080B03F069F805E0012501260FE002F007
:104F3000C4FF05462E4655B9E06CDAF83C10002552
:104F4000524621F030010843CAF83C003E466078E2
:104F5000C0061ED5206E4FEA3030042807D8DFE89F
:104F600000F003090C0F0F0003F046F808E00125DC
:104F700001270FE002F030FE01E002F090FF05464D
:104F80002F463DB9206E02F0B6FF21F4E04103F058
:104F90000AF83746607880061BD5606E4FEA3040CD
:104FA000052807D8DFE800F00C03090C0C0C03F00F
:104FB00072FB04E0012501260CE003F05CFB0546D2
:104FC0002E463DB9606E02F096FF21F4E02102F01A
:104FD000EAFF3E46607840061DD5D4F8B0004FEA9F
:104FE0003070052807D8DFE800F00C03090C0C0C22
:104FF00003F051FB04E0012501270DE003F03BFB2A
:1050000005462F4645B9D4F8B00002F069FF21F0FB
:10501000E04102F09FFF37466078000618D5206F08
:1050200068B1B0F1005F07D0B0F1805F22D102F02B
:10503000E3FF04E01044025803F02DFB05462E4622
:105040003DB9206F02F057FF21F0405102F0ABFF55
:105050003E46E078C00702D1B04657461EE0A06C3D
:105060005746032809D8DFE800F00F020C0F02F0C2
:1050700095FF09E001250126EBE701254FF0010826
:105080000CE002F01AFF0546A8463DB9A06CF96B8A
:105090000025B04621F003010843F863A0784006DC
:1050A00001D4474616E0D7F8F00340F48070C7F803
:1050B000F003FEF75BFB0646D7F8F003C00507D404
:1050C000FEF754FB801B6428F6D90325032701E073
:1050D0002F467DB12078C00746D0E06F4FEAF00040
:1050E000052832D8DFE800F037033437373703F0CC
:1050F000D2FA2FE0DAF86010D4F8B40055464140F7
:1051000011F4407F0BD0296E2A6E42F480322A6659
:1051100021F440712A6E22F480322A662966B0F5A5
:10512000807F40F0FC81FEF721FB064641F2883982
:105130000327DAF86000800700F1EE81FEF716FB26
:10514000801B03254845F4D9C4E7012501260CE05E
:1051500003F091FA05462E463DB9E06F02F00BFFD1
:1051600021F0380103F00DF83E462078800719D56C
:10517000A06F052807D8DFE800F00C03090C0C0C21
:1051800003F089FA04E0012501270CE003F073FA2B
:1051900005462F463DB9A06F02F0EDFE21F0070154
:1051A00002F0EFFF3746207840071BD5D4F8940073
:1051B000052807D8DFE800F00C03090C0C0C03F0FD
:1051C0006AFA04E0012501260DE003F054FA0546D1
:1051D0002E4645B9D4F8940002F082FE21F0070172
:1051E00002F0B8FE3E46207880061DD5D4F8900027
:1051F0004FEA3070052807D8DFE800F00C03090CEF
:105200000C0C02F0E9FC04E0012501270DE002F09E
:10521000F2FF05462F4645B9D4F8900002F0ABFEE8
:1052200021F0E04102F0ADFF3746207840061DD561
:10523000D4F89C004FEAB020052807D8DFE800F03A
:105240000C03090C0C0C02F0C7FC04E0012501263C
:105250000DE002F0D0FF05462E4645B9D4F89C007B
:1052600002F03EFE21F4E05102F074FE3E4620784A
:1052700000061DD5D4F8A0004FEA7030052807D8E5
:10528000DFE800F00C03090C0C0C02F0A5FC04E0B4
:10529000012501270DE002F0AEFF05462F4645B976
:1052A000D4F8A00002F01CFE21F4604102F052FE8E
:1052B00037462068010713D5D4F88400B0F5805F25
:1052C00006D102F098FF002818BF0127D4F8840007
:1052D000DAF84410524621F4405102F052FF20689F
:1052E000C10613D5D4F89800B0F5807F06D102F03E
:1052F00082FF002818BF0127D4F89800DAF8481078
:10530000524621F4407102F025FE2068000318D5B2
:10531000D4F8A400B0F5003F09D0B0F5803F03D029
:1053200010BB02F059FC01E002F065FF05462E4675
:1053300045B9D4F8A40002F0D3FD21F4403102F0C5
:1053400009FE3E46A07840071ED5D4F88800B0F587
:10535000401F0FD0B0F5001F09D0B0F5801F40F0FE
:10536000D68002F049FE05E001250126EAE703F0B8
:1053700082F905462F4645B9D4F8880002F0FBFDB6
:1053800021F4401102F0FDFE3746A078C00701D19C
:105390003E4619E0206DB0F5803F03D090B902F091
:1053A0002BFE02E002F089FD05462E4665B9206D10
:1053B000DAF83C100025524621F480310843CAF83F
:1053C0003C00E5E7012501262168880001D46068DA
:1053D00006E002F010FF002818BF0126D4E90010F3
:1053E0008A031BD5D4F880206FF0010303EB32232E
:1053F000022B0BD34FEA322343B1012B40F08A80BA
:10540000DAF81C3043F40033CAF81C303DB9DAF83E
:10541000443023F440731A43CAF844203546CA0284
:1054200007D5626FDAF8403023F000431A43CAF818
:105430004020CA0008D5D4F8B820DAF8003023F4A8
:1054400080431A43CAF800208A0207D5E26EDAF8D0
:10545000403023F080731A43CAF840204A000CD52C
:10546000DAF8002022F40042CAF80020D4F8BC2068
:10547000DAF800301A43CAF80020CA0F07D0626D6C
:10548000DAF83C3023F040531A43CAF83C200902B2
:1054900008D5D4F88C10DAF8442022F440021143E5
:1054A000CAF84410C10705D002F096FB002818BFC7
:1054B00005466068810705D503F0EDF8002818BFA0
:1054C00005466068410705D502F0F7FC002818BFC3
:1054D00005466068010705D502F0E1FC002818BF09
:1054E00005466068C10605D503F0C5F8002818BF59
:1054F00005466068800604D502F07DFE002818BFCE
:105500000125002D18BF01252846BDE8F08701259B
:1055100001273AE7012582E75546D4F8B4002A6806
:10552000094900F4407322F47C5201EA1011B3F5EA
:10553000407F6FF31F3008BF0A432A60296E08437B
:1055400028660025ADE500BFCFFFFF002DE9F84339
:10555000002800F0FB807F4D04468846286800F054
:105560000F0088420BD2286820F00F0040EA0800A4
:105570002860286800F00F00404540F0E780206870
:10558000C64F410709D52169BA6902F0E9FE04D97D
:10559000BA6922F070021143B961010709D5616946
:1055A000FA6902F0DDFE04D9FA6922F070021143B3
:1055B000F961C1060AD5A169FA6902F4E062914273
:1055C00004D9FA6922F4E0621143F961810609D530
:1055D000E1693A6A02F0C4FE04D93A6A22F0700224
:1055E0001143396210F002010AD0E268BB6903F08E
:1055F0000F039A4204D9BB6923F00F031A43BA611F
:10560000C2073AD0D4E90101BA6922F470621143A9
:10561000B961012807D0032809D002280BD13968C5
:1056200089030CD492E03968C90508D48EE0396842
:10563000890104D48AE03968490740F187803969D3
:10564000A94621F0070108433861FEF78FF80646A6
:1056500041F288356068396901F03801B1EBC00F5B
:1056600007D0FEF783F8801BA842F3D90320BDE8DA
:10567000F88320684D4600F0020151B1E168BA6933
:1056800002F00F02914204D2BA6922F00F021143D4
:10569000B961296801F00F0141450AD9296821F053
:1056A0000F0141EA08012960296801F00F01414515
:1056B0004CD1410709D52169BA6902F051FE04D2E3
:1056C000BA6922F070021143B961010709D5616915
:1056D000FA6902F045FE04D2FA6922F07002114321
:1056E000F961C1060AD5A169FA6902F4E062914242
:1056F00004D2FA6922F4E0621143F96180060AD506
:10570000E069396A01F07001884204D2396A21F0F7
:1057100070010843386200F057F8B969294A1C4BF8
:10572000C1F30321515C01F01F01C840B969186041
:1057300001F00F01515C01F01F01C84015490860DC
:1057400005480068BDE8F843FEF75CB80120BDE8F5
:10575000F88300BF002000520C00002480B500F048
:1057600033F80A49174B0A68096801F00F01C2F3C0
:105770000322595C9A5C01F01F0102F01F02D04025
:10578000034A1060C8400349086080BD18440258AD
:10579000100000241400002480B5FFF7DFFF084943
:1057A000084A0968C1F3021102F052BE80B5FFF742
:1057B000D5FF0349034A0968C1F3022102F048BE3C
:1057C0001C440258962F030810B534490869C0F3E9
:1057D000C20003280FD0022804BF324810BD40B9D0
:1057E00008688006334858D50968C1F3C101C8402C
:1057F00010BD2B4810BD8A6A886ACB6A4C6BC0F317
:105800000510F0B103F00103C4F3CC0402F003026D
:105810006343022A00EE103AB8EE400A13D0AAB948
:105820000A68920651BF9FED221A0A68C2F3C102AC
:10583000204B42BF23FA02F201EE102AB8EE411AC1
:1058400006E0002010BD9FED191A01E09FED161A29
:105850000A6B9FED193A6FF35F2202EE102AB8EE41
:10586000422A00EE032AB7EE000A32EE000A02EEE8
:10587000100A086BC0F34620B8EE422A013081EED0
:10588000021A21EE000A01EE100AB8EE411A80EE6B
:10589000010ABCEEC00A10EE100A10BD0044025806
:1058A00000093D0040787D010024744A20BCBE4BB5
:1058B0000024744C0090D00300000039F8B5002893
:1058C00000F0438104460078D94EC0071FD12078EC
:1058D000800740F1A080306910F03801B06A35D0FF
:1058E000182901D1800731D03068E168002955D0EE
:1058F00020F01900084301F0A6FE05463068400775
:105900003BD4FDF733FF401B0228F7D955E130693E
:1059100000F03801B06A102905D018290AD100F02A
:105920000300022806D130688003D0D560680028C3
:10593000CDD10AE1606800283ED0B0F5A02F4DD04F
:10594000B0F5803F4ED002F04FFB4EE0E06831688A
:10595000490702D5002800F0F880316821F01901CC
:10596000084301F070FE05463068400705D4FDF796
:10597000FDFE02F02DF9F7D9F8BDFDF7F1FE41F279
:105980000301884240D82069716821F47C314028A5
:1059900014BF41EA003041F400303BE020F0010048
:1059A00001F051FE05463068400734D5FDF7DEFEB4
:1059B00002F00EF9F7D9DFE702F016FB01F043FE23
:1059C000054641F28837306880037FF580AFFDF7E8
:1059D000CDFE411B0320B942F5D9CDE7306840F434
:1059E00080203060306840F4803001F02CFE0546A5
:1059F00041F28837306880033FF569AFFDF7B6FEA6
:105A0000401BB842F6D9D8E02069716821F0FE4108
:105A100041EA006070602078C0063ED5306900F031
:105A20003801B06A082905D018291CD100F00300FC
:105A3000012818D13068C00503D5E069802840F0FE
:105A40008480FDF78DFE41F2030188421ED8206A52
:105A5000716821F0F841202814BF41EA806041F0CC
:105A60008040706019E03068E169002900F0D08062
:105A700040F0800001F0E7FD05463068C005E0D445
:105A8000FDF774FE02F0A4F8F7D975E7206AF16813
:105A900021F07C5141EA0060F0602078000756D484
:105AA0002078800665D42078400774D4676A002F78
:105AB00049D0306900F03800182840F0BB80B16A46
:105AC000306B012F41D0A26A01F0030393423CD115
:105AD000E26AC1F30511914237D10146226B6FF39F
