:020000040800F2
:1000000068930120150900080D610008A90B00087C
:10001000676000081D100008F57C00080000000063
:100020000000000000000000000000003909000886
:10003000F116000800000000D1090008E1090008DD
:100040002F0900082F0900082F0900082F090008B0
:100050002F0900082F0900082F0900082F090008A0
:100060002F0900082F0900082F0900082F09000890
:100070002F0900082F0900082F0900082F09000880
:100080002F0900082F0900082F0900082F09000870
:100090002F0900082F0900082F0900082F09000860
:1000A0002F0900082F0900082F0900082F09000850
:1000B000B16F00082F0900082F0900082F09000858
:1000C0002F0900082F0900082F0900082F09000830
:1000D0002F090008057A00082F090008157A000882
:1000E000D11E00082F090008000000002F09000899
:1000F0002F0900082F0900082F0900082F09000800
:100100002F0900082F0900082F0900082F090008EF
:100110002F0900082F0900082F0900082F090008DF
:100120002F0900082F0900082F0900082F090008CF
:100130002F090008A51700082F0900082F0900083B
:1001400000000000000000000000000000000000AF
:100150002F0900082F0900082F0900082F0900089F
:100160002F0900082F0900082F0900082F0900088F
:100170002F0900082F0900082F09000800000000BF
:100180002F0900082F0900082F0900082F0900086F
:100190002F0900082F0900082F0900082F0900085F
:1001A0002F0900082F0900082F0900082F0900084F
:1001B0002F0900082F0900082F0900082F0900083F
:1001C0002F0900082F0900082F0900082F0900082F
:1001D0002F0900082F0900082F0900082F0900081F
:1001E0002F0900082F0900082F0900082F0900080F
:1001F0002F0900082F0900082F0900082F090008FF
:100200002F0900082F0900082F0900082F090008EE
:100210002F0900082F0900082F0900082F090008DE
:100220002F0900082F0900082F090008000000000E
:100230002F0900082F090008000000002F090008FE
:100240002F0900082F0900082F0900082F090008AE
:100250002F0900082F0900082F0900082F0900089E
:100260002F0900082F0900082F0900082F0900088E
:100270002F0900082F0900082F09000800000000BE
:100280002F0900082F0900082F09000800000000AE
:10029000000000002F090008DFF80CD000F046FC39
:1002A00000480047A99B0008689301200246D2E855
:1002B0004F0FC2E8431F03B1F9E77047024652E807
:1002C000000F40EA010042E8000303B1F7E770477E
:1002D00010B5024652E8000F20EA010442E800434C
:1002E00003B1F7E710BD10B5024652E8000F00EA6F
:1002F00001048C4203D0BFF32F8F002010BD20EAF1
:10030000010442E8004303B1EFE710BD10B5024617
:1003100052E8000F084203D1BFF32F8F002010BD19
:1003200020EA010442E8004303B1F1E710BD0246B0
:1003300052E8000F411C42E8001303B1F8E7704790
:1003400010B50246D2E85F0F814202D8BFF32F8F6B
:1003500010BD441CC2E8534F03B1F3E710BD10B504
:100360000246D2E85F0F441CA14200D80024C2E834
:10037000534F03B1F5E710BD024652E8000F411E8E
:1003800042E8001303B1F8E77047024652E8000F55
:1003900010B9BFF32F8F7047411E42E8001303B11D
:1003A000F4E770470246D2E85F0F10B9BFF32F8F12
:1003B0007047411EC2E8531F03B1F4E7704702467D
:1003C00052E8000F10B9BFF32F8F7047016842E861
:1003D000001303B1F4E7704702680A60BFF35F8F50
:1003E00050E8002F0B689342F6D140E8001303B1A8
:1003F000F2E770470246D2E84F0FC2E8431F03B14D
:10040000F9E77047024652E8000F40EA010042E86F
:10041000000303B1F7E7704710B5024652E8000F3A
:1004200020EA010442E8004303B1F7E710BD10B52C
:10043000024652E8000F00EA01048C4203D0BFF3E9
:100440002F8F002010BD20EA010442E8004303B1D1
:10045000EFE710BD10B5024652E8000F084203D185
:10046000BFF32F8F002010BD20EA010442E80043B3
:1004700003B1F1E710BD024652E8000F411C42E80B
:10048000001303B1F8E7704710B50246D2E85F0FDA
:10049000814202D8BFF32F8F10BD441CC2E8534FD6
:1004A00003B1F3E710BD10B50246D2E85F0F441C5C
:1004B000A14200D80024C2E8534F03B1F5E710BDB4
:1004C000024652E8000F411E42E8001303B1F8E76C
:1004D0007047024652E8000F10B9BFF32F8F7047E4
:1004E000411E42E8001303B1F4E770470246D2E828
:1004F0005F0F10B9BFF32F8F7047411EC2E8531F23
:1005000003B1F4E77047024652E8000F10B9BFF399
:100510002F8F7047016842E8001303B1F4E770477A
:1005200002680A60BFF35F8F50E8002F0B689342A8
:10053000F6D140E8001303B1F2E770470246D2E873
:100540004F0FC2E8431F03B1F9E77047024652E874
:10055000000F40EA010042E8000303B1F7E77047EB
:1005600010B5024652E8000F20EA010442E80043B9
:1005700003B1F7E710BD10B5024652E8000F00EADC
:1005800001048C4203D0BFF32F8F002010BD20EA5E
:10059000010442E8004303B1EFE710BD10B5024685
:1005A00052E8000F084203D1BFF32F8F002010BD87
:1005B00020EA010442E8004303B1F1E710BD02461E
:1005C00052E8000F411C42E8001303B1F8E77047FE
:1005D00010B50246D2E85F0F814202D8BFF32F8FD9
:1005E00010BD441CC2E8534F03B1F3E710BD10B572
:1005F0000246D2E85F0F441CA14200D80024C2E8A2
:10060000534F03B1F5E710BD024652E8000F411EFB
:1006100042E8001303B1F8E77047024652E8000FC2
:1006200010B9BFF32F8F7047411E42E8001303B18A
:10063000F4E770470246D2E85F0F10B9BFF32F8F7F
:100640007047411EC2E8531F03B1F4E770470246EA
:1006500052E8000F10B9BFF32F8F7047016842E8CE
:10066000001303B1F4E7704702680A60BFF35F8FBD
:1006700050E8002F0B689342F6D140E8001303B115
:10068000F2E770470246D2E84F0FC2E8431F03B1BA
:10069000F9E77047024652E8000F40EA010042E8DD
:1006A000000303B1F7E7704710B5024652E8000FA8
:1006B00020EA010442E8004303B1F7E710BD10B59A
:1006C000024652E8000F00EA01048C4203D0BFF357
:1006D0002F8F002010BD20EA010442E8004303B13F
:1006E000EFE710BD10B5024652E8000F084203D1F3
:1006F000BFF32F8F002010BD20EA010442E8004321
:1007000003B1F1E710BD024652E8000F411C42E878
:10071000001303B1F8E7704710B50246D2E85F0F47
:10072000814202D8BFF32F8F10BD441CC2E8534F43
:1007300003B1F3E710BD10B50246D2E85F0F441CC9
:10074000A14200D80024C2E8534F03B1F5E710BD21
:10075000024652E8000F411E42E8001303B1F8E7D9
:100760007047024652E8000F10B9BFF32F8F704751
:10077000411E42E8001303B1F4E770470246D2E895
:100780005F0F10B9BFF32F8F7047411EC2E8531F90
:1007900003B1F4E77047024652E8000F10B9BFF307
:1007A0002F8F7047016842E8001303B1F4E77047E8
:1007B00002680A60BFF35F8F50E8002F0B68934216
:1007C000F6D140E8001303B1F2E770470246D2E8E1
:1007D0004F0FC2E8431F03B1F9E77047024652E8E2
:1007E000000F40EA010042E8000303B1F7E7704759
:1007F00010B5024652E8000F20EA010442E8004327
:1008000003B1F7E710BD10B5024652E8000F00EA49
:1008100001048C4203D0BFF32F8F002010BD20EACB
:10082000010442E8004303B1EFE710BD10B50246F2
:1008300052E8000F084203D1BFF32F8F002010BDF4
:1008400020EA010442E8004303B1F1E710BD02468B
:1008500052E8000F411C42E8001303B1F8E770476B
:1008600010B50246D2E85F0F814202D8BFF32F8F46
:1008700010BD441CC2E8534F03B1F3E710BD10B5DF
:100880000246D2E85F0F441CA14200D80024C2E80F
:10089000534F03B1F5E710BD024652E8000F411E69
:1008A00042E8001303B1F8E77047024652E8000F30
:1008B00010B9BFF32F8F7047411E42E8001303B1F8
:1008C000F4E770470246D2E85F0F10B9BFF32F8FED
:1008D0007047411EC2E8531F03B1F4E77047024658
:1008E00052E8000F10B9BFF32F8F7047016842E83C
:1008F000001303B1F4E7704702680A60BFF35F8F2B
:1009000050E8002F0B689342F6D140E8001303B182
:10091000F2E770470648804706480047FEE7FEE7D3
:10092000FEE7FEE7FEE7FEE7FEE7FEE7FEE7FEE79F
:10093000996E0008990200081EF0040F0CBFEFF337
:100940000880EFF30980816911F8021C91BB01B5A1
:1009500090E80F10E047BDE800508CE80300244BFE
:1009600093E80600914208BF704741B91EF0100F8E
:1009700010D12049086820F0010008600AE02CE945
:10098000F00F1EF0100F08BF2CED108AC1F838C010
:1009900081F822E01A6092F82210906B61F0FF0E4D
:1009A0001EF0100F08BFB0EC108AB0E8F00F80F313
:1009B00009887047104A13689942FAD801B552F86D
:1009C00021C00FC8E047BDE80050CCF800007047D8
:1009D00001B50CF0B5F9BDE80140EFF3098CBEE7B5
:1009E00001B50CF07DFCBDE80140EFF3098CB6E7E2
:1009F0005C91002034EF00E080F600082DE9F05F04
:100A00000546002092469B4688460646814640247D
:100A10001BE0284641464746224600F076F85346FA
:100A20005A46C01A914110D311461846224600F08A
:100A30005DF82D1A67EB01084F4622460120002180
:100A400000F054F817EB00094E41201EA4F10104F8
:100A5000DFDC484631462A464346BDE8F09F40EA7F
:100A600001039B0703D009E008C9121F08C0042A2C
:100A7000FAD203E011F8013B00F8013B521EF9D213
:100A80007047D2B201E000F8012B491EFBD270473B
:100A90000022F6E710B513460A4604461946FFF74A
:100AA000F0FF204610BD30B504460020034600E0AC
:100AB0005B1C934203D2E05CCD5C401BF8D030BDA0
:100AC00030B50B46014600202022012409E021FA1E
:100AD00002F59D4205D303FA02F5491B04FA02F51B
:100AE0002844151EA2F10102F1DC30BD202A04DBEE
:100AF000203A00FA02F1002070479140C2F1200331
:100B000020FA03F3194390407047202A04DB203A6F
:100B100021FA02F00021704721FA02F3D040C2F11D
:100B2000200291400843194670470000064C074DCB
:100B300006E0E06840F0010394E8070098471034AD
:100B4000AC42F6D3FFF7ACFBF0FD000810FE000846
:100B500070B58C1810F8015B15F0070301D110F87F
:100B6000013B2A1106D110F8012B03E010F8016BAC
:100B700001F8016B5B1EF9D12B0705D40023521E2F
:100B80000DD401F8013BFAE710F8013BCB1A921C97
:100B900003E013F8015B01F8015B521EF9D5A14295
:100BA000D8D3002070BD00001EF0040F0CBFEFF37F
:100BB0000880EFF3098004F0E9BD000010B50B4A8E
:100BC00000210B480CF03AFD0A4908600A4A00214E
:100BD0000A480CF033FD0A4908600A4A00210A4815
:100BE0000CF02CFD0949086010BD00001CF4000841
:100BF000210C00085490002088F400080D0F000814
:100C000060900020ACF400084D0F000850900020C8
:100C100001E000F05BFBFCE701E000F0CBFBFCE750
:100C20000EB502AC01AD00260027B046B14600204B
:100C3000614908606149086061490870614908704C
:100C400009F00CFAB6E05E48007830B1012805D012
:100C5000022804D0032835D12AE000BF33E0002F5A
:100C600025D1042301AA0321980109F0B9F956A05E
:100C700007F042F82868D0B19DF8070000909DF871
:100C800006309DF805209DF8041059A007F034F8AF
:100C90005FA007F031F84848006830B9624A002187
:100CA00062480CF0CBFC444908600227B9460AE0D0
:100CB0005FA007F021F800204149087000274FF09D
:100CC000030900E000BF00BF3E48007830B10128B2
:100CD00005D0022804D0032836D12BE000BF34E031
:100CE000002E26D1042302AA032140F2011009F0AC
:100CF00077F954A007F000F82068D0B19DF80B00F8
:100D000000909DF80A309DF809209DF8081057A022
:100D100006F0F2FF5DA006F0EFFF2848006830B94A
:100D2000604A002160480CF089FC244908600226D2
:100D3000B0460AE05DA006F0DFFF00202149087000
:100D400000264FF0030800E000BF00BFB8F1030F1A
:100D50002CD1B9F1030F29D159A006F0CDFF09F02C
:100D600045FA61A006F0C8FF1348006830B10020C2
:100D700011490860084600680CF07CFC0F480068C8
:100D800030B100200D490860084600680CF072FC84
:100D900000200B4908700B490870814680460027E7
:100DA000002609F05BF955A006F0A6FF4FF4FA7093
:100DB0000BF08CFC47E700005C900020589000206E
:100DC0000891002009910020444D39313632CDF888
:100DD000CFDFB2E5C8EBA3ACB5C8B4FDBBF1C8A189
:100DE0004950B5D8D6B72E2E2E2E0D0A0000000081
:100DF000444D39313632B5C44950B5D8D6B7A3BA07
:100E000025642E25642E25642E25640D0A0000001D
:100E1000444D39313632B4B4BDA8D3A6D3C3C8CEFD
:100E2000CEF10D0A0000000040F40008190C000883
:100E3000444D39313632CDF8CFDFB0CEB5F40D0A9E
:100E400000000000444D39303030CDF8CFDFB2E53E
:100E5000C8EBA3ACB5C8B4FDBBF1C8A14950B5D827
:100E6000D6B72E2E2E2E0D0A00000000444D39302C
:100E70003030B5C44950B5D8D6B7A3BA25642E25AD
:100E8000642E25642E25640D0A000000444D39307F
:100E90003030B4B4BDA8D3A6D3C3C8CECEF10D0AAA
:100EA0000000000064F40008110C0008444D3930C3
:100EB0003030CDF8CFDFB0CEB5F40D0A0000000021
:100EC000CDF8CFDFB6BCB1BBB0CEB5F4A3ACB8B4EF
:100ED000CEBBCDF8C2E7A3ACC9BEB3FDD3A6D3C386
:100EE000C8CECEF10D0A00006E6574556E696E694C
:100EF0007469616C697A650D0A0000006E65744959
:100F00006E697469616C697A650D0A0000BF0BF047
:100F100021FC044606E0022007F059FCC8342046B4
:100F20000BF0EAFBF7E700BF04F046FA07F096FA89
:100F3000FFF744FE0BF00EFC044605E005F096FEBC
:100F4000641C20460BF0D8FBF8E7000020E007F017
:100F50006BFA0446002C18D0012C02D0042C12D1BC
:100F600008E00CA006F0C8FE01211A4800680CF049
:100F70000FFB09E018A006F0BFFE0221264800681A
:100F80000CF006FB00E000BF00BF14200BF09EFB3E
:100F9000DDE700004B31BCFCB0B4CFC2A3ACD6B18E
:100FA000BDD3B7A2CBCDCAC2BCFEB1EAD6BEB8F89B
:100FB000C8CECEF14170705461736B444D393136F7
:100FC0003250726FA3AC62697430B1BBC9E8D6C34A
:100FD0000D0A00005C9000204B32BCFCB0B4CFC2C4
:100FE000A3ACD6B1BDD3B7A2CBCDCAC2BCFEB1EAC9
:100FF000D6BEB8F8C8CECEF14170705461736B4460
:101000004D3930303050726FA3AC62697431B1BB6E
:10101000C9E8D6C30D0A00005890002000BFFEE7C3
:1010200010B500BF2A48006800F4003000B115E098
:10103000BFF34F8FBFF36F8F002026490860BFF3C7
:101040004F8FBFF36F8F2248006840F40030204973
:101050000860BFF34F8FBFF36F8F00BF00BF1C4B03
:101060001B6803F4803303B130E00023184C703464
:101070002360BFF34F8F231F1868C0F34E3100BFAA
:10108000C0F3C90200BF43F6E07303EA41134FF017
:10109000404404EA827423430E4C1034236000BFA2
:1010A00000BF131EA2F10102EDD10B1EA1F101013F
:1010B000E6D1BFF34F8F064B1B6843F48033044CDB
:1010C0002360BFF34F8FBFF36F8F00BF10BD0000D1
:1010D00014ED00E050EF00E010B504460CB91248E2
:1010E00010BD012C01D10020FAE7022C01D10F48DC
:1010F000F6E7032C01D10020F2E7042C01D10020F7
:10110000EEE7052C01D10020EAE7062C01D10020F2
:10111000E6E7072C01D10020E2E74FF48E7104A02E
:1011200000F0DCFE0020DBE708930020349B002069
:101130002E2E5C2E2E5C557365725C6273705C7330
:1011400072635C6273705F756172745F6669666F0B
:101150002E63000070B505460C465748007900F034
:10116000020010B94FF0FF3070BD012D0CD0022DE0
:101170000AD0032D08D0042D06D0052D04D0062D4D
:1011800002D06FF00400EFE7072D6FD2DFE805F023
:1011900091046F717D917E004749086A474901F0CB
:1011A000C0F84549086A464901F0A6F904F0030071
:1011B00010B1012809D103E000204049486107E04F
:1011C0004FF480403D49486102E06FF00300CBE7F7
:1011D00000BF04F0040028B1042807D1C002374939
:1011E000886106E000203549886102E04FF0FF3059
:1011F000BAE700BF04F0100018B101202F490877AA
:1012000002E000202D49087704F0200018B10120E9
:101210002A49087102E000202849087104F0800082
:1012200018B101202649487202E000202449487282
:1012300004F4807018B101202149487102E00020B7
:101240001F49487104F4007018B101201C4908704E
:1012500002E000201A4908701749086A174901F08E
:1012600031FD1549086A164901F03EFD21E00020D4
:101270007AE724B11049086A01F088FD03E00E49BD
:10128000086A01F0E6FD00206EE712E084B104F484
:10129000803038B1A2B20849086A4FF4803101F0B9
:1012A00057FD05E0A2B20449086A002101F050FD93
:1012B00000BF00BF002057E71CA4002040A400206E
:1012C000A4A4002002466FF00300704700BF2E4820
:1012D00008F04AFF2D49086008460068002812DD22
:1012E00040F2EA312948006808F04CFF07462848D8
:1012F00050F8271027A006F0FFFC01220321234805
:10130000006808F062FF3EE00222002107200CF096
:1013100079F980461D48006808F032FF0A2832D16A
:10132000B8F1020F2DD14FF4003500BF1748006807
:1013300008F049FF10B31548006808F013FF06468F
:10134000AD1B002D00DA2E44304608F007FF04469E
:1013500038202070372060703620A0703520E07073
:1013600034202071332060713220A0713120E0716F
:10137000324621460548006808F012FF002DD5DCF2
:1013800000E000BF00BFBFE705EC00086890002048
:101390006C900020444D3930303020746370206CE4
:1013A000697374656E20726573203D2025730D0A84
:1013B0000000000000BF2E4808F0D6FE2D4908604E
:1013C00008460068002812DD40F2E931294800682B
:1013D00008F0D8FE0746284850F8271027A006F046
:1013E0008BFC012203212348006808F0EEFE3EE05A
:1013F0000222002107200CF005F980461D480068F4
:1014000008F0BEFE0A2832D1B8F1010F2DD14FF4F9
:10141000003500BF1748006808F0D5FE10B3154826
:10142000006808F09FFE0646AD1B002D00DA2E4432
:10143000304608F093FE0446312020703220607060
:101440003320A0703420E070352020713620607188
:101450003720A0713820E0713246214605480068E7
:1014600008F09EFE002DD5DC00E000BF00BFBFE706
:1014700025ED0008989000209C900020444D3931C3
:10148000363220746370206C697374656E207265E7
:1014900073203D2025730D0A0000000000B58BB0BD
:1014A00000BF6148006840F008005F4908600846D6
:1014B000006800F00800059000BF00BF00BF0846AC
:1014C000006840F0100008600846006800F0100056
:1014D000059000BF00BF00BF0846006840F0200034
:1014E00008600846006800F02000059000BF00BFBB
:1014F00000BF0846006840F04000086008460068E9
:1015000000F04000059000BF00BF00BF0846006823
:1015100040F0800008600846006800F080000590F8
:1015200000BF00BF00BF0846006840F4807008603C
:101530000846006800F48070059000BF00BF00BF3F
:1015400039480C38006840F4805037490C3908603D
:101550000846006800F48050059000BF00BF0220DC
:10156000079001200890032009900C200A904CF26B
:10157000B370069006A92D4801F01EFE4FF680704C
:10158000069006A92A4801F017FE40F203200690B3
:1015900006A9284801F010FE4FF47F40069006A9E6
:1015A000254801F009FE40F2CF60069006A92348C5
:1015B00001F002FE0120069006A9214801F0FCFD81
:1015C00000BF1948006840F001001749086008464C
:1015D000006800F00100009000BF00BF00BF12488B
:1015E0001430006840F002000F49143108600846CA
:1015F000006800F00200009000BF00BF1148029098
:101600000020039001200490C003019001A90E481E
:1016100001F0D2FD00221146282001F0BFFF282052
:1016200001F0A8FF0BB000BDE0440258000C0258C6
:101630000010025800180258001C025800200258DE
:1016400000140258000021110000025800B59BB0A0
:101650004C2108A8FFF71CFA1C2101A8FFF718FA73
:101660001848089018480990042001900120029021
:10167000022003900F200490022005900690002085
:1016800007900A9000210B910C9120210D910021CF
:101690000E910F9110914FF48051119100211291F0
:1016A000139114911591169101AA01A908A803F0AC
:1016B0008DFE20B140F2663104A000F00FFC1BB09B
:1016C00000BD000000400052044100522E2E5C2E4E
:1016D0002E5C524C2D41524D5C4472697665725CB1
:1016E000444D393030305F4253502E6300000000CB
:1016F000704710B5002210E002EB4204036903EBCF
:10170000C40100230B604B608B60CB600B614B61AD
:1017100000F12C0343F82210521C042AECD30024BD
:10172000C46304644464C46484640324036803F5E8
:101730008053C3F83041036803F580530469C3F84C
:101740001C4103694833046804F58054C4F8283107
:1017500010BD10B500220EE002EB4204C36803EB9B
:10176000C40100230B604B608B60CB6000F1180359
:1017700043F82210521C042AEED30024846203246E
:10178000036803F58053C3F82C41036803F58053C5
:10179000C468C3F81441036803F58053C468C3F8F0
:1017A000204110BD10B5024800F064FF10BD0000DC
:1017B000A0A3002010B5A2B0044601208DF833008C
:1017C000002012908DF841008DF8430001208DF823
:1017D00028008DF856008DF8320000208DF84C005E
:1017E00001208DF8840040030F9000208DF85C00EC
:1017F00018908DF885008DF886004FF4C360169020
:1018000000208DF830000B9001208DF8350000206D
:101810008DF836008DF840001D901B9014908DF8C7
:1018200064008DF87A0001208DF84200202020907D
:1018300001208DF8440000208DF855004FF04050F5
:1018400009904FF480400E9000208DF83100022066
:101850001F9000208DF878008DF879008DF85400E5
:1018600001208DF8340000201A9001208DF87000BE
:1018700009A9204600F062FA01208DF804000290C8
:10188000002000908DF81C008DF80D008DF80C00E4
:101890004FF40010069000208DF814004FF4001053
:1018A000049000208DF81D004FF4067008906946E2
:1018B000204600F0E5F922B010BD000070B50646E4
:1018C0003068D0F8004224F4706403F02BF8054629
:1018D0001348854205D31348854202D244F400746C
:1018E0001AE01048854205D30F48854202D244F4DD
:1018F000407411E00C48854203D30C48854200D265
:101900000AE00A48854205D30948854202D244F4D8
:10191000807401E044F480643068C0F8004270BD17
:10192000002D3101C00E16020087930300E1F5057A
:1019300080D1F0082DE9F04706460B46914606F1A6
:1019400018052A69D5F810C0002755F822109C68A0
:10195000C86800F00040B0F1004F02D10220BDE89D
:10196000F087187800F00400C8B3C8686FF30F0060
:10197000D3F824A040EA0A00C860C86840F4803068
:10198000C8603068006E40F48010D6F800A0CAF835
:101990006000187800F0080008B3B3F82CA088683D
:1019A0006AF31F408860C86840F40030C860C868A7
:1019B00020F44020D3F830A040EA0A00C860306824
:1019C000406E40F48010D6F800A0CAF86400306879
:1019D000006D40F08060D6F800A0CAF8500018787A
:1019E00000F0100058B188686FF30D00D3F818A00C
:1019F00040EA0A008860C86840F08060C8601878D3
:101A000000F0040018B9187800F01000F0B1C868B0
:101A100040F08040C860C86840F00040C86000BF27
:101A2000521C042A00D3121F00BF55F822107F1C3D
:101A3000C86800F00040B0F1004F07D155F82C10F5
:101A4000C86820F00040C860022088E77F1C20683A
:101A5000086088686FF30D00D4F804A040EA0A001B
:101A60008860A06868B1A468206848608868DFF86A
:101A70000CA200EA0A00B4F804A040EA0A40886018
:101A800007E0002048608868DFF8F0A100EA0A005B
:101A90008860187800F01000A0B1C86820F4F00049
:101AA000B3F820A040EACA40C860C8686FF31100CC
:101AB000D3F81CA040EA0A00C860C86840F480203F
:101AC000C8601FE0C8686FF30E00D3F804A040EAB6
:101AD0000A00C860187800F0010038B1C86820F426
:101AE0004030D3F814A040EA0A00C860187800F02B
:101AF000200038B1C86820F04060D3F810A040EA58
:101B00000A00C860187800F0040038B1886820F432
:101B10004040D3F828A040EA0A008860C86840F036
:101B20000050C860C86820F08040C860C86840F0B5
:101B30000040C860187800F0020038B1C86820F092
:101B40006070D3F80CA040EA0A00C8607EE0C86864
:101B500020F08050C86000BF521C042A00D3121F1E
:101B600000BF55F82210C86820F00050C860C8684F
:101B700000F00040B0F1004F17D1624655F8221036
:101B80004FF000080DE0C86820F00040C86000BFBA
:101B9000521C042A00D3121F00BF55F8221008F16E
:101BA0000108B845EFD30220D9E67F1CA46820685D
:101BB000086088686FF30D00D4F804A040EA0A00BA
:101BC0008860A06868B1A468206848608868DFF809
:101BD000ACA000EA0A00B4F804A040EA0A40886019
:101BE00007E0002048608868DFF890A000EA0A005B
:101BF0008860187800F0100060B1C8686FF31100B9
:101C0000D3F81CA040EA0A00C860C86840F48020ED
:101C1000C86013E0C8686FF30E00D3F804A040EA70
:101C20000A00C860187800F0010038B1C86820F4D4
:101C30004030D3F814A040EA0A00C860C86840F0F9
:101C40000040C860C86820F08040C860A0680028D4
:101C50007FF47DAFB9F1000F04D0886840F00040F8
:101C6000886003E0886820F000408860C86840F021
:101C70008050C8602A61002071E60000FFFF00C0AC
:101C800010B5036803F580531B6847F60204A343AD
:101C90000C682343046804F5805423600C798B6836
:101CA00043EA04330C7B43EAC432036803F58053F0
:101CB0005B684DF20104A3431343046804F58054A8
:101CC00063604C7B0B6A43EA0442036803F580536C
:101CD000D3F80031164C23401343046804F58054B4
:101CE000C4F800310C7D0B6943EA04134C7F43EACE
:101CF0000432036803F58053D3F804310D4C2340BC
:101D00001343046804F58054C4F804310C7F8B69D4
:101D100043EAC472036803F58053D3F80831064CD4
:101D200023401343046804F58054C4F8083110BDFF
:101D300000C0FEFFEFEFC0FFFFFFC07F10B50C68D3
:101D40008B6823430C7943EAC4630C7B43EAC45396
:101D50004C7B43EA84538C7B43EA4453CC7B43EA79
:101D600004530C7C0CB9012400E0002443EAC44372
:101D70004C7C0CB9012400E0002443EA44438C7CF1
:101D800043EA04434C6923438C6923430C7F43EAB1
:101D900004334C7F43EAC4238C7F0CB9012400E058
:101DA000002443EA8423CC7F43EA442391F8204073
:101DB0000CB9012400E0002443EA042351F8244F25
:101DC00023430C7943EA04138C6843EA0402036852
:101DD0001B683D4C23401343046823600B7E5B0665
:101DE0000C7D43EA04630C7B43EA84434C7B43EA67
:101DF00044438C7B24390CB9012400E0002443EADD
:101E000004434C6B43EA040203685B682F4C234095
:101E100013430468636091F840404B6C43EA04222A
:101E20000368DB6840F20F14A34313430468E360C4
:101E300091F854400B6D43EA440391F84C400CB9BF
:101E4000012400E0002443EAC41331F8484F43EA78
:101E5000044203681B6F4FF60D742340134304685C
:101E600023678B7B4C7B43EA44020368D3F89030B2
:101E700023F0030313430468C4F890300368D3F8D5
:101E8000003D23F072030C6923430468C4F8003D4D
:101E90000C7E4B6948390CB9012400E0002443EA68
:101EA000841391F8614043EA041391F8624043EAD5
:101EB000C4020368D3F8303D23F07B031343046866
:101EC000C4F8303D10BD0000838004000080F8C0DD
:101ED00010B54FF4004001F061F910BD01B9704731
:101EE00000BFFEE770B50446B3F5804F13D1D1E9CA
:101EF000000540EA05108D6840EA05208D692843F9
:101F00008D8940EA054054F82250064E354028435A
:101F100044F8220003E06FF0704044F822000020F3
:101F200070BD00000000F0CF70B50246086852F89E
:101F3000200020F001000E6842F82600886808287A
:101F400001D1402500E00025486828438E683043D1
:101F5000CE6830430E6930434E6930438E6930435A
:101F6000CE6930430E6A30434E6A30438E6A304346
:101F7000CE6A40EA0603086B0343486B0343886B51
:101F80000343114C44F4801444F4001444F4E0245A
:101F9000086852F82000A04318430E6842F8260053
:101FA000086BB0F5801F07D1086828B1106820F4CD
:101FB00080100E6B30431060086818B110684E6BCB
:101FC00030431060002070BD7FFB080030B5034631
:101FD000D1E9000540EA05108D6840EA05208D89A9
:101FE00040EA0545088A401E45EA0055087D801EE6
:101FF00045EA00608D692843551C53F8255005F0CB
:1020000040452843551C43F82500186800F480100B
:10201000B0F5801F0BD1586820F47004088A401E68
:1020200044EA0054586820F47000204358600020AF
:1020300030BD0000014800687047000060F50008EE
:102040001CB5002000901748807A00F0020028B1EB
:1020500014486A461121036801209847BDF8000022
:1020600000F40040BDF8001001F48041084308B1BD
:10207000012100E00021019861F301000190BDF809
:10208000000000F40040BDF8001001F400510843C6
:1020900008B1012100E00021019861F38200019064
:1020A00001981CBD10A4002038B5002000900848FD
:1020B000807A00F0020028B105486A4601210368D1
:1020C00008469847BDF80000C0F38004204638BD9C
:1020D00010A40020014611B96FF0040070470C48AD
:1020E000007900F0020010B94FF0FF30F6E7094820
:1020F0000268100A48710A710748D0F80423100ECC
:10210000C870100C8870100A48700A700020E5E74B
:102110001CA40020008302400080024008B5094949
:10212000086A094900F026FA50B90649086A694662
:1021300000F080FA0349086A00F086F8009808BDAC
:102140000020FCE71CA40020E8A4002001466FF05A
:10215000030070472DE9F05F4FF0000800BF002733
:10216000BA46F02007F046FCF42007F043FC024694
:10217000F52007F03FFC02EB002085B2F02007F0CD
:1021800039FC0646012E39D1F22024490880084640
:10219000B0F804908488B4F5C06F01DD4FF0010AF7
:1021A00009F4804020B1B4F5FA7F01DD4FF0010A57
:1021B000201D284485B204F0010008B1681C85B2D6
:1021C000B5F5804F02DBA5F5505085B2BAF1010F8D
:1021D00008D1290AF52007F015FCE9B2F42007F030
:1021E00011FC15E0601C4FEA600B201F87B208F15C
:1021F000010000F0FF083846BDE8F09F26B93F21F6
:10220000FE2007F0FFFB01E007F024F80020F3E7D1
:10221000B8F1010FA3DB0020EEE700000020006012
:1022200001466FF00300704708B50248006800904F
:1022300008BD000038F5000808B5024800680090A5
:1022400008BD00005CF50008F0B5044604F12C025E
:10225000536952F823109669906908B90120F0BDBE
:10226000D06900B1761C002522E0086908604FF0B3
:102270008070C860486928B148698860C86840F0C3
:102280000070C860C86840F00040C860106A18B1AB
:10229000C86840F08040C860701EA84207D900BFDF
:1022A0005B1C042B00D31B1F00BF52F823106D1CB6
:1022B000B542DAD3206800F58050C0F8281100201C
:1022C00090610027A76400BFC9E7704710B50446B6
:1022D00023206065204600F0C9FB0020606510BD2A
:1022E00030B504460D4604F12C0050F825100AB113
:1022F000042D02D30120E06530BD0A600A61C86880
:1023000040F08070C8602BB18B604B61C86840F0B2
:102310000070C860C86840F00040C8600020EBE76B
:102320007047024609B9012070471068006800F044
:102330000C00C86210680068C0F3001081F8280023
:102340001068006800F06000486210680068C0F320
:10235000002080F0010081F8200010680068C0F3C0
:102360004020C87710680068C0F3802080F001002A
:10237000887710680068C0F3C0204877106800684C
:10238000C0F3003008771068006800F400508861DE
:102390001068006800F48040486110680068C0F36D
:1023A0000040887410680068C0F3404080F001006D
:1023B000487410680068C0F3C04080F001000874E1
:1023C00010680068C0F30050C87310680068C0F35C
:1023D0004050887310680068C0F3805048731068DC
:1023E0000068C0F3C05008731068006800F0E06037
:1023F000886010680068C0F3C060087110680068E9
:1024000000F0E040086010684068C0F30D004863C9
:1024100010684068C0F3004080F0010081F832008D
:1024200010684068C0F3404081F83100106840688F
:10243000C0F3804081F8300010684068C0F300604D
:1024400081F8380010684068C0F34460C8631068C1
:10245000C068C0F3002081F840001068C06800F038
:102460000F0048641068006FC0F3400081F854000A
:102470001068006FC0F3C01080F0010081F84C00BC
:102480001068006F00F0700008651068006F000CA5
:1024900088641068D0F8900000F0010081F85600C0
:1024A0001068D0F89000C0F3400081F85500106823
:1024B000D0F8000D00F0720088651068D0F8300D7B
:1024C00000F02300C8651068D0F8300DC0F3C000DC
:1024D00081F862001068D0F8300DC0F3001081F868
:1024E00061001068D0F8300DC0F3801080F001005A
:1024F00081F86000002017E7024609B90120704703
:102500001068806800F00100087010688068C0F3EF
:102510004000C87010688068C0F3800008711068BF
:102520008068C0F3C000087210688068C0F30010B3
:10253000487110688068C0F3401080F00100487254
:102540001068806800F0C000C86010688068C0F340
:102550000020C87110688068C0F34020887110683E
:102560008068C0F38020887010688068C00F487051
:102570000020C4E72DE9F84F05468A4605F12C07EF
:10258000D7F814800020009057F8286054461CB9F2
:102590000120E865BDE8F88FB86948B9284600F021
:1025A000DBF908B90120F5E7D7F8148057F828605F
:1025B0004FF0000B1CE03069206068696060706952
:1025C00020B1A4687069206068696060F068C0F339
:1025D0000E00009000BF08F10108B8F1040F01D30C
:1025E000A8F1040800BF57F82860A4680BF1010B9C
:1025F000B869401E5845DED8F068C0F30E01009857
:10260000A1EB0009306920606869484502D3C4F82D
:1026100004900DE0706948B168696060A4687069F1
:1026200020606869A9EB0000606001E00120B1E76B
:102630000020AFE72DE9F04180460E4608F12C045A
:102640006569A06930B9404600F086F910B90120EB
:10265000BDE8F08100BFA069401E0544042D00D3F1
:102660002D1F00BF54F82570F868C0F30E003060CD
:102670000020EDE710B50446206800F58050D0F842
:10268000600100F04000402812D1206800F5805021
:10269000D0F8340100F04000402809D1204600F075
:1026A00005FB48F24001206800F58050C0F8601139
:1026B000206800F58050D0F8600100F0010088B17A
:1026C000206800F58050D0F8340100F0010048B1D6
:1026D000204600F047FC48F20101206800F58050D8
:1026E000C0F86011206800F58050D0F8600100F457
:1026F0008040B0F5804F41D1206800F58050D0F87F
:10270000340100F48040B0F5804F37D1E06D40F0E7
:102710000800E065206800F58050D0F8600100F402
:102720008050B0F5805F17D1206800F58050D0F858
:10273000600141F2021108402066206800F58050D7
:10274000D0F8340120F44041206800F58050C0F8F2
:102750003411E02060650EE0206800F58050D0F86C
:10276000600100F4CD4020664FF4CD41206800F5B3
:102770008050C0F860112046FFF7A7FD2068D0F810
:10278000B00000F4C040B0F5C04F0AD12068D0F8C6
:10279000B8006066E0206065204600F066F9002021
:1027A00060662068D0F8B00000F0100010280AD150
:1027B0002068D0F8C00000F06000A066204600F05D
:1027C0002DFA0020A0662068D0F8B00000F02000AC
:1027D00020280AD12068D0F8C00000F00F00E06681
:1027E0002046FFF79DFD0020E0660648006800F4E3
:1027F000800030B14FF4800002490860204600F0AC
:10280000BDFB10BDA800005838B504460CB9012026
:1028100038BD606D10B9204600F060F92320606576
:1028200000BF4B48006840F0020049490860084674
:10283000006800F00200009000BF00BF207A18B9C5
:10284000002002F0FDFD03E04FF4000002F0F8FD6F
:10285000206800F58050006840F00101206800F514
:102860008050016000F0B2FD05460BE000F0AEFDC7
:10287000401BB0F5FA7F05D90420E065E0206065D3
:102880000120C5E7206800F58050006800F00100D5
:102890000028EBD12046FFF711F802F043F82D494C
:1028A000B0FBF1F0401E2168C1F8DC002046FEF7C5
:1028B00081FF206800F58050D0F8000120F4E0107E
:1028C00040F40021206800F58050C0F80011207D00
:1028D00000F0030028B10120E065E02060650120E0
:1028E00096E7206800F58050D0F8080147F6FE71A1
:1028F0008843616940EA4101206800F58050C0F8D2
:1029000008112046FEF725FF2046FEF7F2FE60681C
:1029100000796168497940EA01202168C1F8000323
:102920006068C07800066168897840EA01406168A3
:10293000497840EA01206168097808432168C1F8B4
:1029400004030020E06510206065A06500205FE7BB
:10295000F444025840420F00F0B5074607F12C033B
:10296000196953F82120002500240026986908B130
:102970000020F0BD3DE06D1CD06800F0805000B339
:10298000641C012C00D10E4600BF491C042900D351
:10299000091F00BF53F82120D06800F0004058B94B
:1029A000D06800F0804038B10120D86100BF491CD8
:1029B000042900D3091F00BF19615E619C610120D9
:1029C000D7E7D06800F0005050B10E46012400BF98
:1029D000491C042900D3091F00BF53F8212008E037
:1029E000641C00BF491C042900D3091F00BF53F811
:1029F0002120D06800F0004008B9042DBBD384B377
:102A000019615E61314653F82120002522E01069EA
:102A100010604FF08070D060506928B150699060AC
:102A2000D06840F00070D060D06840F00040D060C6
:102A3000186A18B1D06840F08040D060601EA8428B
:102A400007D900BF491C042900D3091F00BF53F850
:102A500021206D1CA542DAD3386800F58050C0F8FB
:102A600028210020986100BF83E7704710B5044615
:102A700014492068884224D11348006820F400409B
:102A8000114908600846006820F480300860084654
:102A9000006820F40030086032210C4800F0BAFAD7
:102AA00086210B4800F0B6FA4FF40051094800F0B7
:102AB000B1FA4FF42051084800F0ACFA3D2000F084
:102AC00043FD10BD00800240D8440258000802585F
:102AD00000000258000402580018025810B586B0D1
:102AE00004464849206888427ED100BF46480068B5
:102AF00040F40040444908600846006800F4004083
:102B0000009000BF00BF00BF0846006840F480305E
:102B100008600846006800F48030009000BF00BFE5
:102B200000BF0846006840F40030086008460068AE
:102B300000F40030009000BF00BF00BF32480830F2
:102B4000006840F00100304908310860084600681C
:102B500000F00100009000BF00BF00BF0846006801
:102B600040F0020008600846006800F00200009093
:102B700000BF00BF00BF0846006840F004000860C6
:102B80000846006800F00400009000BF00BF00BFCE
:102B90000846006840F0400008600846006800F001
:102BA0004000009000BF00BF8620019001200490EB
:102BB00002200290002003900B20059001A91348E9
:102BC00000F0FAFA4FF40050019001A9104800F00B
:102BD000F3FA3220019001A90E4800F0EDFA4FF40B
:102BE0002050019001A900E00AE00B4800F0E4FA4F
:102BF000002203213D2000F0D1FC3D2000F0BAFC72
:102C000006B010BD00800240D844025800000258AF
:102C100000040258000802580018025810B5044673
:102C20000348006818B1024801680420884710BDB5
:102C30001CA400202DE9F04704460F469046994613
:102C40002068D0F8000200F0010010B10120BDE8BA
:102C5000F0872068D0F8005225F0787040EA475598
:102C600025F4F81040EA084545F00C0545F001054B
:102C70002068C0F8005200F0A9FB064607E000F00B
:102C8000A5FB801BB0F57A7F01D90120DFE7206822
:102C9000D0F8000200F001000028F0D12068D0F840
:102CA000040280B2C9F800000020D0E710B5044645
:102CB0000348006818B1024801680120884710BD28
:102CC0001CA4002070B504460D460DB9012070BD4E
:102CD000A06D102805D129462046FFF72FF80020C7
:102CE000F5E70120F3E7000010B5024609B901201D
:102CF00010BD0878CC7840EA44000C7940EA8400A2
:102D00000C7A40EAC4004C7940EA04104C7A0CB9C1
:102D1000012400E0002440EA4410CC7940EA042079
:102D20008C7940EA44208C7840EA84204C7840EA50
:102D3000C470CC6840EA040310688068034C2040EB
:102D400018431468A0600020D2E7000000F8FF7F5D
:102D500010B569B903681B6D6FF30F031343046863
:102D6000236503681B6D23F48033046823650CE03E
:102D700003681B6D6FF30B0313430468236503683B
:102D80001B6D43F480330468236510BD10B5014604
:102D9000486D10285BD123204865002208E001F12E
:102DA0002C0050F82230D86840F08040D860521C87
:102DB000042AF4D30124CC640868006840F00200BF
:102DC0000C6820600868006840F001000C68206012
:102DD0000868D0F8000D40F001000C68C4F8000D40
:102DE000086800F58050D0F8040140F0010408683C
:102DF00000F58050C0F80441086800F58050D0F814
:102E0000080140F00104086800F58050C0F808414E
:102E1000086800F58050D0F8600140F481740868BB
:102E200000F58050C0F86041086800F58050D0F887
:102E300034014DF2410420430C6804F58054C4F879
:102E400034011020486522208865002010BD012033
:102E5000FCE710B50146486D00284ED02320486598
:102E6000086800F58050D0F834014DF24104A043C9
:102E70000C6804F58054C4F83401086800F58050EB
:102E8000D0F8040120F00104086800F58050C0F873
:102E90000441086800F58050D0F8080120F00104D2
:102EA000086800F58050C0F808410868006820F004
:102EB00001000C6820600868D0F8000D40F00100A7
:102EC0000C68C4F8000D0868006820F002000C6867
:102ED0002060002208E001F12C0050F82230D86870
:102EE00020F08040D860521C042AF4D30024CC6423
:102EF000102048658865002010BD0120FCE770B5F2
:102F000004460D462DB9E06D40F00100E06501205A
:102F100070BD606D102822D1012229462046FEF79F
:102F200009FD28B1E06D40F00200E0650120EFE707
:102F300000BFA06A401CA062A06A042802D3A06A55
:102F4000001FA06200BF04F11800A16A50F8211010
:102F5000206800F58050C0F820110020D8E701203B
:102F6000D6E7000010B504460348006818B10248CF
:102F700001680220884710BD1CA400207047000093
:102F80002DE9F04705460F46904699462868D0F847
:102F9000000200F0010010B10120BDE8F0872868B0
:102FA000D0F8004224F0787040EA475424F4F81036
:102FB00040EA084424F00C00041D44F001041FFA08
:102FC00089F00D4908600D48C0F8004200F0FEF994
:102FD000064607E000F0FAF9801BB0F57A7F01D9C8
:102FE0000120DAE72868D0F8000200F0010000288C
:102FF000F0D100BFD1E7000004820240008002400F
:103000000348006840F00100014908607047000073
:1030100020040058F0B50C460021504B98E00126E2
:103020008E4006EA0402002A7ED04D4E8F0856F8E4
:1030300027508E07370F0F26BE403540494EB0420D
:1030400001D100262DE0484EB04201D1012628E0F2
:10305000464EB04201D1022623E0454EB04201D196
:1030600003261EE0434EB04201D1042619E0424E31
:10307000B04201D1052614E0404EB04201D10626EF
:103080000FE03F4EB04201D107260AE03D4EB0426C
:1030900001D1082605E03C4EB04201D1092600E0EE
:1030A0000A268F073F0FBE40AE421FD11E689643CF
:1030B0001E605E6896435E604FF0B0463668964389
:1030C0004FF0B0473E603E46766896437E608E077E
:1030D000370F0F2606FA07F5214E8F0856F827609E
:1030E000AE431F4F4FEA910C47F82C6006684FEA39
:1030F000410C032707FA0CF73E430660CF0800F1A6
:10310000200656F827604F074FEAD76C0F2707FABB
:103110000CF7BE434FEAD10C00F1200747F82C60B2
:10312000C6684FEA410C00E011E0032707FA0CF7EC
:10313000BE43C660476801268E40B7434760866835
:103140004FEA410C032707FA0CF7BE438660491C7F
:1031500024FA01F6002E7FF462AFF0BD8000005823
:1031600008040058000002580004025800080258E1
:10317000000C02580010025800140258001802589F
:10318000001C0258002002580024025810B50446C2
:10319000B4F5004F01D105F0F3FF10BD10B50446A2
:1031A00004480068204020B1024804602046FFF730
:1031B000EDFF10BD88000058F8B502460023734D9E
:1031C000DEE001279F400E6806EA0704002C71D05C
:1031D0004E68012E08D04E68022E05D04E68112E82
:1031E00002D04E68122E13D190685F000326BE40B5
:1031F000B0435F00CE68BE40304390605068012607
:103200009E40B0430E79C6F300169E403043506096
:10321000D0685F000326BE40B0435F008E68BE40AA
:103220003043D0604E68022E02D04E68122E13D169
:10323000DF0802F1200656F827005E07F70E0F267A
:10324000BE40B0435F07FF0E0E69BE403043DF084B
:1032500002F1200646F8270010685F000326BE40F2
:10326000B0430E7906F003065F00BE4030431060A5
:103270004E6806F08056B6F1805F1BD100BF444E09
:10328000366846F00206424F3E603E46366806F01B
:103290000206009600BF00BF3E4E9F0856F827006A
:1032A0009E07370F0F26BE40B0433B4EB24202D1BD
:1032B00000262EE063E0394EB24201D1012628E01B
:1032C000374EB24201D1022623E0364EB24201D13E
:1032D00003261EE0344EB24201D1042619E0334EDB
:1032E000B24201D1052614E0314EB24201D1062688
:1032F0000FE0304EB24201D107260AE02E4EB24214
:1033000001D1082605E02D4EB24201D1092600E088
:103310000A269F073F0FBE4030431E4E9F0846F8C7
:1033200027002868A0434E6806F48036B6F5803F33
:1033300000D1204328606868A0434E6806F4003638
:10334000B6F5003F00D1204368604FF0B0463068CA
:10335000A0434E6806F48016B6F5801F00D12043C6
:103360004FF0B04630607068A0434E6806F4001617
:10337000B6F5001F00D120434FF0B04670605B1CD3
:103380000E68DE40002E7FF41CAFF8BD80000058B0
:10339000F44402580804005800000258000402587F
:1033A00000080258000C025800100258001402587D
:1033B00000180258001C025800200258002402582D
:1033C00001480068000C70470010005C10B509F05F
:1033D000A9F9022802D109F0BDF910BD0C48006816
:1033E000840B0CE000BF00BF00BF00BF00BF00BFE8
:1033F00000BF00BF00BF00BF00BF00BF641E002CA5
:10340000F0D104480068401C02490860E5E700006C
:10341000FC900020EC90002010B5032000F0FCF898
:1034200001F0CAFA10490968C1F303210F4A515C3F
:1034300001F01F0120FA01F40B48006800F00F00B2
:103440001146085C00F01F0024FA00F008490860EB
:10345000084804600F2000F00FF808B1012010BDEB
:1034600000F060F80020FAE71844025828F5000838
:1034700000910020FC9000200146002070470000D1
:103480004178154A11600178F9B1121D4168116047
:10349000017B0907C27A41EA0261827A41EAC241AC
:1034A000427B41EA8241827B41EA4241C27B41EA5E
:1034B0000241427A41EA0221027A41EA420102785B
:1034C0001143054A0832116005E00021024A121D2D
:1034D0001160121D1160704798ED00E0BFF35F8F1F
:1034E0000548006820F48030034908600020024944
:1034F000703108607047000024ED00E040F00101E9
:10350000074A116006497039096841F48031044A5C
:10351000703A1160BFF34F8FBFF36F8F7047000099
:1035200094ED00E008B500BF0648006840F00200D6
:10353000044908600846006800F00200009000BFDF
:1035400000BF08BDF444025810B5014608460028E3
:103550000BDB00F01F0301229A40054B440943F89E
:103560002420BFF34F8FBFF36F8F00BF10BD00004B
:1035700080E100E00146084600280DDB00BF00BFE7
:1035800000F01F0301229A4043099B0003F1E0234E
:10359000C3F8002100BF00BF00BF70472DE9F05FF6
:1035A00080460D46164604F0B7FB074639462A46C4
:1035B000334601F00700C0F1070ABAF1040F02D93F
:1035C0004FF0040A01E0C0F1070AD14600F1040AF5
:1035D000BAF1070F02D24FF0000A01E0A0F1030A8E
:1035E000D4464FF0010A0AFA09FAAAF1010A0AEAD6
:1035F000020A0AFA0CFA4FF0010B0BFA0CFBABF1C2
:10360000010B0BEA030B4AEA0B042146404604F087
:103610008BFBBDE8F09F000000BF00F00702064BE7
:1036200019684FF6FF031940044B0B4343EA02218C
:10363000014B196000BF70470CED00E00000FA0577
:1036400010B501F06FF905490968C1F30211044A88
:10365000515C01F01F01C84010BD00002044025819
:1036600028F5000870B50146844D2D6805F0030368
:10367000824D2D68C5F30530804D2D1D2D68C5F395
:1036800000147E4D14352D68C5F3CC0515FB04F5EB
:1036900001EE105AB8EE411AF0EE410A00286FD040
:1036A00023B1012B4ED0022B6BD16BE0734D283D23
:1036B0002D68C5F340153DB3704D283D2D68C5F309
:1036C000C1066F4D25FA06F201EE102AF8EE411AF6
:1036D00001EE100AB8EE411A81EE812A9FED691AB7
:1036E000C0EE811A654D10352D68C5F3080501EE51
:1036F000105AB8EE411A31EE811AF7EE001A31EE87
:10370000211A22EE010A1CE001EE100AB8EE411A5D
:10371000DFED5D1A81EE812A9FED5A1AC0EE811A03
:10372000564D10352D68C5F3080501EE105AB8EE58
:10373000411A31EE811AF7EE001A31EE211A22EE0B
:10374000010A5BE001EE100AB8EE411ADFED4F1AF4
:1037500081EE812A9FED4B1AC0EE811A474D10353C
:103760002D68C5F3080501EE105AB8EE411A31EE86
:10377000811AF7EE001A31EE211A22EE010A3DE01D
:1037800077E01DE001EE100AB8EE411A9FED402AE5
:10379000C2EE011A9FED3B1A80EE812A374D10359B
:1037A0002D68C5F3080501EE105AB8EE411A32EE45
:1037B000011AB7EE002A31EE021A21EE810A1DE04D
:1037C00001EE100AB8EE411ADFED301A81EE812ABF
:1037D0009FED2C1AC0EE811A284D10352D68C5F3C7
:1037E000080501EE105AB8EE411A31EE811AF7EED3
:1037F000001A31EE211A22EE010A00BF00BF1F4D50
:1038000010352D68C5F3462501EE105AB8EE411A61
:10381000F7EE001A31EE211AC0EE011ABCEEE11AE1
:1038200081ED001A154D10352D68C5F3064501EEE2
:10383000105AB8EE411AF7EE001A31EE211AC0EE16
:10384000011ABCEEE11A81ED011A0C4D10352D68FC
:10385000C5F3066501EE105AB8EE411AF7EE001AEC
:1038600031EE211AC0EE011ABCEEE11A81ED021A06
:1038700003E000250D604D608D6070BD2844025846
:103880000090D003000000460024744C0024744AC9
:1038900020BCBE4B70B50146844D2D6805F0030376
:1038A000824D2D68C5F30550804D2D1D2D68C5F343
:1038B00000247E4D1C352D68C5F3CC0515FB04F5A1
:1038C00001EE105AB8EE411AF0EE410A00286FD00E
:1038D00023B1012B4ED0022B6BD16BE0734D283DF1
:1038E0002D68C5F340153DB3704D283D2D68C5F3D7
:1038F000C1066F4D25FA06F201EE102AF8EE411AC4
:1039000001EE100AB8EE411A81EE812A9FED691A84
:10391000C0EE811A654D18352D68C5F3080501EE16
:10392000105AB8EE411A31EE811AF7EE001A31EE54
:10393000211A22EE010A1CE001EE100AB8EE411A2B
:10394000DFED5D1A81EE812A9FED5A1AC0EE811AD1
:10395000564D18352D68C5F3080501EE105AB8EE1E
:10396000411A31EE811AF7EE001A31EE211A22EED9
:10397000010A5BE001EE100AB8EE411ADFED4F1AC2
:1039800081EE812A9FED4B1AC0EE811A474D183502
:103990002D68C5F3080501EE105AB8EE411A31EE54
:1039A000811AF7EE001A31EE211A22EE010A3DE0EB
:1039B00077E01DE001EE100AB8EE411A9FED402AB3
:1039C000C2EE011A9FED3B1A80EE812A374D183561
:1039D0002D68C5F3080501EE105AB8EE411A32EE13
:1039E000011AB7EE002A31EE021A21EE810A1DE01B
:1039F00001EE100AB8EE411ADFED301A81EE812A8D
:103A00009FED2C1AC0EE811A284D18352D68C5F38C
:103A1000080501EE105AB8EE411A31EE811AF7EEA0
:103A2000001A31EE211A22EE010A00BF00BF1F4D1D
:103A300018352D68C5F3462501EE105AB8EE411A27
:103A4000F7EE001A31EE211AC0EE011ABCEEE11AAF
:103A500081ED001A154D18352D68C5F3064501EEA8
:103A6000105AB8EE411AF7EE001A31EE211AC0EEE4
:103A7000011ABCEEE11A81ED011A0C4D18352D68C2
:103A8000C5F3066501EE105AB8EE411AF7EE001ABA
:103A900031EE211AC0EE011ABCEEE11A81ED021AD4
:103AA00003E000250D604D608D6070BD2844025814
:103AB0000090D003000000460024744C0024744A97
:103AC00020BCBE4B2DE9F04104460025A8462068E5
:103AD00000F00060B0F1006F30D1606E48B1B0F519
:103AE000801F0DD0B0F5001F10D0B0F5401F15D1CC
:103AF00013E0F948006840F40030F74908600FE02F
:103B00000221201D02F0EEFC054609E0022104F12D
:103B1000240002F099FD054602E001E0012500BF06
:103B200000BF55B9EC482430006820F44010616EA5
:103B30000843E9492431086000E0A846208800F4E1
:103B40008070B0F5807F2DD1606D05281AD2DFE836
:103B500000F0030A10171800DF48006840F4003036
:103B6000DD49086010E00021201D02F0BBFC054685
:103B70000AE0002104F1240002F066FD054603E09E
:103B800002E001E0012500BF00BF55B9D248243052
:103B9000006820F00700616D0843CF4924310860B8
:103BA00000E0A846208800F40070B0F5007F33D113
:103BB000A06D802817D003DC40B140281CD10CE058
:103BC000C02817D0B0F5807F16D114E0C248006835
:103BD00040F40030C049086010E00021201D02F0D0
:103BE00081FC05460AE0002104F1240002F02CFDCE
:103BF000054603E002E001E0012500BF00BF55B922
:103C0000B5482430006820F4E070A16D0843B24943
:103C10002431086000E0A846208800F48060B0F5F8
:103C2000806F38D1D4F8A400B0F5800F19D004DC2F
:103C300050B1B0F5001F1DD10DE0B0F5C00F17D089
:103C4000B0F5000F16D114E0A348006840F400302E
:103C5000A149086010E00021201D02F043FC054648
:103C60000AE0002104F1240002F0EEFC054603E026
:103C700002E001E0012500BF00BF5DB996482C308D
:103C8000006820F46000D4F8A410084392492C3155
:103C9000086000E0A846208800F40060B0F5006FDE
:103CA00038D1D4F8A800B0F1007F19D004DC50B1AD
:103CB000B0F1807F1DD10DE0B0F1407F17D0B0F1A1
:103CC000806F16D114E08448006840F400308249C7
:103CD000086010E00021201D02F004FC05460AE007
:103CE000002104F1240002F0AFFC054603E002E0ED
:103CF00001E0012500BF00BF5DB977482C300068A6
:103D000020F0E060D4F8A810084373492C31086013
:103D100000E0A846206800F00070B0F1007F27D1D5
:103D2000A06CA0B1102804D0202809D030280FD1D1
:103D30000CE06948006840F400306749086009E019
:103D40000221201D02F0CEFB054603E002E001E067
:103D5000012500BF00BF55B95F482030006820F042
:103D60003000A16C08435C492031086000E0A8469F
:103D7000208800F48050B0F5805F36D1E06DB0F55A
:103D8000005F19D004DC50B1B0F5805F1DD10DE0AB
:103D9000B0F5405F17D0B0F5804F16D114E04E4813
:103DA000006840F400304C49086010E00021201DFC
:103DB00002F098FB05460AE0002104F1240002F01D
:103DC00043FC054603E002E001E0012500BF00BF1F
:103DD00055B941482430006820F4E040E16D0843C3
:103DE0003D492431086000E0A846208800F40050D6
:103DF000B0F5005F34D1206EB0F5403F1DD007DC38
:103E000068B1B0F5803F0BD0B0F5003F18D10DE0A0
:103E1000B0F5802F12D0B0F5A02F11D10FE011E036
:103E20000121201D02F05EFB05460BE0012104F19B
:103E3000240002F009FC054604E003E002E001E092
:103E4000012500BF00BF55B923482430006820F485
:103E5000E020216E084320492431086000E0A84694
:103E6000208800F48040B0F5804F38D1D4F8AC0001
:103E7000B0F1405F1DD007DC68B1B0F1805F0BD0BE
:103E8000B0F1005F18D10DE0B0F1804F12D0B0F169
:103E9000A04F11D10FE011E00121201D02F022FB03
:103EA00005460BE0012104F1240002F0CDFB05469C
:103EB00004E003E002E001E0012500BF00BF6DB9AE
:103EC00005482C30006820F0E040D4F8AC100843DE
:103ED00001492C31086002E02C440258A846208891
:103EE00000F40040B0F5004F26D1E06E98B1B0F17B
:103EF000805F03D0B0F1005F0ED106E0F9480068A2
:103F000040F40030F749086008E00121201D02F06C
:103F1000E9FA054602E001E0012500BF00BF55B9FE
:103F2000F0482430006820F04050E16E0843ED492D
:103F30002431086000E0A846206800F08070B0F1ED
:103F4000807F27D1606CA0B1012804D0022809D05D
:103F500003280FD10CE0E348006840F40030E14949
:103F6000086009E00221201D02F0BCFA054603E0CA
:103F700002E001E0012500BF00BF55B9D94820305B
:103F8000006820F00300616C0843D64920310860C6
:103F900000E0A846206800F48000B0F5800F7DD1D5
:103FA000D148006840F48070CF490860FFF70EFAEE
:103FB000064606E0FFF70AFA801B642801D90325AC
:103FC00005E0C948006800F480700028F2D000BF06
:103FD00085BBC4484430006800F44070B4F8B010A9
:103FE00001F44071884213D0BE484430006820F488
:103FF0004077BC484430006840F48030B9494431CF
:1040000008600846006820F48030086008460760B1
:10401000D4F8B000B0F5807F15D1FFF7D7F9064688
:1040200009E0FFF7D3F9801B41F28831884202D9B9
:10403000032507E038E0AB4844300068C0F3400097
:104040000028EED000BF55BB00BFB4F8B00000F4AC
:104050004070B0F5407F0ED1A2481C38006820F4B3
:104060007C51A24AD4F8B000104041EA10109D499A
:104070001C39086007E09B481C38006820F47C501D
:1040800098491C390860974844300068B4F8B0106B
:10409000C1F30B0108439349443101E005E001E01D
:1040A000086002E0A84600E0A846207800F0010081
:1040B00068B3A06F182819D005DC48B1082808D0CB
:1040C000102816D10BE0202811D0282811D10FE09C
:1040D00011E00121201D02F005FA05460BE0012147
:1040E00004F1240002F0B0FA054604E003E002E027
:1040F00001E0012500BF00BF55B97A4828300068AB
:1041000020F03800A16F084376492831086000E0AC
:10411000A846207800F00200022828D1606F062807
:1041200015D2DFE800F003040A11121311E0012197
:10413000201D02F0D7F905460BE0012104F124000F
:1041400002F082FA054604E003E002E001E0012506
:1041500000BF00BF55B963482830006820F0070051
:10416000616F08435F492831086000E0A846207865
:1041700000F0040004282AD1D4F89000062815D2B3
:10418000DFE800F003040A11121311E00121201DE1
:1041900002F0A8F905460BE0012104F1240002F029
:1041A00053FA054604E003E002E001E0012500BF08
:1041B00000BF5DB94B482C30006820F00700D4F8F0
:1041C0009010084347492C31086000E0A846207849
:1041D00000F02000202836D1D4F88C00B0F1405FE8
:1041E0001DD007DC68B1B0F1805F0BD0B0F1005F8B
:1041F00018D10DE0B0F1804F12D0B0F1A04F11D125
:104200000FE011E00021201D02F06CF905460BE0E3
:10421000022104F1240002F017FA054604E003E04D
:1042200002E001E0012500BF00BF5DB92D48283044
:10423000006820F0E040D4F88C1008432949283168
:10424000086000E0A846207800F04000402836D101
:10425000D4F89800B0F5406F1DD007DC68B1B0F518
:10426000806F0BD0B0F5006F18D10DE0B0F5805F16
:1042700012D0B0F5A05F11D10FE011E00021201D98
:1042800002F030F905460BE0022104F1240002F0AF
:10429000DBF9054604E003E002E001E0012500BF90
:1042A00000BF5DB90F482C30006820F4E050D4F80E
:1042B000981008430B492C31086000E0A84620788C
:1042C00000F0800080283AD1D4F89C00B0F5C04FAF
:1042D00023D00DDC98B1B0F5005F11D0B0F5804F60
:1042E0001ED113E02C44025800480258FFFCFF0F77
:1042F000B0F5004F12D0B0F5204F11D10FE011E012
:104300000021201D02F0EEF805460BE0022104F129
:10431000240002F099F9054604E003E002E001E020
:10432000012500BF00BF4DB9B548006820F46040CA
:10433000D4F89C100843B249086000E0A8462078F1
:1043400000F00800082817D1D4F88000B0F5805F8D
:1043500007D1022104F1240002F076F908B14FF0F0
:104360000108A748001F006820F44050D4F88010CE
:104370000843A349091F0860207800F010001028A6
:1043800015D1D4F89400B0F5807F07D1022104F153
:10439000240002F059F908B14FF00108984800686C
:1043A00020F44070D4F894100843954908602068C0
:1043B00000F40020B0F5002F26D1D4F8A00030B1D1
:1043C000B0F5803F09D0B0F5003F0ED10CE00021E0
:1043D000201D02F087F8054609E0022104F12400BF
:1043E00002F032F9054602E001E0012500BF00BFFE
:1043F0004DB98348006820F44030D4F8A010084339
:104400007F49086000E0A846206800F48020B0F5ED
:10441000802F2DD1D4F88400B0F5801F06D0B0F5E0
:10442000001F0CD0B0F5401F11D10FE074482C389C
:10443000006840F4003072492C39086009E001211D
:1044400004F1240002F000F9054602E001E0012534
:1044500000BF00BF5DB96A48001F006820F440102B
:10446000D4F8841008436649091F086000E0A84694
:10447000206800F48030B0F5803F24D1E06C18B1A2
:10448000B0F5803F0FD108E05D482C38006840F45B
:1044900000305B492C39086007E00221201D02F042
:1044A00021F8054601E0012500BF00BF55B9544879
:1044B0000C38006820F48030E16C084350490C3916
:1044C000086000E0A846206800F00050B0F1005FEE
:1044D00007D1022104F1240002F0B6F808B14FF030
:1044E0000108206800F40030B0F5003F27D1E06FEC
:1044F000A0B1B0F5807F06D0B0F5007F0CD0B0F54C
:10450000407F0CD109E03E482C38006840F4003070
:104510003B492C39086004E003E002E001E001259A
:1045200000BF00BF55B93648001F006820F4407036
:10453000E16F08433249091F086000E0A84620687F
:1045400000F48010B0F5801F09D12D4808380068AC
:1045500020F00040216F084329490839086020688D
:1045600000F08050B0F1805F0AD1254848380068DB
:1045700020F48040D4F8B410084321494839086039
:10458000206800F40010B0F5001F09D11C4808385D
:10459000006820F08070A16E08431949083908604E
:1045A000206800F08040B0F1804F11D100BF144866
:1045B0004838006820F4004011494839086008462E
:1045C0000068D4F8B81008430D494839086000BFA6
:1045D000206800F00040B0F1004F09D108480C38C5
:1045E000006820F04050216D084305490C390860EF
:1045F000B8F1000F02D10020BDE8F0810120FBE7F7
:10460000584402582DE9F04104460D4614B90120E2
:10461000BDE8F081BD48006800F00F00A8420ED24E
:10462000BA48006820F00F002843B84908600846DF
:10463000006800F00F00A84201D00120E8E72078D0
:1046400000F0040004280ED1B1492069096801F086
:104650007001884207D9AE48006820F070002169D7
:104660000843AB490860207800F00800082811D101
:10467000A749091D6069096801F07001884209D9DC
:10468000A348001D006820F0700061690843A0493C
:10469000091D0860207800F01000102811D19C49F5
:1046A000091DA069096801F4E061884209D99848A8
:1046B000001D006820F4E060A16908439449091DC9
:1046C0000860207800F02000202811D1904908319E
:1046D000E069096801F07001884209D98C48083006
:1046E000006820F07000E1690843894908310860DA
:1046F000207800F0020002280ED18549E0680968A0
:1047000001F00F01884207D98148006820F00F00AE
:10471000E16808437E490860207800F00100002825
:1047200050D07B48006820F47060A1680843784945
:1047300008606068022807D1754818380068C0F31F
:104740004040F8B9012063E76068032807D170484A
:1047500018380068C0F34060A0B9012058E76068CD
:10476000012807D16A4818380068C0F3002048B90A
:1047700001204DE7664818380068C0F3800008B98A
:10478000012045E762480838006820F007006168AA
:1047900008435F4908390860FEF718FE064608E03E
:1047A000FEF714FE801B41F28831884201D90320B4
:1047B0002EE757480838006800F038006168B0EB11
:1047C000C10FEDD1207800F0020002280ED150492F
:1047D000E068096801F00F01884207D24C48006880
:1047E00020F00F00E1680843494908604748006825
:1047F00000F00F00A8420ED94448006820F00F00D6
:104800002843424908600846006800F00F00A842AB
:1048100001D00120FCE6207800F0040004280ED12D
:104820003B492069096801F07001884207D2384885
:10483000006820F07000216908433549086020783D
:1048400000F00800082811D13149091D6069096884
:1048500001F07001884209D22D48001D006820F047
:104860007000616908432A49091D0860207800F03A
:104870001000102811D12649091DA069096801F40A
:10488000E061884209D22248001D006820F4E060FF
:10489000A16908431E49091D0860207800F0200026
:1048A000202811D11A490831E069096801F0700126
:1048B000884209D216480830006820F07000E1698B
:1048C000084313490831086000F076F81049096878
:1048D000C1F303210F4A515C01F01F0120FA01F7D7
:1048E0000B48006800F00F001146085C00F01F0044
:1048F00027FA00F00849086008480760084800687F
:10490000FEF7BAFD8046404682E6000000200052D5
:104910001844025828F5000800910020FC9000205F
:10492000F490002010B500F047F80D490968C1F374
:1049300003210C4A515C01F01F0120FA01F40848E0
:10494000006800F00F001146085C00F01F0024FA18
:1049500000F005490860054804600846006810BD7D
:104960001844025828F5000800910020FC9000200F
:1049700000B5FFF7D7FF05490968C1F30211044AE2
:10498000515C01F01F01C84000BD00001C440258EA
:1049900028F5000800B5FFF7C5FF05490968C1F310
:1049A0000221044A515C01F01F01C84000BD000013
:1049B0001C44025828F50008F0B5824E366806F00F
:1049C000380636B1082E15D0102E15D0182E7DD1F0
:1049D00014E07C4E103E3668C6F3401646B1794E60
:1049E000103E3668C6F3C107774E26FA07F000E09E
:1049F0007548E5E07548E3E07548E1E0714E18362A
:104A0000366806F003046F4E18363668C6F3051193
:104A10006C4E1C36366806F001056A4E2436366840
:104A2000C6F3CC0616FB05F601EE106AB8EE410A95
:104A3000002971D024B1012C50D0022C6DD16DE031
:104A4000604E103E3668C6F340163EB35D4E103ED3
:104A50003668C6F3C1075C4E26FA07F301EE103A3A
:104A6000F8EE411A01EE101AB8EE411A81EE812AD1
:104A70009FED581AC0EE011A524E20363668C6F322
:104A8000080601EE106AB8EE411A31EE811AF7EE0F
:104A9000001A31EE211A62EE010A1EE001EE101A30
:104AA000B8EE411ADFED4C1A81EE812A9FED491ACA
:104AB000C0EE011A434E20363668C6F3080601EEF2
:104AC000106AB8EE411A31EE811A00E076E0F7EE96
:104AD000001A31EE211A62EE010A5BE001EE101AB3
:104AE000B8EE411A9FED3D2AC2EE011A9FED391A28
:104AF00080EE012A334E20363668C6F3080601EEF2
:104B0000106AB8EE411A32EE011AB7EE002A31EE01
:104B1000021A61EE810A3DE04EE01DE001EE101A3E
:104B2000B8EE411ADFED2E1A81EE812A9FED291A87
:104B3000C0EE011A234E20363668C6F3080601EE91
:104B4000106AB8EE411A31EE811AF7EE001A31EE12
:104B5000211A62EE010A1DE001EE101AB8EE411AA8
:104B60009FED1E2AC2EE011A9FED1A1A80EE012A4D
:104B7000144E20363668C6F3080601EE106AB8EE09
:104B8000411A32EE011AB7EE002A31EE021A61EE36
:104B9000810A00BF00BF0B4E20363668C6F346269A
:104BA000721C01EE102AB8EE411AC0EE811ABCEE5A
:104BB000E11A11EE100A00E0002001E0034800BFF6
:104BC00000BFF0BD104402580090D00300093D0022
:104BD00040787D01000000460024744C0024744A93
:104BE00020BCBE4B2DE9F047044614B90120BDE8B6
:104BF000F087207800F00100002872D0F7480068A4
:104C000000F03808F5481830D0F80090B8F1100FCF
:104C100006D0B8F1180F0FD109F0030002280BD10C
:104C2000EE4810380068C0F3404000286ED060683D
:104C300000286BD10120DAE700BF6068B0F5803F43
:104C400008D1E6481038006840F48030E349103954
:104C500008602EE0606868B9E0481038006820F409
:104C60008030DE49103908600846006820F4802052
:104C700008601EE06068B0F5A02F0DD1D74810384D
:104C8000006840F48020D549103908600846006863
:104C900040F4803008600CE0D0481038006820F400
:104CA0008030CE49103908600846006820F4802022
:104CB000086000BF6068A8B1FEF788FB054608E001
:104CC000FEF784FB401B41F28831884201D9032062
:104CD0008DE7C24810380068C0F340400028EFD08C
:104CE00014E014E0FEF772FB054608E0FEF76EFBE9
:104CF000401B41F28831884201D9032077E7B74849
:104D000010380068C0F340400028EFD100BF207881
:104D100000F0020002287BD1B048006800F038089B
:104D2000AE481830D0F80090B8F1000F05D0B8F1B7
:104D3000180F3AD109F00300B0BBA848103800683A
:104D4000C0F3800018B1E06808B901204FE700BF48
:104D5000FEF736FB41F20301884219D8206940284A
:104D60000AD19E480C38006820F47C3040F40030B2
:104D70009A490C39086016E098480C38006820F40D
:104D80007C30216940EA013094490C3908600AE01E
:104D900092480C38006820F0FE40217C40EA016017
:104DA0008E490C39086067E0FFE7E06888B38B48FC
:104DB0001038006820F01900E1680843874910396D
:104DC0000860FEF703FB054606E0FEF7FFFA401B0E
:104DD000022801D903200AE7804810380068C0F390
:104DE00080000028F1D000BFFEF7EAFA41F203018B
:104DF00088421BD8206940280CD178480C380068BC
:104E000020F47C3040F4003074490C39086018E01C
:104E100033E017E071480C38006820F47C302169D9
:104E200040EA01306D490C3908600AE06B480C38E3
:104E3000006820F0FE40217C40EA016067490C399F
:104E4000086019E065481038006820F001006349E7
:104E500010390860FEF7BAFA054606E0FEF7B6FA22
:104E6000401B022801D90320C1E65C4810380068C5
:104E7000C0F380000028F1D100BF207800F01000BE
:104E800010287CD15548006800F038085348183085
:104E9000D0F80090B8F1080F06D0B8F1180F3DD146
:104EA00009F00300012839D14C4810380068C0F3DC
:104EB000002020B1E069802801D0012097E600BFE2
:104EC000FEF77EFA41F2030188421AD8206A2028B0
:104ED0000AD142480C38006820F0F84040F0804089
:104EE0003E490C39086018E03C480C38006820F056
:104EF000F84094F8201040EA816038490C39086085
:104F00000BE03648001F006820F07C5094F8201019
:104F100040EA01603149091F086067E0E06978B341
:104F20002E481038006840F080002C491039086085
:104F3000FEF74CFA054606E0FEF748FA401B022849
:104F400001D9032053E6254810380068C0F300203B
:104F50000028F1D000BFFEF733FA41F20301884286
:104F60001CD8206A20280CD11C480C38006820F07E
:104F7000F84040F0804019490C3908601AE036E0EA
:104F800019E016480C38006820F0F84094F820101A
:104F900040EA816011490C3908600BE00F48001F9E
:104FA000006820F07C5094F8201040EA01600B4922
:104FB000091F08601AE009481038006820F08000D6
:104FC000064910390860FEF701FA054608E0FEF7C9
:104FD000FDF9401B022803D9032008E610440258BB
:104FE000F3480068C0F300200028F0D100BF20780B
:104FF00000F00800082836D16069D0B1EC48743060
:10500000006840F00100EA4974310860FEF7DEF9FB
:10501000054606E0FEF7DAF9401B022801D9032015
:10502000E5E5E34874300068C0F340000028F1D0A3
:1050300019E0DF487430006820F00100DC49743169
:105040000860FEF7C3F9054606E0FEF7BFF9401B0E
:10505000022801D90320CAE5D54874300068C0F39E
:1050600040000028F1D1207800F02000202830D125
:10507000A069B8B1CE48006840F48050CC490860BF
:10508000FEF7A4F9054606E0FEF7A0F9401B02284A
:1050900001D90320ABE5C6480068C0F340300028C2
:1050A000F2D016E0C248006820F48050C049086081
:1050B000FEF78CF9054606E0FEF788F9401B02284A
:1050C00001D9032093E5BA480068C0F340300028B6
:1050D000F2D1207800F0040004287DD1B5480068A2
:1050E00040F48070B3490860FEF770F9054606E0A9
:1050F000FEF76CF9401B642801D9032077E5AD4821
:10510000006800F480700028F2D000BFA068012879
:1051100008D1A7487030006840F00100A449703100
:1051200008602DE0A06868B9A1487030006820F0E0
:1051300001009F49703108600846006820F00400B3
:1051400008601DE0A06805280DD1994870300068FE
:1051500040F004009649703108600846006840F04D
:10516000010008600CE092487030006820F00100F7
:105170008F49703108600846006820F0040008601C
:1051800000BFA068A0B1FEF721F9054608E0FEF7D0
:105190001DF9401B41F28831884201D9032026E5E0
:1051A000834870300068C0F340000028EFD013E05F
:1051B000FEF70CF9054608E0FEF708F9401B41F23E
:1051C0008831884201D9032011E5794870300068A0
:1051D000C0F340000028EFD1606A00287DD07448F9
:1051E0001030006800F03800182877D0606A022874
:1051F00075D16F48006820F080706D490860FEF737
:10520000E5F8054606E0FEF7E1F8401B022801D963
:105210000320ECE466480068C0F340600028F2D147
:1052200000BFD4E90A1041EA001061492831096839
:1052300040F2F332914308435D4928310860208EE3
:10524000401EC0F30800616B491E4FF47E4202EA23
:1052500041210843218F491ED20102EA014108433E
:105260003C21095D491E120202EA016108435049CE
:105270003031086000BF081F006820F00100091FDE
:1052800008604B48343000684FF6F8718843A16CD1
:1052900040EAC10046493431086045482C30006876
:1052A00020F00C00216C084341492C31086008466D
:1052B000006820F00200616C08433D492C31086011
:1052C0000846006840F4803008600846006840F4F2
:1052D000003008600846006802E066E038E01FE041
:1052E00040F4802008600846006840F00100086033
:1052F0002F48006840F080702D490860FEF766F87E
:10530000054606E0FEF762F8401B022801D903209B
:105310006DE427480068C0F340600028F2D044E004
:105320002348006820F0807021490860FEF74EF89D
:10533000054606E0FEF74AF8401B022801D9032083
:1053400055E41B480068C0F340600028F2D12CE00F
:10535000174828300768164830300668606A012808
:1053600021D007F00301A06A81421CD1C7F30511C7
:10537000E06A884217D1C6F30801206B401E8142C3
:1053800011D1606B401EC6F3462188420BD1A06B41
:10539000401EC6F30641884205D1E06B401EC6F3AD
:1053A0000661884201D0012021E400201FE40000B2
:1053B00000440258004802584FF0E020006940F0D5
:1053C00002004FF0E02108617047000070B504460C
:1053D0000E4615460CB9012070BD94F8450028B959
:1053E000002084F84400204600F028F804F1080169
:1053F0002068FCF799FD3146A2682068FCF7E6FDBD
:105400002946E36AD4E90102FCF76CFDA168206833
:1054100050F8210040F00100A268216841F8220004
:105420000548006840F0004003490860012084F806
:1054300045000020D0E70000004000527047000007
:105440000349096821F460010143014A1160704772
:10545000040400584FF0E020006920F002004FF0F3
:10546000E0210861704710B504460CB9012010BD59
:1054700094F83D0028B9002084F83C00204600F054
:1054800029F8022084F83D00211D206801F0EAFD82
:10549000012084F8480000BF84F83E0001213F202D
:1054A000015540200155412001554220015543201E
:1054B000015500BF00BF012084F84400452001557C
:1054C000462001554720015500BF012084F83D00CA
:1054D0000020CCE770470000014691F83D0001280C
:1054E00001D001207047022081F83D0008688068E3
:1054F000074B00EA0302062A08D0B2F5803F05D028
:105500000868006840F001000B6818600020E9E7B7
:105510000700010010B504460CB9012010BDA069B8
:1055200000B100E000BFD4F8800028B9002084F862
:105530007C00204600F02AF82420C4F8800020686F
:10554000006820F0010021680860204601F02CFF6F
:10555000012800D1E2E7A06A10B1204601F06EFEFA
:105560002068406820F49040216848602068806886
:1055700020F02A00216888602068006840F001005F
:1055800021680860204601F0D5FEC7E7704700009B
:1055900000B59BB04C2108A8FBF77AFA1C2101A8A2
:1055A000FBF776FA184808901848099005200190F2
:1055B00002200290039001200490022005900690A2
:1055C000002007900A9000210B910C9120210D9151
:1055D00000210E910F9110914FF4805111910021F3
:1055E00012911391149115911691179101AA01A985
:1055F00008A8FFF7EBFE20B14FF4927104A0FCF76E
:105600006DFC1BB000BD0000004000520441005280
:105610002E2E5C2E2E5C557365725C6273705C730B
:1056200072635C6273705F666D635F696F2E6300A7
:1056300000B587B000BF3E48006840F008003C4914
:1056400008600846006800F00800019000BF00BF35
:1056500000BF0846006840F0100008600846006877
:1056600000F01000019000BF00BF00BF08460068B6
:1056700040F0400008600846006800F040000190DB
:1056800000BF00BF00BF0846006840F0800008600F
:105690000846006800F08000019000BF00BF00BF16
:1056A0000846006840F4807008600846006800F40E
:1056B0008070019000BF00BF00BF1D480C3800681B
:1056C00040F480501A490C3908600846006800F41C
:1056D0008050019000BF00BF022003900120049081
:1056E000032005900C2006904CF2B370029002A9A2
:1056F0001048FDF761FD4FF68070029002A90E4838
:10570000FDF75AFD0320029002A90C48FDF754FD55
:105710004FF47F40029002A90948FDF74DFD40F289
:10572000CF60029002A90748FDF746FD07B000BD13
:10573000E0440258000C02580010025800180258A9
:10574000001C025800200258014604480068084026
:1057500008B1012070470020FCE70000E89000201D
:1057600029B9084A12688243064B1A6004E0054AC8
:1057700012680243034B1A60024A1268024B1A6015
:1057800070470000E89000200010006010B532491A
:10579000096801F0004149B12F49096841F0004111
:1057A0002D4A11608169891C816110BD2A4908391F
:1057B00009682A4A11622849091F097882F82410C9
:1057C0002549C91E0978916223490C310968D162C3
:1057D0002149891E098811861F49096851631E499C
:1057E000091D096891631C4910310968D1631CA225
:1057F00000210BE0535C254CA36200BF234BDB6907
:1058000003F04003002BF9D04B1CD9B22929F1D366
:1058100000211F4A116000BF1D4909680029FBD003
:105820000E4A016811604168516081689160C168E9
:10583000D160016911614169516181699161C169F9
:10584000D1610021124A116000BF11490968002985
:10585000FBD000BFA9E700002CED00E060A3002012
:105860000D0A456E74657220486172644661756CFC
:10587000745F48616E646C65722C20537973746533
:105880006D2048616C742E0D0A000000001001406C
:105890000491002000B5B5B00120019000201F90B8
:1058A00001A8FEF70FF900BF6548006840F001004D
:1058B000634908600846006800F00100009000BFDE
:1058C00000BF00BF0846006840F0010008600846BD
:1058D000006800F00100009000BF00BF00BF584802
:1058E0001030006840F0100055491031086008463B
:1058F000006800F01000009000BF00BF4FF400707F
:105900003090022031900120329003203390072004
:10591000349030A94B48FDF74FFC4FF48060309035
:105920000720349030A94748FDF746FC00220421A7
:105930002520FDF733FE2520FDF71CFE0C23002259
:105940004FF4E131404802F08DFF3F48006A40F0DB
:1059500040003D4908620846806940F008008861BF
:105960000846006840F02000086000BF3448006826
:1059700040F00200324908600846006800F002006A
:10598000009000BF00BF00BF0846006840F0020062
:1059900008600846006800F00200009000BF00BFE9
:1059A00000BF27480830006840F4802024490831AF
:1059B00008600846006800F48020009000BF00BF27
:1059C0004FF480603090022031900120329003200B
:1059D00033900720349030A91C48FDF7EDFB4FF4BD
:1059E000006030900720349030A91848FDF7E4FBA0
:1059F000032204212720FDF7D1FD2720FDF7BAFD62
:105A00000C2300224FF41651114802F02BFF1048CE
:105A10002030006840F040000D49203108600C48FB
:105A20001830006840F0080009491831086008483B
:105A3000006840F020000649086035B000BD000055
:105A4000E0440258000002580010014000040258CF
:105A500000480040024602B111B96FF004007047DF
:105A60000748807A00F0010038B9054802604160BB
:105A70000020034B1881012098720020EFE70000FE
:105A800010A4002010B504461448154908601549B3
:105A90001348C160144901614FF4BF61416113486B
:105AA0000F49486001210E48017234211048FAF76D
:105AB000EFFF21200E4908604FF44030486100207C
:105AC000086124210B48FAF7E3FF054809490862F9
:105AD0000846046001200871002010BD00800240CB
