:020000040800F2
:10000000709B002071030008132F0008ED04000806
:100010000F2F0008A9050008314500080000000066
:10002000000000000000000000000000AD02000819
:10003000350600080000000009030008ED32000842
:100040008B0300088B0300088B0300088B03000858
:100050008B0300088B0300088B0300088B03000848
:100060008B0300088B0300088B0300088B03000838
:100070008B0300088B0300088B0300088B03000828
:100080008B0300088B0300088B0300088B03000818
:100090008B0300088B0300088B0300088B03000808
:1000A0008B0300088B0300088B0300088B030008F8
:1000B000613500088B0300088B0300088B030008E0
:1000C0008B0300088B0300088B0300088B030008D8
:1000D0008B030008794200088B030008894200085E
:1000E0008B0300088B030008000000008B0300084E
:1000F0008B0300088B0300088B0300088B030008A8
:100100008B0300088B0300088B0300088B03000897
:100110008B0300088B030008153600088B030008CA
:100120008B0300088B0300088B0300088B03000877
:100130008B0300088B0300088B0300088B03000867
:1001400000000000000000000000000000000000AF
:100150008B0300088B0300088B0300088B03000847
:100160008B0300088B0300088B0300088B03000837
:100170008B0300088B0300088B03000800000000BD
:100180008B0300088B0300088B0300088B03000817
:100190008B0300088B0300088B0300088B03000807
:1001A0008B0300088B0300088B0300088B030008F7
:1001B0008B0300088B0300088B0300088B030008E7
:1001C0008B0300088B0300088B0300088B030008D7
:1001D0008B0300088B0300088B0300088B030008C7
:1001E0008B0300088B0300088B0300088B030008B7
:1001F0008B0300088B0300088B0300088B030008A7
:100200008B0300088B0300088B0300088B03000896
:100210008B0300088B0300088B0300088B03000886
:100220008B0300088B0300088B030008000000000C
:100230008B0300088B030008000000008B030008FC
:100240008B0300088B0300088B0300088B03000856
:100250008B0300088B0300088B0300088B03000846
:100260008B0300088B0300088B0300088B03000836
:100270008B0300088B0300088B03000800000000BC
:100280008B030008000000008B0300080000000042
:10029000000000008B030008DFF80CD000F014F918
:1002A000004800471B510008709B00202D4B196827
:1002B0000868B0E8F04F80F30988BFF36F8F4FF004
:1002C000000080F3118870470000000008480068B3
:1002D000006880F308884FF0000080F3148862B64D
:1002E00061B6BFF34F8FBFF36F8F00DF00BF00BF5A
:1002F00008ED00E0DFF80C00016841F470010160D6
:10030000704700BF88ED00E0EFF30980BFF36F8F07
:10031000144B1A681EF0100F08BF20ED108A20E958
:10032000F04F106009B44FF0100072B680F31188DE
:10033000BFF34F8FBFF36F8F62B606F0CDF94FF06A
:10034000000080F3118809BC19680868B0E8F04F14
:100350001EF0100F08BFB0EC108A80F30988BFF3BD
:100360006F8F704748000020EFF305807047000052
:100370000648804706480047FEE7FEE7FEE7FEE73F
:10038000FEE7FEE7FEE7FEE7FEE7FEE7B93400081A
:10039000990200082DE9F05F0546002092469B4631
:1003A00088460646814640241BE02846414647468B
:1003B000224600F079F853465A46C01A914110D3AC
:1003C00011461846224600F060F82D1A67EB010826
:1003D0004F4622460120002100F057F817EB000994
:1003E0004E41201EA4F10104DFDC484631462A4676
:1003F0004346BDE8F09F40EA01039B0703D009E0B4
:1004000008C9121F08C0042AFAD203E011F8013B00
:1004100000F8013B521EF9D27047D2B201E000F859
:10042000012B491EFBD270470022F6E710B5134698
:100430000A4604461946FFF7F0FF204610BD421C4D
:1004400010F8011B0029FBD1801A7047034611F8F0
:10045000012B00F8012B002AF9D11846704730B55E
:100460000B46014600202022012409E021FA02F572
:100470009D4205D303FA02F5491B04FA02F528440C
:10048000151EA2F10102F1DC30BD202A04DB203A66
:1004900000FA02F1002070479140C2F1200320FAD7
:1004A00003F3194390407047202A04DB203A21FAD5
:1004B00002F00021704721FA02F3D040C2F120027D
:1004C0009140084319467047064C074D06E0E06826
:1004D00040F0010394E8070098471034AC42F6D38B
:1004E000FFF7DEFECC750008EC7500081EF0040F67
:1004F0000CBFEFF30880EFF3098002F005BB0000AA
:100500001CB51548012100234A02CDE9001013A1B2
:10051000154806F049FD1548022100230A02CDE9DD
:10052000001013A1154806F03FFD154803210023D4
:100530004FF40072CDE9001012A1154806F034FD09
:10054000144804210023CA01CDE9001012A1154866
:1005500006F02AFD1CBD00000000002076546173E7
:100560006B55736572494600A967000804000020B6
:10057000765461736B4C45440000000079640008B8
:1005800008000020765461736B4D736750726F00E2
:10059000716500080C000020765461736B53746120
:1005A000727400000566000800BFFEE710B502F097
:1005B0005FFE02F00FFE10BD10B504460CB91248E4
:1005C00010BD012C01D10020FAE7022C01D10F4807
:1005D000F6E7032C01D10020F2E7042C01D1002022
:1005E000EEE7052C01D10020EAE7062C01D100201E
:1005F000E6E7072C01D10020E2E74FF48E7104A05A
:1006000000F019F80020DBE7A8010020D409002041
:100610002E2E5C2E2E5C557365725C6273705C735B
:1006200072635C6273705F756172745F6669666F36
:100630002E630000704701B9704700BFFEE700005D
:1006400070B504461D460023B5F5804F13D154F80C
:1006500022300C480340D1E9000640EA06108E68BB
:1006600040EA06208E8940EA06408E693043034303
:1006700044F8223003E06FF0704044F8220000207C
:1006800070BD00000000F0CF10B5024600230868DE
:1006900052F820301B480340D1E901042043CC68C4
:1006A00020430C6920434C6920438C692043CC696A
:1006B00020430C6A20434C6A20438C6A2043CC6A56
:1006C00020430C6B20438C6B20434C6B2043034333
:1006D0008868082801D143F04003086842F82030B8
:1006E000086BB0F5801F05D1086818B110680C6B55
:1006F00020431060086818B110684C6B20431060EC
:10070000002010BD8004C0FF30B50346144600220F
:10071000601C53F8202002F04042D1E9000540EA75
:1007200005108D6840EA05208D8940EA0545088A54
:10073000401E45EA0055087D801E45EA00608D692F
:1007400028430243601C43F82020186800F48010FE
:1007500038B1586820F47002088A401E42EA0052FC
:100760005A60002030BD00000348006840F00100DE
:10077000014908607047000020040058F8B502469F
:100780000B460021002600240020824D00BFFCE023
:10079000012707FA01F61F6807EA0604B4427CD174
:1007A0005F68022F02D05F68122F1AD14FEAD10C76
:1007B00002F1200757F82C004F074FEAD76C0F279C
:1007C00007FA0CF7B8434FEA417C4FEADC6C1F692B
:1007D00007FA0CF738434FEAD10C02F1200747F82B
:1007E0002C0010684FEA410C032707FA0CF7B843B6
:1007F0001F7907F003074FEA410C07FA0CF738435B
:1008000010605F68012F08D05F68022F05D05F6815
:10081000112F02D05F68122F17D190684FEA410C58
:10082000032707FA0CF7B8434FEA410CDF6807FAD1
:100830000CF738439060506801278F40B8431F7908
:10084000C7F300178F4038435060D0684FEA410C1F
:10085000032707FA0CF7B8434FEA410C9F6807FAE1
:100860000CF73843D0605F6807F08057B7F1805FBE
:1008700095D100BF484F3F6847F00207DFF818C125
:10088000CCF8007067463F6807F00207009700BF8A
:1008900000BF424F4FEA910C00E075E057F82C0082
:1008A0008F074FEA177C0F2707FA0CF7B8433C4F26
:1008B000BA4201D100272DE03A4FBA4201D10127B7
:1008C00028E0394FBA4201D1022723E0374FBA421C
:1008D00001D103271EE0364FBA4201D1042719E0A7
:1008E000344FBA4201D1052714E0334FBA4201D147
:1008F00006270FE0314FBA4201D107270AE0304FF7
:10090000BA4201D1082705E02E4FBA4201D109278A
:1009100000E00A274FEA817C4FEA1C7C07FA0CF7BB
:1009200038431E4F4FEA910C47F82C002868A0432B
:100930005F6807F48037B7F5803F00D12043286017
:100940006868A0435F6807F40037B7F5003F00D13F
:10095000204368604FF0B0473868A0435F6807F4F1
:100960008017B7F5801F00D120434FF0B0473860A3
:100970007868A0435F6807F40017B7F5001F00D13F
:1009800020434FF0B0477860491C1029FFF400AFB6
:10099000F8BD000080000058F444025808040058D4
:1009A000000002580004025800080258000C0258C7
:1009B000001002580014025800180258001C025877
:1009C000002002580024025810B506F01DFB022832
:1009D00009D100BFEFF3058010B106F02BFB10BD6D
:1009E00006F022FBFBE70C480068840B0CE000BF1C
:1009F00000BF00BF00BF00BF00BF00BF00BF00BFFF
:100A000000BF00BF00BF641E002CF0D10348006887
:100A1000401C02490860E2E73C000020380000204A
:100A200010B5032000F0C0F80F2000F007F808B15F
:100A3000012010BD00F06AF80020FAE7014600200E
:100A4000704700004178154A11600178F9B1121D14
:100A500041681160017B0907C27A41EA0261827A2A
:100A600041EAC241427B41EA8241827B41EA424102
:100A7000C27B41EA0241427A41EA0221027A41EA1A
:100A8000420102781143054A0832116005E0002155
:100A9000024A121D1160121D1160704798ED00E0AE
:100AA00000BF00BF00BFBFF35F8F00BF00BF00BF2C
:100AB0000548006820F4803003490860002002499E
:100AC000703108607047000024ED00E040F0010143
:100AD0000D4A11600C497039096841F480310A4AA5
:100AE000703A116000BF00BF00BFBFF34F8F00BF5F
:100AF00000BF00BF00BF00BF00BFBFF36F8F00BFCC
:100B000000BF00BF7047000094ED00E07047014651
:100B10000846002809DB00F01F0301229A40430920
:100B20009B0003F1E023C3F8002100BF70472DE9CB
:100B3000F05F80460D46164603F020FD0746394615
:100B40002A46334601F00700C0F1070ABAF1040F44
:100B500002D94FF0040A01E0C0F1070AD14600F1C2
:100B6000040ABAF1070F02D24FF0000A01E0A0F127
:100B7000030AD4464FF0010A0AFA09FAAAF1010A57
:100B80000AEA020A0AFA0CFA4FF0010B0BFA0CFB04
:100B9000ABF1010B0BEA030B4AEA0B04214640467A
:100BA00003F0F4FCBDE8F09F00BF00F00702064B25
:100BB00019684FF6FF031940044B0B4343EA022127
:100BC000014B196000BF70470CED00E00000FA0512
:100BD00010B501F067F90949096801F470614FF433
:100BE000807292FAA2F2B2FA82F2D140044A515CC7
:100BF000C840044908600846006810BD18440258FF
:100C0000BC7500083C00002010B501F003F907494D
:100C1000096801F07001102292FAA2F2B2FA82F28F
:100C2000D140034A515CC84010BD00002044025826
:100C3000BC75000870B50146002201200023002485
:100C40009FED811AB0EE410A9FED7F1AF0EE410A46
:100C50007E4D2D6805F003027C4D2D68C5F30530EF
:100C60007A4D2D1D2D6805F01003784D14352D6833
:100C7000C5F3CC0515FB03F501EE105AB8EE411A89
:100C8000B0EE410A22B1012A4DD0022A7DD169E09D
:100C90006E4D283D2D68C5F340152DB36B4D283D95
:100CA0002D68C5F3C1066A4D25FA06F4B4FBF0F5CC
:100CB00001EE105AF8EE411A9FED661A80EE012AF5
:100CC000624D10352D68C5F3080501EE105AB8EED7
:100CD000411A32EE011AB7EE002A31EE021A21EE65
:100CE000811AF0EE410A1DE0594DB5FBF0F501EE19
:100CF000105AF8EE411A9FED571A80EE012A534D13
:100D000010352D68C5F3080501EE105AB8EE411AEA
:100D100032EE011AB7EE002A31EE021A21EE811AE4
:100D2000F0EE410A5EE04C4DB5FBF0F501EE105AD5
:100D3000B8EE412A9FED471AC0EE011A434D103517
:100D40002D68C5F3080501EE105AB8EE411A31EED0
:100D5000811AF7EE001A31EE211A22EE011AF0EE96
:100D6000410A3FE03D4DB5FBF0F501EE105AF8EEBB
:100D7000411A9FED381A80EE012A344D10352D6846
:100D8000C5F3080501EE105A00E00CE0B8EE411A78
:100D900032EE011AB7EE002A31EE021A21EE811A64
:100DA000F0EE410A1EE02C4DB5FBF0F501EE105AB5
:100DB000B8EE412A9FED271AC0EE011A234D1035D7
:100DC0002D68C5F3080501EE105AB8EE411A31EE50
:100DD000811AF7EE001A31EE211A22EE011AF0EE16
:100DE000410A00BF00BF194D10352D68C5F34625D7
:100DF0006D1C01EE105AB8EE411AC0EE811ABCEE1D
:100E0000E11A81ED001A114D10352D68C5F3064524
:100E10006D1C01EE105AB8EE411AC0EE811ABCEEFC
:100E2000E11A81ED011A094D10352D68C5F30665EB
:100E30006D1C01EE105AB8EE411AC0EE811ABCEEDC
:100E4000E11A81ED021A70BD00000000284402582A
:100E50000090D0030000004600093D0040787D016D
:100E600070B5014600220120002300249FED811A65
:100E7000B0EE410A9FED7F1AF0EE410A7E4D2D68DB
:100E800005F003027C4D2D68C5F305507A4D2D1DEC
:100E90002D6805F48073784D1C352D68C5F3CC059D
:100EA00015FB03F501EE105AB8EE411AB0EE410AF7
:100EB00022B1012A4DD0022A7DD169E06E4D283D34
:100EC0002D68C5F340152DB36B4D283D2D68C5F336
:100ED000C1066A4D25FA06F4B4FBF0F501EE105A8E
:100EE000F8EE411A9FED661A80EE012A624D183520
:100EF0002D68C5F3080501EE105AB8EE411A32EE1E
:100F0000011AB7EE002A31EE021A21EE811AF0EE34
:100F1000410A1DE0594DB5FBF0F501EE105AF8EE0F
:100F2000411A9FED571A80EE012A534D18352D684E
:100F3000C5F3080501EE105AB8EE411A32EE011A57
:100F4000B7EE002A31EE021A21EE811AF0EE410AC4
:100F50005EE04C4DB5FBF0F501EE105AB8EE412ABB
:100F60009FED471AC0EE011A434D18352D68C5F3A1
:100F7000080501EE105AB8EE411A31EE811AF7EE6B
:100F8000001A31EE211A22EE011AF0EE410A3FE07A
:100F90003D4DB5FBF0F501EE105AF8EE411A9FED0C
:100FA000381A80EE012A344D18352D68C5F308052E
:100FB00001EE105A00E00CE0B8EE411A32EE011AD0
:100FC000B7EE002A31EE021A21EE811AF0EE410A44
:100FD0001EE02C4DB5FBF0F501EE105AB8EE412A9B
:100FE0009FED271AC0EE011A234D18352D68C5F361
:100FF000080501EE105AB8EE411A31EE811AF7EEEB
:10100000001A31EE211A22EE011AF0EE410A00BF59
:1010100000BF194D18352D68C5F346256D1C01EE2E
:10102000105AB8EE411AC0EE811ABCEEE11A81EDF9
:10103000001A114D18352D68C5F306456D1C01EEDB
:10104000105AB8EE411AC0EE811ABCEEE11A81EDD9
:10105000011A094D18352D68C5F306656D1C01EEA2
:10106000105AB8EE411AC0EE811ABCEEE11A81EDB9
:10107000021A70BD00000000284402580090D003FE
:101080000000004600093D0040787D012DE9F04157
:10109000044600250026206800F00060B0F1006FD3
:1010A00030D1606E48B1B0F5801F0DD0B0F5001F93
:1010B00010D0B0F5401F15D113E0F948006840F496
:1010C0000030F74908600FE00221201D01F022FFE7
:1010D000054609E0022104F1240001F0B3FF0546B2
:1010E00002E001E0012500BF00BF55B9EC48243003
:1010F000006820F44010616E0843E949243108601B
:1011000000E02E43208800F48070B0F5807F2DD160
:10111000606D05281AD2DFE800F0030A10171800E6
:10112000DF48006840F40030DD49086010E000212D
:10113000201D01F0EFFE05460AE0002104F1240025
:1011400001F080FF054603E002E001E0012500BF59
:1011500000BF55B9D2482430006820F00700616D07
:101160000843CF492431086000E02E43208800F472
:101170000070B0F5007F33D1A06D802817D003DC5C
:1011800040B140281CD10CE0C02817D0B0F5807FBA
:1011900016D114E0C248006840F40030C04908602D
:1011A00010E00021201D01F0B5FE05460AE00021F7
:1011B00004F1240001F046FF054603E002E001E0EF
:1011C000012500BF00BF55B9B5482430006820F4A0
:1011D000E070A16D0843B2492431086000E02E435D
:1011E000208800F48060B0F5806F38D1D4F8A40076
:1011F000B0F5800F19D004DC50B1B0F5001F1DD13F
:101200000DE0B0F5C00F17D0B0F5000F16D114E007
:10121000A348006840F40030A149086010E00021B4
:10122000201D01F077FE05460AE0002104F12400AC
:1012300001F008FF054603E002E001E0012500BFE0
:1012400000BF5DB996482C30006820F46000D4F8E7
:10125000A410084392492C31086000E02E432088F6
:1012600000F40060B0F5006F38D1D4F8A800B0F1F8
:10127000007F19D004DC50B1B0F1807F1DD10DE0AA
:10128000B0F1407F17D0B0F1806F16D114E08448E0
:10129000006840F400308249086010E00021201D01
:1012A00001F038FE05460AE0002104F1240001F0B7
:1012B000C9FE054603E002E001E0012500BF00BFD2
:1012C0005DB977482C30006820F0E060D4F8A810B1
:1012D000084373492C31086000E02E43206800F079
:1012E0000070B0F1007F27D1A06CA0B1102804D00D
:1012F000202809D030280FD10CE06948006840F45C
:1013000000306749086009E00221201D01F002FE5B
:10131000054603E002E001E0012500BF00BF55B92A
:101320005F482030006820F03000A16C08435C4921
:101330002031086000E02E43208800F48050B0F592
:10134000805F36D1E06DB0F5005F19D004DC50B19C
:10135000B0F5805F1DD10DE0B0F5405F17D0B0F55E
:10136000804F16D114E04E48006840F400304C49DC
:10137000086010E00021201D01F0CCFD05460AE0C8
:10138000002104F1240001F05DFE054603E002E0C7
:1013900001E0012500BF00BF55B941482430006875
:1013A00020F4E040E16D08433D492431086000E04D
:1013B0002E43208800F40050B0F5005F34D1206E39
:1013C000B0F5403F1DD007DC68B1B0F5803F0BD0D1
:1013D000B0F5003F18D10DE0B0F5802F12D0B0F578
:1013E000A02F11D10FE011E00121201D01F092FD8D
:1013F00005460BE0012104F1240001F023FE05461F
:1014000004E003E002E001E0012500BF00BF55B9A0
:1014100023482430006820F4E020216E084320494E
:101420002431086000E02E43208800F48040B0F5AD
:10143000804F38D1D4F8AC00B0F1405F1DD007DC4C
:1014400068B1B0F1805F0BD0B0F1005F18D10DE052
:10145000B0F1804F12D0B0F1A04F11D10FE011E0E8
:101460000121201D01F056FD05460BE0012104F18C
:10147000240001F0E7FD054604E003E002E001E09E
:10148000012500BF00BF6DB905482C30006820F071
:10149000E040D4F8AC10084301492C31086002E068
:1014A0002C4402582E43208800F40040B0F5004F31
:1014B00026D1E06E98B1B0F1805F03D0B0F1005F4B
:1014C0000ED106E0FA48006840F40030F8490860A0
:1014D00008E00121201D01F01DFD054602E001E0AC
:1014E000012500BF00BF55B9F1482430006820F045
:1014F0004050E16E0843EE492431086000E02E437D
:10150000206800F08070B0F1807F27D1606CA0B1BE
:10151000012804D0022809D003280FD10CE0E448A8
:10152000006840F40030E249086009E00221201D13
:1015300001F0F0FC054603E002E001E0012500BFF8
:1015400000BF55B9DA482030006820F00300616C14
:101550000843D7492031086000E02E43206800F49A
:101560008000B0F5800F7DD1D248006840F48070D3
:10157000D0490860FFF728FA074606E0FFF724FA8B
:10158000C01B642801D9032505E0CA48006800F49F
:1015900080700028F2D000BF8DBBC5484430006881
:1015A00000F44070B4F8B01001F44071884214D0D7
:1015B000BF484430006820F44078BD48443000689B
:1015C00040F48030BA49443108600846006820F48D
:1015D000803008600846C0F80080D4F8B000B0F54C
:1015E000807F15D1FFF7F0F9074609E0FFF7ECF926
:1015F000C01B41F28831884202D9032507E038E058
:10160000AB4844300068C0F340000028EED000BF73
:101610004DBB00BFB4F8B00000F44070B0F5407F9F
:101620000ED1A3481C38006820F47C51A24AD4F89B
:10163000B000104041EA10109D491C39086007E0D5
:101640009B481C38006820F47C5099491C3908607C
:10165000974844300068B4F8B010C1F30B01084358
:10166000934901E006E002E04431086002E02E43C5
:1016700000E02E43207800F0010068B3A06F182826
:1016800019D005DC48B1082808D0102816D10BE085
:10169000202811D0282811D10FE011E00121201DB0
:1016A00001F038FC05460BE0012104F1240001F0B3
:1016B000C9FC054604E003E002E001E0012500BFAB
:1016C00000BF55B97A482830006820F03800A16F73
:1016D000084377492831086000E02E43207800F065
:1016E0000200022828D1606F062815D2DFE800F03A
:1016F00003040A11121311E00121201D01F00AFC5C
:1017000005460BE0012104F1240001F09BFC054695
:1017100004E003E002E001E0012500BF00BF55B98D
:1017200063482830006820F00700616F0843604973
:101730002831086000E02E43207800F004000428DF
:101740002AD1D4F89000062815D2DFE800F003046F
:101750000A11121311E00121201D01F0DBFB0546E7
:101760000BE0012104F1240001F06CFC054604E0CB
:1017700003E002E001E0012500BF00BF5DB94C4875
:101780002C30006820F00700D4F890100843484936
:101790002C31086000E02E43207800F02000202843
:1017A00036D1D4F88C00B0F1405F1DD007DC68B1B1
:1017B000B0F1805F0BD0B0F1005F18D10DE0B0F157
:1017C000804F12D0B0F1A04F11D10FE011E00021F5
:1017D000201D01F09FFB05460BE0022104F12400CF
:1017E00001F030FC054604E003E002E001E00125E1
:1017F00000BF00BF5DB92E482830006820F0E040EF
:10180000D4F88C1008432A492831086000E02E43A0
:10181000207800F04000402836D1D4F89800B0F588
:10182000406F1DD007DC68B1B0F5806F0BD0B0F50C
:10183000006F18D10DE0B0F5805F12D0B0F5A05F59
:1018400011D10FE011E00021201D01F063FB0546DE
:101850000BE0022104F1240001F0F4FB054604E052
:1018600003E002E001E0012500BF00BF5DB91048C0
:101870002C30006820F4E050D4F8981008430C494C
:101880002C31086000E02E43207800F08000802892
:101890003BD1D4F89C00B0F5C04F24D00EDCA0B1F1
:1018A000B0F5005F12D0B0F5804F1FD114E00000FA
:1018B0002C44025800480258FFFCFF0FB0F5004FBF
:1018C00012D0B0F5204F11D10FE011E00021201D02
:1018D00001F020FB05460BE0022104F1240001F099
:1018E000B1FB054604E003E002E001E0012500BF92
:1018F00000BF4DB9B248006820F46040D4F89C1095
:101900000843AF49086000E02E43207800F008004B
:10191000082816D1D4F88000B0F5805F06D10221E6
:1019200004F1240001F08EFB06430AE0A448001FE6
:10193000006820F44050D4F880100843A049091FE3
:101940000860207800F01000102814D1D4F894001A
:10195000B0F5807F06D1022104F1240001F072FB72
:10196000064308E09648006820F44070D4F89410CC
:10197000084393490860206800F40020B0F5002F68
:1019800026D1D4F8A00030B1B0F5803F09D0B0F531
:10199000003F0ED10CE00021201D01F0BBFA0546EE
:1019A00009E0022104F1240001F04CFB054602E0AD
:1019B00001E0012500BF00BF4DB98148006820F457
:1019C0004030D4F8A01008437D49086000E02E4361
:1019D000206800F48020B0F5802F2DD1D4F8840049
:1019E000B0F5801F06D0B0F5001F0CD0B0F5401F39
:1019F00011D10FE072482C38006840F40030704973
:101A00002C39086009E0012104F1240001F01AFBDF
:101A1000054602E001E0012500BF00BF5DB968484E
:101A2000001F006820F44010D4F884100843644973
:101A3000091F086000E02E43206800F48030B0F5F4
:101A4000803F24D1E06C18B1B0F5803F0FD108E0A1
:101A50005B482C38006840F4003059492C39086044
:101A600007E00221201D01F055FA054601E001259D
:101A700000BF00BF55B952480C38006820F48030D0
:101A8000E16C08434E490C39086000E02E432068A1
:101A900000F00050B0F1005F05D1022104F12400F4
:101AA00001F0D0FA0643206800F40030B0F5003FA2
:101AB00027D1E06FA0B1B0F5807F06D0B0F5007FF0
:101AC0000CD0B0F5407F0CD109E03D482C380068BF
:101AD00040F400303A492C39086004E003E002E0A9
:101AE00001E0012500BF00BF55B93548001F00685F
:101AF00020F44070E16F08433149091F086000E09D
:101B00002E43206800F48010B0F5801F09D12C48C6
:101B10000838006820F00040216F08432849083940
:101B20000860206800F08050B0F1805F0AD124483E
:101B30004838006820F48040D4F8B41008432049A5
:101B400048390860206800F40010B0F5001F09D182
:101B50001B480838006820F08070A16E08431849BF
:101B600008390860206800F08040B0F1804F11D142
:101B700000BF13484838006820F400401049483935
:101B8000086008460068D4F8B81008430C49483982
:101B9000086000BF206800F00040B0F1004F09D19C
:101BA00007480C38006820F04050216D0843044974
:101BB0000C39086016B90020BDE8F0810120FBE770
:101BC0005844025870B504460D4600268D480068FA
:101BD00000F00700A8420ED28A48006820F00700F3
:101BE0002843884908600846006800F00700A842BA
:101BF00001D0012070BD207800F00200022807D13A
:101C00008148006820F00F00E16808437E490860C1
:101C1000207800F00100002851D07B48006820F4B3
:101C20007060A1680843784908606068022807D19D
:101C3000754818380068C0F34040F8B90120D9E76A
:101C40006068032807D1704818380068C0F3406006
:101C5000A0B90120CEE76068012807D16A4818388A
:101C60000068C0F3002048B90120C3E7664818386F
:101C70000068C0F3800008B90120BBE7624808385B
:101C8000006820F00700616808435F490839086070
:101C9000FEF79AFE06466068022811D108E0FEF7BA
:101CA00093FE801B41F28831884201D90320A1E7CD
:101CB00055480838006800F038001028EFD13AE0A5
:101CC0006068032811D108E0FEF77EFE801B41F218
:101CD0008831884201D903208CE74B4808380068D6
:101CE00000F038001828EFD125E06068012811D1F4
:101CF00008E0FEF769FE801B41F28831884201D975
:101D0000032077E740480838006800F038000828CA
:101D1000EFD110E008E0FEF757FE801B41F288315A
:101D2000884201D9032065E737480838006800F089
:101D300038000028EFD13348006800F00700A842BF
:101D40000ED93048006820F0070028432D4908606C
:101D50000846006800F00700A84201D0012049E7CA
:101D6000207800F00400042807D12748006820F0FC
:101D700070002169084324490860207800F00800B9
:101D8000082809D12048001D006820F07000616912
:101D900008431D49091D0860207800F01000102834
:101DA00009D11948001D006820F4E060A1690843CA
:101DB0001549091D0860207800F02000202809D16D
:101DC00011480830006820F07000E16908430E49AE
:101DD0000831086000F066F80B49096801F4706189
:101DE0004FF4807292FAA2F2B2FA82F2D140074A1C
:101DF000515CC840064908600F20FEF71FFE002016
:101E0000F8E600000020005218440258BC75000893
:101E10003C00002010B5FEF7DBFE0949096801F01F
:101E20000F01012292FAA2F2B2FA82F2D140054ADF
:101E3000515CC840044908600846006810BD0000B5
:101E400018440258BC7500084000002010B5FFF788
:101E5000E1FF0749096801F07001102292FAA2F22D
:101E6000B2FA82F2D140034A515CC84010BD000072
:101E70001C440258BC75000810B5FFF7CBFF07499A
:101E8000096801F4E0614FF4807292FAA2F2B2FAAA
:101E900082F2D140024A515CC84010BD1C44025835
:101EA000BC75000870B5012500EE905A0022012192
:101EB00000230024DFED861AB0EE610ADFED841AFC
:101EC000B0EE611A0020834D2D6805F0380535B15C
:101ED000082D15D0102D15D0182D7CD114E07D4D76
:101EE000103D2D68C5F3401545B17A4D103D2D6864
:101EF000C5F3C106784D25FA06F000E07648E5E026
:101F00007648E3E07648E1E0724D18352D6805F03B
:101F10000302704D18352D68C5F305116D4D1C3544
:101F20002D6805F001036B4D24352D68C5F3CC05F4
:101F300015FB03F501EE905AF8EE611AB0EE610A56
:101F400022B1012A4FD0022A7DD16BE0614D103DB4
:101F50002D68C5F340152DB35E4D103D2D68C5F3BA
:101F6000C1065D4D25FA06F4B4FBF1F501EE905A79
:101F7000B8EE612ADFED5B1AC0EE212A554D2035FF
:101F80002D68C5F3080501EE905AF8EE611A72EE5D
:101F9000A11AF7EE002A71EEA21A62EE211AB0EE33
:101FA000611A1FE04C4DB5FBF1F501EE905AB8EE09
:101FB000612ADFED4C1AC0EE212A464D20352D68EE
:101FC000C5F3080501EE905AF8EE611A72EEA11AF7
:101FD000F7EE002A00E077E071EEA21A62EE211A15
:101FE000B0EE611A5EE03D4DB5FBF1F501EE905AA1
:101FF000B8EE612ADFED3B1AC0EE212A354D2035BF
:102000002D68C5F3080501EE905AF8EE611A72EEDC
:10201000A11AF7EE002A71EEA21A62EE211AB0EEB2
:10202000611A3FE02E4DB5FBF1F501EE905AB8EE86
:10203000612ADFED2C1AC0EE212A264D20352D68AD
:10204000C5F3080500E00EE001EE905AF8EE611AC3
:1020500072EEA11AF7EE002A71EEA21A62EE211AB0
:10206000B0EE611A1EE01D4DB5FBF1F501EE905A80
:10207000F8EE612ADFED1B1A80EE212A154D20357E
:102080002D68C5F3080501EE905AF8EE611A72EE5C
:10209000211AB7EE002A71EE821A62EEA11AB0EE92
:1020A000611A00BF00BF0B4D20352D68C5F34625D2
:1020B0006D1C00EE905AF8EE601A81EE212AFCEEBB
:1020C000C21A11EE900A01E0044800BF00BF70BDC3
:1020D00000000000104402580090D00300093D00A9
:1020E00040787D010000004670B504460025207848
:1020F00000F00100002872D0F948006800F03800B4
:1021000010280CD0F648006800F03800182812D1CA
:10211000F3481830006800F0030002280BD1F048A3
:1021200010380068C0F3404000286DD06068002877
:102130006AD1012070BD00BF6068B0F5803F08D152
:10214000E7481038006840F48030E54910390860ED
:102150002EE0606868B9E2481038006820F48030EA
:10216000DF49103908600846006820F480200860C4
:102170001EE06068B0F5A02F0DD1D9481038006876
:1021800040F48020D649103908600846006840F4C1
:10219000803008600CE0D2481038006820F48030AD
:1021A000CF49103908600846006820F48020086094
:1021B00000BF6068A0B1FEF707FC054608E0FEF727
:1021C00003FC401B41F28831884201D90320B1E76A
:1021D000C34810380068C0F340400028EFD013E037
:1021E000FEF7F2FB054608E0FEF7EEFB401B41F26E
:1021F0008831884201D903209CE7B948103800682B
:10220000C0F340400028EFD1207800F002000228FF
:1022100047D1B348006800F0380058B1B0480068B2
:1022200000F0380018283ED1AD481830006800F0A2
:102230000300B8BBAA4810380068C0F3800018B18A
:10224000E06808B9012075E7A5481038006820F05B
:102250001900E1680843A24910390860FEF7B4FB91
:10226000054606E0FEF7B0FB401B022801D903201B
:1022700060E79B4810380068C0F380000028F1D068
:1022800097480C38006820F47C304FF47C3292FA86
:10229000A2F2B2FA82F221699140084390490C39C6
:1022A00008604AE0FFE7E06868B38D4810380068CE
:1022B00020F01900E1680843894910390860FEF7E9
:1022C00083FB054606E0FEF77FFB401B022801D991
:1022D00003202FE7824810380068C0F380000028F0
:1022E000F1D07F480C38006820F47C304FF47C3209
:1022F00092FAA2F2B2FA82F2216991400843784937
:102300000C39086019E076481038006820F00100A8
:10231000734910390860FEF757FB054606E0FEF7E3
:1023200053FB401B022801D9032003E76C481038F7
:102330000068C0F380000028F1D1207800F0100080
:10234000102877D16648006800F0380008280CD0C3
:102350006348006800F03800182823D1604818301E
:10236000006800F0030001281CD15D4810380068A7
:10237000C0F3002020B1E069802801D00120D9E617
:1023800057480C38006820F0F8404FF0F84292FAB5
:10239000A2F2B2FA82F2216A9140084350490C3904
:1023A000086047E0E06958B34D481038006840F0D5
:1023B00080004B4910390860FEF706FB054606E031
:1023C000FEF702FB401B022801D90320B2E6444875
:1023D00010380068C0F300200028F1D040480C38C5
:1023E000006820F0F8404FF0F84292FAA2F2B2FAF8
:1023F00082F2216A9140084339490C39086019E09A
:1024000037481038006820F08000354910390860DE
:10241000FEF7DAFA054606E0FEF7D6FA401B022878
:1024200001D9032086E62E4810380068C0F300204A
:102430000028F1D1207800F00800082836D1606922
:10244000D0B127486430006840F00100244964316D
:102450000860FEF7B9FA054606E0FEF7B5FA401B3C
:10246000022801D9032065E61D4864300068C0F3E6
:1024700040000028F1D019E019486430006820F0CD
:102480000100174964310860FEF79EFA054606E030
:10249000FEF79AFA401B022801D903204AE61048A9
:1024A00064300068C0F340000028F1D1207800F0CB
:1024B0002000202834D1A069D8B10948103800681C
:1024C00040F48050064910390860FEF77DFA054651
:1024D00008E0FEF779FA401B022803D9032029E619
:1024E00010440258AF480068C0F340300028F0D0D4
:1024F00016E0AC48006820F48050AA490860FEF756
:1025000063FA054606E0FEF75FFA401B022801D990
:1025100003200FE6A3480068C0F340300028F2D142
:10252000207800F0040004287DD19F48006840F422
:1025300080709D490860FEF747FA054606E0FEF701
:1025400043FA401B642801D90320F3E5964800684C
:1025500000F480700028F2D000BFA068012808D1E4
:1025600090487030006840F001008E49703108607A
:102570002DE0A06868B98B487030006820F0010039
:102580008849703108600846006820F0040008603F
:102590001DE0A06805280DD182487030006840F029
:1025A00004008049703108600846006840F001006E
:1025B00008600CE07B487030006820F00100794929
:1025C000703108600846006820F00400086000BF11
:1025D000A068A0B1FEF7F8F9054608E0FEF7F4F9A7
:1025E000401B41F28831884201D90320A2E56D48A1
:1025F00070300068C0F340000028EFD013E0FEF711
:10260000E3F9054608E0FEF7DFF9401B41F28831A7
:10261000884201D903208DE5624870300068C0F31C
:1026200040000028EFD1606A00287CD05D4810305F
:10263000006800F03800182876D0606A022874D14B
:102640005848006820F0807056490860FEF7BCF9D1
:10265000054606E0FEF7B8F9401B022801D9032021
:1026600068E550480068C0F340600028F2D100BF20
:10267000D4E90A1041EA00104A492831096840F2B9
:10268000F33291430843474928310860208E401EA9
:10269000C0F30800616B491E4FF47E4202EA4121FB
:1026A0000843218F491ED20102EA014108433C211F
:1026B000095D491E120202EA0161084339493031BD
:1026C000086000BF081D00684FF6F87188434FF698
:1026D000F87292FAA2F2B2FA82F2A16C9140084327
:1026E0003049343108602F482C30006820F00C004D
:1026F000216C08432B492C3108600846006820F003
:102700000200616C084327492C31086008460068C4
:1027100040F4803008600846006840F400300860EB
:102720000846006802E03BE038E01FE040F480200B
:1027300008600846006840F0010008601948006819
:1027400040F0807017490860FEF73EF9054606E044
:10275000FEF73AF9401B022801D90320EAE41148A8
:102760000068C0F340600028F2D019E00D4800680E
:1027700020F080700B490860FEF726F9054606E058
:10278000FEF722F9401B022801D90320D2E40548B4
:102790000068C0F340600028F2D101E00120C9E4E4
:1027A0000020C7E400440258004802584FF0E020DF
:1027B000006940F002004FF0E0210861704700001E
:1027C00070B504460E4615460CB9012070BD94F84C
:1027D000450028B9002084F84400204600F024F881
:1027E00004F108012068FDF74FFF3146A268206818
:1027F000FDF78AFF2946E36AD4E90102FDF720FFCD
:10280000A168206850F8210040F00100A26821680A
:1028100041F822000348006840F000400149086088
:102820000020D3E70040005270474FF0E0200069DD
:1028300020F002004FF0E0210861704710B5044617
:102840000CB9012010BD94F83D0028B9002084F88F
:102850003C00204600F00CF8022084F83D00211DC9
:10286000206800F0EBFE012084F83D000020E9E73D
:1028700070470146022081F83D000868008840F05A
:1028800001000A681080012081F83D000020704797
:1028900010B504460CB9012010BDA06900B100E0DC
:1028A00000BF94F8790028B9002084F87800204609
:1028B00000F02AF8242084F879002068006820F0CD
:1028C000010021680860204600F0CEFF012800D1F9
:1028D000E2E7606B10B1204600F016FF2068406808
:1028E00020F49040216848602068806820F02A0029
:1028F000216888602068006840F001002168086055
:10290000204600F076FFC7E77047000000B59BB097
:102910004C2108A8FDF788FD1C2101A8FDF784FDC6
:10292000184808901848099005200190022002904C
:10293000039001200490022005900690002007904B
:102940000A9000210B910C9120210D9100210E91F4
:102950000F9110914FF48051119100211291139118
:10296000149115911691179101AA01A908A8FFF7D2
:1029700027FF20B14FF4927104A0FDF75CFE1BB05D
:1029800000BD000000400052044100522E2E5C2E7B
:102990002E5C557365725C6273705C7372635C620B
:1029A00073705F666D635F696F2E630000B587B0FB
:1029B00000BF3E48006840F008003C4908600846F7
:1029C000006800F00800019000BF00BF00BF08468B
:1029D000006840F0100008600846006800F0100031
:1029E000019000BF00BF00BF0846006840F04000F3
:1029F00008600846006800F04000019000BF00BF7A
:102A000000BF0846006840F0800008600846006883
:102A100000F08000019000BF00BF00BF08460068C2
:102A200040F4807008600846006800F480700190EF
:102A300000BF00BF00BF1D480C38006840F4805044
:102A40001A490C3908600846006800F4805001906B
:102A500000BF00BF022003900120049003200590D6
:102A60000C2006904CF2B370029002A91048FDF7BA
:102A700085FE4FF68070029002A90E48FDF77EFE9B
:102A80000320029002A90C48FDF778FE4FF47F4026
:102A9000029002A90948FDF771FE40F2CF60029052
:102AA00002A90748FDF76AFE07B000BDE0440258DE
:102AB000000C02580010025800180258001C02585E
:102AC00000200258014604480068084008B101206F
:102AD00070470020FCE700003400002029B9084AB4
:102AE00012688243064B1A6004E0054A12680243EA
:102AF000034B1A60024A1268024B1A6070470000CA
:102B0000340000200010006010B53249096801F05F
:102B1000004149B12F49096841F000412D4A116037
:102B20008169891C816110BD2A49083909682A4ACE
:102B300011622849091F097882F824102549C91E05
:102B40000978916223490C310968D1622149891EB3
:102B5000098811861F49096851631E49091D0968C2
:102B600091631C4910310968D1631CA200210BE05C
:102B7000535C254C238500BF234BDB6903F04003E6
:102B8000002BF9D04B1CD9B22929F1D300211F4ABF
:102B9000116000BF1D4909680029FBD00E4A016879
:102BA00011604168516081689160C168D1600169BC
:102BB00011614169516181699161C169D1610021EE
:102BC000124A116000BF114909680029FBD000BFFB
:102BD000A9E700002CED00E0001200200D0A456E70
:102BE00074657220486172644661756C745F4861F7
:102BF0006E646C65722C2053797374656D20486126
:102C00006C742E0D0A0000000010014044000020EA
:102C100000B5B5B00120019000201F9001A8FEF77B
:102C200035FA00BF6548006840F00100634908605C
:102C30000846006800F00100009000BF00BF00BF20
:102C40000846006840F0010008600846006800F08F
:102C50000100009000BF00BF00BF5848103000685E
:102C600040F010005549103108600846006800F037
:102C70001000009000BF00BF4FF4007030900220A1
:102C8000319001203290032033900720349030A9F6
:102C90004B48FDF773FD4FF480603090072034906F
:102CA00030A94748FDF76AFD012200212520FDF7E4
:102CB0003EFF2520FDF72BFF0C2300224FF4E131CE
:102CC000404802F073F93F48006A40F040003D4937
:102CD00008620846008B40F0080008830846006838
:102CE00040F02000086000BF3448006840F0020057
:102CF000324908600846006800F00200009000BFFA
:102D000000BF00BF0846006840F0020008600846A7
:102D1000006800F00200009000BF00BF00BF27481D
:102D20000830006840F480202449083108600846D3
:102D3000006800F48020009000BF00BF4FF4806066
:102D400030900220319001203290032033900720F0
:102D5000349030A91C48FDF711FD4FF4006030900D
:102D60000720349030A91848FDF708FD0322002100
:102D70002720FDF7DCFE2720FDF7C9FE0C230022EB
:102D80004FF41651114802F011F910482030006834
:102D900040F040000D49203108600C481830008890
:102DA00040F008000949183108800848006840F0E0
:102DB00020000649086035B000BD0000E04402581C
:102DC0000000025800100140000402580048004072
:102DD0002DE9F0410446082C17DA0026FF270025CC
:102DE00008E0284600F030F810B1701CC6B22F463B
:102DF000681CC5B2082DF4DB012E04D1A74202D114
:102E00000120BDE8F0810020FBE7082C0BD1002059
:102E100000F01AF828B1012000F016F808B10120DE
:102E2000EFE70020EDE7092C0BD1012000F00CF8B2
:102E300028B1022000F008F808B10120E1E70020E5
:102E4000DFE70020DDE7000001460B4850F83100C5
:102E50000069094B03EBC1039B88184008B90022A5
:102E600000E00122044800EBC1008079904201D1CA
:102E7000012070470020FCE71C7500081FB5FDF716
:102E80000FFE01208DF800004FF01050019012202D
:102E90008DF8080003208DF80B0001208DF80F003D
:102EA0008DF80E0000208DF80D008DF80100012036
:102EB0008DF80A0000208DF809008DF80C00684696
:102EC000FDF7C0FD01208DF800004FF0C0400190DB
:102ED0000F208DF8080003208DF80B0001208DF8DD
:102EE0000F0000208DF80E008DF80D0001208DF8E8
:102EF000010000208DF80A008DF809008DF80C0003
:102F00006846FDF79FFD0420FDF7E0FD1FBD00BFF3
:102F1000FEE770472DE9F04104460E460027484879
:102F2000006800F00300032802D10120BDE8F08111
:102F300043482838006820F08060414928390860FB
:102F4000FDF742FD054606E0FDF73EFD401B022869
:102F500001D90320EAE73A4828380068C0F3C06086
:102F60000028F1D100BF3648006820F47C30216889
:102F700040EA013032490860A088401EC0F30800D2
:102F8000A168491E4FF47E4202EA41210843A1890B
:102F9000491ED20102EA01410843217C491E120266
:102FA00002EA0161084326491031086000BF244845
:102FB000001D006820F0C000616908432049091D18
:102FC00008600846006820F02000A16908431C49F9
:102FD000091D08602EB90846006840F4002008600A
:102FE00012E0012E08D11648001D006840F4801040
:102FF0001349091D086007E01148001D006840F4EE
:1030000000100F49091D08600D482838006840F07D
:1030100080600B4928390860FDF7D6FC054606E0BC
:10302000FDF7D2FC401B022801D903207EE70448AB
:1030300028380068C0F3C0600028F1D0384675E732
:10304000284402582DE9F04104460E46002748481E
:10305000006800F00300032802D10120BDE8F081E0
:1030600043482838006820F08050414928390860DA
:10307000FDF7AAFC054606E0FDF7A6FC401B02286A
:1030800001D90320EAE73A4828380068C0F34070C5
:103090000028F1D100BF3648006820F07C702188FC
:1030A00040EA015032490860A088401EC0F3080081
:1030B000A168491E4FF47E4202EA41210843A189DA
:1030C000491ED20102EA01410843217C491E120235
:1030D00002EA0161084326491831086000BF24480C
:1030E000001D006820F44060616908432049091D03
:1030F00008600846006820F40070A16908431C4974
:10310000091D08602EB90846006840F48000086078
:1031100012E0012E08D11648001D006840F400009E
:103120001349091D086007E01148001D006840F0C0
:1031300080700F49091D08600D482838006840F06C
:1031400080500B4928390860FDF73EFC054606E033
:10315000FDF73AFC401B022801D903207EE7044812
:1031600028380068C0F340700028F1D0384675E771
:103170002844025800B587B000BF0D48006840F0F1
:1031800002000B4908600846006800F00200019048
:1031900000BF00BF01200390002004900320059091
:1031A0000420029002A90348FDF7E8FA07B000BD29
:1031B000E04402580004025870470000042001490E
:1031C000088070471804025804200149088070479D
:1031D0001A04025810B50023234C236000BF00BF1F
:1031E00000BFBFF34F8F00BF00BF00BF231F186891
:1031F000C0F34E3100BFC0F3C90200BF43F6E07315
:1032000003EA41134FF0404404EA82742343174C0D
:10321000236000BF00BF131EA2F10102EED10B1EFE
:10322000A1F10101E7D100BF00BF00BFBFF34F8F85
:1032300000BF00BF00BF0C4B703B1B6843F48033E2
:10324000094C703C236000BF00BF00BFBFF34F8F2D
:1032500000BF00BF00BF00BF00BF00BFBFF36F8F44
:1032600000BF00BF00BF10BD84ED00E060EF00E0D4
:1032700000BF00BF00BFBFF34F8F00BF00BF00BF44
:1032800000BF00BF00BFBFF36F8F00BF00BF00BF14
:1032900000201449086000BF00BF00BFBFF34F8F7C
:1032A00000BF00BF00BF00BF00BF00BFBFF36F8FF4
:1032B00000BF00BF00BF0C48006840F400300A495E
:1032C000086000BF00BF00BFBFF34F8F00BF00BF4B
:1032D00000BF00BF00BF00BFBFF36F8F00BF00BFC4
:1032E00000BF704750EF00E014ED00E010B500BFE4
:1032F000102072B680F31188BFF34F8FBFF36F8F2A
:1033000062B600BF03F0A0FE18B14FF08050044930
:10331000086000BF002080F3118800BF10BD0000CE
:1033200004ED00E010B51B48006840B11948006882
:10333000401E1849086010B9012017490870002480
:1033400008E004EB4401154A02EB810001F062FE43
:10335000601CC4B2042CF4DB11480068401C104906
:103360000860084600686FF00041884202D10020E2
:103370000B49086001F010FD0A480078401CC0B2FB
:10338000084908700A2803DB0020087001F000FDDE
:1033900010BD00002400002028000020780100203B
:1033A0002C0000203100002010B59CB000243A48C9
:1033B000006820F004003849086000BF0020009039
:1033C00035480C30006840F4404033490C31086007
:1033D0000846006800F44040009000BF00BF00BFF6
:1033E0002D480C30006800F40050B0F5005FF7D1B4
:1033F0000120019000040290002004900890022017
:103400000A9002210B9105210C91A0210D9102211E
:103410000E91109104210F91002112910821119118
:1034200001A8FEF761FE04461CB1A2211BA0FDF716
:1034300002F93F20149003201590002016900820D8
:10344000179040201890199000011A9040201B906E
:10345000042114A8FEF7B6FB04461CB1BD210FA041
:10346000FDF7E9F81348006840F080001149086052
:1034700000BF1048F430006840F002000D49F431FC
:1034800008600846006800F00200009000BF00BF1E
:10349000FDF76AF91CB010BD0C4802582E2E5C2EA8
:1034A0002E5C557365725C6273705C6273702E6320
:1034B00000000000004402582048006840F47000FA
:1034C0001E4908601E48006840F001001C49086061
:1034D00000201B491031086019480068194908404C
:1034E000174908600020164918310860091D086056
:1034F000091D0860124928310860091D0860091D6E
:103500000860091D0860091D0860091D0860091D83
:103510000860091D08600A48006820F480200849F6
:1035200008600020064960310860012006490860F3
:10353000C0060249803908607047000088ED00E04D
:10354000004402587FEDF6EA0881005110B5FFF7FC
:1035500095FCFDF72BF8FDF763FAFFF725FF10BD8B
:1035600070B5002500264FF08044206900F0020568
:10357000E06800F002065DB156B14FF6FD702061C3
:10358000E0684FF6FD710840E0601E480068804723
:10359000206900F00405E06800F004065DB156B152
:1035A0004FF6FB702061E0684FF6FB710840E06069
:1035B000154800688047206900F00805E06800F0C1
:1035C00008065DB156B14FF6F7702061E0684FF61E
:1035D000F7710840E0600D4800688047206900F0FE
:1035E0001005E06800F010065DB156B14FF6EF70BF
:1035F0002061E0684FF6EF710840E0600448006821
:10360000804770BD14000020180000201C0000201E
:10361000200000200748006900F0010040B16FF071
:1036200001000449086104480068401C0249086020
:1036300070470000001000401000002010B500226C
:103640000288294B98420ED0B0F1804F0BD0274B07
:10365000984208D0264B984205D0264B984202D07B
:10366000254B984203D122F070024B681A431E4B3F
:10367000984217D0B0F1804F14D01C4B984211D013
:103680001B4B98420ED01B4B98420BD01A4B9842C2
:1036900008D01A4B984205D0194B984202D0194BCA
:1036A000984203D122F44072CB681A4322F080037F
:1036B0004C6943EA040202808B68C3620B8803856D
:1036C000094B98420BD00C4B984208D00B4B9842B8
:1036D00005D00B4B984202D00A4B984201D10B8A7D
:1036E00003860123436110BD000001400004004037
:1036F00000080040000C0040000401400040014070
:10370000004401400048014090F8341001F00101EC
:1037100039B10168496821F40031826B11430268B4
:10372000516090F8341001F0020139B10168496824
:1037300021F48031C26B11430268516090F834105B
:1037400001F0040139B10168496821F48021026C5B
:1037500011430268516090F8341001F0080139B14A
:103760000168496821F40041426C114302685160CC
:1037700090F8341001F0100139B10168896821F422
:103780008051826C11430268916090F8341001F00E
:10379000200139B10168896821F40051C26C1143DC
:1037A0000268916090F8341001F0400199B101680D
:1037B000496821F48011026D114302685160016D66
:1037C000B1F5801F07D10168496821F4C001426D3D
:1037D00011430268516090F8341001F0800139B152
:1037E0000168496821F40021826D1143026851602B
:1037F000704738B5044600250020E067FDF7E4F87F
:1038000005462068006800F0080008280CD16FF019
:103810007E402B4600224FF400110090204600F01D
:10382000F5FC08B1032038BD2068006800F00400F2
:1038300004280CD16FF07E402B4600224FF480010B
:103840000090204600F0E2FC08B10320EBE72020C6
:1038500084F8790084F87A0000BF002084F87800AA
:1038600000BF00BFDFE700002DE9F04F89B004463C
:1038700000254FF08008A946AA4600200890FA4982
:103880002068884201D1012000E0002000B100E062
:1038900000BFA06AB0F1005F00D100BF2169A0683D
:1038A000084361690843E16940EA0105A06A0543EC
:1038B00020680068ED4908402843216808602068B6
:1038C000406820F44050E168084321684860A569D9
:1038D000E5492068884201D1012000E0002008B9B4
:1038E000206A0543A06AB0F1005F03D1D4E90B015F
:1038F0000843054320688068DD4908402843216863
:1039000088602068C06A20F00F00616A084321685F
:10391000C86200BFD7492068884224D1D6480068D1
:1039200000F03800182814D005DC48B108280AD067
:10393000102817D10AE020280ED0282812D10EE036
:103940004FF001080EE04FF004080BE04FF0400884
:1039500008E04FF0080805E04FF0100802E04FF0D3
:10396000200800BF17E1C549206888421DD1C24820
:10397000006800F00700062816D2DFE800F0030612
:10398000090C0F124FF000080EE04FF004080BE096
:103990004FF0400808E04FF0080805E04FF010082D
:1039A00002E04FF0200800BFF5E0B54920688842EA
:1039B0001DD1B148006800F00700062816D2DFE8E4
:1039C00000F00306090C0F124FF000080EE04FF054
:1039D00004080BE04FF0400808E04FF0080805E04D
:1039E0004FF0100802E04FF0200800BFD3E0A549D7
:1039F000206888421DD1A048006800F00700062812
:103A000016D2DFE800F00306090C0F124FF0000891
:103A10000EE04FF004080BE04FF0400808E04FF0D4
:103A2000080805E04FF0100802E04FF0200800BF42
:103A3000B1E09549206888421DD18F48006800F0A8
:103A40000700062816D2DFE800F00306090C0F1263
:103A50004FF000080EE04FF004080BE04FF0400874
:103A600008E04FF0080805E04FF0100802E04FF0C2
:103A7000200800BF8FE085492068884224D17E4815
:103A8000006800F03800182814D005DC48B1082878
:103A90000AD0102817D10AE020280ED0282812D1E9
:103AA0000EE04FF001080EE04FF004080BE04FF07D
:103AB000400808E04FF0080805E04FF0100802E069
:103AC0004FF0200800BF66E07149206888421DD190
:103AD0006948006800F00700062816D2DFE800F009
:103AE0000306090C0F124FF000080EE04FF0040817
:103AF0000BE04FF0400808E04FF0080805E04FF0F9
:103B0000100802E04FF0200800BF44E0614920683F
:103B100088421DD15848006800F00700062816D2D8
:103B2000DFE800F00306090C0F124FF000080EE06A
:103B30004FF004080BE04FF0400808E04FF0080891
:103B400005E04FF0100802E04FF0200800BF22E02F
:103B50004549206888421ED14748001D006800F092
:103B60000700062816D2DFE800F00306090C0F1242
:103B70004FF002080EE04FF004080BE04FF0400851
:103B800008E04FF0080805E04FF0100802E04FF0A1
:103B9000200800BF00BF00BF33492068884201D120
:103BA000012000E0002000285DD00025B8F1100FB2
:103BB00033D009DCB8F1020F10D0B8F1040F11D0E6
:103BC000B8F1080F2ED117E0B8F1200F27D0B8F1C7
:103BD000400F0CD0B8F1800F24D124E0FDF714F889
:103BE000054623E005A8FDF725F8069D1EE002A87E
:103BF000FDF736F9039D19E01F4854380068C0F3FB
:103C0000401040B11C4854380068C0F3C10122483C
:103C100020FA01F500E0204D08E0204D06E04FF4C9
:103C2000004503E000BF0120089000BF00BF002D49
:103C30000AD0606800EB4000A84203D86068000327
:103C4000A84202D201200890D4E2B8F1100F7CD033
:103C500026DCB8F1020F2DD0B8F1040F52D0B8F124
:103C6000080F73D19EE03FE1000C0058F369FFCFCD
:103C7000FFF4FF110010014054440258004400407A
:103C800000480040004C004000500040001401403B
:103C900000780040007C00400090D00300093D0007
:103CA000B8F1200F7DD0B8F1400F54D0B8F1800F9B
:103CB000D7D109E1FCF7A8FF00270646FB49606A57
:103CC00031F810C062463B4630463946FCF762FB8D
:103CD0004FF4807600220346A3FB060701FB067122
:103CE00003FB021361684908064671185A41CDE981
:103CF000001266683246002308460199FCF74AFB29
:103D00000546E4E005A8FCF795FFDDF818C0E74993
:103D1000606A31F810B05A46002360461946FCF735
:103D200039FB4FF4807C0022A0FB0C3B01FB0CB163
:103D300000FB0210616849085E1840EB0201D4F8EC
:103D400004C062460023304601E079E0BBE0FCF7A6
:103D500021FB0546BBE002A8FDF782F8DDF80CC0A8
:103D6000D249606A31F810B05A46002360461946BD
:103D7000FCF710FB4FF4807C0022A0FB0C3B01FB06
:103D80000CB100FB0210616849085E1840EB0201AB
:103D9000D4F804C0624600233046FCF7FBFA05461F
:103DA00095E06EE0C2480068C0F3401038B3C048E8
:103DB0000068C0F3C101BF4820FA01FCBB49606A3A
:103DC00031F810B05A46002360461946FCF7E2FA73
:103DD0004FF4807C0022A0FB0C3B01FB0CB100FBEC
:103DE0000210616849085E1840EB0201D4F804C073
:103DF000624600233046FCF7CDFA05461FE0AB498A
:103E0000606A31F810C062460023AA481946FCF7E0
:103E1000C1FA4FF4807C0022A0FB0C3B01FB0CB1EB
:103E200000FB0210616849085E1840EB0201D4F8FB
:103E300004C0624600233046FCF7ACFA054646E073
:103E40009A49606A31F810C0624600239A481946C0
:103E5000FCF7A0FA4FF4807C0022A0FB0C3B01FB96
:103E60000CB100FB0210616849085E1840EB0201CA
:103E7000D4F804C0624600233046FCF78BFA0546AE
:103E800025E08A49606A31F810C0624600234FF489
:103E900000401946FCF77EFA4FF4807C0022A0FB1C
:103EA0000C3B01FB0CB100FB0210616849085E1875
:103EB00040EB0201D4F804C0624600233046FCF710
:103EC00069FA054603E000BF0120089000BF00BF6B
:103ED000B5F5407F05D3B5F5801F02D22068C560D7
:103EE00088E10120089085E1E069B0F5004F7CD1C0
:103EF000B8F1100F7AD00CDCB8F1000F13D0B8F184
:103F0000010F21D0B8F1040F2FD0B8F1080F6ED1F6
:103F100051E0B8F1200F6BD0B8F1400F38D0B8F1B4
:103F2000800F64D197E0FDF791FF604A616A32F833
:103F30001110B0FBF1F04000616800EB5100B0FBE4
:103F4000F1F01FFA80FA89E0FDF796FF574A616A9F
:103F500032F81110B0FBF1F04000616800EB510045
:103F6000B0FBF1F01FFA80FA78E005A8FCF762FEDA
:103F700006994E4A606A32F81000B1FBF0F040003A
:103F8000616800EB5100B0FBF1F01FFA80FA65E0C8
:103F900002A8FCF765FF0399444A606A32F81000F2
:103FA000B1FBF0F04000616800EB5100B0FBF1F0B4
:103FB0001FFA80FA52E03E480068C0F34010C0B1DA
:103FC0003B480068C0F3C1013A48C840374A616ABB
:103FD00032F81110B0FBF1F04000616800EB5100C5
:103FE000B0FBF1F01FFA80FA12E044E011E031E09A
:103FF0001FE02E49606A31F810002E49B1FBF0F045
:104000004000616800EB5100B0FBF1F01FFA80FA4C
:1040100024E02649606A31F810002749B1FBF0F02E
:104020004000616800EB5100B0FBF1F01FFA80FA2C
:1040300014E01E49606A31F810004FF40041B1FBF2
:10404000F0F04000616800EB5100B0FBF1F01FFAA6
:1040500080FA03E000BF0120089000BF00BF4FF6C8
:10406000F0700AEA0009CAF3420049EA0009206830
:10407000C0F80C90BEE0B8F1100F7CD00CDCB8F1A9
:10408000000F1BD0B8F1010F29D0B8F1040F37D0C1
:10409000B8F1080F70D159E0B8F1200F6DD0B8F128
:1040A000400F40D0B8F1800F66D19FE05C750008EA
:1040B000004402580090D00300093D00FDF7C6FE01
:1040C0004E4A616A32F81110B0FBF1F0616800EB02
:1040D0005100B0FBF1F080B22168C86089E0FDF7C3
:1040E000CBFE464A616A32F81110B0FBF1F061680C
:1040F00000EB5100B0FBF1F080B22168C86078E0BD
:1041000005A8FCF797FD06993C4A606A32F8100052
:10411000B1FBF0F0616800EB5100B0FBF1F080B250
:104120002168C86065E002A8FCF79AFE0399334A4B
:10413000606A32F81000B1FBF0F0616800EB5100EA
:10414000B0FBF1F080B22168C86052E02C480068F2
:10415000C0F34010C0B12A480068C0F3C10129482B
:10416000C840264A616A32F81110B0FBF1F061686C
:1041700000EB510002E017E037E025E0B0FBF1F082
:1041800080B22168C8600EE01C49606A31F81000F6
:104190001C49B1FBF0F0616800EB5100B0FBF1F09D
:1041A00080B22168C86024E01449606A31F81000C8
:1041B0001549B1FBF0F0616800EB5100B0FBF1F084
:1041C00080B22168C86014E00C49606A31F81000C0
:1041D0004FF40041B1FBF0F0616800EB5100B0FB1F
:1041E000F1F080B22168C86003E000BF01200890B0
:1041F00000BF00BF089809B0BDE8F08F5C750008EB
:10420000004402580090D00300093D002DE9F04120
:1042100004460D4617469846069E21E0701CF8B1EC
:104220002EB1FCF7D1FBA0EB0800B04218D92068F2
:10423000006820F4D070216808602068806820F051
:10424000010021688860202084F8790084F87A00D1
:1042500000BF002084F8780000BF0320BDE8F08193
:104260002068C0692840A84201D1012000E0002058
:10427000B842D3D00020F1E710B5024800F00CF8A6
:1042800010BD0000A801002010B5024800F004F89D
:1042900010BD0000D40900202DE9F041044620683B
:1042A000C569206806682068D0F8088005F02000FD
:1042B000D8B12068808CC7B2E18AA0684754E08AF0
:1042C000401C80B2E082E189884201DB0020E0826C
:1042D000608BE189884202DA608B401C6083606AEF
:1042E00010B13846616A884700BF05F0800028B3E6
:1042F00006F0800010B3A08A60B92068006820F042
:104300008000216808602068006840F04000216853
:10431000086013E0012084F82800618A6068405C2E
:1043200021680885608A401C80B26082A189884229
:1043300001DB00206082A08A401EA08205F04000C0
:1043400018B306F0400000B3A08A68B9206800687E
:1043500020F0400021680860206A08B1206A804788
:10436000002084F8280010E0618A6068405C2168C1
:104370000885608A401C80B26082A189884201DB86
:1043800000206082A08A401EA0822068006A40F05F
:104390000100216808622068006A40F0020021687C
:1043A00008622068006A40F0040021680862206802
:1043B000006A40F00800216808622068006A40F046
:1043C0001000216808622068006A40F040002168FF
:1043D00008622068006A40F48070216808622068E2
:1043E000006A40F40070216808622068006A40F4A6
:1043F0000030216808622068006A40F4801021685B
:1044000008622068006A40F0200021680862BDE868
:10441000F081F8B504460F461646002535E01CE04D
:1044200001F0AAFDA08A009001F0D4FDA089BDF89A
:104430000010884200DD11E0A089BDF8001088421C
:104440000AD12068006800F0800028B92068006860
:1044500040F080002168086000BFE1E700BF785DA0
:10446000228A6168885401F087FD208A401C80B24E
:104470002082A189884201DB00202082A08A401C82
:10448000A08201F0A7FD681C85B2B542C7DB206899
:10449000006840F0800021680860F8BD19481A499A
:1044A00008601A4848601A4888604FF48060888124
:1044B000C881002008824882C88208834883888295
:1044C000C8610862486281F82800124812490860F1
:1044D00012484860124888604FF480608881C88123
:1044E000002008824882C8820883488388820D4859
:1044F000C8610D4808620D484862002081F8280014
:104500007047000000100140A8010020D4010020E5
:10451000D405002000480040D4090020000A0020F3
:10452000000E0020BD310008C9310008B931000873
:1045300000BFFEE70FB4054B10B503A9044A02986B
:1045400000F048F810BC5DF814FB000009510008A9
:10455000C40000200FB4084B10B504A902AA0398A8
:1045600000F038F8044602A9002000F00FF92046B8
:1045700010BC5DF814FB00008D470008024800687D
:10458000C0F30220704700000CED00E010B50028D9
:1045900004DB0A07130E054A135406E00A07140E3B
:1045A000034A00F00F031B1FD45410BD00E400E0C9
:1045B00018ED00E002E008C8121F08C1002AFAD175
:1045C00070477047002001E001C1121F002AFBD193
:1045D000704700002DE9FF4F8BB09A460F46054605
:1045E000002606E025280BD052460D9990476D1CF9
:1045F000761C28780028F5D10FB03046BDE8F08F42
:104600000024A0460122604900E0044315F8013F60
:10461000203B02FA03F00842F7D128782E2817D160
:1046200015F8010F44F004042A280ED06FF02F0271
:104630002878A0F1300109290AD808EB880102EB9B
:10464000410100EB01086D1CF2E757F8048B6D1C6B
:10465000287869283ED006DC0028CDD063280BD00E
:10466000642804D136E0732810D075284BD0524608
:104670000D999047761C85E017F8040B8DF8000023
:1046800000208DF80100E946012003E057F8049B63
:104690004FF0FF3061074FF0000401D40AE0641CC2
:1046A00044450DDA8442FADB19F804100029F6D1EA
:1046B00006E0641C8442FCDB19F804100029F8D1E0
:1046C000264404E019F8010B52460D999047641EE8
:1046D000F8D257E001CF4FF00A0B002802DA40422F
:1046E0002D2102E0210504D52B218DF82410012174
:1046F00003E0E10705D02021F7E70DF1200908913B
:104700000CE00021F9E701CF4FF00A0BF9E7594619
:10471000FBF7A5FE01F1300209F8012D0028F6D1C2
:10472000ADEB090000F1200B600701D44FF0010848
:10473000D84502DDA8EB0B0000E0002080460024F5
:1047400006E009A85246005D0D999047641C761C4E
:1047500008988442F5DB04E0302052460D999047DA
:10476000761CB8F10001A8F10108F5DC05E019F8A4
:10477000010B52460D999047761CBBF10001ABF13D
:10478000010BF4DC6D1C34E7092801000A68531C96
:104790000B6010707047000070B50546304800EBA4
:1047A00005142846FEF714FB00283ED02079052882
:1047B00002DA0520207152E020790A2803DA2079F4
:1047C000401C20714BE0A07A38B90120A07205EBA3
:1047D0004501491CC8B200F095F9208900283EDD4A
:1047E000E088218988420DDAE088401C80B2E080B0
:1047F0002189884233D105EB4501C91CC8B200F0BC
:1048000081F92CE0E07A002829DD207B401CC0B231
:104810002073E17A884222DB0020207305EB4501FA
:10482000491CC8B200F06EF919E02079052802DDB4
:104830000520207110E0207918B12079401E2071E8
:104840000AE0A07A012807D10020A07205EB4501FB
:10485000891CC8B200F056F90020E080207370BDBA
:10486000C80000200B48807A0A4AD27A904201D1CF
:10487000002070470748807A064A115C1046807A0B
:10488000401CC0B290720A2801DB002090720846DA
:10489000EFE700006801002010B500F009F800F013
:1048A0002DF800F0DBF800F017F800F0C9F810BDA3
:1048B0000748006840F080700549086000200549FD
:1048C00048600846006840F001000860704700003A
:1048D000FCED00E0001000E010B5FEF767F8FEF711
:1048E00015F840F61470034908600846006802494C
:1048F000086010BD340000200010006010B500F00A
:1049000063F800F001F810BD10B586B000BF2C4868
:10491000006840F002002A4908600846006800F07C
:104920000200009000BF00BF00BF0846006840F0D2
:10493000040008600846006800F00400009000BF12
:1049400000BF00BF0846006840F04000086008460D
:10495000006800F04000009000BF00BF00BF0846A4
:10496000006840F0800008600846006800F08000A1
:10497000009000BF00BF00BF0846006840F4807090
:1049800008600846006800F48070009000BF00BF17
:104990000020029003900320049000240CE00948BA
:1049A00000EBC40080880190064951F8340001A949
:1049B000FBF7E4FE601CC4B2082CF0DB06B010BDAF
:1049C000E04402581C75000810B500201A4988728E
:1049D000C8720873002418E06420184901EB041120
:1049E00008810220154901EB0411087100201349C8
:1049F00001EB04118872114901EB0411C8720F49CF
:104A000001EB04110873601CC4B20A2CE4DB06221B
:104A10006421032000F0C2F906226421042000F082
:104A2000BDF906226421052000F0B8F906226421B0
:104A3000104600F0B3F910BD68010020C800002046
:104A400010B5012000F01DF8022000F01AF8032034
:104A500000F017F8042000F014F810BD10B5FFF7AF
:104A60001DFDFEF7D5F8FEF785FB10BD10B500243F
:104A700004E02046FFF790FE601CC4B20A2CF8DB6D
:104A800010BD10B50446012C04D101210002FEF72F
:104A900025F813E0022C04D101214802FEF71EF88C
:104AA0000CE0032C04D101218802FEF717F805E081
:104AB000042C03D10121C802FEF710F810BD70B517
:104AC0000446012C01D105020DE0022C01D1250282
:104AD00009E0032C02D14FF4806504E0042C01D1DD
:104AE000650200E070BD2846FDF7ECFF20B1002113
:104AF0002846FDF7F3FF03E001212846FDF7EEFF0E
:104B000000BFEFE70649C97A054A50541146C97AF1
:104B1000491CC9B2D1720A2901DB0021D172704748
:104B20006801002038B50446824884420DD100BF98
:104B30008148006840F001007F490860084600682D
:104B400000F00100009000BFF2E0B4F1804F0FD1FF
:104B500000BF79480838006840F0010076490839FC
:104B600008600846006800F00100009000BFDFE028
:104B7000724884420FD100BF6F480838006840F087
:104B800002006D49083908600846006800F002001C
:104B9000009000BFCCE06A4884420FD100BF664855
:104BA0000838006840F00400634908390860084686
:104BB000006800F00400009000BFB9E06148844242
:104BC0000FD100BF5C480838006840F008005A491F
:104BD000083908600846006800F00800009000BF2F
:104BE000A6E0594884420FD100BF534808380068F6
:104BF00040F010005049083908600846006800F08D
:104C00001000009000BF93E0504884420FD100BFD5
:104C100049480838006840F02000474908390860D2
:104C20000846006800F02000009000BF80E048487F
:104C300084420DD100BF4048006840F002003E4968
:104C400008600846006800F00200009000BF6FE0B6
:104C5000404884420FD100BF37480838006840F010
:104C600040003549083908600846006800F04000F7
:104C7000009000BF5CE0384884420FD100BF2E484E
:104C80000838006840F080002B4908390860084661
:104C9000006800F08000009000BF49E02F48844287
:104CA0000FD100BF24480838006840F480702249C2
:104CB000083908600846006800F48070009000BF62
:104CC00036E0274884420DD100BF1B48006840F4FD
:104CD0008030194908600846006800F48030009070
:104CE00000BF25E01F4884420DD100BF1248006874
:104CF00040F40030104908600846006800F40030B5
:104D0000009000BF14E0184884420DD100BF0A484B
:104D1000006840F48020084908600846006800F4F4
:104D20008020009000BF03E0802110A0FBF783FCEF
:104D300038BD000000000140F0440258000400406B
:104D400000080040000C004000100040001400402B
:104D50000004014000180040001C004000200040FA
:104D60000040014000440140004801402E2E5C2ECE
:104D70002E5C557365725C6273705C7372635C6207
:104D800073705F74696D5F70776D2E630000000053
:104D900010B5FFF76BFE10BD7047000010B5074B54
:104DA00003EB00131981054B03EB0013DA720023A8
:104DB000024C04EB0014237310BD0000C800002057
:104DC0002DE9F04F91B004460D4691469A46402198
:104DD00001A8FBF729FB2046FFF7A4FE5C488442AC
:104DE0000BD05C48844208D05B48844205D05B48C5
:104DF000844202D05A48844203D15A480068460887
:104E000002E0584800684608642D0AD242F20F7842
:104E100042F21070B6FBF0F0B0FBF5F0401E87B226
:104E200013E040F6B830854209D24FF063086420A1
:104E3000B6FBF0F0B0FBF5F0401E87B205E04FF096
:104E40000008B6FBF5F0401E87B20194CDF808804B
:104E5000049700210591039106918021079101A8F3
:104E6000FDF7ECFC20B14FF4F0713FA0FBF7E3FB42
:104E70000198C06840F001000199C8604FF0000B34
:104E80003348844202D14FF0190B52E0B4F1804F05
:104E900002D14FF01C0B4CE03C48844202D14FF051
:104EA0001D0B46E03A48844202D14FF01E0B40E011
:104EB0003848844202D14FF0320B3AE036488442FF
:104EC00002D14FF0360B34E03448844202D14FF027
:104ED000370B2EE01F48844202D14FF02C0B28E004
:104EE0002F48844202D14FF02B0B22E02D48844200
:104EF00002D14FF02C0B1CE02B48844202D14FF022
:104F00002D0B16E01448844202D14FF0740B10E0D0
:104F10001248844202D14FF0750B0AE010488442D7
:104F200002D14FF0760B04E040F2FB110EA0FBF72C
:104F300082FB524649465846FBF7F9FD5846FBF7B7
:104F4000E6FD01A8FDF795FC11B0BDE8F08F00006B
:104F500000000140000401400040014000440140C5
:104F6000004801403C0000202E2E5C2E2E5C557324
:104F700065725C6273705C7372635C6273705F74A1
:104F8000696D5F70776D2E630000000000040040C3
:104F900000080040000C00400010004000140040D9
:104FA00000180040001C004000200040F0B5A1B0F7
:104FB00004460D4617461E460194029500210391B2
:104FC0000491059707910696089109910A910B9112
:104FD0000C910D9100200E9001A8FDF759FC20B115
:104FE00040F22A3102A0FBF726FB21B0F0BD000001
:104FF0002E2E5C2E2E5C557365725C6273705C7332
:1050000072635C6273705F756172745F6669666F0C
:105010002E630000416851B14168491E416031B9B9
:10502000012141700178012901D1816841607047F7
:105030002DE9F04105460E4617462846FBF7BCFA17
:1050400004460CB9BDE8F081E06908B1E069804729
:105050003A4631462046FFF7DCF900BFF2E713B5C8
:105060000446012201A92046FFF7E2FF1CBD000013
:105070002DE9F04707463E4666B900BF102072B6DC
:1050800080F31188BFF34F8FBFF36F8F62B600BFFD
:1050900000BFFEE717480068864201D1002426E0E1
:1050A00000F06AFF75691448D0F800801348D0F802
:1050B000009000F08FFF454501D04D4501D10224FD
:1050C00015E00F4885420BD1B06A38B996F8580000
:1050D000012801D102240AE0032408E0022406E0AA
:1050E0000848854200D00DB9042400E00124204680
:1050F000BDE8F087480000204C0000205000002050
:10510000341300202013002070B504460D46E1B290
:105110000020FFF7A4FF204670BDFEF717FAFDF749
:1051200084FB012080F3108800BFFFF7B5FB01F07E
:1051300047F8FBF7E5F901F075FA00BFFEE700005C
:105140002DE9F04105460E461C4807681C480068DA
:10515000001D00F06BFE50B91948006890F82C1043
:105160000120884017490968814316480160681C7E
:1051700038B936B112480168091D134800F0F0FE35
:105180001AE07C190E4800684460BC4207D20C4803
:105190000168091D0D48006800F0C8FE0CE00848D1
:1051A0000168091D0A48006800F0C0FE094800684F
:1051B000844201D207480460BDE8F0815C00002011
:1051C0004800002060000020341300205000002020
:1051D0004C0000207800002010B5044600F0CCFE02
:1051E00024480068401C234908602348006840B9EF
:1051F000214804600846006801280DD100F0DCF960
:105200000AE01E48006838B91B480068C06AE16AB5
:10521000884201D81848046019480068401C1849A1
:10522000086008460068206494F82C10012088402B
:1052300014490968084313490860E16A01EB8101D8
:10524000114A02EB8100211D00F08AFE00F0C2FE2F
:105250000A48006868B108480068C06AE16A884284
:1052600007D24FF0805009490860BFF34F8FBFF35A
:105270006F8F10BD580000204800002064000020FF
:1052800074000020600000208012002004ED00E087
:1052900010B500F071FE10480068D0B90F4800F05A
:1052A00035FE0F4800F032FE0C480E4908600C48ED
:1052B0000D49086000221021052001F073FB06490A
:1052C00008600846006820B108A10348006800F0A3
:1052D0003BFF00F07FFE10BD94000020481300202B
:1052E0005C1300208C00002090000020546D72514F
:1052F0000000000010B516E000F03EFE0C48C0684B
:10530000C468201D00F092FD0A480068401E09494B
:10531000086009480068401E0749086000F05AFE0E
:10532000204600F05FF8044800680028E4D110BD72
:1053300020130020580000205400002070B50446BF
:105340000D46206C70B1216CE0680144E160D4E945
:105350000210884201D32168E1602846226CE1688E
:10536000FBF749F870BD2DE9F04104460F4615469C
:105370004FF00008A66B206C48B9206800282CD19B
:10538000A06801F007FF80460020A06025E07DB9FD
:105390003946226C6068FBF72EF8216C606808447F
:1053A0006060D4E90101884217D32068606014E08E
:1053B0003946226CE068FBF71EF8216CE068411A60
:1053C000E1602168E068884203D2216CA068411A3C
:1053D000E160022D01D106B1761E701CA06340462B
:1053E000BDE8F08110B50446206B00F013FE2046A6
:1053F00000F010FE10BD00000146084A1268126855
:105400000AB9012200E000220A600A6822B9034AB0
:105410001268D268106800E0002070478C000020FD
:1054200030B54FF4F043174800F007042CB1C01D0D
:1054300020F00700134C041B1B1B0246124C226079
:105440000024114D6C60D018083820F007000F4C74
:10545000206000240D4D2D686C600C4D2D682C6073
:105460001146441A4C60094C24680C60084D4C6885
:105470002C60084D4C682C604FF00044064D2C60A9
:1054800030BD000070130020AC000020B4000020EC
:10549000BC000020B8000020C000002000BFFFF7C3
:1054A00029FF064800680128F9D94FF080500449C7
:1054B0000860BFF34F8FBFF36F8FF0E780120020BB
:1054C00004ED00E02DE9F04106460D4617469846EA
:1054D000069C0DB9246000E02760E6632564012185
:1054E000204601F08FFA84F850800020A064BDE8C7
:1054F000F0812DE9F05F82460E4690469B460A9F5A
:105500000C9C4FEA8801A522206BFAF786FFA8F1D0
:105510000100216B01EB800929F0070909F0070060
:1055200008B9012000E0002060B900BF102072B669
:1055300080F31188BFF34F8FBFF36F8F62B600BF48
:1055400000BFFEE786B1002507E0715D04F134007D
:105550004155705D00B902E06D1C0A2DF5D300BF06
:1055600000213D20015502E0002084F83400052F81
:1055700000D30427E762A7640020E064201D00F048
:10558000D2FC04F1180000F0CEFC2461C7F1050044
:10559000A061646200202065606584F858005A4666
:1055A0005146484600F02CFC20600B9808B10B983F
:1055B0000460BDE8F09F000010B5002407E004EB94
:1055C00084010F4A02EB810000F0A0FC641C052C52
:1055D000F5D30C4800F09AFC0B4800F097FC0B4800
:1055E00000F094FC0A4800F091FC0A4800F08EFCA0
:1055F00004480949086004480849086010BD0000D3
:1056000080120020E4120020F81200200C13002069
:1056100020130020341300204C00002050000020F4
:1056200010B50146164800E0006803688B42FBD3C2
:105630000246436813448B4204D143684C682344B8
:10564000436001460A464B6813440468A34211D1E3
:105650000C4C03682468A34208D04B680468646853
:1056600023444B6003681B680B6005E0054B1B6817
:105670000B6001E003680B60884200D0016010BD40
:10568000AC000020B40000202DE9F04104460D4696
:1056900016461F464FF0000865602461B5420CD8DD
:1056A000F01BA169884202D34FF0010811E0211DCF
:1056B0000948006800F03AFC0BE0BE4204D2BD424B
:1056C00002D34FF0010804E0211D0448006800F0F7
:1056D0002DFC4046BDE8F081900000208C000020A9
:1056E00070B5054600F048FCA86B08B9012400E03D
:1056F000002400F06FFC204670BD70B5054600F038
:105700003BFCA86BE96B884201D1012400E0002436
:1057100000F060FC204670BD2DE9F04707460C46BE
:1057200090460026206848B3204641684968416099
:1057300000F1080142688A4202D14168496841602B
:105740004168D1F80C9000BF20464168496841602B
:1057500000F1080142688A4202D14168496841600B
:105760004168CD6806EBC60007EB80014346012285
:10577000284600F0D1FD761C4D45E5D13046BDE808
:10578000F0872DE9F3410D460098846C002764B939
:1057900000BF102072B680F31188BFF34F8FBFF3A4
:1057A0006F8F62B600BF00BFFEE7A06BE16B88425F
:1057B00001D2012000E0002060B900BF102072B6C5
:1057C00080F31188BFF34F8FBFF36F8F62B600BFB6
:1057D00000BFFEE7A06BE16B88421BD294F94560E5
:1057E0002A4669462046FFF7BEFD0746701C60B991
:1057F000606A08B9012000E0002050B904F12400DB
:1058000001F030FD28B1012703E0701C40B284F89C
:10581000450000BF3846BDE8FC810000F8B50546EC
:105820000F461B480068C068C468201D00F0FEFADF
:1058300094F8280000F00400F8B1A06941192B4643
:105840003A462046FFF720FFE8B1002003462A46EB
:1058500001460090204601F005FE064666B900BFED
:10586000102072B680F31188BFF34F8FBFF36F8F94
:1058700062B600BF00BFFEE705E094F8280020F004
:10588000010084F828002046216A8847F8BD0000FE
:105890008C000020F0B587B0A6E00398002813DA4A
:1058A00004AE66B900BF102072B680F31188BFF352
:1058B0004F8FBFF36F8F62B600BF00BFFEE7D6E920
:1058C0000020B168904700BF03980028E4DB059CE6
:1058D000606908B9012000E0002010B9201D00F027
:1058E000A5FA02A800F0E2F8054603980A2879D242
:1058F000DFE800F00905073B436706083C4400BFAA
:1059000000BF00BF00BF94F8280040F0010084F8F9
:1059100028000498A269811803462A462046FFF70A
:10592000B3FE08B32046216A884794F8280000F0A7
:105930000400C8B1002000900498A1694218002317
:105940001946204601F08EFD074667B900BF1020BA
:1059500072B680F31188BFF34F8FBFF36F8F62B6BB
:1059600000BF00BFFEE700BF3DE000BF94F8280085
:1059700020F0010084F8280035E000BF94F82800EA
:1059800040F0010084F828000498A061A06908B1E3
:10599000012000E0002060B900BF102072B680F343
:1059A0001188BFF34F8FBFF36F8F62B600BF00BF88
:1059B000FEE7A06941192B462A462046FFF764FE00
:1059C00011E094F8280000F0020020B9204600F011
:1059D00021FB06E006E094F8280020F0010084F89E
:1059E000280000E000BF00BF002203A904480068AF
:1059F00001F0D6F900287FF450AF07B0F0BD0000E9
:105A000094000020F8B505460C4600F05DFE68469F
:105A100000F04CF80646009820BB44B9B54206D8C1
:105A200001F06EFC31462846FFF7F8FE1CE03CB161
:105A30000E480068006808B9012000E00020044614
:105A4000A91B22460A48006800F094FB01F058FCAC
:105A500050B94FF0805007490860BFF34F8FBFF334
:105A60006F8F01E001F04CFCF8BD000090000020B9
:105A70009400002004ED00E00A490968096809B9AA
:105A8000012100E0002121B14FF0FF31064A1160F1
:105A900006E004490968C968C868034A416811609A
:105AA000704700004C0000207800002070B50446CC
:105AB00001F0BAFA054607480068854204D200F0B2
:105AC0000BF80120206001E0002020600148056003
:105AD000284670BD9C0000202DE9F84336E026489A
