:020000040800F2
:10000000F89B0020E57D000853360008B17D00080C
:100010005536000857360008593600080000000021
:10002000000000000000000000000000F936000899
:100030005B360008000000009D360008973000087D
:10004000757E0008797E00087D7E0008817E0008AC
:10005000857E0008897E00088D7E0008917E00085C
:10006000957E0008997E00089D7E0008A17E00080C
:10007000A57E0008A97E0008AD7E0008B17E0008BC
:10008000B57E0008B97E0008BD7E0008C17E00086C
:10009000C57E0008C97E0008CD7E0008D17E00081C
:1000A000D57E0008D97E0008DD7E0008E17E0008CC
:1000B00017770008E57E0008E97E0008ED7E00085D
:1000C000F17E0008F57E0008F97E0008FD7E00083C
:1000D000017F000895620008057F00089F62000804
:1000E000097F00080D7F000800000000117F000854
:1000F000157F0008197F00081D7F0008217F000878
:10010000257F0008297F00082D7F0008317F000827
:10011000357F0008397F00085F7900083D7F0008BF
:10012000417F0008457F0008497F00084D7F000897
:10013000517F0008557F0008597F00085D7F000847
:1001400000000000000000000000000000000000AF
:10015000617F0008657F0008697F00086D7F0008E7
:10016000717F0008757F0008797F00087D7F000897
:10017000817F0008857F0008897F0008000000005B
:100180008D7F0008917F0008957F0008997F000807
:100190009D7F0008A17F0008A57F0008A97F0008B7
:1001A000AD7F0008B17F0008B57F0008B97F000867
:1001B000BD7F0008C17F0008C57F0008C97F000817
:1001C000CD7F0008D17F0008D57F0008D97F0008C7
:1001D000DD7F0008E17F0008E57F0008E97F000877
:1001E000ED7F0008F17F0008F57F0008F97F000827
:1001F000FD7F0008018000080580000809800008D4
:100200000D80000811800008158000081980000882
:100210001D80000821800008258000082980000832
:100220002D800008318000083580000800000000A3
:10023000398000083D80000800000000418000086F
:1002400045800008498000084D8000085180000862
:1002500055800008598000085D8000086180000812
:1002600065800008698000086D80000871800008C2
:1002700075800008798000087D800008000000007B
:100280008180000800000000858000080000000058
:1002900000000000898000082DE9F04104000026DC
:1002A00000252068000130D5606E002809D0B0F527
:1002B000801F0DD0B0F5001F10D0B0F5401F14D036
:1002C00014E0DFF8D809016851F4003101600EE054
:1002D0000221201D00F00CFF060008E0022114F1AD
:1002E000240000F083FF060001E000E0012630005A
:1002F000C0B2002808D1DFF8A8190A6832F4401209
:10030000606E02430A6000E035432068C0052ED5C8
:10031000606D002806D0022811D00AD3042816D018
:1003200014D315E0DFF87409016851F4003101605D
:100330000FE00021201D00F0DBFE060009E0002197
:1003400014F1240000F052FF060002E001E000E09A
:1003500001263000C0B2002808D1DFF844190A682D
:10036000D208D200606D02430A6000E03543206885
:10037000800531D5A06D002809D040280ED08028F6
:1003800012D0C02817D0B0F5807F15D015E0DFF867
:100390000C09016851F4003101600FE00021201DBB
:1003A00000F0A6FE060009E0002114F1240000F090
:1003B0001DFF060002E001E000E001263000C0B2AF
:1003C000002808D1DFF8D8180A6832F4E072A06D6E
:1003D00002430A6000E035432068400536D5D4F872
:1003E000A40000280CD0B0F5001F10D0B0F5800F8D
:1003F00013D0B0F5C00F17D0B0F5000F15D015E031
:10040000DFF89808016851F4003101600FE0002125
:10041000201D00F06DFE060009E0002114F124000B
:1004200000F0E4FE060002E001E000E001263000FA
:10043000C0B2002809D1DFF86C180A6832F46002F3
:10044000D4F8A40002430A6000E0354320680005A8
:1004500036D5D4F8A80000280CD0B0F1807F10D099
:10046000B0F1007F13D0B0F1407F17D0B0F1806FB2
:1004700015D015E0DFF82408016851F4003101605F
:100480000FE00021201D00F033FE060009E00021EE
:1004900014F1240000F0AAFE060002E001E000E0F2
:1004A00001263000C0B2002809D1DFF8F8170A6829
:1004B00032F0E062D4F8A80002430A6000E035435D
:1004C0002068800127D5A06C002814D0102804D003
:1004D000202809D030280DD00EE0DFF8C0070168D1
:1004E00051F40031016008E00221201D00F000FEFF
:1004F000060002E001E000E001263000C0B2002862
:1005000008D1DFF8A4170A6832F03002A06C024369
:100510000A6000E035432068C00434D5E06D00284F
:100520000CD0B0F5805F10D0B0F5005F13D0B0F5FF
:10053000405F17D0B0F5804F15D015E0DFF85C07AD
:10054000016851F4003101600FE00021201D00F02E
:10055000CFFD060009E0002114F1240000F046FE62
:10056000060002E001E000E001263000C0B20028F1
:1005700008D1DFF82C170A6832F4E042E06D02433C
:100580000A6000E035432068800432D5206E0028E0
:100590000FD0B0F5803F0DD0B0F5003F10D0B0F5D2
:1005A000403F14D0B0F5802F12D0B0F5A02F10D05E
:1005B00010E010E00121201D00F09AFD06000AE085
:1005C000012114F1240000F011FE060003E002E016
:1005D00001E000E001263000C0B2002808D1DFF8B9
:1005E000C0160A6832F4E022206E02430A6000E07E
:1005F00035432068400434D5D4F8AC0000280FD02F
:10060000B0F1805F0DD0B0F1005F10D0B0F1405F6D
:1006100014D0B0F1804F12D0B0F1A04F10D010E044
:1006200010E00121201D00F063FD06000AE0012119
:1006300014F1240000F0DAFD060003E002E001E01E
:1006400000E001263000C0B2002809D1DFF85416BE
:100650000A6832F0E042D4F8AC0002430A6000E0DD
:1006600035432068000426D5E06E002813D0B0F191
:10067000805F03D0B0F1005F07D00DE0DFF81C060B
:10068000016851F40031016007E00121201D00F0F4
:100690002FFD060001E000E001263000C0B2002876
:1006A00008D1DFF8FC150A6832F04052E06E0243D0
:1006B0000A6000E035432068C00126D5606C002840
:1006C00013D002280AD002D303280DD00EE0DFF8A1
:1006D000CC05016851F40031016008E00221201DC1
:1006E00000F006FD060002E001E000E00126300017
:1006F000C0B2002808D1DFF8B0150A68920892004D
:10070000606C02430A6000E03543206840026DD50A
:10071000DFF8BC85D8F8000050F48070C8F80000FD
:1007200000F0F4FD0700D8F80000C00505D400F083
:10073000EDFDC01B6528F6D303263000C0B20028AB
:1007400053D1DFF89075386810F44070D4F8B010C9
:1007500011F4407188420BD0386830F44070396829
:1007600051F480313960396831F480313960386052
:10077000D4F8B000B0F5807F0ED100F0C7FD804600
:100780003868800708D400F0C1FDB0EB080041F2E2
:1007900089318842F4D303263000C0B2002822D128
:1007A000D4F8B00010F44070B0F5407F0DD1DFF800
:1007B0002805016831F47C51D4F8B020DFF81C35ED
:1007C00013EA12131943016005E0DFF80C05016814
:1007D00031F47C5101603868D4F8B0100905090D76
:1007E0000843386002E0354300E035432078C00715
:1007F0002DD5A06F00280AD0082809D010280DD0C8
:10080000182812D0202811D0282810D010E010E08D
:100810000121201D00F06CFC06000AE0012114F10A
:10082000240000F0E3FC060003E002E001E000E049
:1008300001263000C0B2002808D1DFF888160A6807
:1008400032F03802A06F02430A6000E0354320789E
:1008500080072BD5606F002808D002280DD006D362
:10086000042812D010D3052810D010E010E0012188
:10087000201D00F03DFC06000AE0012114F12400D7
:1008800000F0B4FC060003E002E001E000E0012615
:100890003000C0B2002808D1DFF828160A68D20854
:1008A000D200606F02430A6000E0354320784007C1
:1008B0002DD5D4F89000002808D002280DD006D3FA
:1008C000042812D010D3052810D010E010E0012128
:1008D000201D00F00DFC06000AE0012114F12400A7
:1008E00000F084FC060003E002E001E000E00126E5
:1008F0003000C0B2002809D1DFF8A8130A68D20876
:10090000D200D4F8900002430A6000E0354320781A
:10091000800634D5D4F88C0000280FD0B0F1805F69
:100920000DD0B0F1005F10D0B0F1405F14D0B0F145
:10093000804F12D0B0F1A04F10D010E010E0002195
:10094000201D00F0D5FB06000AE0022114F124006E
:1009500000F04CFC060003E002E001E000E00126AC
:100960003000C0B2002809D1DFF858150A6832F00B
:10097000E042D4F88C0002430A6000E0354320785E
:10098000400634D5D4F8980000280FD0B0F5806F19
:100990000DD0B0F5006F10D0B0F5406F14D0B0F5A9
:1009A000805F12D0B0F5A05F10D010E010E0002101
:1009B000201D00F09DFB06000AE0022114F1240036
:1009C00000F014FC060003E002E001E000E0012674
:1009D0003000C0B2002809D1DFF8C8120A6832F42A
:1009E000E052D4F8980002430A6000E035432078D2
:1009F000000634D5D4F89C0000280FD0B0F5005F75
:100A00000DD0B0F5804F10D0B0F5C04F14D0B0F578
:100A1000004F12D0B0F5204F10D010E010E00021B0
:100A2000201D00F065FB06000AE0022114F12400FD
:100A300000F0DCFB060003E002E001E000E001263C
:100A40003000C0B2002809D1DFF858120A6832F429
:100A50006042D4F89C0002430A6000E035432078ED
:100A6000000714D5D4F88000B0F5805F06D10221CC
:100A700014F1240000F0BAFB054308E0DFF8441449
:100A80000A6832F44052D4F8800002430A602078A9
:100A9000C00614D5D4F89400B0F5807F06D10221A9
:100AA00014F1240000F0A2FB054308E0DFF8F41184
:100AB0000A6832F44072D4F8940002430A60206855
:100AC000000328D5D4F8A000002806D0B0F5803F58
:100AD00009D0B0F5003F0DD00DE00021201D00F041
:100AE00007FB060008E0022114F1240000F07EFB61
:100AF000060001E000E001263000C0B2002809D164
:100B0000DFF8A0110A6832F44032D4F8A0000243A2
:100B10000A6000E035432068400329D5D4F88400FA
:100B2000B0F5801F06D0B0F5001F09D0B0F5401F0A
:100B30000DD00DE05948016851F40031016008E022
:100B4000012114F1240000F051FB060001E000E057
:100B500001263000C0B2002809D1DFF868130A6806
:100B600032F44012D4F8840002430A6000E03543B6
:100B70002068C00320D5E06C002803D0B0F5803F8A
:100B800006D00BE04548016851F40031016006E0F1
:100B90000221201D00F0ACFA060000E00126300022
:100BA000C0B2002807D140490A6832F48032E06CB4
:100BB00002430A6000E035432068800005D5022129
:100BC00014F1240000F012FB05432068800325D5B2
:100BD000E06F002811D0B0F5807F06D0B0F5007F1F
:100BE00009D0B0F5407F07D008E02C48016851F4E7
:100BF0000031016003E002E001E000E00126300086
:100C0000C0B2002808D1DFF8BC120A6832F4407282
:100C1000E06F02430A6001E02E4335002068C00205
:100C200006D51F490A6822F00042206F02430A607D
:100C30002068C00008D5DFF8A0100A6832F48042AE
:100C4000D4F8B40002430A602068800206D5144933
:100C50000A6832F08072A06E02430A602068400089
:100C60000AD5DFF87410086830F4004008600A689C
:100C7000D4F8B80002430A602068002806D50A4963
:100C80000A6832F04052206D02430A60EDB2002D36
:100C900001D1002000E00120BDE8F0812C44025881
:100CA00050440258584402584C44025880B500F051
:100CB00044FDDFF830160968DFF8242611F07001D2
:100CC0005FF00063B3FA83F3D940515CC84002BDC2
:100CD000004802587044025810440258CFFFFF00E9
:100CE00010B400210121002100219FED770A9FED22
:100CF000760ADFF8F4130B6813F003030968C1F3F5
:100D00000532DFF8E8130C6814F01004DFF8D8158A
:100D10000968C1F3CC014C4300EE104AB8EE400A1A
:100D2000002B03D0022B64D045D380E0DFF8BC3524
:100D30001968890621D5DFF8A8141B68C3F3C1031D
:100D4000D940B1FBF2F100EE901AF8EE600ADFF83C
:100D5000A0150968C905C90D01EE101AB8EE411AAF
:100D6000DFED5A1A80EE210A31EE000AB7EE001AC2
:100D700030EE010A20EE800A1CE0DFF86414B1FBBB
:100D8000F2F100EE901AF8EE600ADFF864150968D7
:100D9000C905C90D01EE101AB8EE411ADFED4B1A64
:100DA00080EE210A31EE000AB7EE001A30EE010A99
:100DB00020EE800A58E0DFF82C14B1FBF2F100EECF
:100DC000901AF8EE600ADFF828150968C905C90D00
:100DD00001EE101AB8EE411ADFED3C1A80EE210A3E
:100DE00031EE000AB7EE001A30EE010A20EE800A5A
:100DF0003AE0DFF8F413B1FBF2F100EE901AF8EEEE
:100E0000600ADFF8EC140968C905C90D01EE101A73
:100E1000B8EE411ADFED2D1A80EE210A31EE000AFC
:100E2000B7EE001A30EE010A20EE800A1CE0DFF86F
:100E3000B413B1FBF2F100EE901AF8EE600ADFF89D
:100E4000B0140968C905C90D01EE101AB8EE411AAF
:100E5000DFED1E1A80EE210A31EE000AB7EE001A0D
:100E600030EE010A20EE800ADFF884140A68C2F32B
:100E70004622521C00EE902AF8EE600AC0EE200ACC
:100E8000FCEEE00AC0ED000A0A68C2F30642521CFA
:100E900000EE902AF8EE600AC0EE200AFCEEE00AAE
:100EA000C0ED010A0968C1F30661491C00EE901A01
:100EB000F8EE600A80EE200ABCEEC00A80ED020A5D
:100EC00010BC704754440258000000000000004667
:100ED00010B400210121002100219FED760A9FED31
:100EE000750ADFF804120B6813F003030968C1F3F5
:100EF0000552DFF8F8110C6814F48074DFF8F4136D
:100F00000968C1F3CC014C4300EE104AB8EE400A28
:100F1000002B03D0022B64D045D380E0DFF8CC3324
:100F20001968890621D5DFF8B8121B68C3F3C1031D
:100F3000D940B1FBF2F100EE901AF8EE600ADFF84A
:100F4000B8130968C905C90D01EE101AB8EE411AA7
:100F5000DFED591A80EE210A31EE000AB7EE001AD1
:100F600030EE010A20EE800A1CE0DFF87412B1FBBB
:100F7000F2F100EE901AF8EE600ADFF87C130968CF
:100F8000C905C90D01EE101AB8EE411ADFED4A1A73
:100F900080EE210A31EE000AB7EE001A30EE010AA7
:100FA00020EE800A58E0DFF83C12B1FBF2F100EECF
:100FB000901AF8EE600ADFF840130968C905C90DF8
:100FC00001EE101AB8EE411ADFED3B1A80EE210A4D
:100FD00031EE000AB7EE001A30EE010A20EE800A68
:100FE0003AE0DFF80412B1FBF2F100EE901AF8EEED
:100FF000600ADFF804130968C905C90D01EE101A6B
:10100000B8EE411ADFED2C1A80EE210A31EE000A0B
:10101000B7EE001A30EE010A20EE800A1CE0DFF87D
:10102000C411B1FBF2F100EE901AF8EE600ADFF89D
:10103000C8120968C905C90D01EE101AB8EE411AA7
:10104000DFED1D1A80EE210A31EE000AB7EE001A1C
:1010500030EE010A20EE800ADFF89C120A68C2F323
:101060004622521C00EE902AF8EE600AC0EE200ADA
:10107000FCEEE00AC0ED000A0A68C2F30642521C08
:1010800000EE902AF8EE600AC0EE200AFCEEE00ABC
:10109000C0ED010A0968C1F30661491C00EE901A0F
:1010A000F8EE600A80EE200ABCEEC00A80ED020A6B
:1010B00010BC7047000000000000004610B500F0B2
:1010C00049FADFF818120968DFF83022DFF8103229
:1010D00011F470615FF40004B4FA84F4E140595CE7
:1010E000C8401060106810BD284402582C440258B3
:1010F0002DE9F84307000C000025DFF80482D8F83A
:10110000000010F00300032801D1012065E0774EB4
:10111000306830F08060306000F0F8F88146306868
:10112000000107D500F0F2F8B0EB09000328F6D370
:10113000032052E0D8F8000030F47C30396850EADF
:101140000130C8F800007868401EC005C00DB968BD
:10115000491E490211F47E410843F968491E0904F9
:1011600011F4FE0108433969491E090611F0FE41D8
:1011700008435F49086063490A6832F0C002786931
:1011800002430A600A6832F02002B86902430A602A
:10119000002C04D1086850F4002008600AE0012CFB
:1011A00004D1086850F48010086003E0086850F427
:1011B00000100860306850F08060306000F0A6F8E1
:1011C00004003068000106D400F0A0F8001B0328DA
:1011D000F7D3032001E02800C0B2BDE8F28300008D
:1011E0000090D00300093D0040787D012DE9F843CF
:1011F00007000C000025DFF80881D8F8000010F087
:101200000300032801D1012065E0384E306830F03A
:101210008050306000F07AF881463068800007D551
:1012200000F074F8B0EB09000328F6D3032052E075
:10123000D8F8000030F07C70396850EA0150C8F8E6
:1012400000007868401EC005C00DB968491E4902FB
:1012500011F47E410843F968491E090411F4FE01A6
:1012600008433969491E090611F0FE410843224925
:10127000086024490A6832F44062786902430A60CF
:101280000A6832F40072B86902430A60002C04D183
:10129000086850F4800008600AE0012C04D1086856
:1012A00050F40000086003E0086850F080700860A7
:1012B000306850F08050306000F028F8040030684A
:1012C000800006D400F022F8001B0328F7D3032087
:1012D00001E02800C0B2BDE8F283000018440258C3
:1012E000C47D0008204402583C440258004402587F
:1012F0003844025844440258404402580400002034
:10130000284402582C4402580020704780B501F050
:1013100087FA022809D1EFF30580002802D000F0F7
:1013200080FF1AE000F079FF17E00C480068800B9E
:101330000CE000BF00BF00BF00BF00BF00BF00BF88
:1013400000BF00BF00BF00BF00BF401E0028F0D19B
:1013500003480168491C0160006802BD04000020C8
:101360008C8B00202DE9F04104000D000020DFF8F7
:101370005C64306810F00700A8420BD23068C008E7
:10138000C00028433060306810F00700A84201D048
:101390000120DDE02078800707D5DFF814140A6803
:1013A00012091201E06802430A602078C0077BD569
:1013B000DFF8FC130A6832F47062A06802430A6026
:1013C0006068022806D1DFF8E003006880031CD4BF
:1013D0000120BDE06068032806D1DFF8CC03006877
:1013E000800112D40120B3E06068012806D1DFF843
:1013F000B8030068C00508D40120A9E0DFF8A803FD
:101400000068400701D40120A2E0DFF8A07339682A
:10141000C908C900606801433960FFF777FF80465B
:10142000606802280ED1386810F0380010283BD0D0
:10143000FFF76CFFB0EB080041F289318842F2D32C
:10144000032085E0606803280ED1386810F038006A
:10145000182829D0FFF75AFFB0EB080041F2893174
:101460008842F2D3032073E0606801280ED1386807
:1014700010F03800082817D0FFF748FFB0EB08003D
:1014800041F289318842F2D3032061E0386810F0DC
:10149000380F09D0FFF73AFFB0EB080041F289316D
:1014A0008842F3D3032053E0306810F007008542F0
:1014B0000BD23068C008C00028433060306810F09C
:1014C0000700A84201D0012042E02078400707D55C
:1014D000DFF8DC120A6832F07002206902430A6009
:1014E0002078000707D5DFF8CC120A6832F07002C6
:1014F000606902430A602078C00607D5DFF8B4129D
:101500000A6832F4E062A06902430A60207880062B
:1015100007D5DFF8A4120A6832F07002E0690243CE
:101520000A6000F017F8DFF888120968DFF8A022D7
:1015300011F470615FF40003B3FA83F3D940515C96
:10154000C840DFF8901208600F20FFF7DDFE002092
:10155000BDE8F081012000200120002000209FED47
:10156000900A9FED8F0A0020DFF84002006810F01B
:101570003800002806D0082813D0102814D01828C6
:1015800015D0D8E0DFF820120868800606D5DFF80D
:1015900048020968C1F3C101C84001E0DFF8380220
:1015A000CAE0DFF83802C7E0DFF83402C4E0DFF851
:1015B0000C02026812F003020068C0F30511DFF8A4
:1015C0000002036813F00103DFF8FC010068C0F3B8
:1015D000CC00434300EE103AB8EE400A002A03D094
:1015E000022A61D044D37BE0DFF8BC21106880067A
:1015F00021D5DFF8E4011268C2F3C102D040B0FB8C
:10160000F1F000EE900AF8EE600ADFF8B801006829
:10161000C005C00D01EE100AB8EE411ADFED611AE7
:1016200080EE210A31EE000AB7EE001A30EE010A10
:1016300060EE800A1BE0DFF8A001B0FBF1F000EEE5
:10164000900AF8EE600A5F480068C005C00D01EE20
:10165000100AB8EE411ADFED531A80EE210A31EE7E
:10166000000AB7EE001A30EE010A60EE800A52E07E
:101670005A48B0FBF1F000EE900AF8EE600A5148CB
:101680000068C005C00D01EE100AB8EE411ADFED8A
:10169000451A80EE210A31EE000AB7EE001A30EE4C
:1016A000010A60EE800A36E04D48B0FBF1F000EE32
:1016B000900AF8EE600A43480068C005C00D01EECC
:1016C000100AB8EE411ADFED371A80EE210A31EE2A
:1016D000000AB7EE001A30EE010A60EE800A1AE046
:1016E0003E48B0FBF1F000EE900AF8EE600A354893
:1016F0000068C005C00D01EE100AB8EE411ADFED1A
:10170000291A80EE210A31EE000AB7EE001A30EEF7
:10171000010A60EE800A2B480068C0F34620401C96
:1017200000EE100AB8EE400A80EE800ABCEEC00A55
:1017300010EE100A00E02948704710B5FFF7BEFC14
:101740001B490968274A224B11F00F015FF0004442
:10175000B4FA84F4E140595CC8401060106810BDD0
:1017600080B5FFF7EAFF13490968194A11F07001C3
:101770005FF00063B3FA83F3D940515CC84002BD07
:1017800080B5FFF7DAFF0B490968114A11F4E061EF
:101790005FF40003B3FA83F3D940515CC84002BD43
:1017A00000000000000000460044025810440258A7
:1017B000184402581C440258204402582844025835
:1017C0002C4402583044025834440258002000523D
:1017D000C47D0008040000200090D00300093D00F3
:1017E00040787D010800002070B5040000202078BA
:1017F000C00773D5DFF82C05016811F038011029F6
:101800000BD0006810F03800182810D1DFF8180548
:10181000006810F00300022809D1DFF81005006805
:1018200080035BD56068002858D1012079E26068A8
:10183000B0F5803F06D1DFF8F404016851F480313F
:10184000016026E0606800280AD1DFF8E004016842
:1018500031F480310160016831F48021016018E0C9
:101860006068B0F5A02F0AD1DFF8C004016851F418
:1018700080210160016851F48031016009E0DFF8E6
:10188000AC04016831F480310160016831F48021D9
:1018900001606068002810D0FFF738FD0500DFF810
:1018A0008C040068800319D4FFF730FD401B41F21F
:1018B00089318842F3D3032033E2FFF727FD050087
:1018C000DFF868040068800308D5FFF71FFD401BA0
:1018D00041F289318842F3D3032022E22078800745
:1018E0003BD5DFF84004016811F0380F0AD00068DA
:1018F00010F03800182850D1DFF82C04006810F0E0
:10190000030F4AD1DFF824542868400704D5E06863
:10191000002801D1012004E2296831F01901E068B2
:1019200001432960FFF7F2FC06002868400706D44F
:10193000FFF7ECFC801B0328F7D30320F1E1DFF86D
:10194000F00301685FF47C22B2FA82F231F47C3158
:10195000236913FA02F2114301602078C00663D5AF
:10196000DFF8C003016811F0380108290BD00068C6
:1019700010F0380018286FD1DFF8AC03006810F0C1
:101980000300012868D1DFF8A4030068C0053ED534
:10199000E06980283BD00120C3E1E068002823D023
:1019A000DFF88863316831F01901E0680143316084
:1019B000FFF7ACFC05003068400706D4FFF7A6FC33
:1019C000401B0328F7D30320ABE1DFF86403016871
:1019D0005FF47C22B2FA82F231F47C31236913FA8B
:1019E00002F211430160B8E7DFF840633068400855
:1019F00040003060FFF78AFC050030684007ACD536
:101A0000FFF784FC401B0328F7D3032089E1DFF8AC
:101A1000200301683E22B2FA82F231F0F841236AD3
:101A200013FA02F211430160207800075AD5606969
:101A3000002845D0BF4E306850F001003060FFF7FD
:101A400065FC0500306880074CD4FFF75FFC401B45
:101A50000328F7D3032064E1E06900281ED0B34EC9
:101A6000306850F080003060FFF750FC05003068AF
:101A7000C00506D4FFF74AFC401B0328F7D3032018
:101A80004FE1AB4801683E22B2FA82F231F0F841F0
:101A9000236A13FA02F211430160C5E7A34E3068CE
:101AA00030F080003060FFF731FC05003068C00581
:101AB000BAD5FFF72BFC401B0328F7D3032030E1F6
:101AC0009C4E3068400840003060FFF71FFC050066
:101AD0003068800706D5FFF719FC401B0328F7D3B1
:101AE00003201EE12078800626D5A069002811D0A9
:101AF0008E4E306850F480503060FFF707FC0500D0
:101B00003068800418D4FFF701FC401B0328F7D38A
:101B1000032006E1854E306830F480503060FFF7D6
:101B2000F5FB05003068800406D5FFF7EFFB401B8E
:101B30000328F7D30320F4E02078400760D57E4ED9
:101B4000306850F480703060FFF7E0FB05003068CB
:101B5000C00506D4FFF7DAFB401B6528F7D3032046
:101B6000DFE0A068012805D17448016851F0010147
:101B7000016022E0A068002809D170480168490886
:101B800049000160016831F00401016015E0A068BE
:101B9000052809D16948016851F004010160016814
:101BA00051F00101016008E06448016849084900FA
:101BB0000160016831F004010160A06800280FD0C5
:101BC000FFF7A4FB05005D480068800718D4FFF705
:101BD0009DFB401B41F289318842F4D30320A0E0F1
:101BE000FFF794FB050055480068800708D5FFF70C
:101BF0008DFB401B41F289318842F4D3032090E0F1
:101C0000606A002800F08C804648006810F03800B8
:101C1000182800F08380606A02286DD1434D28683F
:101C200030F080702860FFF771FB060028688001A3
:101C300006D5FFF76BFB801B0328F7D3032070E06A
:101C400039490A683E480240A06A0243E06A52EA03
:101C500000120A60206B401EC005C00D616B491E5A
:101C6000490211F47E410843A16B491E090411F495
:101C7000FE010843E16B491E090611F0FE410843CD
:101C80003049086030480168304AB2FA82F26FF396
:101C9000CF01A36C13FA02F2114301602C490A68C8
:101CA00032F00C02206C02430A600A6832F0020231
:101CB000606C02430A60086850F48030086008686D
:101CC00050F400300860086850F48020086008680C
:101CD00050F001000860286850F080702860FFF71D
:101CE00015FB0400286880011AD4FFF70FFB001BC6
:101CF0000328F7D3032014E00C4D286830F08070DF
:101D00002860FFF703FB04002868800108D5FFF76F
:101D1000FDFA001B0328F7D3032002E0012000E0B6
:101D2000002070BD10440258284402580044025854
:101D3000044402587444025800480258704402583F
:101D40000CFCFFFF30440258344402580000FF1FCF
:101D50002C4402582DE9F84384B006000F00914648
:101D60009846484680B2800000F00CFF0500002D28
:101D70000BD05C2000F006FF0400002C01D025638E
:101D800004E0280000F08EFF00E00024002C13D0B7
:101D90000D990C9800220392029401910090434601
:101DA0001FFA89F94A463900300000F00AF820008D
:101DB00000F06CF8012001E05FF0FF3005B0BDE8F5
:101DC000F0832DE9F84305000C00170098460A9EA1
:101DD000B900A522D6F83090484601F00DF8306BD6
:101DE00000EB8700071FFF08FF0017F0070000281F
:101DF00009D072B6102080F31188BFF34F8FBFF364
:101E00006F8F62B6FEE7002C10D0002100E0491C65
:101E10000A2907D2605C06EB010282F83400605C9C
:101E20000028F4D1002086F83D0002E0002086F86A
:101E30003400DDF82090B9F1050F01D35FF00409FB
:101E4000099CC6F82C90C6F848900020F064301D1C
:101E500001F014F816F1180001F010F83661D9F10C
:101E60000509C6F81890766200203065002070657C
:101E7000002086F8580042462900380001F058F842
:101E80003060002C00D02660BDE8F18338B5040036
:101E900001F0CBF8DFF8FC150868401C0860DFF89B
:101EA000F8552868002806D12C60086801280DD153
:101EB00000F0CFFB0AE0DFF8E4050068002805D158
:101EC000E06A2968C96A884200D32C60DFF8D0052F
:101ED0000168491C016000682064DFF8C8150A68C1
:101EE0000123E06A83401A430A60211DDFF8B82508
:101EF000E36A1420434302EB030000F0C2FF01F049
:101F0000B2F8DFF89805006800280DD02868C06A8C
:101F1000E16A884208D25FF08050DFF870160860EE
:101F2000BFF34F8FBFF36F8F31BD70B504000E004C
:101F30000025002C09D172B6102080F31188BFF360
:101F40004F8FBFF36F8F62B6FEE7002E09D172B6D6
:101F5000102080F31188BFF34F8FBFF36F8F62B6ED
:101F6000FEE7DFF80C060068002809D072B61020E2
:101F700080F31188BFF34F8FBFF36F8F62B6FEE718
:101F800000F0D3F8DFF8EC050068216876182168C6
:101F9000884206D221688E4209D2B04207D201257A
:101FA00005E021688E4201D3B04200D201252660AF
:101FB000002D04D00021361A300000F087FD00F01B
:101FC000BAF8002808D15FF08050DFF8C01508602B
:101FD000BFF34F8FBFF36F8F70BD10B504000020AB
:101FE000002C16D0DFF888050068002809D072B6EA
:101FF000102080F31188BFF34F8FBFF36F8F62B64D
:10200000FEE700F092F80021200000F05FFD00F0F4
:1020100092F8002808D15FF08050DFF87015086052
:10202000BFF34F8FBFF36F8F10BDF8B50400002CC6
:1020300009D172B6102080F31188BFF34F8FBFF320
:102040006F8F62B6FEE7DFF850040068844201D16A
:1020500000202AE000F0E9FF6569DFF8C80506689E
:10206000DFF8C405076800F0FEFFB54201D0BD42AD
:1020700001D1022019E0DFF8B40585420CD1A06A35
:10208000002807D194F85800012801D102200CE063
:1020900003200AE0022008E0DFF84C04854201D06A
:1020A000002D01D1042000E00120C0B2F2BDE0B556
:1020B000DFF8480801900020009000238222DFF81A
:1020C00040180FF26D50FFF745FE012801D101F0D5
:1020D00049F801281CD172B6102080F31188BFF393
:1020E0004F8FBFF36F8F62B65FF0FF30DFF81418C9
:1020F00008600120DFF8A41308600020DFF87414E2
:1021000008600020DFF8EC18086000F03EFF07BD13
:1021100010F1010FFBD172B6102080F31188BFF3CC
:102120004F8FBFF36F8F62B6FEE7DFF8440401689C
:10213000491C0160704770B500240025DFF8306449
:102140003068002809D172B6102080F31188BFF3DF
:102150004F8FBFF36F8F62B6FEE700F066FF306807
:10216000401E30603068002853D1DFF82803006833
:10217000002824D14DE0C868C46814F1180000F0AC
:10218000A7FE201D00F0A4FEC6490A680123E06AEC
:1021900083401A430A60211DDFF80C23E36A1420F0
:1021A000434302EB030000F06CFEE06ABA490968A1
:1021B000C96A884203D30120DFF8E8180860DFF815
:1021C000481708680028D6D1002C01D000F016FB73
:1021D000DFF824683468002C0CD000F079F800286F
:1021E00003D00120DFF8BC180860641E002CF4D175
:1021F00000203060DFF8AC080068002809D0012515
:102200005FF08050DFF884130860BFF34F8FBFF397
:102210006F8F00F028FF280070BDDFF858030068BA
:10222000704780B500F04EFF0020DFF848030068DB
:1022300002BD2DE9F041070088461500002605245F
:10224000FFF773FF9348006880453CD3641E5FF03E
:10225000240801229448142101FB04F1014408FBE5
:1022600006F0384400F07EFA8619002CEED10222E6
:10227000DFF8B003016808FB06F0384400F072FA9A
:1022800086190222DFF8A003016808FB06F0384433
:1022900000F068FA86190422934908FB06F03844D6
:1022A00000F060FA86190322DFF8801308FB06F8B5
:1022B00007EB080000F056FA8619002D03D0DFF86E
:1022C000E80700682860FFF736FF3000BDE8F081BE
:1022D000F8B50025A6480068002866D1DFF894020A
:1022E0000468641C0460002C1CD1DFF838130868F3
:1022F0000068002809D072B6102080F31188BFF35F
:102300004F8FBFF36F8F62B6FEE70868DFF81823C0
:1023100013680B601060DFF894070168491C0160C6
:1023200000F06CFADFF8DC65306884422ED320E0E0
:10233000381D00F0CDFDB86A002803D017F1180051
:1023400000F0C6FD57490A680123F86A83401A4322
:102350000A60391D544AFB6A1420434302EB030010
:1023600000F08FFDF86A4C490968C96A884200D3B9
:102370000125DFF8B01208680068002811D008684D
:10238000C068C76878688442D2D23060424800682A
:102390004549C26A14204243885802280AD30125BD
:1023A00008E05FF0FF303060F0E7DFF84C060168CE
:1023B000491C0160DFF8EC060068002800D0012508
:1023C0002800F2BD10B46A480068002804D001203B
:1023D000DFF8D016086042E00020DFF8C816086079
:1023E000DFF8CC16DFF80C0600680860DFF8C426BA
:1023F00010680B68984207D2274803681C6D08686C
:1024000004191068241A1C650868106025480068C3
:10241000B0FA80F1D1F11F011422234B02FB01F02D
:102420001858002809D172B6102080F31188BFF324
:102430004F8FBFF36F8F62B6FEE7514303EB01008E
:10244000416849684160416810F10802914202D137
:102450004168496841604068C0680F49086010BC25
:10246000704710B50C00002809D172B6102080F317
:102470001188BFF34F8FBFF36F8F62B6FEE7DFF8AF
:102480003C160968183100F008FD0121200000F019
:102490001DFB10BDA48B0020948B0020B08B00206E
:1024A000C08B0020AC8B00202C89002038B50D009B
:1024B0001400002809D172B6102080F31188BFF3F0
:1024C0004F8FBFF36F8F62B6FEE7DFF8F015096834
:1024D000183100F0D6FC002C01D05FF0FF35210050
:1024E000280000F0F3FA31BDE48A002010B5C0687E
:1024F000C468002C09D172B6102080F31188BFF394
:102500004F8FBFF36F8F62B6FEE714F1180000F033
:10251000DFFC17480068002815D1201D00F0D8FC0A
:10252000DFF89C150A680123E06A83401A430A60B9
:10253000211DDFF89025E36A1420434302EB0300DA
:1025400000F09FFC05E014F11801DFF8BC0300F077
:1025500098FCDFF868050068C06AE16A884205D225
:1025600001200121DFF85025116000E0002010BD9E
:10257000CC8B0020A88B0020DFF8301509680160A3
:10258000DFF8B815096841607047000004ED00E00D
:1025900038B504000D00002C09D172B6102080F36C
:1025A0001188BFF34F8FBFF36F8F62B6FEE7002D28
:1025B00009D172B6102080F31188BFF34F8FBFF39B
:1025C0006F8F62B6FEE700F030FDDFF8FC040068B4
:1025D0006168411A2A6812F1010F01D1002418E044
:1025E000DFF8C824126823689A4204D062689042D7
:1025F00001D301240DE02868814207D22868411ADE
:1026000029602000FFF7B8FF002402E000202860C6
:10261000012400F028FD200032BD0120DFF89814CD
:1026200008607047988B00209C8B0020F88A00205F
:1026300080B500F039F8DFF88C0400680228F8D380
:102640005FF080507E490860BFF34F8FBFF36F8FFC
:10265000EFE738B5002408E0DFF86804142101FB37
:1026600004F1084400F0FBFB641C052CF4D3DFF8F4
:10267000D044200000F0F3FBDFF8C854280000F03D
:10268000EEFBDFF8840200F0EAFBDFF8BC0400F0A8
:10269000E6FBDFF8B80400F0E2FBDFF8B404046006
:1026A000DFF8B004056031BD38B515E000F0BDFCC1
:1026B000DFF89404C068C468201D00F009FCDFF84E
:1026C00098040168491E01602868401E286000F0D7
:1026D000CAFC200000F089F8DFF880542868002840
:1026E000E4D131BD70B505000E001400002D03D1FA
:1026F000DFF86C040568FFE7356015F134007060A1
:10270000E86A3061286BF061286CB060A86C706179
:10271000286DB0611800C0B2052815D0DFF840045C
:102720000068854202D10020307311E03373DBB2C0
:10273000032B0DD1FFF7F9FCA86A002801D0022075
:102740003073FFF7F8FC03E02800FFF76EFC3073EE
:10275000002C04D0286B00F03DF8308401E000200C
:10276000308470BD2DE9F84306000C0017000025E9
:10277000206800282BD020004168496841604168EA
:1027800010F10802914202D14168496841604068F5
:10279000D0F80C802000416849684160416810F120
:1027A0000802914202D14168496841604068D0F80E
:1027B0000C903B00DBB20122242000FB05F006EB6D
:1027C00000014846FFF78EFF6D1CC145E2D128008D
:1027D000BDE8F2830100002001E0491C401C0A789A
:1027E000A52AFAD0800880B2704710B50400206B8B
:1027F00000F058FA200000F055FA10BDDFF8501331
:1028000008680068002804D15FF0FF303D49086087
:1028100005E00868C068C06840683A4908607047C9
:10282000DFF840030068002801D1012007E0DFF84D
:1028300038030068002801D1022000E00020704722
:1028400004ED00E010B504000021002853D0DFF8AB
:102850006C020068844209D072B6102080F311889F
:10286000BFF34F8FBFF36F8F62B6FEE7E06C0028B7
:1028700009D172B6102080F31188BFF34F8FBFF3D8
:102880006F8F62B6FEE7E06C401EE064E06AA26C07
:10289000904230D0E06C00282DD1201D00F018FBB4
:1028A00000280FD1DFF8C812E26A1420424388588A
:1028B000002807D1DFF808120A680123E06A834084
:1028C0009A430A60A06CE062E06AD0F10500A06162
:1028D000DFF8EC110A680123E06A83401A430A60BA
:1028E000211DDFF88C22E36A1420434302EB03002E
:1028F00000F0C7FA0121080010BD0000C88B0020BD
:10290000507E0008C48B0020D08A002010B504003F
:10291000200000F05DFE200000F080FE02E020219B
:102920002154401C0928FAD300212154204410BD11
:102930002DE9FE43060000203070DFF81C02076816
:1029400024250068684300F01DF90400002C4FD0D6
:10295000002239002000FFF76CFC07005FF0000840
:1029600028E05FF0000901E05FF0440905FB08F092
:10297000204441683000FFF7C9FF060005FB08F05E
:1029800020448068019005FB08F02044008C0090F2
:1029900005FB08F0204403695FFA89F94A46DFF82D
:1029A000D411300000F05AFE300000F037FE06442B
:1029B00018F10108B84518D205FB08F02044007B47
:1029C000002806D002280AD006D30428CCD009D388
:1029D000C7E75FF05809C9E75FF05209C6E75FF043
:1029E0004209C3E75FF05309C0E7200000F05AF93D
:1029F000BDE8F783908B0020B48B00202DE9F843CD
:102A00008046002088F80000DFF84C010468242686
:102A10000068704300F0B6F80500002D40D06A460B
:102A200021002800FFF705FC070000986421B0FB97
:102A3000F1F00090009800282FD05FF000092AE004
:102A400006FB09F028448269DFF82C11404600F0AB
:102A500005FE1AE006FB09F0284480690099B0FBE6
:102A6000F1F406FB09F0284441684046FFF74EFFA9
:102A70008046002CE4D0230006FB09F0284482693C
:102A8000DFF8F810404600F0E9FD404600F0C6FDD2
:102A9000804419F10109B945DCD3280000F002F99E
:102AA000BDE8F183B88B0020908B0020BC8B002008
:102AB000D48B0020D08B0020B88B0020948B00207A
:102AC000AC8B00202C890020A88B0020F8B50500D5
:102AD0000C001A480668224F3868001D00F0F8F90B
:102AE000002807D1386821490A680123C06A834059
:102AF0009A430A6015F1010F07D1002C05D0386800
:102B0000011D124800F0BDF916E0AD1938684560A6
:102B1000B54206D23868011D0E48006800F0BDF9C4
:102B20000AE03868011D0A48006800F0B6F9144848
:102B300001688D4200D20560F1BD0000A88B002025
:102B4000A88A0020BC8A0020E48A0020F88A00209D
:102B5000988B00209C8B0020A48B0020A08B002051
:102B6000948B0020B08B0020CC8B0020AC8B0020FD
:102B70002C890020D47D0008307E0008247E0008C7
:102B8000C48B00202DE9F84304000025FFF7CDFA9F
:102B9000DFF84892D9F80000002801D100F0BFF812
:102BA0008F4F386804426AD1002C17D08D480068D6
:102BB000041914F0070F11D014F1080014F00704E1
:102BC000041B14F0070F09D072B6102080F311888F
:102BD000BFF34F8FBFF36F8F62B6FEE7002C4ED06E
:102BE000DFF80482D8F80000A04248D37F480100F3
:102BF000066801E0310036687068A04202D2306891
:102C00000028F7D1D9F80000864238D075480A6804
:102C1000036802EB030532680A60006840007168CF
:102C2000091B884216D206EB040111F007000028A8
:102C300009D072B6102080F31188BFF34F8FBFF315
:102C40006F8F62B6FEE77068001B48607460080012
:102C500000F094F8D8F800107068091AC8F800104D
:102C60006348D8F800100268914202D2D8F80010E8
:102C70000160716838680143716000203060FFF7BF
:102C80005AFA15F00700002809D072B6102080F318
:102C90001188BFF34F8FBFF36F8F62B6FEE7280036
:102CA000BDE8F28310B50100002837D04D48006818
:102CB000404201EB00044A4960680A68104209D1A9
:102CC00072B6102080F31188BFF34F8FBFF36F8F60
:102CD00062B6FEE72068002809D072B6102080F3A3
:102CE0001188BFF34F8FBFF36F8F62B6FEE7606846
:102CF0000A68104212D0206800280FD16268086864
:102D000082436260FFF711FA37490A6860688218E7
:102D10000A60200000F032F8FFF70DFA10BD10B481
:102D20004FF4F0423348010011F0070F04D0C91DE1
:102D3000C908C900521A82182C4801600023436058
:102D4000521828480068121AD208D200234802609C
:102D5000002304686360002304682360521A4A60F9
:102D6000006808604868224A106048681E49086088
:102D70005FF000401A49086010BC704710B41B4A4D
:102D800000E0126811688142FBD3110053681944B6
:102D9000814204D15168406841185160100001001F
:102DA000436819441368994210D10C4913680C68A0
:102DB000A34208D0436811684968CB184360116882
:102DC0000968016004E00968016001E011680160C0
:102DD000824200D0106010BC70470000688B002059
:102DE000748B0020687E00086C8B0020448B0020D0
:102DF000708B00208C00002062F30F2262F31F42D0
:102E0000401810F0030308D0C91A1FD3DB0748BFCE
:102E100000F8012D28BF20F8022D130030B414460D
:102E20001546103928BF20E93C00FAD8490728BFC9
:102E300020E90C0048BF40F8042D890028BF20F885
:102E4000022D48BF00F8012D30BC7047C91818BFCB
:102E500000F8012DCB0728BF00F8012D704710F1B5
:102E6000080141605FF0FF31816010F10801C1602D
:102E700010F108010161002101607047002101612A
:102E8000704742684A6093688B60936859609160AC
:102E900008610168491C0160704710B40B6813F1A8
:102EA000010F01D1026907E010F1080200E0526849
:102EB00054682468A342FAD253684B604B68996007
:102EC0008A60516008610168491C016010BC70474C
:102ED0000169826843689A60426883685A604A68F8
:102EE000824201D182684A60002202610868401E65
:102EF00008600868704730B4002513E050F8042BD0
:102F0000D30744BFA9F101039A18091F042942F805
:102F1000045BFAD213468C0744BF15809B1CC9077B
:102F200048BF1D7050F8041B0029E7D130BC704722
:102F3000001F5FF080730360001F490849000160B3
:102F4000001F0FF21501016014380260001F7FF0AE
:102F500002010160203870476F48006810F1010FCE
:102F600009D072B6102080F31188BFF34F8FBFF3E2
:102F70006F8F62B6FEE772B6102080F31188BFF340
:102F80004F8FBFF36F8F62B6FEE7E0B563480178FD
:102F90000191FF21017001788DF800109DF800105B
:102FA00011F010015E4A11705E4907220A6007E0C5
:102FB0000A68521E0A609DF8002052008DF8002019
:102FC0009DF800201206F3D40A68D2F10702042A01
:102FD00009D072B6102080F31188BFF34F8FBFF372
:102FE0006F8F62B6FEE70A6812020A600A6812F47E
:102FF000E0620A60019901704B48016851F4700168
:103000000160016851F07041016000F097F8002004
:103010004149086000F08EFB4448016851F040418E
:10302000016000F077FB00200EBD72B6102080F327
:103030001188BFF34F8FBFF36F8F62B636490A68AE
:10304000521C0A60096801290CD13949096809062E
:1030500008D072B680F31188BFF34F8FBFF36F8F24
:1030600062B6FEE770472C490868002809D172B69D
:10307000102080F31188BFF34F8FBFF36F8F62B6BC
:10308000FEE70868401E08600868002802D100209A
:1030900080F31188704780B572B6102080F31188D4
:1030A000BFF34F8FBFF36F8F62B6FFF711F90028A0
:1030B00003D05FF080501E490860002080F3118823
:1030C00001BD0000EFF30580102811D319490968EC
:1030D000085C13490978C0B2884209D272B6102040
:1030E00080F31188BFF34F8FBFF36F8F62B6FEE797
:1030F0000C4800681049096811F4E061884209D25F
:1031000072B6102080F31188BFF34F8FBFF36F8F1B
:1031100062B6FEE7704700000000002000E400E017
:10312000F28B0020888B002020ED00E034EF00E0DF
:1031300004ED00E06C7E00080CED00E00548002185
:1031400001600021044A11600449054A1160072109
:103150000160704710E000E018E000E07F1A060010
:1031600014E000E01CB5002400F0FAF9DFF83804A0
:10317000006800280ED0DFF834040190042000908D
:1031800000234FF48272DFF828140FF2FD00FEF7DF
:10319000E1FD0400002C09D172B6102080F31188E3
:1031A000BFF34F8FBFF36F8F62B6FEE7200016BDEF
:1031B0007FB504001D000020002C09D172B610203C
:1031C00080F31188BFF34F8FBFF36F8F62B6FEE7B6
:1031D000DFF8D4633368002B1CD000910192029475
:1031E000062911DAFFF71CFB022806D1089A0023F2
:1031F0006946306800F032FB0CE00023002269468B
:10320000306800F02BFB05E000232A006946306897
:1032100000F00FFC04B070BD7CB504000D00DFF8B9
:1032200094030068C068C668301DFFF751FE96F829
:10323000280040071DD523002A00B1690919300074
:1032400000F08EF800281AD0002000900023220001
:1032500000213000FFF7ACFF002809D172B6102022
:1032600080F31188BFF34F8FBFF36F8F62B6FEE715
:1032700005E096F8280010F0FE0086F828003000DF
:10328000316A884773BD000080B5684600F041F898
:10329000009900F003F800F083F8F6E77CB505002C
:1032A0000C00FEF742FF684600F046F80600009862
:1032B00000282BD1002C08D1AE4206D3FEF73BFFED
:1032C00031002800FFF7A8FF22E0002C08D0DFF82B
:1032D000E80200680068002801D1012400E0002411
:1032E0002200AD1B2900DFF8C002006800F0A8FD35
:1032F000FEF721FF00280BD15FF08050DFF8BC12F1
:103300000860BFF34F8FBFF36F8F01E0FEF713FF2D
:1033100073BDDFF8A02211680968002901D10121DD
:1033200000E0002101600068002803D11068C06837
:10333000006800E00020704770B50400FEF76DFFE4
:103340000500DFF87C623068854204D200F0CCF8DA
:103350000120206001E0002020603560280070BD61
:1033600010B50024416000618A420CD3D21A8169F1
:103370008A4201D3012411E0011DDFF83C020068FC
:10338000FFF78BFD0AE09A4203D2994201D3012450
:1033900004E0011D87480068FFF77FFD200010BD95
:1033A00010B586B0FFE7002201A97F48006800F051
:1033B000C5FB002800F096800198002810D502AACD
:1033C000002A09D172B6102080F31188BFF34F8F05
:1033D000BFF36F8F62B6FEE791685068126890473E
:1033E00001980028DFD4039C6069002802D0201DCA
:1033F000FFF76EFD05A8FFF79FFF02000198002868
:103400000ED002280CD00BD304283CD034D306288D
:1034100006D057D308282FD002D3092833D060E034
:1034200094F8280050F0010084F82800029B0299CB
:10343000A06941182000FFF793FF0028B3D02000B7
:10344000216A884794F828004007ACD500200090F6
:103450000023029AA069821800212000FFF7A8FE2D
:103460000028A0D172B6102080F31188BFF34F8FCF
:10347000BFF36F8F62B6FEE794F8280010F0FE00ED
:1034800084F828008FE794F8280050F0010084F8B1
:1034900028000298A061A069002809D0130010003C
:1034A000A1698A18110002002000FFF759FF7AE78E
:1034B00072B6102080F31188BFF34F8FBFF36F8F68
:1034C00062B6FEE794F82800800703D42000FFF7D7
:1034D000E9FB05E094F8280010F0FE0084F82800CD
:1034E00061E760E706B010BD7CB505E0706036614D
:1034F000311D2068FFF7D1FC2E4C206800680028A1
:1035000028D02068C06805682068C068C668301D7B
:10351000FFF7DEFC3000316A884796F82800400744
:10352000EAD5B06940198542E0D30020009000231D
:103530002A0000213000FFF73BFE002800D0DBE727
:1035400072B6102080F31188BFF34F8FBFF36F8FD7
:1035500062B6FEE7206818490A682260086073BDF9
:1035600070B5FFF762FD104C2068002818D1154D8A
:103570002800FFF774FC144E3000FFF770FC0D4874
:1035800005600D48066000221021052000F02BF98F
:1035900020602068002803D00C49206800F03CFC23
:1035A000FFF761FD70BD0000E08B0020E48B002080
:1035B000587E0008D88B0020DC8B002004ED00E052
:1035C000E88B00200C8B0020208B0020607E000800
:1035D0005FEA000C80EA01039B0715D1830706D040
:1035E00011F8013B00F8013BB3B18307F8D10A6839
:1035F000B2F1013323EA020313F0803F02BF40F827
:10360000042B51F8042FF3E711F8013B00F8013BBC
:1036100013B111F8013BF9E76046704700F101036F
:10362000810704D010F8011B820781B1FAD102682A
:10363000A2F10131914311F0803104BF50F8042F01
:10364000F6E709BAB1FA81F100EBD100401CC01ACB
:1036500070477047FEE7FEE7FEE770470CB430B5F1
:1036600083B00A4606A902910446002501940095FC
:1036700002AB01A9084878441E3000F047FC019ACB
:10368000157000284EBF04460198041B204603B065
:1036900030BC5DF80CFB00BF9B160000EFF3098007
:1036A000BFF36F8F274B1A681EF0100F08BF20ED75
:1036B000108A20E9F04F106009B44FF0100072B684
:1036C00080F31188BFF34F8FBFF36F8F62B6FEF7A1
:1036D00079FE4FF0000080F3118809BC1968086872
:1036E000B0E8F04F1EF0100F08BFB0EC108A80F366
:1036F0000988BFF36F8F7047124B19680868B0E8EC
:10370000F04F80F30988BFF36F8F4FF0000080F314
:10371000118870470C480068006880F308884FF0F3
:10372000000080F3148862B661B6BFF34F8FBFF319
:103730006F8F00DFDFF81400016841F47001016051
:1037400070470000948B002008ED00E088ED00E059
:1037500038B504000D00002C09D172B6102080F39A
:103760001188BFF34F8FBFF36F8F62B6FEE7FFF78D
:103770005CFC2168E26B206C424301EB0200A0601C
:103780000020A063206860602168E26B521E206CFC
:10379000424301EB0200E0605FF0FF3084F8440038
:1037A00084F84500002D12D12069002817D014F1AB
:1037B0001000FEF79BFE002811D05FF08050DFF86C
:1037C000E4140860BFF34F8FBFF36F8F07E014F16D
:1037D0001000FFF744FB14F12400FFF740FBFFF754
:1037E00042FC012032BDF8B506000D001700002E86
:1037F00009D172B6102080F31188BFF34F8FBFF349
:103800006F8F62B6FEE7002D01D1002001E005FBBD
:1038100006F05430FFF7B6F90400002C09D0200060
:1038200010F1540200943B00DBB22900300000F09C
:1038300002F82000F2BD38B51C00049D002901D11A
:103840002D6000E02A60E863296401212800FFF769
:103850007FFF85F850400020A86431BDF7B5050012
:103860000E001F000024002D09D172B6102080F335
:103870001188BFF34F8FBFF36F8F62B6FEE7002E44
:1038800002D1286C002801D1012000E00020C0B244
:10389000002809D172B6102080F31188BFF34F8F32
:1038A000BFF36F8F62B6FEE7022F02D1E86B0128EB
:1038B00001D1012000E00020C0B2002809D172B679
:1038C000102080F31188BFF34F8FBFF36F8F62B664
:1038D000FEE7FEF7A5FF002802D10298002801D1DB
:1038E000012000E00020C0B200283AD172B61020BA
:1038F00080F31188BFF34F8FBFF36F8F62B6FEE77F
:103900000298002874D0002C03D16846FEF734FEDC
:103910000124FFF7A8FBFEF708FCFFF786FB95F9EB
:10392000440010F1010F02D1002085F8440095F900
:10393000450010F1010F02D1002085F84500FFF786
:1039400092FB02A96846FEF723FE00286AD12800F0
:1039500000F053FA00284FD1280000F0FDF9FEF7DF
:10396000EAFBFFF762FBA86BE96B884201D3022FE9
:10397000C6D1AC6B3A003100280000F095F9A96C73
:10398000002913D0022F01D1002C2DD1390028009D
:1039900000F07BFA002827D05FF08050DFF8041396
:1039A0000860BFF34F8FBFF36F8F1DE0696A002976
:1039B0000FD015F12400FEF799FD002814D05FF018
:1039C0008050DFF8E0120860BFF34F8FBFF36F8FB6
:1039D0000AE0002808D05FF08050DFF8C8120860C5
:1039E000BFF34F8FBFF36F8FFFF73DFB01201FE049
:1039F000FFF739FB00201BE0029915F11000FEF7DC
:103A000030FD280000F0A8F9FEF795FB0028A8D1AA
:103A10005FF08050DFF88C120860BFF34F8FBFF368
:103A20006F8F9EE7280000F097F9FEF784FB0020D7
:103A3000FEBD2DE9F84305000E0014009846002D48
:103A400009D172B6102080F31188BFF34F8FBFF3F6
:103A50006F8F62B6FEE7002E02D1286C002801D1DC
:103A6000012000E00020C0B2002809D172B6102069
:103A700080F31188BFF34F8FBFF36F8F62B6FEE7FD
:103A8000B8F1020F02D1E86B012801D1012000E05A
:103A90000020C0B2002809D172B6102080F311882E
:103AA000BFF34F8FBFF36F8F62B6FEE7FFF70AFBDE
:103AB000EFF3118772B6102080F31188BFF34F8F98
:103AC000BFF36F8F62B6A86BE96B884202D3B8F17F
:103AD000020F2ED195F9459042463100280000F0A2
:103AE000E3F848465FF0FF3140B288421BD1A86C32
:103AF00000280AD04146280000F0C7F9002816D057
:103B0000002C14D00120206011E0686A00280ED03B
:103B100015F12400FEF7EAFC002808D0002C06D09E
:103B20000120206003E019F1010985F8459001208A
:103B300000E0002087F31188BDE8F283F7B50600A6
:103B40000F000024002E09D172B6102080F31188D6
:103B5000BFF34F8FBFF36F8F62B6FEE7002F02D126
:103B6000306C002801D1012000E00020C0B2002804
:103B700009D172B6102080F31188BFF34F8FBFF3C5
:103B80006F8F62B6FEE7FEF74BFE002802D1029867
:103B9000002801D1012000E00020C0B200280ED191
:103BA00072B6102080F31188BFF34F8FBFF36F8F71
:103BB00062B6FEE7300000F0CFF8FEF7BCFAFFF780
:103BC00034FAB56B002D06D1029800281FD1FFF7FB
:103BD0004AFA002065E03900300000F0A8F86D1EB8
:103BE000B563306900280ED016F11000FEF77EFC98
:103BF000002808D05FF08050DFF8A8100860BFF3FD
:103C00004F8FBFF36F8FFFF72EFA012049E0002C92
:103C100003D16846FEF7B0FC0124FFF724FAFEF753
:103C200084FAFFF702FA96F9440010F1010F02D16D
:103C3000002086F8440096F9450010F1010F02D1EA
:103C4000002086F84500FFF70EFA02A96846FEF745
:103C50009FFC00281AD1300000F0C1F80028A9D03C
:103C6000029916F12400FEF7FCFB300000F074F816
:103C7000FEF761FA0028A2D15FF08050DFF824102F
:103C80000860BFF34F8FBFF36F8F98E7300000F0ED
:103C900063F8FEF750FA300000F0A1F800288ED04B
:103CA0000020FEBD04ED00E02DE9F0410600150006
:103CB0000027B46B306C002809D13068002831D15E
:103CC000B068FEF7BFFD07000020B0602AE0002DBD
:103CD0000FD1326C7568280001F030F87068316CD3
:103CE000084470607068B16888421BD330687060A7
:103CF00018E0326CD6F80C80404601F01FF8F068EE
:103D0000316C49420844F060F0683168884204D25E
:103D1000B068316C49420844F060022D02D1002C99
:103D200000D0641E641CB4633800BDE8F08110B597
:103D30000C00016C00290ED0C168026C1144C160F6
:103D4000C1688268914201D30168C160026CC16898
:103D5000200000F0F3FF10BD70B50400FFF765F917
:103D600094F9455011E00021200000F08EF8002861
:103D70000AD0FEF752FC07E014F12400FEF7B6FB70
:103D8000002801D0FEF749FC6D1E280040B2012832
:103D900005DBA06C0028E6D1606A0028ECD15FF05A
:103DA000FF3584F84550FFF75EF9FFF73EF994F9C7
:103DB000446008E014F11000FEF798FB002801D0E1
:103DC000FEF72BFC761E300040B2012802DB206992
:103DD0000028EFD184F84450FFF745F970BD10B5C5
:103DE0000400FFF722F9A06B002801D1012400E0B4
:103DF0000024FFF738F9200010BD10B50400FFF7CC
:103E000014F9A06BE16B884201D1012400E0002489
:103E1000FFF729F9200010BD10B4002300E05B1C5F
:103E2000082B09D2054C54F83320002AF7D144F866
:103E3000331004EBC301486010BC7047E0890020D8
:103E400070B504000D001600FFF7EFF894F9440078
:103E500010F1010F02D1002084F8440094F94500CC
:103E600010F1010F02D1002084F84500FFF7FBF8A4
:103E7000A06B002805D13200290014F12400FEF7C0
:103E800015FB2000FFF768FF70BD71B581B00A0017
:103E90000198846C0025002C09D172B6102080F3A3
:103EA0001188BFF34F8FBFF36F8F62B6FEE7A06B31
:103EB000E16B884209D372B6102080F31188BFF3FA
:103EC0004F8FBFF36F8F62B6FEE7A06BE16B884246
:103ED0001AD294F9456001A92000FFF7E5FE05001C
:103EE00030005FF0FF3140B288420AD1606A00289A
:103EF0000AD014F12400FEF7F9FA002804D00125B5
:103F000002E0761C84F84560280076BD2DE9F04378
:103F10009FB000BF65A6269CDFF8E88A8DF83B407D
:103F2000029100240B944FF0FF37044691461D4642
:103F30000AE019F8011B0298A0470028029000F03F
:103F4000A1800B98401C0B9099F8000050B12528D7
:103F5000EFD1002100220591069207910892099164
:103F60000A9203E00B98A5E041F0010119F8010F56
:103F70002028F9D023280CD02B2804D02D2805D0B8
:103F8000302809D080E041F00201EFE741F0040160
:103F9000ECE741F00801E9E741F01001E6E70D9296
:103FA0000AE00D98404505DA00EB800002EB400284
:103FB000303A0D9209F1010999F80020A2F1300080
:103FC0000A28EED399F800002E2818BF0C9726D1A6
:103FD00019F8010F2A2808D12868286009F1010979
:103FE00050F8042B28600C9219E02D280CBF09F121
:103FF0000109002000220C920BE040B90C9A4245C6
:1040000005DA02EB820203EB4203303B0C9309F129
:10401000010999F80030A3F130020A2AEDD3ADF876
:104020003810304699F8001000F0DCFE08B119F89D
:10403000010B8DF83A009DF83A00682805D199F8EF
:10404000000068280CD1622106E06C2804BF99F8B2
:1040500000006C2804D171218DF83A1009F1010992
:1040600010A804902A4619F8013B6946204600F042
:1040700061F838B910AA6946204600F091F9002885
:104080007FF562AF384615E02A2888D12A682A6071
:1040900052F8040B2A6000280D9003D540420D9081
:1040A00041F0040109F101098CE70000686A6C74B1
:1040B0007A4C00001FB0BDE8F083622820D0682849
:1040C00011D06A2803D06C2827D0712825D1086820
:1040D000C01D20F007000860D0E900230830086008
:1040E000194610467047002A0A680A60106803D013
:1040F000121D0A6000B217E0121D0A6080B217E0BC
:10410000002A0A680A60106803D0121D0A6040B2D3
:104110000AE0121D0A60C0B20AE0002A0A680A60BA
:10412000106803D0121D0A60C1177047121D0A6083
:104130000021704770B51C460D46B4F125002E696C
:10414000114600F01B811C386AD0001F022867D975
:10415000133843D0093863D0801E16D0401E1ED0BD
:10416000401E02285CD9001F19D0401F00F0838038
:10417000401E33D0401E00F0CD80C01E00F0DC8019
:10418000801E2BD0C01E29D0FEE06869421C6A61E7
:104190000A680A6052F8043B0A603354FEE095F85E
:1041A0003A000122FFF789FFC5E900010023994287
:1041B00004DA6869411C69612D220DE0288F8107AE
:1041C00004D56869411C69612B2205E0C00722D52E
:1041D0006869411C6961202232541CE095F83A005C
:1041E0000022FFF76AFFC5E9000195F838000107D2
:1041F00011D5D5E900230020834208BF82420AD0AE
:1042000044F02000782806D1686930213154401CE0
:10421000421C6A613454214668693044E86087E092
:104220000868C01D20F007000860D0E900230830AE
:104230000860C5E90023D5E90001C80F04D068690A
:10424000411C69612D220DE0288F810704D5686922
:10425000411C69612B2205E0C00704D56869411C37
:1042600069612022325468693044E860214628465A
:1042700000F0C8F992E005F13A02507820B14FF011
:10428000FF340FF6502062E01078622808D06828CA
:1042900024D06A2812D06C282ED071280ED02BE0A2
:1042A0000A680A6052F8040B0A6020B94FF0FF3424
:1042B0000FF638204BE0E96A01706FE00A680A6087
:1042C00052F8040B0A6020B94FF0FF340FF61C209F
:1042D0003DE0EA6AD317C0E900235FE00A680A609C
:1042E00052F8040B0A6020B94FF0FF340FF6FC10AF
:1042F0002DE0E96A018051E00A680A6052F8040B77
:104300000A6020B94FF0FF340FF6E0101FE0E96AB1
:10431000016043E00A680A6052F8040B0A60002159
:1043200020F0000221F0FF33C5E90023EE60782180
:10433000284600F0BBF831E00868086050F8044BEC
:104340000860EC603CB94FF0FF340FF6B81000F095
:1043500055FD201A70BD2E6B002E04D52046FFF7A8
:104360005DF9044608E032460021204600F066FD73
:10437000002814BF041B3446AC610FE06869411C7F
:1043800069612522325409E06969481C6861252267
:104390007254210002D0431C6B613454002070BD64
:1043A0002DE9FC410F46064690467A6B7869396ADA
:1043B000BC6A121AB869521A796A121AF869521A42
:1043C000121A97F83800141B41070FD42020002C34
:1043D0008DF800000ADD254601236A46394630463D
:1043E00000F060FC00285DD16D1EF5D17B6942466E
:1043F0003946304600F056FC002853D130208DF865
:1044000000003D6A002D09DD01236A463946304629
:1044100000F048FC002845D16D1EF5D1BB69FA6853
:104420003946304600F03EFC00283BD130208DF864
:1044300000007D6A002D08DD01236A4639463046BA
:1044400000F030FC70BB6D1EF6D1F868B969FB69ED
:1044500042183946304600F025FC18BB30208DF854
:104460000000BD6A002D08DD01236A46394630464A
:1044700000F018FCB0B96D1EF6D197F8380041076E
:104480000DD52020002C8DF8000008DD01236A46A0
:104490003946304600F006FC20B9641EF6D10020F3
:1044A000BDE8F6814FF0FF30BDE8F6812DE9FC470D
:1044B00007468C463E69BCF16F0F08BF082405D043
:1044C0004CF02000782814BF0A2410243C25D7E99A
:1044D0000023BCF1640F18BFBCF1690F90469946E8
:1044E00006D100218B4203DAD8F1000869EB4909B3
:1044F0004FF0000AD14508BFD0451FD1386BE8B94D
:10450000082C4BD197F83800010747D530203B25C0
:1045100086F83B0042E000280ED597F8380000F0FE
:104520001400102808D17B6B7969386A5B1A1B1A52
:104530009A1A002AC8BF3A62BDE8F3878DF800C016
:10454000404649462246E31700F0A4FC3032D0B280
:104550006D1E3A28019504DB9DF80000A0F1510181
:104560008A187255404649462246E31700F092FCED
:1045700089468046D14508BFD04503D0F8687119F7
:104580008842DDD3082C09D197F83800010705D5FA
:10459000705D302802D06D1E30207055C5F13C0290
:1045A000BA617119F960386B8242B4DA821A3A62E0
:1045B0004FF6EF70398F01403987BDE8F3872DE959
:1045C000D04306460F4614464FF00008DFF83894F3
:1045D00012E0E00707D542464B463046394600F028
:1045E00071FD06460F464046494642464B4600F09E
:1045F00069FD641080468946002CEAD13046394670
:10460000BDE8D0832DE9F34F054641F020048DB07D
:10461000D5E90089612C02AE09D0286B002848BF7B
:10462000062003D408BF672C01D101202863D5E9F7
:10463000002358004015401C0ED119030CD0032054
:10464000A8619DF8381061391A2902D20FF2D061A1
:1046500011E00FF2D0610EE059004915491C0FD14D
:1046600018030DD10320A8619DF8381061391A296B
:1046700014D30FF2B861E868032200F05FFBD3E1C6
:10468000194621F00043B3F5801F10460DD20027D4
:10469000BB4208BFBA42019703D111E00FF2886113
:1046A000E9E701AA00F018FD0AE0DFF8607307EB04
:1046B0001352DFF85C3301921940DFF85833194385
:1046C000C5E90001612C0ED1E86830210170821C1F
:1046D000EA609DF8381061290CBF7821582141709B
:1046E0006869801C6861D5E900AB2BF000430020AD
:1046F0002AF00002834204BF8242002300F05B8163
:10470000612C40F0AA80286B002847BF212100912E
:10471000401C0090009F7F1C404649460022002319
:1047200000F012FDD94601998DF8082038BF89F0B4
:104730000049091F002FD04601910DF1090040F3F7
:104740004981B349DFF8D0B20C910646404649464C
:104750000022002300F010FD80F03B814800400D56
:1047600000F11C0211D0002A0FDD40F2FF708242DE
:1047700005DB09F0004040EA0B01002013E00C9833
:10478000014041EA025140460DE029F0004300207B
:1047900028F00002834208BF82420FBF40461C221D
:1047A000404600F001FD8046894600F07FFDFF1F76
:1047B000002F044609DD00F080FD02460B4640460E
:1047C000494600F081FD80468946F01D072104E03E
:1047D00004F00F0200F8012D2411002C01DD491E08
:1047E000F6D5491E5CBF002200F8012DF9D5ECE09A
:1047F0000020194602AA0A4400E05B1E12F8014993
:10480000491E8442F9D00F2804D10DF10900425C01
:10481000521C4254002904D50198001D02AE5B1CB5
:104820000190591E12D49DF838007218A0F13A0771
:10483000147804F130085FFA88F43A2CA8BFB84421
:10484000491E02F80189F3D58DF83800286B00283D
:1048500040F1B080591E2963ACE040464946002231
:10486000002300F071FC019938BF89F0004947F23C
:1048700097504143694A91FBF2F20192D2F107024B
:1048800004DD40464946FFF79AFE0AE05242002006
:104890006349FFF794FE02460B464046494600F046
:1048A0001CFD8046662C286BDFF878B106BF019F9F
:1048B0000A3706273F18142FC8BF142730208DF859
:1048C000080089460DF1090000E03046002F34DD74
:1048D00006464046494600F009FD01460A4606F1F3
:1048E000080304200A26B2FBF6F606EB860EA2EBBE
:1048F0004E02303203F8012C0A22B6FBF2F202EB30
:10490000820EA6EB4E063036401E03F8026DE9D14A
:10491000083F002F03F10806D7DD084600F0EDFC44
:1049200002460B464046494600F0CEFC00225B465C
:1049300000F0C8FB80468946CBE70DF10901401A1B
:104940000DF1090604E00199491E401E0191761CF3
:1049500031783029F7D0662C02D10199491C03E047
:10496000652C0CBF012100212B6BCB189842B8BFDE
:10497000431E002B1ED4834204DAF05C3528A8BF06
:10498000392000DA30201946721E02EB010800E0DF
:104990005B1E18F80199491E8145F9D0392802D1CA
:1049A000705C401C7054002904D50198401C1646C8
:1049B0005B1C0190019800B200901BB29DF838106A
:1049C0003246284600F034F82EE0C61D002F3FF78F
:1049D000BDAE30460DF10901401A009903468842E8
:1049E000C8BF0B46002B0DF109063FF52FAF8342E0
:1049F000BFF6FEAE0DF10900C15C07297FF7F8AEE6
:104A00000F20F6E6CBCCCC0C0000244002FCFFFFCC
:104A1000FFFF0F800000E03F0000F07FA086010054
:104A20000000F03F84D797410FB0BDE8F08F000041
:104A30002DE9F84783B006468A461746984600F0A7
:104A400063FCB8F1000F406A356B90F8009002DC0F
:104A50004FF00108B6A74AF02000BDF930406628A3
:104A600008BF641C15D0672840F0848014F1040F3F
:104A7000C0F28680AC4280F2838096F83800641CD5
:104A8000010702D4A845B8BF454620B22D1A48BF39
:104A900000250FFA84FAF068B169BAF1000F25DC3D
:104AA0004A1C30234354002D03DC96F838000107DC
:104AB00003D5F06800F80290521C15EB0A0FB8BF3E
:104AC0006C4220B2441941424445B8BFA046B2618D
:104AD00071620FFA88F5F561F068B3692A463946C4
:104AE000184400F02BF9641BB462C4E022B2904574
:104AF000084417DA4246394600F020F9B0694044CC
:104B0000B061AAEB0801002D716203DC96F8381041
:104B10000A0705D5F16801F80090F069401CF061C2
:104B2000B562A8E0394600F009F9B069002D50449B
:104B3000A8EB040803DC96F838100A0703D5F168DF
:104B400001F80090401CB0610FFA88F08542F368CC
:104B5000B069B8BFA8460FFA88F207EB0A011844FB
:104B600000F0ECF8B1690FFA88F00144B161281A3D
:104B7000706280E0BAF1610F14D14FF0700A16E054
:104B8000A84504DA96F838100A0758BF45466D1E46
:104B900048BF0025BAF1670F14BF4FF0450A4FF028
:104BA000650A04E0BAF1410F08BF4FF0500AB1693D
:104BB000F368481CB061002D17F8012B5A5403DC30
:104BC00096F838100A071BD5F168431CB36101F849
:104BD0000090002D14DDA8F101080FFA88F0394685
:104BE0008542F768B8BFA8460FFA88F2F81800F0B7
:104BF000A5F8B0690FFA88F108446D1AB0617562C2
:104C0000F068B1690844002C80F800A003D42B227E
:104C10004270811C03E02D2141706442811C002000
:104C20006A460AE023460A2493FBF4F404EB840565
:104C3000A3EB450302F8013B401C24B2002CF1DC3D
:104C4000012806DC4AF02002652A04BF302201F860
:104C5000012B48B9302001F8010B07E0401E1DF878
:104C60000030303301F8013B0028F7DCF268B0690E
:104C70001044091AF16196F8380000F01400102869
:104C80000DD17269B169706A8A18F1698218B06AC7
:104C90008A188218706B8242BCBF821A326204B0DA
:104CA000BDE8F087F8B505460E4617461C460020BD
:104CB00074B117F8011BB068A847B06030B1F06A52
:104CC000401CF0620020641EF3D1F2BD4FF0FF30B3
:104CD000F2BD00007072696E74665F733A20256ED3
:104CE00020646973616C6C6F776564007072696EC3
:104CF00074663A2062616420256E20617267756D6A
:104D0000656E74007072696E74665F733A206261DA
:104D10006420257320617267756D656E74000000F4
:104D20006E616E004E414E00696E6600494E46004F
:104D300030000268531C03601170704762B38B0728
:104D400008D0521E11F8013B00F8013B00F024800E
:104D50008B07F6D1830740F0208000BF103A07D3BD
:104D600030B4B1E83810103AA0E83810F9D230BCAD
:104D7000530724BFB1E80810A0E8081044BF51F859
:104D8000043B40F8043BD20724BF31F8022B20F843
:104D9000022B44BF0B7803707047121F17D35B00C0
:104DA00009D151F8043B20F8023B1B0C121F20F8DC
:104DB000023BF6D20BE051F8043B00F8013B1B0A22
:104DC00020F8023B1B0C121F00F8013BF3D238BF46
:104DD000121D521E24BF11F8013B00F8013BF8D808
:104DE000704700000278C9B28A421AB11CBF10F89D
:104DF000012FF9E718BF00207047000080B500B907
:104E000006A005490B681BB122220021984701E04A
:104E100000F07EFA222002BDEC8B0020636F6E73DF
:104E2000747261696E742068616E646C65723A2098
:104E3000626164206D65737361676500C9B2830741
:104E400006D0521E22D310F8013B9942F7D11FE041
:104E5000083A13D302F1040241EA012141EA014177
:104E600050F8043B121F21BF4B40A3F1013C2CEA38
:104E7000030C1CF0803FF3D0C9B2001F083210F8B9
:104E8000013B521E28BF91EA030FF8D818BF01203A
:104E9000401E7047BBBBE1B1B2F5803F80F07E8021
:104EA000022A1ED98C46B1FBF2F102FB11C31B048E
:104EB00043EA1043B3FBF2FC02FB1C3380B240EA2E
:104EC0000343B3FBF2F002FB103240EA0C40002334
:104ED0007047022A05D98446B0FBF2F002FB10C2EB
:104EE00070474AB105D100F0010249085FEA30007D
:104EF000704700220023704700F00EBA0B0002003A
:104F0000002100207047904271EB030CF6D3B3F5FB
:104F1000803F2FD2F0B5B3FA83F7B1FA81F4A7F14D
:104F20000F0E3D1B5340CEF1200602FA0EF2F34164
:104F30005340B5F10F0746D80F3C2C444140C4F113
:104F40002006A040F1414140B1FBF3F603FB1611EE
:104F5000A2FB0645001BA94102D2761E80185941CA
:104F600080EA010221FA0EF362FA0EF200215A40A1
:104F70003046F0BD30B4B1FBF3FC03FB1C11A2FBC7
:104F80000C45001BA94103D2ACF1010C801859411A
:104F900030BC02460B46604600217047B2F1807F6C
:104FA00065D3F0B5B2FA82F7B1FA81F4C7F10F0612
:104FB0003D1B22FA06F307F1110EF24120355A404B
:104FC000B5F10F07B8D94140C4F12006A040F14126
:104FD0004140B1FBF3FC03FB1C11A2FB0C45001B81
:104FE000A94103D2BCF1010C801859410F2F12D3F3
:104FF0000F3FC90341EA5041B1FBF3F603FB161121
:10500000A2FB0645D4EBC030A94102D2761E80181F
:10501000594146EACC3C07B34140C7F12006B840AD
:10502000F1414140B1FBF3F603FB1611A2FB06452B
:10503000001BA94102D2761E8018594180EA010264
:1050400021FA0EF3C7F1200462FA0EF20CFA07F00F
:105050005A402CFA04F13043F0BD80EA010221FAF3
:105060000EF3002162FA0EF260465A40F0BD8C4603
:10507000B1FBF2F102FB11C31B0243EA1063B3FB65
:10508000F2FC02FB1C331B024CEA002043EA1063D3
:10509000B3FBF2FC02FB1C331B024CEA002043EA88
:1050A0001063B3FBF2FC02FB1C331B024CEA002032
:1050B00043EA1063B3FBF2FC02FB1C324CEA002013
:1050C0000023704741EC100B43EC112B20EE010B39
:1050D00051EC100B7047000010B5144600F002F8B8
:1050E000226010BDC1F30A5343B14A0012F5001FFC
:1050F00028D2A3F2FE32A1EB0251704750EA410CD4
:1051000020D001F0004C31EA0C01B1FA81F204BF69
:10511000B0FA80F3D2180B3AB2F120032CBF00FA98
:1051200003F1914041EA0C013EBFC2F1200C20FA8C
:105130000CF319439040524240F2FD33D21A01EB76
:1051400003517047002270474FF4001C1CEB410FC5
:1051500094BF1CEB430F09E041EA030C50EA4C0CEE
:1051600052EA0C0C03D2994208BF9042704714BF18
:105170008B428242704700004FF4001C1CEB410F31
:1051800094BF1CEB430F09E041EA030C50EA4C0CBE
:1051900052EA0C0C03D28B4208BF8242704714BF04
:1051A000994290427047000041EC100B104600B548
:1051B00000F004F851EC100B00BD0000020030EECE
:1051C000101B40F2FF7C37D41CEA115313D0634507
:1051D0006BD09B18634504D201EB025120EE101BEB
:1051E000704701F0004141EA0C51002041EC100BE6
:1051F000AFF30080704710EE100B50EA410054D01E
:10520000B2F57F7F08D202EB5C010905002041EC7A
:10521000110B20EE010B70474FF0FE41002341ECD3
:10522000113B20EE010BB2F57E7230EE101B4FEAFF
:10523000410342EB5353CDE752421CEA115316D0BF
:10524000634532D09A4204D2A1EB025120EE101BEA
:1052500070475B1ED21AA1EB035120EE101B372AB8
:105260000CD3002001F0004141EC100BC0E710EE20
:10527000100B50EA410018D0372AF2D2C2EB5C0280
:105280001105002041EC110BF1EE100A20F01F0176
:1052900021F4F851E1EE101A20EE010BF1EE101A94
:1052A000E1EE100A11F0080FA2D1704741EC100B8B
:1052B000BDEEC00B10EE100A704700EE100AB8EEFB
:1052C000C00B51EC100B704741EC100B43EC112B51
:1052D00030EE410B51EC100B704741EC100B43ECDE
:1052E000112B80EE010B51EC100B704741EC100BB1
:1052F000BCEEC00B10EE100A704700EE100AB8EEBC
:10530000400B51EC100B7047004870470C00002018
:10531000012000F003B800007047000080B5AFF333
:105320000080024A11001820ABBEFBE726000200F5
:1053300010B50400002C01D1012037E0A06900283D
:10534000FFD194F87900002805D1002084F8780076
:10535000200000F0F6FC242084F879002068006822
:105360004008400021680860200000F020F8012873
:1053700001D101201AE0606B002802D0200000F06B
:1053800005FC2068406830F490402168486020683F
:10539000806830F02A00216888602068006850F03A
:1053A000010021680860200000F05DFC10BDF8B528
:1053B00086B0050000208026002000210024DFF8B0
:1053C000842728689042FFD0A86AB0F1005FAB68DC
:1053D0002869034368690343E8690343A86A0343F0
:1053E00028680768DFF8600707403B4328680360C8
:1053F0002868436833F44053E868034328684360EF
:10540000AB692868904201D0286A0343A86AB0F1CA
:10541000005F03D1EF6A286B07433B432868876826
:10542000DFF8280707403B43286883602868C36A81
:105430001B091B01686A03432868C3622868DFF8F8
:10544000103798421DD1DFF80C07006810F03800C3
:1054500000280AD008280AD010280AD018280AD014
:1054600020280AD028280AD012E1012610E10426BB
:105470000EE140260CE108260AE1102608E120266C
:1054800006E12868DFF8D03698421BD1DFF8C40661
:10549000006810F00700002808D002280AD007D3BF
:1054A00004280BD008D305280AD0F1E00026EFE04D
:1054B0000426EDE04026EBE00826E9E01026E7E0D0
:1054C0002026E5E02868DFF8943698421BD1DFF803
:1054D0008406006810F00700002808D002280AD0CF
:1054E00007D304280BD008D305280AD0D0E0002623
:1054F000CEE00426CCE04026CAE00826C8E010260C
:10550000C6E02026C4E02868DFF8543698421BD154
:10551000DFF84006006810F00700002808D00228D5
:105520000AD007D304280BD008D305280AD0AFE04F
:105530000026ADE00426ABE04026A9E00826A7E05F
:105540001026A5E02026A3E02868DFF81836984248
:105550001BD1DFF80006006810F00700002808D013
:1055600002280AD007D304280BD008D305280AD074
:105570008EE000268CE004268AE0402688E008269B
:1055800086E0102684E0202682E02868DFF8D835FF
:1055900098421DD1DFF8BC05006810F038000028E3
:1055A0000AD008280AD010280AD018280AD02028A3
:1055B0000AD028280AD06BE0012669E0042667E0BB
:1055C000402665E0082663E0102661E020265FE0C3
:1055D0002868DFF8983598421BD1DFF87805006815
:1055E00010F00700002808D002280AD007D30428AA
:1055F0000BD008D305280AD04AE0002648E004264C
:1056000046E0402644E0082642E0102640E02026FE
:105610003EE02868DFF8583598421BD1DFF83405A2
:10562000006810F00700002808D002280AD007D32D
:1056300004280BD008D305280AD029E0002627E04B
:10564000042625E0402623E0082621E010261FE05E
:1056500020261DE0286890421AD1DFF8180500685E
:1056600010F00700002808D002280AD007D3042829
:105670000BD008D305280AD00AE0022608E0042649
:1056800006E0402604E0082602E0102600E020267E
:105690002868904240F0FD8000203100C9B2022904
:1056A0000AD004290BD0082913D0102920D0202992
:1056B00021D0402908D021E0FBF7F8FA1FE003A829
:1056C000FBF70EFB04981AE06846FBF701FC019813
:1056D00015E0DFF8A4140868800606D5DFF89C04FE
:1056E0000968C1F3C101C84001E0DFF8900406E099
:1056F000DFF88C0403E04FF4004000E001240028B0
:1057000000F01B826A6803214A43904205D36A680D
:105710004FF480514A43824201D201240DE2F6B295
:10572000022E0BD0042E1ED0082E4AD0102E7BD075
:10573000202E00F08E80402E2CD09FE0FBF7B6FA92
:10574000DFF840146A6A31F81210B0FBF1F24FF43E
:105750008073686840080021E3FB02016A68002347
:10576000FFF798FB8BE003A8FBF7BAFA0498DFF881
:1057700014146A6A31F81210B0FBF1F24FF480731E
:10578000686840080021E3FB02016A680023FFF714
:1057900081FB74E06846FBF79BFB0198DFF8E4139C
:1057A0006A6A31F81210B0FBF1F24FF48073686846
:1057B00040080021E3FB02016A680023FFF76AFB4F
:1057C0005DE0DFF8B4030168890618D5DFF8AC1393
:1057D0000068C0F3C100C140DFF8A8036A6A30F86E
:1057E0001200B1FBF0F24FF48073686840080021AA
:1057F000E3FB02016A680023FFF74CFB13E0DFF8CC
:105800007C03DFF880136A6A31F81210B0FBF1F202
:105810004FF48073686840080021E3FB02016A6866
:105820000023FFF737FB2AE0DFF85403DFF85413B7
:105830006A6A31F81210B0FBF1F24FF480736868B5
:1058400040080021E3FB02016A680023FFF722FB06
:1058500015E04FF40040CB496A6A31F81210B0FBF2
:10586000F1F292B24FF48073686840080021E3FBC4
:1058700002016A680023FFF70DFB00E00124B0F588
:105880004071C14A914202D22968C86055E10124A1
:1058900053E1E869B0F5004F40F0A480F6B2002E65
:1058A0000CD0012E1AD0042E28D0082E4AD0102E4B
:1058B0006ED0202E7BD0402E32D088E0FBF750FFF8
:1058C000B0496A6A31F81210B0FBF1F06968490812
:1058D00011EB40016868B1FBF0F179E0FBF750FF94
:1058E000A8496A6A31F81210B0FBF1F069684908FA
:1058F00011EB40016868B1FBF0F169E003A8FBF728
:10590000EFF904989F496A6A31F81210B0FBF1F080
:105910006968490811EB40016868B1FBF0F157E094
:105920006846FBF7D5FA019896496A6A31F8121071
:10593000B0FBF1F06968490811EB40016868B1FB00
:10594000F0F145E08C480168890612D58B49006862
:10595000C0F3C100C1408B486A6A30F81200B1FB45
:10596000F0F06968490811EB40016868B1FBF0F19B
:105970000DE0824883496A6A31F81210B0FBF1F0F9
:105980006968490811EB40016868B1FBF0F11FE05C
:105990007B487C496A6A31F81210B0FBF1F0696803
:1059A000490811EB40016868B1FBF0F110E04FF4D9
:1059B000004074496A6A31F81210B0FBF1F069686E
:1059C000490811EB40016868B1FBF0F100E00124E7
:1059D0004FF6F0720A40C1F34200024392B22868C7
:1059E000C260AAE0F6B2002E0DD0012E1DD0042E0A
:1059F0002DD0082E53D0102E7BD0202E00F08A8080
:105A0000402E38D098E0FBF7ABFE5E496A6A31F869
:105A10001210B0FBF1F0696810EB51006968B0FB3F
:105A2000F1F080B22968C86087E0FBF7A9FE55490C
:105A30006A6A31F81210B0FBF1F0696810EB51009E
:105A40006968B0FBF1F080B22968C86075E003A80E
:105A5000FBF746F904984B496A6A31F81210B0FB1B
:105A6000F1F0696810EB51006968B0FBF1F080B2A9
:105A70002968C86061E06846FBF72AFA0198414945
:105A80006A6A31F81210B0FBF1F0696810EB51004E
:105A90006968B0FBF1F080B22968C8604DE0364813
:105AA0000168890614D535490068C0F3C100C140BA
:105AB00034486A6A30F81200B1FBF0F0696810EB04
:105AC00051006968B0FBF1F080B22968C8600FE04E
:105AD0002A482C496A6A31F81210B0FBF1F0696863
