:020000040000FA
:10000000C8FB0020AD020000CF140000B7020000C2
:10001000B9020000810D0000791B00000000000003
:1000200000000000000000000000000015020000B9
:10003000830D000000000000510200008D17000039
:10004000C7020000D1140000CD1A0000C702000052
:10005000C7020000C7020000C7020000251600000A
:10006000C7020000C7020000C7020000C11500005F
:10007000C7020000C7020000C7020000C70200005C
:10008000C7020000C7020000C7020000C70200004C
:10009000C7020000C7020000C7020000C70200003C
:1000A000C7020000C7020000C7020000C70200002C
:1000B000C7020000C70200000000000000000000AE
:1000C000C7020000C7020000C7020000C70200000C
:1000D000C702000099110000C702000000000000E4
:1000E0000000000000000000000000000000000010
:1000F0000000000000000000000000000000000000
:1001000000000000000000000000000000000000EF
:1001100000000000000000000000000000000000DF
:1001200000000000000000000000000000000000CF
:1001300000000000000000000000000000000000BF
:1001400000000000000000000000000000000000AF
:10015000000000000000000000000000000000009F
:10016000000000000000000000000000000000008F
:10017000000000000000000000000000000000007F
:10018000000000000000000000000000000000006F
:10019000000000000000000000000000000000005F
:1001A000000000000000000000000000000000004F
:1001B000000000000000000000000000000000003F
:1001C000000000000000000000000000000000002F
:1001D000000000000000000000000000000000001F
:1001E000000000000000000000000000000000000F
:1001F00000000000000000000000000000000000FF
:10020000DFF80CD000F05AFD004800470144000020
:10021000C8FB0020244B19680868B0E8F04F80F351
:100220000988BFF36F8F4FF0000080F3118870478B
:10023000000000000548006880F3088862B661B6D7
:10024000BFF34F8FBFF36F8F00DF0000000000008F
:10025000EFF30980BFF36F8F134B1A681EF0100F76
:1002600008BF20ED108A20E9F04F106008B44FF06D
:10027000200080F31188BFF34F8FBFF36F8F08F01A
:1002800061FC4FF0000080F3118808BC1968086811
:10029000B0E8F04F1EF0100F08BFB0EC108A80F3EA
:1002A0000988BFF36F8F7047B4000020064880476D
:1002B00006480047FEE7FEE7FEE7FEE7FEE7FEE74B
:1002C000FEE7FEE7FEE7FEE731180000010200004E
:1002D000F0B45FEA930C12D050F8045B51F8047B41
:1002E00050F8044B51F8046B95FA17F542F8045B8B
:1002F00094FA16F442F8044BBCF1010CECD113F063
:10030000030304BFF0BC704730F902CB31F9024B54
:100310009CFA14FC22F802CB5B1EF5D1F0BC7047AE
:100320002DE9F0035FEA930C23D000BF50F8044B93
:1003300051F8045B50F8046B51F8047B14FB35F85A
:1003400014FB05F416FB37F516FB07F628F3CF3739
:1003500024F3CF3825F3CF3426F3CF35C8EA074648
:1003600042F8046BC5EA044442F8044BBCF1010CAA
:10037000DCD113F0030304BFBDE8F0037047B3F111
:10038000004F31D2002BDCBFBDE8F0037047801E68
:10039000891E921E13F0010F09D030F802CF31F8F8
:1003A000024F1CFB04FC2CF3CF3C22F802CF5B086D
:1003B00004BFBDE8F0037047B0F802C04C881CFBD6
:1003C00004FC2CF3CF3CA2F802C030F804CF31F883
:1003D000044F1CFB04FC2CF3CF3C22F804CF5B1E23
:1003E000EAD1BDE8F003704730F802CB31F8024B98
:1003F0001CFB04FC2CF3CF3C22F802CB5B1EF3D198
:10040000BDE8F00370470000930814D090ED032A74
:10041000D0ED000A90ED011AD0ED021A22EE002A6A
:1004200060EE800A21EE001A61EE801AE1EC040A07
:1004300010305B1EEAD112F0030208BF7047B2F120
:10044000004F24D2002AD8BF7047001F091F12F0A6
:10045000010F07D0D0ED010A001D60EE800AC1ED4A
:10046000010A091D520808BF704700BFD0ED010AFC
:1004700060EE800AC1ED010AD0ED020A083060EE9C
:10048000800AC1ED020A0831521EEFD17047F0EC2C
:10049000010A521E60EE800AE1EC010AF7D17047B2
:1004A0002DE9F007C2F10F02079E4FFA82FCB20855
:1004B00026D000BF50F8044B50F8045B14FB21F722
:1004C00014FB01F415FB21F815FB01F544FA0CF9B6
:1004D00047FA0CF745FA0CFA48FA0CF807F30F0440
:1004E00009F30F0908F30F050AF30F07C9EA0444DB
:1004F00043F8044BC7EA054443F8044B521ED9D1D4
:1005000016F0030204BFBDE8F0077047B2F1004FD8
:100510002FD2002ADCBFBDE8F0077047801E9B1E6B
:1005200012F0010F09D030F8024F14FB01F444FA25
:100530000CF404F30F0423F8024F520804BFBDE883
:10054000F0077047448814FB01F444FA0CF404F3F8
:100550000F045C8030F8044F14FB01F444FA0CF4EF
:1005600004F30F0423F8044F521EEBD1BDE8F0074B
:10057000704730F8024B14FB01F444FA0CF404F316
:100580000F0423F8024B521EF3D1BDE8F007704769
:1005900070B50170044682601D46C900184600F01F
:1005A00016FB656070BD2DE9F001944645688668CC
:1005B00007784FEA930896ED000A301DF0EC010A27
:1005C000B0EC011AF0EC011A061D90ED002AD5EDF1
:1005D000002A95ED013A404600285DD0D1ED005A41
:1005E000D1ED014A91ED025AD1ED033A103120EEDE
:1005F000254A20EEA56A34EE224A60EE242A61EEF6
:10060000846A61EE255A76EE266A22EE046A76EE58
:10061000836A35EE863A20EEA46A72EEA65A60EE40
:10062000052A61EEA56A61EE244A76EE266A22EE7C
:10063000256A76EE836A34EE863A20EE856A72EE9B
:10064000A64A60EE232A61EEA46A21EE055A36EE30
:10065000266A62EE246A36EE036A35EE263A32EEF8
:10066000865A20EEA36A61EE852A61EE233A76EE81
:10067000222A22EE056A72EE832A33EE863A8CED48
:10068000004ACCED015ACCED024A8CED035A0CF134
:10069000100C401E0028A1D103F00304C4B1B1EC3A
:1006A000014A60EE043A60EE844A73EEA23A61EECB
:1006B000A32A21EE044A74EEA22A62EE234A72EEC5
:1006C000832A34EE243AECEC013A641E002CE6D185
:1006D000C5ED002A281D051D80ED003A11468C4607
:1006E0007F1E002F7FF467AFBDE8F001704710B4A4
:1006F000930812D0B3F1004F32D24FF0010C012B0E
:100700000BDB50F8044B41F8044B50F8044B0CF150
:10071000010C41F8044B6345F3DA12F0030204BF05
:1007200010BC7047B2F1004F25D2002ADCBF10BCCC
:100730007047801E891E12F0010F03D030F8023F6F
:1007400021F8023F520804BF10BC704743884B8019
:1007500030F8043F21F8043F521EF7D110BC704717
:1007600050F804CB41F804CB50F804CB41F804CB4B
:100770005B1EF5D1D1E730F8023B21F8023B521E57
:10078000F9D110BC7047000010B49308C0EA004CC7
:100790000DD0B3F1004F27D20124012B07DB00BF9E
:1007A00041F804CB641C41F804CBA342F8DA12F000
:1007B000030204BF10BC7047B2F1004F1BD2002AE5
:1007C000DCBF10BC7047891E12F0010F18BF21F862
:1007D000020F520804BF10BC7047488021F8040F74
:1007E000521EFAD110BC704741F804CB5B1E41F891
:1007F00004CBF9D1DBE721F8020B521EFBD110BC70
:100800007047000030B493089FED7E0A5ED000BFB1
:10081000F0EC010A60EE800AF5EEC00AF1EE10FA83
:10082000CCBFB6EE001ABEEE001A71EE200AFDEE45
:10083000E00A10EE90CA0CF30F0C21F802CBF0EC9A
:10084000010A60EE800AF5EEC00AF1EE10FACCBFA4
:10085000B6EE001ABEEE001A71EE200AFDEEE00AB6
:1008600010EE90CA0CF30F0C21F802CBF0EC010A49
:1008700060EE800AF5EEC00AF1EE10FACCBFB6EEDB
:10088000001ABEEE001A71EE200AFDEEE00A10EE2C
:1008900090CA0CF30F0C21F802CBF0EC010A60EEC9
:1008A000800AF5EEC00AF1EE10FACCBFB6EE001ADF
:1008B000BEEE001A71EE200A5B1EFDEEE00A10EE9D
:1008C00090CA0CF30F0C21F802CBA1D112F0030255
:1008D00004BF30BC7047B2F1004F78D2541E002CD8
:1008E0003BDD8B1EA0F1040C12F0010F54D000BFB1
:1008F000DCED010A641030D060EE800A9CED021A33
:100900000CF1080CF5EEC00AF1EE10FACCBFF6EED1
:10091000001AFEEE001A71EEA00A21EE001AFDEE9A
:10092000E00AB5EEC01A10EE905A05F30F055D808F
:10093000DCED010AF1EE10FACCBFF6EE001AFEEE85
:10094000001A31EE811A641EBDEEC11A11EE105A62
:1009500005F30F0523F8045FCED1521E44BF30BC0F
:10096000704700EB8200D0ED000A20EE800AB5EE61
:10097000C00AF1EE10FACCBFF6EE000AFEEE000A55
:1009800030EE800ABDEEC00A10EE100A00F30F0030
:1009900021F8120030BC7047DCED010A0CF1040CA8
:1009A00060EE800AF5EEC00AF1EE10FACCBFB6EEAA
:1009B000001ABEEE001A71EE200AFDEEE00A10EEFB
:1009C000905A05F30F0523F8025F91E7FFE7F0EC7B
:1009D000010A60EE800AF5EEC00AF1EE10FACCBF13
:1009E000B6EE001ABEEE001A71EE200A521EFDEE9F
:1009F000E00A10EE903A03F30F0321F8023BE6D130
:100A000030BC70470000004770B493089FED620A45
:100A100038D0B3F1004F7CD2002B33DD04468C4636
:100A20004FEA030534F9026B6D1E00EE906AF8EE92
:100A3000E00A60EE800ACCED000A34F9026B00EEA9
:100A4000906AF8EEE00A60EE800ACCED010A34F913
:100A5000046B00EE906AF8EEE00A60EE800ACCEDDE
:100A6000020A34F9026C00EE906AF8EEE00A60EED9
:100A7000800ACCED030A0CF1100CD3D100EBC300BB
:100A800001EB031112F0030204BF70BC7047B2F116
:100A9000004F72D2541E002C2EDD831EA1F1040CD7
:100AA00012F0010F0BD133F9025F00EE905AF8EE0D
:100AB000E00A60EE800ACCED010A0CF1040CB3F9F7
:100AC0000250641018D000BF00EE905A33F9046F42
:100AD000641EF8EEE00A60EE800ACCED010A00EE3A
:100AE000906AB3F90250F8EEE00A60EE800ACCEDAD
:100AF000020A0CF1080CE7D1521E44BF70BC7047CB
:100B000030F9120000EE900AF8EEE00A20EE800ABA
:100B100000E005E001EB820080ED000A70BC704748
:100B200030F902CB00EE90CAF8EEE00A60EE800ADF
:100B3000C1ED000A30F902CB00EE90CAF8EEE00AEF
:100B400060EE800AC1ED010A30F902CB00EE90CAD6
:100B5000F8EEE00A60EE800AC1ED020A30F902CB3D
:100B600000EE90CAF8EEE00A60EE800AC1ED030ADA
:100B700010315B1ED4D185E7FFE730F9023B521EEE
:100B800000EE903AF8EEE00A60EE800AE1EC010A2D
:100B9000F3D170BC704700000000003840EA010348
:100BA0009B0703D009E008C9121F08C0042AFAD223
:100BB00003E011F8013B00F8013B521EF9D27047E7
:100BC000D2B201E000F8012B491EFBD2704700228F
:100BD000F6E710B513460A4604461946FFF7F0FF3C
:100BE000204610BD421C10F8011B0029FBD1801AC1
:100BF000704730B504460020034600E05B1C93427A
:100C000003D2E05CCD5C401BF8D030BD10B504468B
:100C100000E0401C0378002BFBD100E0401C521E7A
:100C200004D311F8013B0370002BF7D100210170B0
:100C3000204610BD30B505460020034600E05B1C91
:100C4000934205D2EC5CC85C201A01D1002CF6D18D
:100C500030BD2DE9F0410546002090460E46044681
:100C600000E0641C44450BD2285D00F021F80746E3
:100C7000305D00F01DF8381A02D1295D0029F0D14D
:100C8000BDE8F08130B50B4601460020202201244A
:100C900009E021FA02F59D4205D303FA02F5491B4A
:100CA00004FA02F52844151EA2F10102F1DC30BD60
:100CB000A0F14101192900D820307047064C074D9A
:100CC00006E0E06840F0010394E80700984710341C
:100CD000AC42F6D3FFF798FAC0190400E0190400FB
:100CE00070B58C1810F8015B15F0070301D110F8EE
:100CF000013B2A1106D110F8012B03E010F8016B1B
:100D000001F8016B5B1EF9D12B0705D40023521E9D
:100D10000DD401F8013BFAE710F8013BCB1A921C05
:100D200003E013F8015B01F8015B521EF9D5A14203
:100D3000D8D3002070BD2DE9F00100254E1EB4B2BD
:100D4000A8460027002E18DD0021002C0ED94318DC
:100D5000425C93F801C0624504D200F801C05A70A9
:100D600001278846491C89B2A142F0D34446002F8E
:100D700003D0691C8DB2B542E6DBBDE8F0017047D7
:100D8000FEE7704770B5044664214648FFF71FFF31
:100D90002078012802D96FF0040070BD2089B0F5D9
:100DA000EB7F02D2B0F5C87F02D86FF0040070BDAF
:100DB000A088B0F5EB7F02D2B0F5C87F02D86FF003
:100DC000040070BDA078792802D86078792802D90B
:100DD0006FF0040070BD207B082802D96FF004007A
:100DE00070BD31492F4800F0C9FE01222FA12D48C6
:100DF000FFF70CFF2B48FFF7F5FE2A4D2278284419
:100E00002BA100F0BBFE2846FFF7ECFE2844228908
:100E100028A100F0B3FE2846FFF7E4FE28446289CB
:100E200026A100F0ABFE2846FFF7DCFE2844A2888E
:100E300020A100F0A3FE2846FFF7D4FE2844E28854
:100E40001EA100F09BFE2846FFF7CCFE28446278E6
:100E500017A100F093FE2846FFF7C4FE2844227B2A
:100E600013A100F08BFE2846FFF7BCFE2844A278B1
:100E70000FA100F083FE2846FFF7B4FE2844627BF2
:100E800010A100F07BFE0848FFF7ACFEC4B2284674
:100E9000FFF7A8FEC1B222462846BDE8704000F028
:100EA0008FB80000F2020020DA9E00003D00000032
:100EB00025642C002533642E0000000025303464A6
:100EC0002C0000002564000010B500F051F809481E
:100ED00000F0FEF8074800F00FF8064800F02AF985
:100EE0000448FFF74FFF18B90249012081F8460076
:100EF000002010BD5603002038B504466421174871
:100F0000FFF765FE1649154800F038FE607C401E6C
:100F100007281FD8A07C08281CD8E07C092819D8ED
:100F20000E48FFF75FFE0D490844E17C0091A37C69
:100F3000627C0CA100F022FE0948FFF753FEC4B208
:100F40000648FFF74FFE2246BDE83840C1B20348CD
:100F500000F036B86FF0040038BD0000F202002047
:100F6000249F00003D25642C25642C25640000008E
:100F7000124981F8470000220A7000F5D27088807B
:100F800041F28243CB8008814B81192048700323B2
:100F90000B738870487B20F0040020F0010020F0E3
:100FA00002004873012088730623CB730A744874C7
:100FB0008A74CA7481F846200020704756030020C6
:100FC0002DE9F84F05460E4617460324A81934A10B
:100FD00000F0D4FD304400F0FF084FF0000905F8A0
:100FE0000890A81CDFF8BCA0DFF8BCB02F4E074467
:100FF00007F096FB4146284607F09AFB4FF4C8716C
:10100000306808F023FB0128F8D1072228A12548E1
:10101000FFF7EFFD28B1082227A12248FFF7E9FDDD
:1010200058B9072222A11F48FFF7E3FDE8B10822C3
:1010300021A11C48FFF7DDFD18B3A81C07F8029C8E
:10104000022220A1FFF7E2FD00900098FFF7CAFD01
:10105000024614490098FFF7EDFDF0B1601EC4B2DE
:10106000002CC5D1E01EBDE8F88F9BF800000AF106
:101070000A01A0F10A021448FFF790FD0020BDE824
:10108000F88F9BF800000AF10901A0F109020F484E
:10109000FFF784FD0020BDE8F88F0020BDE8F88F41
:1010A0000D0A00008E0200203100002034000020D4
:1010B0002B444D4F4D4553002B444D4F56455251F7
:1010C000000000003A3000007E0300209203002060
:1010D00010B5044664211348FFF779FD1249114801
:1010E00000F04CFDA07B0F4C38B12046FFF77AFD95
:1010F00020440EA100F042FD06E00A48FFF772FD11
:1011000020440BA100F03AFD0748FFF76BFDC4B285
:101110000448FFF767FD2246C1B2BDE81040014810
:10112000FFF74EBFF2020020E99E00003D310000B3
:101130003D30000010B5044664211248FFF747FD1A
:101140001149104800F01AFD207C082816D80D48D7
:10115000FFF748FD0B49227C08440CA100F00EFD6E
:101160000948FFF73FFDC4B20648FFF73BFD2246A2
:10117000C1B2BDE810400348FFF722BF6FF0040082
:1011800010BD0000F2020020179F00003D25640002
:10119000401EFDD27047000070B584B00025029556
:1011A000204CD4F8040310F0020000D001201E4EA1
:1011B00088B1D4F8040100B1012060B1C4F8045131
:1011C000D4F80401019001200390002302AA03A98E
:1011D000306B08F033F9D4F8040310F0200000D08D
:1011E000012088B1D4F8140100B1012060B1C4F825
:1011F0001451D4F81401019002200390002302AA94
:1012000003A9306B08F01AF90298002808D00749A2
:101210004FF08050086040BFBFF34F8FBFF36F8F18
:1012200004B070BD00500240A001002004ED00E0B9
:10123000204901200860091D0860091D08601E4A38
:10124000010711600621121D1160111D08600020A8
:10125000091D0860091D0860091D0860174908601C
:10126000174A0321C2F80017164AC2F80017164A97
:10127000C2F80017154AC2F80017C2F8000714494F
:10128000112008600E20091D08600C20091D08604F
:101290001049102008600F20091F08600E494020E7
:1012A00081F800040D492020C1F880028431C8670C
:1012B0007047000008550240145502400455024092
:1012C00044000050380000503000005040000050F2
:1012D000605502407055024025E000E004E000E067
:1012E00070B54FF4B812090481FAA2F10C14002869
:1012F0000DBF2F48C1154FF4803270BD19E080EA50
:101300004003B3FA83F303F01F03012B13DA002821
:10131000B8BF4FF00040C8BF6FF000400BD080FA5C
:1013200080F04FEA044182FAA1F14FEA21444FEAEA
:10133000E05129B902E04FEA4000F2E70028DED18F
:10134000C0F3160080EA4003B3FA83F3C2EB014214
:1013500003F01F034FEA2245082B26DA28B36FF06B
:10136000004080FA80F0134E36F8112036F8151040
:101370001204090481FAA2F1091400F01DF8011405
:1013800040F6A21014FB00F036F9152040F39C0043
:1013900092101204000480FA82F0001489100004F4
:1013A000090481FA80F0001470BD0002DBE7000040
:1013B0000180FFFF58110400C0F34E0211FB02F23E
:1013C00082FA82F2D21311FB10F080FA92F0704789
:1013D000002808BF704770B50C461D461146FFF740
:1013E0007FFF00281CBF400000F30F00604380FA1D
:1013F00080F02946BDE87040001403F0BFBD000036
:1014000010B5224A4FF41661214C1180214B4FF048
:10141000B40CA4F800C051221A801F4B36221A8047
:101420001E4A1F4BB2F90020082A02D0062A04D017
:1014300007E00B225A80072202E00E225A8009227E
:101440009A80B1F5166F07BFA4F800C099884FF4D1
:101450000771218018BF5988198060B1012810D008
:10146000022818BF10BD03F0E9FA02F0E7FFBDE85B
:10147000104003F045B802F0E1FFBDE8104003F072
:10148000DDBABDE8104003F03BB8000024010020A5
:1014900026010020280100202A010020220100202E
:1014A0003A01002030B4002300290EDD4FF0010C7A
:1014B00030F8134022F823400CEB430530F813407A
:1014C00022F815405B1C8B42F2DB30BC7047704742
:1014D0002DE9F843324CD4F80C01002808BFBDE8D0
:1014E000F8830021C4F80C112E4D287801283FD034
:1014F000022818BFBDE8F8832B48006801250028A2
:1015000033D02A4800682A4F87F8420029480068EB
:10151000C7F843003E78BA1C701E81B200204B1EF3
:101520009BB228BF4FF08C0C10D312F8011B48401F
:10153000002110F0010F14BF8CEA50004008491C34
:10154000C9B20829F5D35B1E9BB2EED21A49715C71
:1015500088420AD17878C0F34100032804BFB878E4
:10156000CA2802D1124800F089F8A560BDE8F883C6
:101570000220009100F09EF86946E86807F09CFFA1
:101580000098002808BFBDE8F8834FF080500B4951
:10159000086040BFBFF34F8FBFF36F8FBDE8F88384
:1015A00000100040040000200014004048150040D6
:1015B000000200200C1400400102002004ED00E0B5
:1015C00038B5154CD4F840010025C0B1C4F84051DD
:1015D0000095D4F8400500F58040C4F840050F4858
:1015E0006946006807F068FF009840B10C494FF069
:1015F0008050086040BFBFF34F8FBFF36F8FD4F8A8
:101600000401002818BFC4F80451D4F800010028D0
:1016100018BFC4F8005138BD00B0004038000020A9
:1016200004ED00E0104881B00168002904BF01B05A
:1016300070470022026000680C4B00901220C3F833
:1016400008030220C3F80403DFF828C00849CCF8D7
:1016500000100CF104010860074802600068009067
:101660000120186001B07047047100400070004014
:101670003C0000202C7600400071004008B500229C
:1016800000920146094800236A46006807F0D6FE2A
:101690000098002808D006494FF08050086040BFED
:1016A000BFF34F8FBFF36F8F08BD00001C000020F9
:1016B00004ED00E013490023C1F810314FF0010C94
:1016C000C1F810C0D1F81021002AFBD0C1F81031A8
:1016D000D1F8002242F01002C1F80022D1F8002215
:1016E00042F48072C1F80022074A1360074A106072
:1016F000121F07481060C1F804C006490220087094
:1017000070470000001000402C15004008150040F4
:1017100000020020040000200E4901220A600E4948
:101720000023C1F810310A61D1F81021002AFBD042
:10173000C1F8103109490B604FF0E0210222C1F8D5
:101740008022C1F88021BFF34F8FBFF36F8F02F06B
:1017500061B8000008F5014000100040FC1F004087
:1017600030B4002300290EDD4FF0010C0CEB4305D3
:1017700030F9234030F915502C44641022F81340FE
:101780005B1C8B42F2DB30BC7047000010B5EFF3FE
:101790001184202080F3118806480168491C0160EB
:1017A00008F0F4F8012801D007F020FDE0B280F342
:1017B000118810BD0000002016480068C0F3022008
:1017C000C0F10701032900D90321C21C072A01D255
:1017D000002000E0001F012202FA01F1491E01FA77
:1017E00000F000230C4A400182F8140D0B484FF41E
:1017F0007A710068B0FBF1F0401EB0F1807F08D232
:101800004FF0E0214861E02082F8140D8B61072041
:10181000086170470CED00E00FE000E0FC010020E3
:1018200002490148086070470090D003FC01002085
:1018300070B5724C206840F080702060704801687C
:1018400041F4803101606F4840F20131016001F0E4
:10185000C9FE4FF0805528B1B5F824036A49C0F39A
:101860000420086001F002FF10B169496748486729
:1018700001F024FF28B1D5F844026649C0F3423094
:10188000086001F03DFF18B1206820F080702060F2
:1018900001F050FF002420B15F48046044605F48BD
:1018A000046001F069FF10B15D490320086001F098
:1018B0007DFF012648B15B49052008605A48066053
:1018C0005A480460091D3F20086001F089FF002884
:1018D00043D0574800685749086057480068091DB9
:1018E00008605648016856480160564800685649E5
:1018F00008605648016856480160564800685649D5
:101900000860564800685649086056480068091D36
:10191000086055480068091D086054480068091DA2
:10192000086053480068091D086052480068091D96
:101930000860514800685149086051480068091D15
:10194000086050480068091D08604F480068091D7C
:1019500008604E480068091D086001F021FE28B1AA
:10196000D5F8580200F04F014948016001F05CFED3
:1019700038B14848016811F0010F02D06FF0010141
:10198000016001F08DFE20B14348016841F480619F
:1019900001604248016841F470010160BFF34F8F5C
:1019A000BFF36F8F4FF01022D2F80C0210F0010F2E
:1019B0001FD03B4B1E603B4801680029FCD0D2F889
:1019C0000C1221F00101C2F80C1201680029FCD0B0
:1019D0001C6001680029FCD0BFF34F8F32480168BA
:1019E000324A01F4E06111430160BFF34F8F00BF41
:1019F000FDE7BDE87040FFF713BF0000FCED00E01D
:101A00005C05004048070050403501400DF0ADBA7C
:101A100000C007403C0500400C0100403805004074
:101A2000A00500401056004088560040185600405F
:101A30000404001020C50040080400100C0400102D
:101A400028C50040100400102CC5004014040010EC
:101A500030C500401804001034C500401C040010BC
:101A600040C5004020040010240400102804001089
:101A70002C040010300400103404001060C5004035
:101A8000380400103C04001040040010440400100E
:101A9000E40E0040000400403C17004088ED00E0E8
:101AA00004E5014000E401400CED00E00400FA050B
:101AB0004FF080400021C0F8001101210160D0F8F2
:101AC00000110029FBD0FFF777BE0000F8B52548CC
:101AD00000250095C0F8085123480068DFF88CC045
:101AE000C0B29CF80030012B08BFF8BD13F0800F86
:101AF0001E491F4C4A7802F10101C9B220D00A28C0
:101B000005D08CF80050A0548CF80110F8BDA054FA
:101B10008CF8011001208CF800006946DCF8040004
:101B200007F0CAFC0098002808BFF8BD4FF08050AD
:101B30001049086040BFBFF34F8FBFF36F8FF8BDF0
:101B40000D2807D0A0548CF80110632928BF8CF809
:101B50000150F8BD43F080038CF80030A0548CF89D
:101B60000110F8BD00200040182500403000002082
:101B70008E02002004ED00E0FEE700000FB4084BE9
:101B800010B504A902AA039800F01CF8044602A9A3
:101B9000002000F0B8F9204610BC5DF814FB0000EE
:101BA000071F000002E008C8121F08C1002AFAD16E
:101BB00070477047002001E001C1121F002AFBD1CD
:101BC000704700002DE9FF4F8BB088460546002680
:101BD00006E025280BD0DDE90D1290476D1C761C20
:101BE00028780028F5D10FB03046BDE8F08F0024EA
:101BF000A146A2460122AE4900E0044315F8013F88
:101C0000203B02FA03F00842F7D128782A2810D0A6
:101C10006FF02F022878A0F13001092915D809EBBF
:101C2000890102EB410144F0020400EB01096D1C43
:101C3000F0E758F8041B5FEA010903D544F40054A7
:101C4000C9F1000944F002046D1C28782E2817D130
:101C500015F8010F44F004042A280ED06FF02F026B
:101C60002878A0F1300109290AD80AEB8A0102EB91
:101C7000410100EB010A6D1CF2E758F804AB6D1C42
:101C800028786C280FD006DC4C2817D068280DD097
:101C90006A2814D104E0742810D07A280FD10DE0FE
:101CA00044F400140AE044F4801401E044F44014C5
:101CB0006978814202D104F580146D1C6D1C28786E
:101CC000692865D006DC00288DD0632827D06428D9
:101CD00006D15DE06E2808D073282AD0752877D009
:101CE000DDE90D129047761CE0E0C4F302500228B3
:101CF00009D003280DD0D8F8001004280DD00E60AC
:101D000008F10408D2E0D8F80010F217C1E9006227
:101D1000F6E7D8F800100E80F2E70E70F0E718F83A
:101D2000041B8DF8001000208DF80100EB46012007
:101D300003E058F804BB4FF0FF3061074FF0000795
:101D400001D40AE07F1C57450DDA8742FADB1BF805
:101D500007100029F6D106E07F1C8742FCDB1BF848
:101D600007100029F8D1DDE90D23A9EB0700814612
:101D7000214600F0B1F83044C61904E0DDE90D1247
:101D80001BF8010B90477F1EF8D22146484688E099
:101D900058F8040BC4F302514FF00A0B032900D189
:101DA00000B2042900D140B2002802DA40422D21BD
:101DB00002E0210505D52B218DF82410012104E036
:101DC00006E0E10710D02021F6E708AF089113E004
:101DD00058F8040BC4F302514FF00A0B032900D149
:101DE00080B2042900D1C0B20021EEE75946FEF7C7
:101DF00049FF303107F8011D0028F7D1ADEB07008E
:101E000000F1200B600702D524F4803401E04FF08C
:101E1000010ADA4502DDAAEB0B0000E00020824651
:101E200000EB0B0108980144A9EB01000A90E003C4
:101E300006D4DDE90D2321460A9800F04DF806444A
:101E40004FF0000908E009A911F80900DDE90D12B9
:101E5000904709F10109761C08998945F3DBE003F5
:101E60000CD5DDE90D2321460A9800F035F806442B
:101E700004E0DDE90D1230209047761CBAF1000134
:101E8000AAF1010AF5DC05E0DDE90D1217F8010BF6
:101E90009047761CBBF10001ABF1010BF4DC0A9812
:101EA0002146DDE90D2300F005F806446D1C97E698
:101EB000092801002DE9F041044600251E46174679
:101EC000880404D405E039462020B0476D1C641E08
:101ED000F9D52846BDE8F0812DE9F04104460025FA
:101EE0001E469046C80301D5302700E0202788040D
:101EF00004D505E041463846B0476D1C641EF9D54F
:101F00002846BDE8F0810A68531C0B6010707047CA
:101F100038B5054602F0E4F9044602F0C5F900EED2
:101F2000104ADFED190AB8EE400A20EE200ADFED74
:101F3000170A20EE200ADFED160A20EE200ABCEE7A
:101F4000C00A10EE100AC3B20021124A124C12F855
:101F50001100984203D302EB410040786070481CA6
:101F6000C1B20829F3D3207848B900200346009075
:101F700064220421284607F035FF01202070BDE8C7
:101F8000384000F00BB800006666664000008039FB
:101F90000000C842B0190400A0010020014901203E
:101FA000086070470470004010B54FF0A04401284D
:101FB00034D0022824D0032814D0042804D04FF4AD
:101FC0008000C4F80C0510BD4FF48000C4F808056B
:101FD000022002F035FE4FF48000C4F80C05022008
:101FE00002F02EFE4FF48000C4F80805022002F033
:101FF00027FE4FF48000C4F80C05022002F020FEFA
:102000004FF48000C4F80805022002F019FE4FF4D6
:102010008000C4F80C05022002F012FE4FF480008C
:10202000C4F8080510BD00002DE9FF4F0026DFF8B9
:1020300004B483B03446ABF6184A3746FE4830F84D
:10204000140010FB00F080FA80F0021446F2666083
:102050008242C8BF46F26662F848110481FAA0F0D5
:10206000F74931F9141010FB21F080FA80F0DFF805
:10207000D4833AF814C038F914304FEA0C4C1D04DC
:102080008CFAA5FC4FEA2C4C3BF81450BCF1000F25
:1020900012FB05F523DD85FA85F5BCF13F0FC8BFBE
:1020A0004FF03F0C45FA0CFC80FA8CF92AF81430FA
:1020B000B9F1010FB8BF4FF0010989EA490EBEFA24
:1020C0008EFC0CF01F0CBCF1000516DC15F13F0F67
:1020D000B8BF6FF03E056D4249FA05F51EE085FA7E
:1020E00085F51CF13F0FB8BF6FF03E0CCCF1000C32
:1020F00040FA0CFC8CFA85F9DAE7BEFA8EFE0EF097
:102100001F0E75454ADDB9F1000FB8BF4FF000450D
:10211000C8BF6FF0004541D085FA85F54FEA2545E7
:102120002BF814503AF814504FEA0C4C4FEA05457E
:102130008CFAA5FC4FEA2C4C2AF814C0002B16BFD1
:102140005B003B4603F30F039C46DFF8FC924FEA2B
:102150000C4C39F814301B0483FAACF31D1409F647
:102160001843002D33F8143012FB03F219DD82FA04
:1021700082F23F2DC8BF3F2542FA05F5FFF71CF953
:1021800080FA85F1AF4830F91400002816BF4000EE
:10219000384600F30F0029F814000FE009FA0CF597
:1021A000BCE782FA82F8FFF707F915F13F0FB8BFD5
:1021B0006FF03E056942084180FA88F10129B8BFF5
:1021C000012181EA4103B3FA83F000F01F02101EDF
:1021D00007DC10F13F0FB8BF6FF03E0040420141F5
:1021E0000FE0B3FA83F303F01F0398424DDD00299B
:1021F000B8BF4FF00040C8BF6FF0004045D080FA34
:1022000080F192484FEA21414FEA024220F814102F
:1022100039F814004FEA004082FAA0F04FEA204259
:1022200029F814203BF8140010FB00F080FA80F32A
:102230003AF914C0BCF1000F16BF4FEA4C00384603
:1022400000F30F001504000480FAA5F00014002824
:102250004FEA01411BDD3F28C8BF3F2043FA00F091
:1022600080FAA1F181EA410CBCFA8CF0C006C30AE5
:10227000A3F580300314181E1CDC10F13F0FB8BF0B
:102280006FF03E004042014126E09140B9E710F175
:102290003F0FB8BF6FF03E00404241FA00F083FAB2
:1022A000A0F1BCF1000F16BF4FEA4C003A4600F314
:1022B0000F02D7E7BCFA8CFC0CF01F0C604540F312
:1022C00021810029B8BF4FF00040C8BF6FF0004027
:1022D00000F0188180FA80F14FEA21404FEA024174
:1022E0004FEA034282FAA1F1594A4FEA21414FEAEB
:1022F000014132F814204FEA024282FAA1F14FEA7A
:10230000214554494FEAC03031F9141090FBF1F0E7
:10231000B0F5004FACBF47F6FF7000B2DFF8388170
:1023200000234FF4804228F81400294600F00AFDEB
:102330000028C4BF4FF4804028F814000DDC38F9A1
:102340001400002D74DD002872D00F2DC8BF102599
:10235000A84000F30F0028F8140038F914000028F2
:10236000B8BF28F8147038F9140080FA86F6601C9B
:1023700004B2812CFFF662AE86EA4601B1FA81F121
:1023800001F01F01012954DA002EB8BF4FF00040C0
:10239000C8BF6FF000404CD080FA80F0DFF8B890F2
:1023A000B9F9001081FAA0F0B9F9001181FAA0F092
:1023B0004FEA2020294900B20028C883B8BFCF8344
:1023C000B1F91E0005F018F900EB400040F3CF0012
:1023D0004FF00051000480FA81F0071444F28900A4
:1023E00017FB00F080FA80F080EA4002B2FA82F235
:1023F00002F01F02012A7CDA0028B8BF4FF000402B
:10240000C8BF6FF0004074D080FA80F04FEA2040DF
:10241000019044F6D30017FB00F080FA80F080EAC8
:102420004002B2FA82F202F01F02012A79DA17E0C2
:102430006AE072E066D400206ED800200000FF7FC2
:1024400064D3002048C5002050C9002068D5002072
:102450004CC700206CD7002062D200204001002031
:102460000028B8BF4FF00040C8BF6FF0004058D000
:1024700080FA80F04FEA2040DFF8C8814FF0000476
:102480000090714830F8141017FB01F080FA80F6C4
:1024900039F9145015FB01F080FA80FA4FEA650013
:1024A0006A494FEA004080FA81F015FB10F080FA8B
:1024B00080F04FEA604066494FEA004080FA81F0C0
:1024C0004FEA204B50460199FEF776FF5946FEF73A
:1024D00073FFB111401080FA81F00128B8BF0120CC
:1024E00080EA4003B3FA83F101F01F02111E1ADCE7
:1024F00000E014E011F13F0FB8BF6FF03E01494218
:10250000084120E09940E7E615F13F0FB8BF6FF0B2
:102510003E05694208411EE703E070003EE74000C7
:1025200074E74000A6E7B3FA83F303F01F03994270
:1025300053DD0028B8BF4FF00040C8BF6FF0004027
:102540004BD080FA80F003994FEA20404FEA0242D4
:1025500021F8140038F81410C2F500204FEA20408A
:102560004FEA01414FEA004080FA81F04FEA2041F2
:10257000049820F814104FEAA50036494FEA0040AD
:1025800080FA81F015FB10F080FA80F04FEA60408D
:1025900031494FEA004080FA81F04FEA2045504629
:1025A0000099FEF709FF2946FEF706FF311140109A
:1025B00080FA81F10129B8BF012181EA4103B3FA10
:1025C00083F000F01F02101E09DC10F13F0FB8BFAE
:1025D0006FF03E004042014111E09040B3E7B3FA92
:1025E00083F303F01F0398422ADD0029B8BF4FF0A0
:1025F0000040C8BF6FF0004022D080FA80F14FEA5F
:10260000214005994FEA024221F8140038F81410CD
:10261000C2F5C0204FEA20404FEA01414FEA004096
:1026200080FA81F04FEA2041069820F8141004F156
:10263000010004B2812CFFF624AF07B0BDE8F08F93
:102640009140DCE748C5002064D300200000574CCF
:102650000000882D000090360000852E2DE9F84FEF
:10266000634B644ED3E90301D3E90124D3F814C0CA
:102670001D68022333600723361D33605E4B6FF005
:102680000046C3F808635D4E4FF0000AC6F800A08C
:102690003668DFF86C910096C9F800A0D9F80060A0
:1026A0000096584E3668C6F30226C6F10707032F78
:1026B00088BF032706F10308B8F1070F34BF0026CF
:1026C000361F4FF0010808FA07F77F1E07F00307CF
:1026D00007FA06F64C4F760187F800648026FF1F44
:1026E000C7F880628437FE670226C3F80463474E4A
:1026F000C6F80080C5F3072A302606EA0A1605F058
:1027000003073E43C5F307474FF4E06A0AEA072789
:102710003E432F0E4FF4805505EA07353543D6B2B8
:102720004FF4E02E0EEA06463543C2F307264FF477
:10273000801B0BEA06562E43170C4FF0807505EAF6
:1027400007673E43324F3E60120EE4B20027C3F8E3
:102750001445C3F81025C0F30726302200F0030407
:1027600002EA06122243C0F307440AEA0424224381
:10277000040E281300EA04301043CAB20EEA0242E3
:102780001043C1F307220BEA025210430A0C05EA78
:10279000026210431F4A10601F4A080E0CF0FF012E
:1027A000C2F81415C2F810051220C3F8080302205D
:1027B000C3F8040319480021016001680091012158
:1027C000121F116001680029FCD0164A144902202A
:1027D0001160111D0860C9F80070D9F80000009060
:1027E000C3F800801048C0F80080BDE8F88F0000F2
:1027F000409E0000F07500400070004004710040F1
:10280000007100400CED00E007E000E000750040C2
:10281000187500402875004010700040107100408D
:102820003C0000202C760040047000402DE9F04F61
:1028300087B000220092821E0026002916BF4B009E
:10284000334603F30F034FF0010C6546012B16DCF2
:102850002CE0AC4513DD32F81C4032F8157022F83C
:102860001C7022F8154002EB4C0402EB4507B4F84B
:102870000280B7F80290A4F80290A7F802800C46F4
:1028800005E0270487FAACFC4FEA2C4C6410022CBC
:10289000A8BFA4454FEA0C4CF3DC240484FA8CFC5A
:1028A000AC1C25B24FEA2C4CAB42D2DC00254FF0D9
:1028B000010C012B31DB32F91C40271EBCBFD6FABC
:1028C00017F424B24FEA0548240484FAA8F4241427
:1028D00005D53C0044BFD6FA17F424B225460CF1C6
:1028E000010C0FFA8CFC6345E5DAB5F5804F14DB7B
:1028F000DDF800C0012B0CF1010CCDF800C04FF049
:10290000010C0ADB32F91C40641022F81C400CF167
:10291000010C0FFA8CFC6345F4DA4FF0000C002B2D
:1029200028DD00EB4C0530F81C40AF88B5F802906C
:10293000B5F8068024043F0487FA84FA4FEA2A4A4D
:1029400020F81CA087FAA4F42414AC804FEA0944B0
:102950004FEA084787FA84F84FEA2848A5F802802A
:1029600087FAA4F424140CF1040C0FFA8CFCEC800C
:102970006345D6DC00254FF0010C012B31DB32F929
:102980001C703C0044BFD6FA17F424B24FEA054845
:10299000240484FAA8F4241405D53C0044BFD6FAD4
:1029A00017F424B225460CF1010C0FFA8CFC634598
:1029B000E5DAB5F5804F14DBDDF800C0012B0CF132
:1029C000010CCDF800C04FF0010C0ADB32F91C40BD
:1029D000641022F81C400CF1010C0FFA8CFC6345CA
:1029E000F4DA0025002B4FDD00EB450C30F81540E4
:1029F000BCF80870BCF80290BCF80A8024043F04BC
:102A000087FA84FA4FEA2A4A20F815A087FAA4F434
:102A10002414ACF808404FEA09444FEA084787FA03
:102A200084F84FEA2848ACF8028087FAA4F424140A
:102A3000ACF80A40BCF80440BCF80E70BCF80C803E
:102A4000BCF8069024043F0487FA84FA4FEA2A4A25
:102A5000ACF804A087FAA4F42414ACF80C404FEAB4
:102A600009444FEA084787FAA4F84FEA2848ACF827
:102A7000068087FA84F42414ACF80E4005F1080CA3
:102A80000FFA8CF5AB42AFDC0820019048100290A1
:102A9000082B40F31D8101204FF0000C012BA8BF33
:102AA00000253EDB32F910100C1EBCBFD5FA14F124
:102AB00009B24FEA0C46090481FAA6F1091405D5BA
:102AC000210044BFD5FA14F109B28C46401C00B273
:102AD0008342E7DABCF5804F10DB0098801C00B21F
:102AE00000900120012B1CDB32F91010891022F814
:102AF0001010401C00B28342F6DA12E0BCF5005F11
:102B00000FDB0098401C00B200900120012B08DB75
:102B100032F91010491022F81010401C00B2834204
:102B2000F6DA019800281CBF400000F30F000027D0
:102B30000390029847F6FF764010029001983D46B8
:102B40004FF0010801287DDD000406900398000481
:102B500005900298000404904046984573DC06995D
:102B60004FEA004E81FA8EF1091432F911A006FBEA
:102B70000AFC8CFA8CF902EB4104B4F902C005FBA3
:102B80000CFC8CFA8CFC8CFA89F94FF4C07BBBFAF4
:102B90008BFB0BF01F0BBBF1080FB6BF6FF0004CA7
:102BA0004FF4004C8CFA8CFC8CFA89FC4FEA2C4CCC
:102BB0008CEA4C0BBBFA8BFB0BF01F0BBBF1100F1D
:102BC0000BDABCF1000FB8BF4FF0004CC8BF6FF07C
:102BD000004C02D08CFA8CFC01E04FEA0C4C32F82D
:102BE00010904FEA09498CFA89FB4FEA2B4B22F8E7
:102BF00010B08CFAA9FC4FEA2C4C22F811C005FB4E
:102C00000AF181FA81FCB4F9021006FB01F181FAA4
:102C100081F181FAACFC4FF4C079B9FA89F909F075
:102C20001F09B9F1080FB6BF6FF000414FF4004122
:102C300081FA81F181FA8CF1091481EA4109B9FA2A
:102C400089F901E03FE02AE009F01F09B9F1100F0E
:102C50000ADA0029B8BF4FF00041C8BF6FF0004149
:102C600002D081FA81F101E04FEA014102EB400C10
:102C7000BCF802004FEA004081FAA0F94FEA294966
:102C8000ACF8029081FA80F04FEA2040608005980D
:102C900080FA8EF04FEA204098427FF760AF0498A8
:102CA000390480FA81F007140B4830F9176000F5F9
:102CB000007030F9175008F102000FFA80F80198FF
:102CC0008045FFF649AF039801909842FFF6E3AEC6
:102CD000009807B0BDE8F08F68A5002015A084B06B
:102CE0000FC88DE80F004FF0A0410020D1F810254B
:102CF000920912F0010F08BF0120D1F81025520AE5
:102D000012F0010F08BF40F00200D1F81025120A9E
:102D100012F0010F08BF40F00400D1F81015C909E6
:102D200011F0010F08BF40F008001DF8000004B0CA
:102D30007047000000010706030204050F0E080992
:102D40000C0D0B0A002804DD002ABCBF01207047CF
:102D500005E018BF002AC4BF4FF0FF3070470904D8
:102D60001B0483FAA1F10914002909DD3F29C8BF1A
:102D70003F210A410004110481FAA0F000147047B9
:102D800011F13F0FB8BF6FF03E0149420841F1E732
:102D900030B4002214460028BCBFD4FA10F000B2B0
:102DA000B0F5804F06DD1E49000480FAA1F0001442
:102DB0004FF0FF32C1110B0403F580331D1480293D
:102DC00002BF002030BC7047002916BFCB01A446CB
:102DD00003F30F0C00044FEA0C4383FAA0F0001435
:102DE00016BF0002234600F30F03DFF838C03CF89B
:102DF00015003CF811100004090481FAA0F0001439
:102E0000584380FA80F00014000480FA81F0001426
:102E1000002A1CBFD4FA10F000B230BC704700008A
:102E20000000FF7F6E160400FEF7B2B92DE9F05FD7
:102E3000FE4A4FF48073FE49104605F04BFF012215
:102E40000020FA4E044636F910100029BCBFD4FA0F
:102E500011F109B29142C8BF0A46401C00B2B0F558
:102E6000807FF0DB82EA4240B0FA80F000F00F0988
:102E70004FEA0941C1F570204FEA204840F2022193
:102E8000EC4805F0A6FEEB4F0020B9F1000536F93D
:102E9000101061DD00295FD00F2DC8BF1025A9409B
:102EA00001F30F0127F82010401C00B2B0F5807F1D
:102EB000EBDB0121DF4800F03BFD398811FB01F11C
:102EC00081FA81F1DFF870C34910CCE90014B7F83A
:102ED000001211FB01F181FA81F14910CCF8044490
:102EE000CCF8001402210CEB8102546037F8112059
:102EF00012FB02F282FA82F307EB4102528812FBC4
:102F000002F282FA82F282FA83F252104CF8212005
:102F1000891C09B2FF29E6DBDCF8002001215CF8FE
:102F200021309342C8BF1A46491C09B2B1F5807FCF
:102F3000F5DD82EA4201B1FA81F101F01F050022BC
:102F4000291E5CF822300FDC11F13F0FB8BF6FF083
:102F50003E0149420B411BE015F13F0FB8BF6FF036
:102F60003E056A4211419DE783EA4309B9FA89F9AE
:102F700009F01F09494540F30881002BB8BF4FF005
:102F80000041C8BF6FF0004100F0FF8081FA81F37B
:102F90004FEA234127F8121002F101010AB2B2F5FB
:102FA000807FCDDD4FEA0841000480FA81F00014F3
:102FB00016BF4000204600F30F00290401F5E02170
:102FC00009140004090481FAA0F00514002041420C
:102FD00007EB810107EB8002B1F8FC31A2F8043263
:102FE000B1F9FE11D4FA11F1401C00B2A2F8061298
:102FF0007F28ECDB4FF0FF318E4800F099FC29046C
:10300000000480FA81F0001400044FF4002181FADA
:10301000A0F04FEA204C002037F8201026F81010BE
:10302000401C00B2B0F5807FF6DB0022104636F976
:1030300010100029BCBFD4FA11F109B29142C8BFE7
:103040000A46401C00B2B0F5807FF0DB82EA4240C5
:10305000B0FA80F000F00F034FEA0C40190481FA37
:10306000A0F005140021181E36F911207DDD002A7C
:103070007BD00F28C8BF102002FA00F000F30F0227
:1030800026F81120481C01B2B1F5807FEBDB674ABE
:10309000DFF8A8C1012032F810303CF8101013FB03
:1030A00001F181FA81F1091422F81010401C00B2DC
:1030B0002028F0DBE120C0F5807132F810303CF8B8
:1030C000111013FB01F181FA81F1091422F810109B
:1030D000401C00B2B0F5807FEDDBC12102F1400061
:1030E00005F077FD40F20221524805F072FD002004
:1030F00036F8101027F82010401C00B2B0F5807F81
:10310000F6DB01214B4800F013FC002137F91120B8
:10311000002AB8BF27F81140891C09B2B1F5007F19
:10312000F4DD2904000480FA81F04FEA204C38884D
:10313000B52110FB01F0400080EA4002B2FA82F2B1
:1031400002F01F02072A2ADA0028B8BF4FF0004019
:10315000C8BF6FF0004022D080FA80F04FF002012B
:1031600081FA80F181EA410200E010E0B2FA82F0D7
:1031700000F01F03181E14DC10F13F0FB8BF6FF0F2
:103180003E00404241FA00F21BE0AB4000E710F184
:103190003F0FB8BF6FF03E004042024170E7C001F0
:1031A000DCE7B2FA82F202F01F02904260DD0029F1
:1031B000B8BF4FF00040C8BF6FF0004058D080FA51
:1031C00080F2DFF87C904FEA22404FF48035A9F876
:1031D0000000A5EB03404FEA20404FEA0C484FEABD
:1031E000004080FA88F009F581764FEA204030806F
:1031F0004FEA2122B7F800024FF0B50110FB01F0B1
:103200004FEA400080EA4003B3FA83F303F01F0360
:10321000072B30DA0028B8BF4FF00040C8BF6FF06E
:10322000004028D080FA80F00CE0000090E90020F7
:103230007017040090ED002094F100207019040034
:1032400040C100204FF0020181FA80F181EA410380
:10325000B3FA83F000F01F00B0F1000C0DDC10F1A8
:103260003F0FB8BF6FF03E00404241FA00F314E058
:1032700001FA03F2A5E7C001D6E7B3FA83F303F03E
:103280001F0398424DDD0029B8BF4FF00040C8BF72
:103290006FF0004045D080FA80F34FEA2340A9F850
:1032A0000001A5EB0C404FEA20404FEA004080FAB5
:1032B00088F04FEA204002EB212CA6F800014FF0E5
:1032C00001014FF0B50237F8210010FB02F04FEA80
:1032D000400080EA4003B3FA83F303F01F03072B97
:1032E00022DA0028B8BF4FF00040C8BF6FF000409E
:1032F0001AD080FA80F04FF0020282FA80F282EA5D
:103300004203B3FA83F000F01F00B0F1000A0DDCB5
:1033100010F13F0FB8BF6FF03E00404242FA00F399
:1033200014E001FA0CF3B8E7C001E4E7B3FA83F361
:1033300003F01F03984233DD002AB8BF4FF000406E
:10334000C8BF6FF000402BD080FA80F34FEA2340D3
:1033500029F81100A5EB0A404FEA20404FEA00404F
:1033600080FA88F04FEA204026F811004FEAE21078
:1033700080FA8CFC01F1010001B28029A1DB8CEA0A
:103380004C01B1FA81F000F01F02101E0BDC10F1AD
:103390003F0FB8BF6FF03E0040424CFA00F113E01F
:1033A00002FA0AF3D2E7B1FA81F101F01F01884273
:1033B0007EDDBCF1000FB8BF4FF00040C8BF6FF01A
:1033C000004075D080FA80F16E4F4FEA214078833B
:1033D00085FA88F14FEA21414FEA01414FEA024262
:1033E00082FAA1F1684A4FEA214192FBF0F0B983D9
:1033F000B0F5004FACBF47F6FF7000B2F8824FF453
:10340000B010090481FAA0F00014388381225F49CA
:103410005F4805F0C8FB812245F682215C4805F033
:10342000CDFBDFF870A14FF000080AF5016B08EB47
:10343000C8190AEB49008122554905F0B4FB0BEB92
:1034400049008122544905F0AEFB08F101000FFA52
:1034500080F8B8F1080FEADB4F49812201F206300B
:1034600005F0A1FB4A498122A1F6121005F09BFB51
:103470004949812201F6121005F095FB4449812249
:10348000A1F20E7005F08FFB4349812201F6163040
:1034900005F089FB3E49812201F2063005F083FBED
:1034A0003D49812201F5816005F07DFB002000E0AF
:1034B00031E0DFF8DC9009F5817E09F5017AA9F6A3
:1034C000142B39F8101044F6626211FB02F282FAF2
:1034D00082F212142EF8102036F910C04FEA0C4276
:1034E00085FA82F22D4B121423F8102011FB01F102
:1034F00081FA81F282EA4208B8FA88F101F01F03EA
:10350000191E0BDC11F13F0FB8BF6FF03E014942AD
:1035100042FA01F112E00CFA02F155E7B8FA88F824
:1035200008F01F08414529DD002AB8BF4FF00041CF
:10353000C8BF6FF0004121D081FA81F14FEA2141EB
:103540002AF81010BCF1000F16BF4FEA4C012146BB
:1035500001F30F010A46C5EB0341091412040904E3
:1035600081FAA2F109142BF81010401C00B2812836
:10357000A7DB47F233303884BDE8F09F02FA03F14D
:10358000DCE700004001002000009C1C40C100203E
:1035900064D3002070D9002042C200204EC8002011
:1035A0000D48007806280ED10C48007810F00F0F57
:1035B00009D10B48007800F0F000302805D04028F1
:1035C00005D0502805D00020704701207047012009
:1035D0007047012070470000E00F00F0E40F00F09A
:1035E000E80F00F00D48007806280ED10C4800784E
:1035F00010F00F0F09D10B48007800F0F0003028D0
:1036000005D0402805D0502805D000207047012063
:10361000704701207047012070470000E00F00F064
:10362000E40F00F0E80F00F00D48007806280ED1F6
:103630000C48007810F00F0F09D10B48007800F00B
:10364000F000302805D0402805D0502805D00020B3
:10365000704701207047012070470120704700002B
:10366000E00F00F0E40F00F0E80F00F009480078E8
:1036700006280AD10848007810F00F0F05D1074836
:10368000007800F0F000302801D0002070470120C1
:1036900070470000E00F00F0E40F00F0E80F00F0CA
:1036A0004FF08050D0F83011062903D1D0F8340102
:1036B000062801D000207047012070470D4800788F
:1036C00006280ED10C48007810F00F0F09D10B48D6
:1036D000007800F0F000302805D0402805D05028B0
:1036E00005D000207047012070470120704701205D
:1036F00070470000E00F00F0E40F00F0E80F00F06A
:103700000948007806280AD10848007810F00F0F01
:1037100005D10748007800F0F000302801D00020E3
:103720007047012070470000E00F00F0E40F00F048
:10373000E80F00F00D48007806280ED10C480078FC
:1037400010F00F0F09D10B48007800F0F00030287E
:1037500005D0402805D0502805D000207047012012
:10376000704701207047012070470000E00F00F013
:10377000E40F00F0E80F00F00948007806280AD1AD
:103780000848007810F00F0F05D10748007800F0C6
:10379000F000302801D00020704701207047000061
:1037A000E00F00F0E40F00F0E80F00F009480078A7
:1037B00006280AD10848007810F00F0F05D10748F5
:1037C000007800F0F000302801D000207047012080
:1037D00070470000E00F00F0E40F00F0E80F00F089
:1037E0000948007806280AD10848007810F00F0F21
:1037F00005D10748007800F0F000502801D00020E3
:103800007047012070470000E00F00F0E40F00F067
:10381000E80F00F0F0B4364901240C60354A042169
:103820001160111D4FF0020CC1F800C0111F08609B
:1038300008600025304A2946431C1560CF0003FA72
:1038400007F71668491C3E43C9B216600429F5D330
:103850000021401C5560CD0000FA05F55368491C55
:103860002B43C9B253600429F5D324490E60091DC6
:1038700050680860091D90680860091DD0680860DC
:103880001F490320086020491E480860091D1F4881
:1038900008601F48C0F800C01E494FF6FF7008605E
:1038A000091F1D4808601D480821C0F80413C0F80E
:1038B0000042D0F8001241F01001C0F80012D0F818
:1038C000001241F48071C0F80012154A802182F87C
:1038D0000014511EC1F880C2C1F800C1124A11493A
:1038E00011604460114880F800C0F0BC70470000CF
:1038F000FC1F00400C150040200000201C1500405B
:103900003015004008000300141500404000040179
:10391000341500403C15004021100100001000400B
:1039200001E000E000020020041500400400002037
:1039300030B50D4604464FF48071FEF777FF84469C
:10394000002DB8BF012115DAC1F5807034F82120AF
:1039500034F8203024F8213024F8202004EB8102B0
:1039600004EB80005388458855804380481C01B291
:103970008029E9DB604630BD0B4601461846FCF75E
:1039800003BF00002DE9F0471D480221B0FA80F086
:1039900000F00F004FF48076002829DC10F13F0F73
:1039A000B8BF6FF03E00404221FA00F00025DFF87A
:1039B00054902C4609F5007AA6F101080704284620
:1039C000FFF7E6F929F81400284603F001FA2AF86F
:1039D0001400444508BF47F6FF7503D0280487FA52
:1039E00080F00514601C04B2B442E8DBBDE8F08747
:1039F0000F28C8BF102001FA00F000F30F00D5E730
:103A00000001000268A5002010B501F067FA01F07E
:103A10004FFA01F05BF9BDE81040002004F082BFCE
:103A20002DE9FF5F00240E9E98460D46002ECEBF66
:103A300047F6FF7704B0BDE8F09F0098FF4930F8E3
:103A40001400000480FAA1F0011481EA4140B0FAA8
:103A500080F000F00F02101E4FDD00294DD00F281E
:103A6000C8BF102001FA00F000F30F01F44830F84D
:103A7000143050421A04000480FAA2F00014002806
:103A800048DD00044FF4803282FA80F000143CD507
:103A900000293AD010F10F0FB8BF6FF00F0040426D
:103AA00001FA00F000F30F01E648090430F91400B0
:103AB0004010020482FA81F10A14C00390FBF2F074
:103AC000B0F5004FACBFBA460FFA80FA029830F852
:103AD00014001AFB00F080FA80F181EA4103B3FA86
:103AE00083F000F01F02101E50DC10F13F0FB8BF32
:103AF0006FF03E004042014158E010F13F0FB8BF67
:103B00006FF03E0040420141B0E73F28C8BF3F2070
:103B10000141C9E74A10CB4903044FF4803C31F915
:103B200014108CFAA3F0001400281CDDB1F1000978
:103B300019D00F28C8BF102001FA00F000F30F00C1
:103B40001204000480FA82F002148CFAA3F000142C
:103B5000002812DD89B10F28C8BF102009FA00F033
:103B600000F30F00A9E710F13F0FB8BF6FF03E0060
:103B70008946404241FA00F0E2E710F13F0FB8BF3A
:103B80006FF03E00404249FA00F096E7B3FA83F343
:103B900003F01F03984272DD0029B8BF4FF00040C8
:103BA000C8BF6FF000406AD080FA80F1DFF89892C9
:103BB0004FEA21404FEA024229F8140038F8141065
:103BC0004FEA014182FAA1F109F5817B4FEA2141D7
:103BD0002BF814106FF0330347F6FF72FFF7B2F8BB
:103BE000002805DA29F814706FF033002BF8140060
:103BF0003BF9141039F914006FF0020346F26662C3
:103C0000FFF7A0F8002840DA39F914000F2100F07E
:103C1000A5FB80EA4002B2FA82F202F01F020E2AED
:103C20002FDA0028B8BF4FF00040C8BF6FF0004047
:103C300027D080FA80F13BF8140042F2886210FB32
:103C400002F080FA80F080EA4003B3FA83F303F0D5
:103C50001F030A2B17DA0028B8BF4FF00040C8BF77
:103C60006FF000400FD080FA80F080FA81F0774941
:103C7000FDF7A2FB764981FAA0F009E1FFE7914048
:103C800094E78103D7E78002EFE73BF9141039F995
:103C9000140008234FF4C842FFF754F8002808DD49
:103CA0004FF4C841012029F8141008212BF81410F2
:103CB000EEE03BF9141039F91400002347F6FF72C7
:103CC000FFF740F800287CDD39F814004BF67151FD
:103CD00010FB01F080FA80F33BF914005D49B0F16C
:103CE000000C13DB3F28C8BF3F20C14081FAA3F17D
:103CF0004FF460204FEA0C4282FAA0F0001414D472
:103D00003F28C8BF3F2041FA00F021E0524AB2FAF2
:103D100082F202F01F09CCF100029145B6BF6FF0AC
:103D20000041914081FA81F1E0E781EA4102B2FA73
:103D300082F202F01F02404282424FDA0029B8BFED
:103D40004FF00040C8BF6FF0004047D080FA80F0CD
:103D500046F64D21FDF730FB80EA4002B2FA82F2CE
:103D600002F01F02012A3CDA0028B8BF4FF00041E0
:103D7000C8BF6FF0004134D081FA81F14FEA214988
:103D8000C0F30E0042F2886110FB01F080FA80F06F
:103D90004FEAE0404FF00E0101F0F0F880EA4002F7
:103DA000B2FA82F202F01F020A2A1CDA0028B8BF17
:103DB0004FF00040C8BF6FF0004014D080FA80F090
:103DC00000E028E0B9F1000F0FDC19F13F0FB8BF98
:103DD0006FF03E09C9F10001084159E001FA00F015
:103DE000B6E74100CAE78002EAE780EA4001B1FA9B
:103DF00081F101F01F0189450ADD0028B8BF4FF0AD
:103E00000040C8BF6FF0004002D080FA80F03FE071
:103E100000FA09F03CE03BF9140039F914200028BD
:103E200008D062DDEAB30F28C8BF102002FA00F004
:103E300000F30F020F21104610E000000000FF7F8A
:103E400060D100205ED000205ACE002015B6FFFFC2
:103E50009A999900000048210000D86300F07EFA8A
:103E600080EA4002B2FA82F202F01F020D2A44DA1E
:103E70000028B8BF4FF00040C8BF6FF000403CD0F2
:103E800080FA80F03E49FDF797FA3E4981FA80F0CA
:103E900045F65541FDF790FA83464FEA2069002325
:103EA00000E022E047F6FF7249465046FEF74AFF1F
:103EB00000283DDCCBF34E2042F2886110FB01F07C
:103EC00080FA80F0C0140E2101F058F801464FEA44
:103ED0000A40B9F1000F12DC19F13F0FB8BF6FF0C3
:103EE0003E09C9F1000210411BE010F13F0FB8BFBD
:103EF0006FF03E00404202419CE74003C2E780EA87
:103F00004002B2FA82F202F01F02914513DD00284E
:103F1000B8BF4FF00040C8BF6FF000400BD080FA30
:103F200080F0FDF749FA184981FAA0F1002905DD72
:103F300025F8147018E000FA09F0F2E780EA400270
:103F4000B2FA82F202F01F02012A16DA0028B8BF84
:103F50004FF00040C8BF6FF000400ED080FA80F0F4
:103F60004FEA204025F8140004F1010004B2B442E5
:103F7000FFF663AD04B0BDE8F09F4000F0E700003D
:103F80002F9DFFFFFA7E2A000000FF3F2DE9F84F2A
:103F9000B2F100090D4682464FF00004CCBF4FF449
:103FA0008036BDE8F88F3AF914C0BA484FEA0C41A0
:103FB00081FAA0F0011408BF012181EA4140B0FA62
:103FC00080F000F00F02101E20DDF9B10F28C8BFED
:103FD000102001FA00F000F30F010027D7FA12F0C9
:103FE00000B201FB01F282FA82F383EA4308B8FAD5
:103FF00088F202F01F02B2F1000B0FDC12F13F0F4A
:10400000B8BF6FF03E025242134117E010F13F0F6C
:10401000B8BF6FF03E0040420141DEE7B8FA88F8D1
:1040200008F01F08424532DD002BB8BF4FF00042B8
:10403000C8BF6FF000422AD082FA82F34FEA2348C9
:1040400000281CBF420002F30F073A044FEA0B435B
:1040500083FAA2F21714904A4AF2AB3332F81420D2
:1040600012FB03F282FA82F38C4A32F81420120413
:1040700086FA82F212144FF4702B120482FAABF219
:10408000121407D43F2AC8BF3F22134115E003FA98
:104090000BF3D3E783EA430BBBFA8BFB0BF01F0B4D
:1040A0005242934532DA002BB8BF4FF00042C8BFEE
:1040B0006FF000422AD082FA82F3794A32F8142053
:1040C0004FEA024B4FEA004282FAABF04FEA20403F
:1040D000002823DD86FA8BF21214000486FA80F0A1
:1040E000001415D5A1B110F10F0FB8BF6FF00F007C
:1040F000404201FA00F000F30F006A49000431F970
:1041000014104910090481FA80F022E09340D4E7AA
:104110003F28C8BF3F2041FA00F0EEE786FA82F25E
:104120004FEA610B5F491214000431F9141086FA4A
:10413000A0F00014002838DDB1B30F28C8BF10204C
:1041400001FA00F000F30F004FEA0B41000480FA7F
:1041500081F010FB2CF080FA80F00090100480FABF
:1041600083F04FEA204BC0F34E0042F2886110FB0F
:1041700001F080FA80F0C0140E2100F0FFFE01462D
:104180000098FDF719F9014680EA4103B3FA83F07C
:1041900000F01F02101E11DC10F13F0FB8BF6FF0CE
:1041A0003E004042014119E0FFE710F13F0FB8BF68
:1041B0006FF03E00404241FA00F0C5E7B3FA83F3E6
:1041C00003F01F03984255DD0029B8BF4FF00040AF
:1041D000C8BF6FF000404DD080FA80F14FEA214017
:1041E000A6EB02414FEA21414FEA0B424FEA01415F
:1041F00081FA82F14FEA21414FEA60034FEA6800F9
:104200004FEA01414FEA074282FAA1F14FEA214108
:10421000002931DD0A463F29C8BF3F22844640FAC3
:1042200002F21B04120482FA83F212143F29C8BF5F
:104230003F214CFA01F0C00390FBF2F0B0F5004FC3
:10424000ACBF47F6FF7000B240F65C718842B8BF61
:1042500040F65C7035F8141011FB00F080FA80F025
:10426000001425F81400601C04B24C45FFF69BAE08
:10427000BDE8F88F9140B1E711F13F0FB8BF6FF083
:104280003E01494243FA01F10904020482FA81F134
:104290000A14D0E70000FF7F5ACE00205CCF002038
:1042A00060D100205ED000200348B0F90200002851
:1042B000D8BF002080B270473C0000200148006851
:1042C00070470000DC010020014880687047000052
:1042D000E00100200148407870470000A001002064
:1042E0000348B0F900000028D8BF002080B2704712
:1042F0003C000020704700000B490C20C1F800076B
:104300000A49C1F80007091FC1F80007091FC1F8D1
:1043100000070749C1F80007091FC1F80007054950
:10432000C1F800077047000018000050240000503A
:104330007000005074000050074A03204FF0A04165
:10434000C2F80007121FC2F800071020C1F80C05C0
:104350002020C1F80C0570471400005010B44FF431
:10436000E022090481FAA2F10A14002802BF2248BF
:1043700010BC7047C11100234FF4803C61B909E0C3
:1043800008BF184600F34F0011048CFAA1F10A147B
:10439000C111F3E70028F3D14FEA01448CFAA4FCE1
:1043A0004FEA2C4C10F07F001CBF000200F30F03FB
:1043B000124C34F8110034F91C1000044FEA014C7F
:1043C0008CFAA0F00014584380FA80F0031440F6F1
:1043D000A21012FB00F0491040F35D000904000434
:1043E00080FA81F0001459100004090481FA80F069
:1043F00010BC0014704700000180FFFF581104003A
:1044000082B0FDF755FB00200E210346009101907C
:104410004FF4807205A1074805F0F6F906480168D7
:1044200041F00401016004F055FBFEE76D61696E27
:1044300000000000093A000010ED00E02DE9F05FF7
:104440004FF46171294804F0C4FB294C01262088EF
:10445000E8B94FF4F0420A21264804F0C5FB254B89
:10446000DFF894C0002047F6FF7533F910104FF0C5
:10447000805292FBF1F1B1F5004FACBF294609B271
:104480002CF81010401C00B20A28EEDB2680FFF743
:1044900079FADFF868800024A8F16C0741F26669B8
:1044A0004FF4804A04EB440508EB051083460822CC
:1044B0003221FFF761FA0BF11000082247F6FF7175
:1044C000FFF75AFA07EB850027F82560A0F802905D
:1044D000A0F804A04FF40061C18041F69A11018157
:1044E000601C04B2092CDDDBBDE8F09F68A9002048
:1044F0002001002070B0002084B00020AAB300206A
:1045000070B5284C022104F1160004F062FB4FF450
:10451000C85020800021244A0846090482FA81F10B
:1045200004EB40030914401C00B259800A28F4DB54
:1045300000256583052104F11C0004F04AFB1B489B
:10454000A02145811A4804F044FB0A224FF400518F
:1045500004F12800FFF710FA164C2088002818BF35
:1045600070BD4FF4F0420A21134804F03DFB124B9A
:10457000DFF848C0002047F6FF7533F910104FF000
:10458000805292FBF1F1B1F5004FACBF294609B260
:104590002CF81010401C00B20A28EEDB012020800D
:1045A00070BD00001AB700200000A30B2C010020F2
:1045B00056B700202001002070B0002084B00020F9
:1045C0002DE9F84F0546DA481F46DFF86893B0F941
:1045D000083090460E46A9F5817A09F58172002BC4
:1045E0007DD0012B1CBF0024934600F06A8139F96D
:1045F00014303AF9142036F9141035F91400FEF786
:10460000A1FB002814DA35F814002AF8140036F853
:10461000140029F8140038F814002BF81400C648C8
:1046200037F8141020F81410C448012120F8141091
:10463000601C04B2812CDADBC14EBF4F002406F5AA
:10464000817536F9142035F9143037F914103BF917
:104650001400FEF777FB002807DA3BF8140026F871
:10466000140037F8140025F81400601C04B2812CE3
:10467000E7DB8122B249B34804F095FAB2498122BE
:1046800001F6142004F08FFAAE4C0020A4F58152FC
:104690004FF4803CA2F58163A2F20A5534F8101061
:1046A00045F6822611FB06F181FA81F1B1F1804FC6
:1046B00080F21E8181EA4107B7FA87F707F01F07EA
:1046C000012F80F213810029B8BF4FF00041C8BF0D
:1046D0006FF0004100F00A8181FA81F100E003E00F
:1046E00032F8106000F00AB9DFF844B241F20A7CF7
:1046F000BBF91E309C4518DB40F2D73C6345A6BF92
:10470000BBF900C0BCF1320F44F266630FDB40F22C
:10471000666C6345B8BF42F2333308DB40F2AE7CCF
:104720006345B8BF41F29A1301DB40F68F230024A2
:10473000009339F914303AF9142036F9141035F988
:104740001400FEF7FFFA002816DA35F814002AF8EC
:10475000140036F8140029F814007C4838F81410B6
:1047600020F8141000F5817037F8141020F8141098
:104770007248002120F81410601C04B2812CD8DB90
:104780006B4CDFF8CCA18122B4F90A00AAF61E71A5
:1047900000EBC0100AEB400004F005FAB4F90A007F
:1047A0000AF5016B00EBC0100BEB40008122AAF66A
:1047B0001C6104F0F8F9002401253AF914703BF962
:1047C000146005EBC5100BEB40090AEB400839F902
:1047D000141038F9140033463A46FEF7B3FA0028AD
:1047E000BCBF38F9147039F91460681C05B2082D83
:1047F000E7DB534D601C25F8147005F5817727F829
:10480000146004B2812CD7DB07F58158002408F529
:10481000817635F91420009810FB02F080FA80F0C0
:1048200037F914304FEA204B19044FF4802080FAF6
:1048300081F04FEA2049414830F8140050B336F96E
:10484000141038F91400FEF77DFA002822DD36F93D
:10485000141038F914004B465A46FEF773FA002834
:1048600018DA38F9142025F8142036F91430DFF856
:10487000E4C027F81430002000EBC0110AEB410916
:104880000CEB4101401C29F8142000B221F814302F
:104890000828F1DB601C04B2812CBADB81220021E4
:1048A0002648FFF769F82249488902044FF480300E
:1048B00080FA82F000144881082804BF0020488153
:1048C00026E081222946244804F06DF981223146F0
:1048D000184804F068F9812241461C4804F063F945
:1048E00081223946144804F05EF911E04900F5E6EA
:1048F00032F8106036048CFA86F6361423F810600D
:10490000091425F81010401C00B28128FFF6C6AE2D
:104910000749088902044FF4803080FA82F00014BD
:104920000881092804BF00200881BDE8F88F000035
:104930004001002054CB002058CD002032BA002086
:1049400034BB00206AD6002036BC002056CC0020A4
:1049500070D9002080E1002052CA00204FF0A04111
:10496000094A0C20106009480322C0F800274FF4C0
:10497000006001F5A1610860054802604FF48060A5
:10498000086003F081BE0000340700502C00005086
:104990002807005070B5234C0646ADF5007D6088B1
:1049A0000D46B0B120480088B0F5966F34D04C2148
:1049B0001E4804F00EF9B42231461D4804F0F3F805
:1049C000FEF734FA4FF480711A4804F002F900201F
:1049D0006080184C4C2204F5B471204604F0E3F8D2
:1049E000B422314604F1980004F0DDF8694620460F
:1049F00000F05EFB4C221049684604F0C7F84C22D8
:104A00005AA90D4804F0CFF8B4226946284604F0AC
:104A1000CAF80DF5007D70BD4FF480723146034831
:104A2000CCE70000400100202401002090E9002094
:104A300028EA002090EB002098B8002002490120CD
:104A400048808880C88070474001002093B2184A8F
:104A500081B0C2F85035C2F83815002918BF0121BD
:104A6000C2F80815C2F84005002818BF0120C2F896
:104A70000C050121C2F800150020C2F80401D2F88B
:104A800004310093C2F81401D2F814310093C2F833
:104A90000801D2F80801009006482023C0F88032AF
:104AA0008430C3672220C2F80403116001B070474C
:104AB0000050024004E000E093B2184A81B0C2F80E
:104AC0005035C2F83815002918BF0121C2F8081561
:104AD000C2F84005002818BF0120C2F80C050121CA
:104AE000C2F800150020C2F80401D2F80431009386
:104AF000C2F81401D2F814310093C2F80801D2F8B8
:104B00000801009006482023C0F880328430C36733
:104B10002020C2F80403116001B070470050024029
:104B200004E000E0124A012181B02020C2F8800197
:104B300002F5C072BFF34F8FBFF36F8FC2F8000151
:104B40000C4840F8041F2221C0F804130021C0F8CB
:104B50000011D0F800210092C0F81011D0F81021F7
:104B60000092C0F80411D0F80401009001B0704721
:104B700004E000E00050024010B5032200210120B3
:104B800004F058FB094C03220021E060012004F0EE
:104B900051FB2061012004F03BFB606100224721B2
:104BA0000A2004F047FBA06110BD000004000020B3
:104BB000002808BF7047204A2049126800BF00BF84
:104BC00000BF00BF00BF00BF00BF00BF8A422FD0A0
:104BD00000BF00BF00BF00BF00BF00BF00BF00BFDD
:104BE00000BF00BF00BF00BF00BF00BF00BF00BFCD
:104BF00000BF00BF00BF00BF00BF00BF00BF00BFBD
:104C000000BF00BF00BF00BF00BF00BF00BF00BFAC
:104C100000BF00BF00BF00BF00BF00BF00BF00BF9C
:104C200000BF00BF00BF00BF00BF00BF00BF00BF8C
:104C30000138C3D170470000FC0100200024F400BB
:104C400000283ED01F4A2049126800BF00BF00BFA5
:104C500000BF00BF00BF00BF00BF8A422FD000BF0F
:104C600000BF00BF00BF00BF00BF00BF00BF00BF4C
:104C700000BF00BF00BF00BF00BF00BF00BF00BF3C
:104C800000BF00BF00BF00BF00BF00BF00BF00BF2C
:104C900000BF00BF00BF00BF00BF00BF00BF00BF1C
:104CA00000BF00BF00BF00BF00BF00BF00BF00BF0C
:104CB00000BF00BF00BF00BF00BF00BF00BF013882
:104CC000C3D17047FC0100200024F40038B54FF434
:104CD000347001F065FE204C20624FF4347001F016
:104CE0005FFE6062216AA161E0614FF4347001F0FF
:104CF00057FEA0624FF4347001F052FEE062A16AE8
:104D000021616061FDF7AAFCFCF792FA02F052F80B
:104D100004F0A9F900220121042004F08BFA206399
:104D200003220021012004F085FA60630B4801236F
:104D300000901A460A210AA004F0CEFFA0630028C2
:104D400009D004F031FE002100910B4602460121FA
:104D5000A06B05F047F838BDA0010020111F00002E
:104D60006164630000B583B00E4A0B2100280BD0AC
:104D70000192009100234FF400620BA10C4804F053
:104D800043FD01280CD0FEE70192009100234FF46F
:104D9000006208A1094804F037FD012800D0FEE7B1
:104DA00003B000BDAC0100206F73536E64000000BF
:104DB000CD7800006F7352656300000095770000A6
:104DC00010B503F019FD02F0D7FC03F01FFD064CEF
:104DD000E06818B103F0A6FD0020E060206BBDE89C
:104DE0001040002104F044BAA00100202DE9F04158
:104DF000D4B0002650AA51A901F088FE2A4F0028FD
:104E000043D17D7800242B46A0223969B86900F08F
:104E100099F8DFF898804FF47A7252A9386B04F051
:104E20007FFB012824D19DF84801022820D1AEB192
:104E300000265198A02220446946FBF758FC04F54F
:104E4000A0745098844220D256B1A0216846FA69D5
:104E5000FCF728FBF869C8F8400509E00126E8E7F7
:104E6000A0216846BA69FCF71DFBB869C8F840057F
:104E70007878A842CFD00546062D02D804F05AF91A
:104E8000C9E7284601F094FFC5E702F075FC00234E
:104E90001A461946786B04F027FA002003F042FD09
:104EA00054B0BDE8F0810000A00100200050024095
:104EB00000B583B000200D210346009101904FF40E
:104EC000807204A1044804F09FFC012800D0FEE792
:104ED00003B000BD6B657900ED79000000B583B0CB
:104EE000074809210091019000234FF4807205A129
:104EF000064804F089FC012800D0FEE703B000BD9D
:104F0000E40100207266495400000000417D000069
:104F100000B583B000210A220346009201914FF4AC
:104F2000807204A1064804F06FFC012800D0FEE75F
:104F300003B000BD706C617946696C6500000000CB
:104F4000ED4D00002DE9F04105460E4617461C4682
:104F50000321102003F001FF204604F0F7F801229E
:104F60001021002003F0BBFE3A4631462846FFF7E9
:104F7000A3FDBDE8F0410320FDF716B810B50313FB
:104F800013F1040FBCBF002010BD042B04DDFFF79C
:104F9000B1F947F6FF7010BD00F47F6212094FEAC5
:104FA000024C0CF5803C4FEA2C4C10F00F001CBF5B
:104FB000C00200F30F003C4C34F81CC034F812203F
:104FC0004FEA0C4C120482FAACFC4FEA2C4C0CFB5E
:104FD00000F080FA80F00014000480FA82F00214DD
:104FE000180400F58020001404F2022C3CF810C0D4
:104FF0001CFB02F282FA82F209044FF4402C002BCF
:1050000027DB81FAACF0001405D43F28C8BF3F204D
:1050100042FA00F112E082EA4201B1FA81F101F0B4
:105020001F014042814211DA002AB8BF4FF0004010
:10503000C8BF6FF0004009D080FA80F10CB20814AC
:105040001CBF47F6FF74FFF755F928E002FA00F19C
:10505000F4E7164B33F8100000048CFA80F00014CB
:10506000000481FAA0F0001405D43F28C8BF3F20F7
:1050700042FA00F012E082EA4201B1FA81F101F055
:105080001F01404281420CDA002AB8BF4FF00040B5
:10509000C8BF6FF0004004D080FA80F004B2204610
:1050A00010BD02FA00F0F9E7581304005011040093
:1050B0002DE9F34FFF4C0646ADF63C3DE088002558
:1050C00050B38121FC4803F084FD8121FB4803F0AB
:1050D00080FD812240F65C71F948FEF74DFC81218C
:1050E000F84803F076FD812247F6DF71F648FEF7B7
:1050F00043FC812240F65C71F448FEF73DFC8122BE
:1051000040F65C7142A8FEF737FCE5812582E08A13
:105110006082208BA082E580E648B0F90010322939
:1051200001DA491C01804FF48073C4AAE849304673
:1051300003F0D0FD01220020C4AC34F91010002986
:1051400003DA0023D3FA11F109B29142C8BF0A462B
:10515000401C00B2B0F5807FEFDB82EA4240B0FA3B
:1051600080F000F00F031904C1F57020061400212F
:10517000181E34F911207ADD002A78D00F28C8BF14
:10518000102002FA00F000F30F0224F81120481C4E
:1051900001B2B1F5807FEBDB40F20221CD4803F094
:1051A00018FDCC4D002000EBD07121F00101095B0E
:1051B00025F81010801C00B2B0F5007FF3DB012150
:1051C000C448FEF7B5FB3104000480FA81F00014F6
:1051D000CDF8380B16BF4000002200F30F022888DC
:1051E00010FB00F080FA80F0BB4F3860B5F8000289
:1051F00010FB00F080FA80F0C7F800020120B54CE7
:1052000034F8201011FB01F181FA81FC04EB8001DC
:10521000498811FB01F181FA81F181FA8CF147F89B
:105220002010401C00B28028E9DBDFF8B4A2AB4EAE
:1052300000204FF0010C13040AF5817957F8201073
:105240000129B8BF47F820C057F8202082EA42055C
:10525000B5FA85F101F01F04211E10DC11F13F0F9A
:10526000B8BF6FF03E0149420A4118E0FFE710F174
:105270003F0FB8BF6FF03E004042024185E7B5FAEC
:1052800085F505F01F05A94260DD002AB8BF4FF083
:105290000041C8BF6FF0004158D081FA81F24FEA57
:1052A00022412AF810104FEA044181FAA3F14FEA93
:1052B000214129F81010B142C8BF0E46401C00B26F
:1052C0008128BBDB00240DF624284FF4002B39F98C
:1052D00014503AF9140015F0010F06D040102A04BA
:1052E0004FF4803181FA82F10D1402F085F928F82B
:1052F00014000DF5A261681021F8140039F81400AB
:1053000000048BFAA0F0001429F81400601C04B209
:10531000812CDCDBB9F80000BAF900104C464FEAEA
:10532000064C000480FAACF000144FF4E0230004B3
:1053300080FAA3F0001400280ADC10F13F0FB8BF78
:105340006FF03E00404241FA00F213E0A240A6E7AF
:1053500081EA4102B2FA82F202F01F02904226DD97
:105360000029B8BF4FF00040C8BF6FF000401ED00A
:1053700080FA80F2B4F80001BAF900114FEA004057
:1053800080FAACF04FEA20404FF4E0234FEA0040AF
:1053900080FAA3F04FEA204000280BDC10F13F0F09
:1053A000B8BF6FF03E00404241FA00F014E001FA4D
:1053B00000F2DFE781EA4103B3FA83F303F01F034E
:1053C00098422ADD0029B8BF4FF00040C8BF6FF0F7
:1053D000004022D080FA80F080FA82F34FF0010181
:1053E00034F811003AF911204FEA004080FAACF08D
:1053F0004FEA20404FF400264FEA004080FAA6F022
:105400004FEA204000280BDC10F13F0FB8BF6FF0CF
:105410003E00404242FA00F014E001FA00F0DBE7FF
:1054200082EA4205B5FA85F505F01F05A84224DD9C
:10543000002AB8BF4FF00040C8BF6FF000401CD03A
:1054400080FA80F080FA83F301F1010001B2802933
:10545000C6DB002B08BF012383EA4301B1FA81F0C8
:1054600000F01F00021E0BDC10F13F0FB8BF6FF001
:105470003E00404243FA00F112E002FA00F0E1E798
:10548000B1FA81F101F01F0188427DDD002BB8BF28
:105490004FF00040C8BF6FF0004075D080FA80F137
:1054A0004FEA21404FF48036CDF82C0B86FA8CF071
:1054B00018E000004001002038BD00203ABE002066
:1054C0005ED0002060D100203CBF00203EC0002004
:1054D0007017040090ED002094F100200080FFFF81
:1054E00044C300204FEA20404FEA00404FEA024107
:1054F00081FAA0F04FEA20400146CDF8280BDDF8F4
:105500002C0B01F0B5FC0DF512630DF5E3620DF601
:105510001C010DF21460FCF787FD0DF512630DF50B
:10552000E3620DF61C010DF21460FFF749F8DFF895
:10553000F4B300200DF1040983ADFB4A3AF91010D1
:10554000491032F91020C90391FBF2F1B1F5004F77
:10555000ACBF47F6FF7109B229F8101034F81010EB
:10556000090486FA81F109143BF810200904120499
:1055700082FAA1F1091425F81010401C00B281280C
:10558000DBDBBDF9040000E035E080EA4002B2FA5E
:1055900082F202F01F02072A30DA0028B8BF4FF06B
:1055A0000040C8BF6FF0004028D080FA80F1BDF8FD
:1055B0000C024FEA004086FAA0F04FEA204C4FF070
:1055C00001004FEA0C4335F910204FEA024484FAF7
:1055D000A3F34FEA2343002B2BDD39F910201C04E1
:1055E0004FF4E02383FAA4F31B1409D43F2BC8BF64
:1055F0003F231A4117E003FA02F151E7C101D6E750
:1056000082EA4204B4FA84F404F01F045B429C4230
:105610000CDA002AB8BF4FF00042C8BF6FF000425A
:1056200004D082FA82F282FA81F121E002FA03F2D6
:10563000F9E713F13F0FB8BF6FF03E035B4241FA49
:1056400003F339F9101081EA4104B4FA84F404F048
:105650001F04072C30DA0029B8BF4FF00041C8BF43
:105660006FF0004128D081FA81F181FA83F19446EC
:1056700000F1010000B28028A3DBBDF80C03020496
:105680004FF4803080FAA2F000144FEA0C4200047C
:1056900080FAA2F00014002829DDBDF904210304DA
:1056A0004FF4E02080FAA3F0001407D43F28C8BFCD
:1056B0003F2042FA00F014E0C901D6E782EA420333
:1056C000B3FA83F303F01F03404283420CDA002A4B
:1056D000B8BF4FF00040C8BF6FF0004004D080FA60
:1056E00080F080FA81F129E002FA00F0F9E710F188
:1056F0003F0FB8BF6FF03E0040420141BDF90401C9
:1057000080EA4003B3FA83F303F01F03072B28DA80
:105710000028B8BF4FF00040C8BF6FF0004020D055
:1057200080FA80F080FA81F1BDF80C034FEA004264
:105730004FF4803080FAA2F04FEA204C002908BFD5
:10574000012181EA4103B3FA83F000F01F02101E29
:1057500009DC10F13F0FB8BF6FF03E00404201413D
:1057600011E0C001DEE7B3FA83F303F01F039842B0
:105770007DDD0029B8BF4FF00040C8BF6FF000408A
:1057800075D080FA80F14FEA2140CDF8340B4FEA12
:105790000C404FEA024181FAA0F04FEA20404FEA64
:1057A00000414FF4003080FA81F04FEA2040CDF8FC
:1057B000300BBDF904A0BDF90C424FF001062146A3
:1057C00035F9163039F916205046FDF7BBFA002896
:1057D00003DA39F916A035F91640701C06B2812E8D
:1057E000EDDB0026062344F2B66221465046FDF763
:1057F000A9FA002823DA012345F68222DDF8301BBE
:10580000DDF8340BFDF79EFA002818DA4749012627
:1058100045F68222488B10FB02F080FA80F00214D9
:10582000888B0104700480FA81F00314DDF8281BD2
:10583000DDF82C0BFDF786FA0028C8BF00263B4890
:105840003B4B008803F5817C012804BF00200DF547
:10585000A26526D0DFF8DC90002409F5817A34486F
:1058600030F8140010FB00F080FA80F000E016E041
:1058700047F20A71FBF7A0FD0128B8BF012080EABA
:105880004003B3FA83F101F01F02111E56DC11F13F
:105890003F0FB8BF6FF03E01494208415EE09140C2
:1058A00071E738F8101040F65C7211FB02F14A0003
:1058B00082EA4206B6FA86F101F01F0147F820207D
:1058C0000C1E07DC11F13F0FB8BF6FF03E014942DB
:1058D0000A410FE0B6FA86F606F01F06B1422BDD4C
:1058E000002AB8BF4FF00041C8BF6FF0004123D07D
:1058F00081FA81F24FEA224123F8101035F8101096
:105900004FEA04424FEA014182FAA1F14FEA2141F4
:105910002CF8101000F1010000B28128C1DB00F06A
:10592000E4BB000042C2002040C100204001002032
:1059300038BD00205ED00020A240DBE7B3FA83F33D
:1059400003F01F0399426BDD0028B8BF4FF0004001
:10595000C8BF6FF0004063D080FA80F0FF494FEA83
:10596000204031F9141000291CBF490001F30F0138
:10597000130403F5002212140904120482FAA1F19F
:10598000F74A09143BF9143032F914204FEA004C5D
:1059900015048CFAA5FC5FEA2C4C02D54010491C7A
:1059A00009B2C00390FBF2F0B0F5004FACBF47F670
:1059B000FF7000B229F814000804190481FAA0F05D
:1059C00000142AF8140083AD01A835F9141030F939
:1059D0001400002345F68222FDF7B4F900287DDD8E
:1059E00035F91410DF480B1E1CDB3F29C8BF3F21CF
:1059F000C84001A931F81410090480FAA1F181EA24
:105A0000410CBCFA8CF000F01F00021E18DC10F1F3
:105A10003F0FB8BF6FF03E00404241FA00F01FE078
:105A200090409BE7D04A5942B2FA82F202F01F023C
:105A30008A42B6BF6FF00040884080FA80F0D8E715
:105A4000BCFA8CFC0CF01F0C60454EDD0029B8BF81
:105A50004FF00040C8BF6FF0004046D080FA80F0A1
:105A600044F2AE7110FB21F080FA80F04FEA204141
:105A70004FEA024202F540304FEA20404FEA03422B
:105A80004FEA004080FAA2F03AF814204FEA204092
:105A90004FEA02434FEA004C8CFAA3F04FEA204051
:105AA00039F91420002829DD401C521000B20028CA
:105AB0001EDAE9B110F10F0FB8BF6FF00F004042CE
:105AC00001FA00F000F30F001204000480FA82F0E3
:105AD000001429F814004FF4803000E029E080FA27
