:020000040000FA
:1000000000A800204905000051050000530500002C
:1000100055050000570500005905000000000000CC
:1000200000000000000000000000000015020000B9
:100030005D05000000000000510200008912000070
:1000400063050000990F00006305000063050000D0
:100050006305000063050000630500006305000000
:1000600063050000630500006305000063050000F0
:1000700063050000630500006305000063050000E0
:1000800063050000630500006305000063050000D0
:1000900063050000630500006305000063050000C0
:1000A00063050000630500006305000063050000B0
:1000B0006305000063050000000000000000000070
:1000C0006305000063050000630500006305000090
:1000D00063050000450E00006305000000000000FD
:1000E0000000000000000000000000000000000010
:1000F0000000000000000000000000000000000000
:1001000000000000000000000000000000000000EF
:1001100000000000000000000000000000000000DF
:1001200000000000000000000000000000000000CF
:1001300000000000000000000000000000000000BF
:1001400000000000000000000000000000000000AF
:10015000000000000000000000000000000000009F
:10016000000000000000000000000000000000008F
:10017000000000000000000000000000000000007F
:10018000000000000000000000000000000000006F
:10019000000000000000000000000000000000005F
:1001A000000000000000000000000000000000004F
:1001B000000000000000000000000000000000003F
:1001C000000000000000000000000000000000002F
:1001D000000000000000000000000000000000001F
:1001E000000000000000000000000000000000000F
:1001F00000000000000000000000000000000000FF
:10020000DFF80CD000F07AFD00480047852F000091
:1002100000A80020244B19680868B0E8F04F80F36C
:100220000988BFF36F8F4FF0000080F3118870478B
:10023000000000000548006880F3088862B661B6D7
:10024000BFF34F8FBFF36F8F00DF0000000000008F
:10025000EFF30980BFF36F8F134B1A681EF0100F76
:1002600008BF20ED108A20E9F04F106008B44FF06D
:10027000200080F31188BFF34F8FBFF36F8F07F01B
:100280000DFF4FF0000080F3118808BC1968086862
:10029000B0E8F04F1EF0100F08BFB0EC108A80F3EA
:1002A0000988BFF36F8F70478C0000202DE9F05F45
:1002B000DDF828C0DDF830E0DEF8004030F902ABB0
:1002C00004F580590AEB693909F30F0B23F802BBD7
:1002D000CBF1000B0FFA8BFBB1F90070DEF8045084
:1002E00007FB0A55B2F9008008FB0B54CEF800401A
:1002F000B1F90270DEF8084007FB0A44B2F9028047
:1003000008FB0B45CEF80450B1F90470DEF80C5030
:1003100007FB0A55B2F9048008FB0B54CEF80840DD
:10032000B1F90670DEF8104007FB0A44B2F9068006
:1003300008FB0B45CEF80C50B1F90870DEF81450EC
:1003400007FB0A55B2F9088008FB0B54CEF81040A1
:10035000B1F90A70DEF8184007FB0A44B2F90A80C6
:1003600008FB0B45CEF81450B1F90C70DEF81C50A8
:1003700007FB0A55B2F90C8008FB0B54CEF8184065
:10038000B1F90E70DEF8204007FB0A44B2F90E8086
:1003900008FB0B45CEF81C50B1F91070DEF8245064
:1003A00007FB0A55B2F9108008FB0B54CEF8204029
:1003B000B1F9127007FB0AF7B2F9128008FB0BF8CB
:1003C000B844CEF82480BCF1010C7FF475AFBDE8D1
:1003D000F09F2DE9F041DDF81CE0DEF8005030F927
:1003E000028B05F5805708EB673808F30F0622F8F3
:1003F000026BC6F1000636B2B1F90070DEF80440B7
:1004000007FB0645CEF80050B1F90270DEF808503F
:1004100007FB0654CEF80440B1F90470DEF80C4036
:1004200007FB0645CEF80850B1F90670DEF810500B
:1004300007FB0654CEF80C40B1F90870DEF8144002
:1004400007FB0645CEF81050B1F90A70DEF81850D7
:1004500007FB0654CEF81440B1F90C70DEF81C40CE
:1004600007FB0645CEF81850B1F90E70DEF82050A3
:1004700007FB0654CEF81C40B1F91070DEF824409A
:1004800007FB0645CEF82050B1F9127007FB06F7BE
:10049000CEF824705B1EA0D1BDE8F0812DE9F047B5
:1004A0004FF00006089A31F9027B31F9028BB0F95E
:1004B0000040B0F9025004FB07F305FB083331F9A3
:1004C000027BB0F9044031F9028BB0F9065004FB0D
:1004D000073305FB083331F9027BB0F9084031F9E5
:1004E000028BB0F90A5004FB073305FB083331F9DE
:1004F000027BB0F90C4031F9028BB0F90E5004FBCD
:10050000073305FB083331F9027BB0F9104031F9AC
:10051000028BB0F9125004FB073305FB083352F885
:10052000044BC3EB6403012EAEBF73459E46B24637
:10053000761C202EB7DB0A9BC3F800A00B9BC3F8E8
:1005400000E0BDE8F0870000064880470648004705
:10055000FEE7FEE7FEE7FEE7FEE7FEE7FEE7FEE773
:10056000FEE7FEE72D13000001020000930814D0FF
:1005700090ED032AD0ED000A90ED011AD0ED021A99
:1005800022EE002A60EE800A21EE001A61EE801A47
:10059000E1EC040A10305B1EEAD112F0030208BF3E
:1005A0007047B2F1004F24D2002AD8BF7047001F15
:1005B000091F12F0010F07D0D0ED010A001D60EEF7
:1005C000800AC1ED010A091D520808BF704700BF2B
:1005D000D0ED010A60EE800AC1ED010AD0ED020AF9
:1005E000083060EE800AC1ED020A0831521EEFD1D8
:1005F0007047F0EC010A521E60EE800AE1EC010A3D
:10060000F7D1704770B50170044682601D46C9007D
:10061000184600F068FB656070BD2DE9F001944656
:100620004568866807784FEA930896ED000A301D02
:10063000F0EC010AB0EC011AF0EC011A061D90ED85
:10064000002AD5ED002A95ED013A404600285DD0FC
:10065000D1ED005AD1ED014A91ED025AD1ED033AA4
:10066000103120EE254A20EEA56A34EE224A60EED3
:10067000242A61EE846A61EE255A76EE266A22EE1D
:10068000046A76EE836A35EE863A20EEA46A72EE4C
:10069000A65A60EE052A61EEA56A61EE244A76EE5E
:1006A000266A22EE256A76EE836A34EE863A20EEDA
:1006B000856A72EEA64A60EE232A61EEA46A21EEF4
:1006C000055A36EE266A62EE246A36EE036A35EE85
:1006D000263A32EE865A20EEA36A61EE852A61EE52
:1006E000233A76EE222A22EE056A72EE832A33EE50
:1006F000863A8CED004ACCED015ACCED024A8CEDE5
:10070000035A0CF1100C401E0028A1D103F0030481
:10071000C4B1B1EC014A60EE043A60EE844A73EE73
:10072000A23A61EEA32A21EE044A74EEA22A62EEF6
:10073000234A72EE832A34EE243AECEC013A641E2A
:10074000002CE6D1C5ED002A281D051D80ED003ADC
:1007500011468C467F1E002F7FF467AFBDE8F00185
:10076000704710B493080ED0B3F1004F2ED24FF063
:10077000010C012B07DB50F8044B0CF1010C41F884
:10078000044B6345F7DA12F0030204BF10BC704754
:10079000B2F1004F21D2002ADCBF10BC7047401ECE
:1007A000491E12F0010F03D010F8013F01F8013F7C
:1007B000520804BF10BC704743784B7010F8023FDA
:1007C00001F8023F521EF7D110BC704750F804CB1D
:1007D00041F804CB5B1EF9D1D5E710F8013B01F8D5
:1007E000013B521EF9D110BC704710B4930812D0CF
:1007F000B3F1004F32D24FF0010C012B0BDB50F85C
:10080000044B41F8044B50F8044B0CF1010C41F837
:10081000044B6345F3DA12F0030204BF10BC7047C7
:10082000B2F1004F25D2002ADCBF10BC7047801EF9
:10083000891E12F0010F03D030F8023F21F8023F69
:10084000520804BF10BC704743884B8030F8043F07
:1008500021F8043F521EF7D110BC704750F804CB6A
:1008600041F804CB50F804CB41F804CB5B1EF5D122
:10087000D1E730F8023B21F8023B521EF9D110BCFF
:100880007047000010B49308C0EA004C0DD0B3F1DB
:10089000004F27D20124012B07DB00BF41F804CB16
:1008A000641C41F804CBA342F8DA12F0030204BF3F
:1008B00010BC7047B2F1004F1BD2002ADCBF10BC45
:1008C0007047891E12F0010F18BF21F8020F52085D
:1008D00004BF10BC7047488021F8040F521EFAD1A3
:1008E00010BC704741F804CB5B1E41F804CBF9D132
:1008F000DBE721F8020B521EFBD110BC7047000051
:1009000030B493089FED7E0A5ED000BFF0EC010A80
:1009100060EE800AF5EEC00AF1EE10FACCBFB6EE3A
:10092000001ABEEE001A71EE200AFDEEE00A10EE8B
:1009300090CA0CF30F0C21F802CBF0EC010A60EE28
:10094000800AF5EEC00AF1EE10FACCBFB6EE001A3E
:10095000BEEE001A71EE200AFDEEE00A10EE90CA1B
:100960000CF30F0C21F802CBF0EC010A60EE800AC8
:10097000F5EEC00AF1EE10FACCBFB6EE001ABEEEEC
:10098000001A71EE200AFDEEE00A10EE90CA0CF398
:100990000F0C21F802CBF0EC010A60EE800AF5EEB4
:1009A000C00AF1EE10FACCBFB6EE001ABEEE001A85
:1009B00071EE200A5B1EFDEEE00A10EE90CA0CF309
:1009C0000F0C21F802CBA1D112F0030204BF30BCFE
:1009D0007047B2F1004F78D2541E002C3BDD8B1EC5
:1009E000A0F1040C12F0010F54D000BFDCED010A9D
:1009F000641030D060EE800A9CED021A0CF1080CF5
:100A0000F5EEC00AF1EE10FACCBFF6EE001AFEEEDB
:100A1000001A71EEA00A21EE001AFDEEE00AB5EE12
:100A2000C01A10EE905A05F30F055D80DCED010A47
:100A3000F1EE10FACCBFF6EE001AFEEE001A31EE1F
:100A4000811A641EBDEEC11A11EE105A05F30F058E
:100A500023F8045FCED1521E44BF30BC704700EB78
:100A60008200D0ED000A20EE800AB5EEC00AF1EE59
:100A700010FACCBFF6EE000AFEEE000A30EE800A55
:100A8000BDEEC00A10EE100A00F30F0021F81200AC
:100A900030BC7047DCED010A0CF1040C60EE800AFA
:100AA000F5EEC00AF1EE10FACCBFB6EE001ABEEEBB
:100AB000001A71EE200AFDEEE00A10EE905A05F3DE
:100AC0000F0523F8025F91E7FFE7F0EC010A60EE03
:100AD000800AF5EEC00AF1EE10FACCBFB6EE001AAD
:100AE000BEEE001A71EE200A521EFDEEE00A10EE74
:100AF000903A03F30F0321F8023BE6D130BC704774
:100B00000000004770B493089FED620A38D0B3F13B
:100B1000004F7CD2002B33DD04468C464FEA0305A0
:100B200034F9026B6D1E00EE906AF8EEE00A60EE9A
:100B3000800ACCED000A34F9026B00EE906AF8EE00
:100B4000E00A60EE800ACCED010A34F9046B00EE95
:100B5000906AF8EEE00A60EE800ACCED020A34F901
:100B6000026C00EE906AF8EEE00A60EE800ACCEDCE
:100B7000030A0CF1100CD3D100EBC30001EB0311FD
:100B800012F0030204BF70BC7047B2F1004F72D282
:100B9000541E002C2EDD831EA1F1040C12F0010F57
:100BA0000BD133F9025F00EE905AF8EEE00A60EEE6
:100BB000800ACCED010A0CF1040CB3F90250641068
:100BC00018D000BF00EE905A33F9046F641EF8EE9F
:100BD000E00A60EE800ACCED010A00EE906AB3F9FB
:100BE0000250F8EEE00A60EE800ACCED020A0CF149
:100BF000080CE7D1521E44BF70BC704730F9120098
:100C000000EE900AF8EEE00A20EE800A00E005E02F
:100C100001EB820080ED000A70BC704730F902CB16
:100C200000EE90CAF8EEE00A60EE800AC1ED000A1C
:100C300030F902CB00EE90CAF8EEE00A60EE800ACE
:100C4000C1ED010A30F902CB00EE90CAF8EEE00ADD
:100C500060EE800AC1ED020A30F902CB00EE90CAC4
:100C6000F8EEE00A60EE800AC1ED030A10315B1E67
:100C7000D4D185E7FFE730F9023B521E00EE903AEF
:100C8000F8EEE00A60EE800AE1EC010AF3D170BCF4
:100C9000704700000000003810B5431A934209D293
:100CA0008318881803E010F8011D03F8011D521E77
:100CB000F9D210BD40EA01039B0703D009E008C93F
:100CC000121F08C0042AFAD203E011F8013B00F811
:100CD000013B521EF9D210BDD2B201E000F8012B47
:100CE000491EFBD270470022F6E710B513460A46AC
:100CF00004461946FFF7F0FF204610BD064C074D8D
:100D000006E0E06840F0010394E8070098471034DB
:100D1000AC42F6D3FFF778FA505501007055010048
:100D200070B58C1810F8015B15F0070301D110F8AD
:100D3000013B2A1106D110F8012B03E010F8016BDA
:100D400001F8016B5B1EF9D12B0705D40023521E5D
:100D50000DD401F8013BFAE710F8013BCB1A921CC5
:100D600003E013F8015B01F8015B521EF9D5A142C3
:100D7000D8D3002070BD00002DE9F041DDF81CE063
:100D8000DEF8004030F9026B04F5805806EB683855
:100D900008F30F0722F8027BB1F90070DEF8045067
:100DA00007FB0654CEF80040B1F90270DEF80840A7
:100DB00007FB0645CEF80450B1F90470DEF80C507C
:100DC00007FB0654CEF80840B1F90670DEF8104073
:100DD00007FB0645CEF80C50B1F90870DEF8145048
:100DE00007FB0654CEF81040B1F90A70DEF818403F
:100DF00007FB0645CEF81450B1F90C70DEF81C5014
:100E000007FB0654CEF81840B1F90E70DEF820400A
:100E100007FB0645CEF81C50B1F91070DEF82450DF
:100E200007FB0654CEF82040B1F9127007FB06F715
:100E3000CEF824705B1EA3D1BDE8F08106F0C2BFDE
:100E400005F0B2BBFEB5002401941F4D02212846D7
:100E500004F0A5F91D4E90B14FF48271284604F0BC
:100E600093F960B1C5F80441D5F804010090012060
:100E70000290002301AA02A9706907F057FC202103
:100E8000284604F08CF990B14FF48A71284604F09A
:100E90007BF960B1C5F81441D5F814010090022027
:100EA0000290002301AA02A9706907F03FFC019893
:100EB000002808D006494FF08050086040BFBFF3BB
:100EC0004F8FBFF36F8FFEBD005002403C010020EA
:100ED00004ED00E01CB5254901200860091D0860EB
:100EE000091D0860214A01070C3211600621121DFC
:100EF0001160111D08600024081D0460001D0460BD
:100F0000001D04601948001F04600F2004F022F93E
:100F1000122004F01FF9132004F01CF9102004F033
:100F200019F900221020009423461146019404F080
:100F3000F5F80E490F20583108601220091D08608D
:100F40001320091D0860094910206831086011202C
:100F5000091F08600649402081F80004252000F0A0
:100F600005FBBDE81C40252000F01ABB08550240D7
:100F700025E000E070B5002301240AE030F81350AA
:100F800022F8235004EB430630F8135022F8165091
:100F90005B1C8B42F2DB70BD2DE9F043274C93B014
:100FA000D4F80C01002834D00025C4F80C51244E8C
:100FB00070782704DFF88C9001282DD0022828D1E2
:100FC000214800684FF0010808B31F480C30006842
:100FD0001E49C1F842001E4800688DF8000011F853
:100FE000022B8DF801200DF10200FFF755FE11953F
:100FF000002311AA6946306907F098FB119830B1B7
:10100000C9F8007040BFBFF34F8FBFF36F8FC4F8B4
:10101000088013B0BDE8F08300F082F800956946BF
:10102000706807F0BCFB00980028F2D0C9F8007087
:1010300040BFBFF34F8FBFF36F8FEAE70010004050
:101040000400002004ED00E00014004084010020B2
:1010500048150040F0B587B005460E4617460C48C7
:10106000002201A9806907F0CBFB0446012C0CD1BA
:101070009DF8040028709DF8050030709DF804204C
:1010800039460DF10600FFF76CFB07B02046F0BDB6
:101090003C010020F0B587B005460E4617460C48C7
:1010A000002201A9C06907F0ABFB0446012C0CD15A
:1010B0009DF8040028709DF8050030709DF804200C
:1010C00039460DF10600FFF74CFB07B02046F0BD96
:1010D0003C01002030B50546084891B00A466946F3
:1010E000006907F08DFB0446012804D142226946BD
:1010F0002846FFF7D1FD11B0204630BD0400002086
:1011000002480021806907F04DBA00003C01002030
:1011100002480021C06907F045BA00003C010020E8
:101120000F480022C0F8102101230361D0F81011EC
:101130000029FBD0C0F81021D0F8001241F01001B6
:10114000C0F80012D0F8001241F48071C0F800120B
:10115000054A044911604360044902204870704701
:10116000001000408401002004150040040000200D
:1011700070B50D4601461C46074805F013FC0748AC
:10118000012C2A4605D004494068BDE8704005F0AE
:1011900088BC0021F8E70000DCA300206C010020DF
:1011A0001CB501200090094805F099FB084805F09E
:1011B0007EFC084C6A460021606005F075FC01AABF
:1011C0000321606805F070FC1CBD0000DCA300205A
:1011D0008C5201006C01002070B504460D46084891
:1011E00005F00FFC0748064A2146006805F06EFC32
:1011F0002946BDE87040C822014805F034BC000013
:10120000B8A300206C0100203EB50020019004200E
:101210000090114805F063FB104805F05DFC104C90
:1012200000221A21206005F054FC6A46042120683F
:1012300005F04FFC01AA1321206805F04AFC02AA20
:101240000321206805F045FC012000906A4610212A
:10125000206805F03EFC3EBDB8A300208C52010082
:101260006C01002070B5002301240AE004EB430662
:1012700030F9235030F9166035446D1022F81350C0
:101280005B1C8B42F2DB70BD10B5EFF311842020A4
:1012900080F3118806490868401C086007F014FCB8
:1012A000012801D007F03CF9E0B280F3118810BDAD
:1012B0000000002070B517480068C0F30220C0F19C
:1012C0000701032900D90321C21C072A01D20020EB
:1012D00000E0001F01228A40521E02F007018140F7
:1012E00000256E1E304600F068F90B484FF47A7105
:1012F0000068B0FBF1F1491EB1F1807F09D24FF0D7
:10130000E02461610721304600F057F9A56107200C
:10131000206170BD0CED00E0800100200249014811
:10132000086070470090D0038001002070B500F085
:10133000E7FE4FF0805528B1B5F824036049C0F3AB
:101340000420086000F018FF10B15F495D4848674D
:1013500000F036FF28B1D5F844025C49C0F34230B2
:10136000086000F04BFF20B15948016821F08071FE
:10137000016000F059FF002428B156480460446021
:101380005248001F046000F06DFF18B14F49032060
:101390006431086000F07CFF68B14F4905200860A7
:1013A0004D490120783108604B48083004604A49B3
:1013B0003F20091D086000F081FFE8B3474800683E
:1013C000474908604548001D0068091D08604348FA
:1013D00008300068091D086040480C300068091D8D
:1013E00008603E4810300068091D08603B48143012
:1013F0000068091D086039481830006838492031F4
:10140000086036481C300068091D086033482030E9
:101410000068091D0860314824300068091D086013
:101420002E4828300068091D08602C482C300068C0
:10143000091D0860294800E018E03030006828499C
:1014400040310860254834300068091D0860234891
:1014500038300068091D086020483C300068091DCC
:1014600008601E4840300068091D086000F02AFE30
:1014700028B1D5F858021B4900F04F00086000F071
:101480005DFE30B118480168C90702D06FF0010154
:10149000016000F087FE20B11448016841F48061CA
:1014A00001600B487438016841F470010160BFF3BA
:1014B0004F8FBFF36F8FBDE87040FFF72FBF000065
:1014C000403501400DF0ADBA00C007403C0500407A
:1014D000FCED00E00C010040105600400404001038
:1014E00020C50040E40E0040000400403C170040CE
:1014F0004FF080400021C0F8001101210160D0F8B8
:1015000000110029FBD0FFF7D5BE000000B587B061
:1015100013468DF804008DF8051002460DF1060102
:101520001846FFF71EF9044800231A4601A98069EE
:1015300007F074F807B000BD3C01002000B587B08B
:1015400013468DF804008DF8051002460DF10601D2
:101550001846FFF706F9044800231A4601A9C06996
:1015600007F05CF807B000BD3C010020002809DB53
:1015700000F01F02012191404009800000F1E020AD
:10158000C0F880127047002809DB00F01F0201211B
:1015900091404009800000F1E020C0F80011704740
:1015A000002809DB00F01F02012191404009800062
:1015B00000F1E020C0F8001170474907090E00282B
:1015C00004DB00F1E02080F80014704700F00F0009
:1015D00000F1E02080F8141D704702E008C8121FD7
:1015E00008C1002AFAD170477047002001E001C10C
:1015F000121F002AFBD1704700BF70472DE9F0434E
:1016000091460124002206E030F8125015FB05F542
:1016100004EB2524521C9A42F6DBE2180826F40655
:1016200002E05200761E01D0A242FADB122702E04D
:1016300052007F1E01D0A242FADB002414E00025F4
:1016400022460BE0A2EB040830F812C030F81880F4
:101650001CFB08FC4CFA06FC6544521C9A42F1DB68
:101660003D4121F81450641C4C45E8DBBDE8F08393
:101670002DE9F0479246B1F90050002243E001EB1A
:101680004203B3F902305B035C42002307E0D71A40
:1016900030F9136031F917705B1C06FB1744934255
:1016A000F5DB6B1C04EB6304DB1D1BB294FBF3F353
:1016B0001CB220F81240002302F1010917E0D61AEB
:1016C00000EB460830F8137038F8026C14FB06FC87
:1016D0000CF5805C07EB6C3C20F813C014FB07F79B
:1016E00007F5805706EB673628F8026C5B1CB3EBF6
:1016F000690FE4DB15FB04F35B1313FB04F3A5EBA9
:1017000063331DB2521C5245B9DB2846BDE8F08751
:1017100000487047540100200048704758010020DD
:1017200010B501282ED0022820D0032812D004287A
:1017300004D0BDE810401C2003F016BD1C2003F0AF
:101740001BFD022003F092FC1C2003F00DFD022083
:1017500003F08CFC1C2003F00FFD022003F086FC3C
:101760001C2003F001FD022003F080FC1C2003F08C
:1017700003FD022003F07AFC1C2003F0F5FC02209C
:1017800003F074FCBDE810401C2003F0F5BC70B5FC
:10179000054600240FE031F8146016FB05F606F547
:1017A0008046F61322F8146015FB00F505F5804518
:1017B00045F3CF35641C9C42EDDB70BDF0B54FF4B2
:1017C00080450746A94201DB691E03E011F5804F01
:1017D00000DC124907EB420037F9124030F8020CE6
:1017E0000B4610FB01F000F5005004EBA030022482
:1017F00010E01E4611FB06F3C5EB63333546161B9E
:101800001BB237F8166016FB03F606F5005600EB20
:10181000A630641C9442ECDDF0BD000001C0FFFF67
:101820002DE9FF4F8DB04FF48041109C2180B2F91B
:10183000001049034D42B0F900108903494200915C
:10184000B2F90210490349420591B0F90210890327
:1018500049420191B2F90410490349420691B0F995
:101860000410890349420291B2F906104903494222
:101870000791B0F90610890349420391B2F90810A3
:10188000490349420891B0F908108903494204917B
:10189000B2F90A10490349420991B0F90A108903C3
:1018A000C1F1000AB2F90C10490349420A91B0F99A
:1018B0000C1089034E42B2F90E104903C1F1000920
:1018C000B0F90E108903C1F1000EB2F910104903EE
:1018D00049420B91B0F910108903C1F1000BB2F924
:1018E0001210490349420C91B0F9121089034F427A
:1018F00001240E9905F5805501EB44016B1331F974
:10190000021C01FA83F359424FF4805C009D0CEBFA
:1019100083332B44109D5B1325F81430B2F800C0BC
:10192000059D5B421CFB0155B0F80080DDF804C04A
:1019300018FB03CCCDF800C0B2F80280DDF818C067
:1019400018FB01CCCDF814C0B0F80280DDF808C057
:1019500018FB03CCCDF804C0B2F80480DDF81CC03D
:1019600018FB01CCCDF818C0B0F80480DDF80CC02D
:1019700018FB03CCCDF808C0B2F80680DDF820C013
:1019800018FB01CCCDF81CC0B0F80680DDF810C003
:1019900018FB03CCCDF80CC0B2F80880DDF824C0E9
:1019A00018FB01CCCDF820C0B0F8088018FB03ACC0
:1019B000CDF810C0B2F80A80DDF828C018FB01CCC1
:1019C000CDF824C0B0F80AC01CFB036AB2F80CC002
:1019D0001CFB01960A96B0F80CC01CFB03E6B2F89B
:1019E0000E80DDF82CC018FB01C9B0F80E8018FB82
:1019F00003BEB2F81080DDF830C018FB01CCCDF882
:101A00002CC0B0F810C01CFB037B578A17FB01F1F8
:101A10000C91418A11FB03F7641C0B2CFFF669AF94
:101A20000B2405F580556B1359424FF4805C009DE3
:101A30000CEB83332B44109D5B1325F81430B2F864
:101A400000C0059D5B421CFB0155B0F80080DDF82D
:101A500004C018FB03CCCDF800C0B2F80280DDF85A
:101A600018C018FB01CCCDF814C0B0F80280DDF826
:101A700008C018FB03CCCDF804C0B2F80480DDF830
:101A80001CC018FB01CCCDF818C0B0F80480DDF8FC
:101A90000CC018FB03CCCDF808C0B2F80680DDF806
:101AA00020C018FB01CCCDF81CC0B0F80680DDF8D2
:101AB00010C018FB03CCCDF80CC0B2F80880DDF8DC
:101AC00024C018FB01CCCDF820C0B0F8088018FB6A
:101AD00003ACCDF810C0B2F80A80DDF828C018FBBE
:101AE00001CCCDF824C0B0F80AC01CFB036AB2F8E0
:101AF0000CC01CFB01960A96B0F80CC01CFB03E658
:101B0000B2F80E80DDF82CC018FB01C9B0F80E80C9
:101B100018FB03BEB2F81080DDF830C018FB01CC12
:101B2000CDF82CC0B0F810C01CFB037B578A17FB04
:101B300001F10C91418A11FB03F7641C282CFFF67C
:101B400070AF11B0BDE8F08F70B5002328E083B10D
:101B500000EB430530F8134035F8025C641B24B2F7
:101B6000551EAB4208D130F8135046F28846751B1B
:101B700008E0B0F90040F3E700EB430530F81360EC
:101B80006D88AD1B2DB2A54200DA2C4604F5967483
:101B900024B24FF4A03595FBF4F421F813405B1CFC
:101BA0009342D4DB70BD2DE9F041002501232C4682
:101BB00008E050F82420002A00DA52429A4200DD60
:101BC0001346641C8C42F4DB00244FF4804201E095
:101BD0005B10641C9342FBDA002216E050F82230BE
:101BE0000026234113FB036700EB82067368234141
:101BF00013FB0377B368234113FB0377F368234197
:101C000013FB037305EBA315121D8A42E6DB95FB5C
:101C1000F1F005F012FCE41CA04000F5005040F388
:101C20008F30BDE8F0812DE9F0410A23002408E05F
:101C300030F91420002A00DA52429A4200DD13B231
:101C4000641C8C42F4DBB3F5804F24DB00231A467E
:101C500019E030F912400025641014FB045600EB23
:101C60004204B4F902506D1015FB0566B4F9045036
:101C70006D1015FB0565B4F90640641014FB04549F
:101C800003EBA413121D8A42E3DB93FBF1F005F092
:101C9000D4FB00012FE000252C46B3F5005F00DAED
:101CA0000124B3F5805F00DA0224B3F5006F00DA97
:101CB0000324002216E030F812300026A34013FB64
:101CC000036700EB42035E88A64016FB06779E88FA
:101CD000A64016FB0676DB88A34013FB036305EBE7
:101CE000A315121D8A42E6DB95FBF1F005F0A5FB7A
:101CF000C4F10301884000B2BDE8F0812DE9F0474E
:101D00000746DDE9085A0A9E91460C467000FFF727
:101D100097F80021A1E101FB06F809EB4802002336
:101D200006E007EB030C18F90CC020F813C05B1C8D
:101D3000B342F6DB4FF0000C45F821C00388B4F83D
:101D4000008013FB08F35B1313FB03CC45F821C0A1
:101D500013800388B4F802C013FB0CF3B0F802C080
:101D6000B4F800801CFB083355F821C05B1313FB4B
:101D700003CC45F821C053800388B4F804C013FB9A
:101D80000CF3B0F802C0B4F802801CFB0833B0F8C2
:101D900004C0B4F800801CFB083355F821C05B1365
:101DA00013FB03CC45F821C093800388B4F806C028
:101DB00013FB0CF3B0F802C0B4F804801CFB08332A
:101DC000B0F804C0B4F802801CFB0833B0F806C0B9
:101DD000B4F800801CFB083355F821C05B1313FBDB
:101DE00003CC45F821C0D3800388B4F808C013FBA6
:101DF0000CF3B0F802C0B4F806801CFB0833B0F84E
:101E000004C0B4F804801CFB0833B0F806C0B4F872
:101E100002801CFB0833B0F808C0B4F800801CFB3B
:101E2000083355F821C05B1313FB03CC45F821C0E0
:101E300013810388B4F80AC013FB0CF3B0F802C096
:101E4000B4F808801CFB0833B0F804C0B4F806806E
:101E50001CFB0833B0F806C0B4F804801CFB083340
:101E6000B0F808C0B4F802801CFB0833B0F80AC010
:101E7000B4F800801CFB083355F821C05B1313FB3A
:101E800003CC45F821C053810388B4F80CC013FB80
:101E90000CF3B0F802C0B4F80A801CFB0833B0F8A9
:101EA00004C0B4F808801CFB0833B0F806C0B4F8CE
:101EB00006801CFB0833B0F808C0B4F804801CFB93
:101EC0000833B0F80AC0B4F802801CFB0833B0F83D
:101ED0000CC0B4F800801CFB083355F821C05B131C
:101EE00013FB03CC45F821C093810388B4F80EC0DE
:101EF00013FB0CF3B0F802C0B4F80C801CFB0833E1
:101F0000B0F804C0B4F80A801CFB0833B0F806C06F
:101F1000B4F808801CFB0833B0F808C0B4F8068099
:101F20001CFB0833B0F80AC0B4F804801CFB08336B
:101F3000B0F80CC0B4F802801CFB0833B0F80EC037
:101F4000B4F800801CFB083355F821C05B1313FB69
:101F500003CC45F821C0D3810388B4F810C013FB2B
:101F60000CF3B0F802C0B4F80E801CFB0833B0F8D4
:101F700004C0B4F80C801CFB0833B0F806C0B4F8F9
:101F80000A801CFB0833B0F808C0B4F808801CFBBA
:101F90000833B0F80AC0B4F806801CFB0833B0F868
:101FA0000CC0B4F804801CFB0833B0F80EC0B4F8C1
:101FB00002801CFB0833B0F810C0B4F800801CFB92
:101FC000083355F821C05B1313FB03CC45F821C03F
:101FD00013820388B4F812C013FB0CF3B0F802C0EC
:101FE000B4F810801CFB0833B0F804C0B4F80E80BD
:101FF0001CFB0833B0F806C0B4F80C801CFB083397
:10200000B0F808C0B4F80A801CFB0833B0F80AC066
:10201000B4F808801CFB0833B0F80CC0B4F8068094
:102020001CFB0833B0F80EC0B4F804801CFB083366
:10203000B0F810C0B4F802801CFB0833B0F812C02E
:10204000B4F800801CFB083355F821C05B1313FB68
:1020500003CC45F821C05382491C5145FFF65BAEC5
:10206000BDE8F047FEF7EABE10B5ADF5A06D0C4631
:10207000A0226946FEF746FDA023A0AA69460948AA
:10208000FEF7CBFA0848A022A0A990ED010AA0A86B
:10209000FEF76CFAA0222146A0A8FEF731FC0DF550
:1020A000A06D10BD94A30020340100200448034B10
:1020B00003210268A3F10C00FEF7A4BAA0A300203C
:1020C000340100200D48007806280FD10B48001D70
:1020D000007800070AD1094808300078C0F30310DF
:1020E000032805D0042805D0052805D00020704716
:1020F000012070470120704701207047E00F00F079
:102100000D48007806280FD10B48001D0078000705
:102110000AD1094808300078C0F30310032805D01D
:10212000042805D0052805D00020704701207047FD
:102130000120704701207047E00F00F00D48007843
:1021400006280FD10B48001D007800070AD1094866
:1021500008300078C0F30310032805D0042805D008
:10216000052805D0002070470120704701207047E6
:1021700001207047E00F00F00948007806280BD1D5
:102180000748001D0078000706D105480830007890
:10219000C0F30310032801D00020704701207047CE
:1021A000E00F00F04FF08050D0F83011062903D135
:1021B000D0F83401062801D0002070470120704774
:1021C0000D48007806280FD10B48001D0078000745
:1021D0000AD1094808300078C0F30310032805D05D
:1021E000042805D0052805D000207047012070473D
:1021F0000120704701207047E00F00F00948007887
:1022000006280BD10748001D0078000706D10548B5
:1022100008300078C0F30310032801D00020704775
:1022200001207047E00F00F00D48007806280FD11C
:102230000B48001D007800070AD1094808300078D3
:10224000C0F30310032805D0042805D0052805D0C5
:10225000002070470120704701207047012070471F
:10226000E00F00F00948007806280BD10748001D50
:102270000078000706D1054808300078C0F3031045
:10228000032801D00020704701207047E00F00F0C4
:102290000948007806280BD10748001D0078000780
:1022A00006D1054808300078C0F30310032801D098
:1022B0000020704701207047E00F00F009480078C7
:1022C00006280BD10748001D0078000706D10548F5
:1022D00008300078C0F30310052801D000207047B3
:1022E00001207047E00F00F02DE9F04792B00D4655
:1022F00006464FF000094C4648216846FEF7F3FCBD
:102300002A463146E8460DF10200FEF7C5FC2C4E88
:102310009DF80100CA4631788DF8005061F3420003
:1023200020F00100274D8DF8010001275146C5F826
:1023300010A12F61D5F810010028FBD0C5F81011AD
:10234000D5F8000220F01000C5F80002D5F8000210
:1023500020F48070C5F8000277704FF0E021022071
:10236000C1F88001BFF34F8FBFF36F8F0021B068BA
:1023700006F0C0FA1449C1F800802F600120FFF771
:1023800002F94FF0FF31706806F0B4FA9DF80100D1
:10239000C0070BD00521B06806F0ACFA012805D0C3
:1023A000641CE4B2032CC1D34FF001093078401C07
:1023B00000F00300307012B04846BDE8F08700001E
:1023C0000400002000100040041500402DE9F041F9
:1023D00080462BA004682B48076802F0DDFD03F05F
:1023E0004DFD294801250560284904200860022682
:1023F000081D0660091FC1F80080244997FAA7F05C
:10240000183100BA0860214994FAA4F000BA1031DA
:1024100000BA08601D4824300560012000F042F831
:102420001A482830066019494FF6FF7030310860AD
:10243000091F17480860174C0820C4F80403C4F8A3
:102440000052D4F8000240F01000C4F80002D4F8A2
:10245000000240F48070C4F800020F49802081F827
:102460000004481EC0F880620120FFF78CF807497D
:102470000A4808390860656009484670BDE8F0817F
:10248000424344457C8E0000FC1F00400C15004078
:10249000211001000010004001E000E08401002054
:1024A0000400002006490A1D012804D0002008600D
:1024B000044810607047044808600448F9E70000C9
:1024C00014150040404004010600030040000401D0
:1024D00010B503F06DF803F057F803F001F803F0BE
:1024E00087F8BDE81040002005F0E2BC08B50448BC
:1024F00000226946006806F083F99DF8000008BDD7
:102500006001002001480068704700005C01002065
:102510002DE9F04F91B092468B4605461E4620228B
:102520002D4968461A9CFEF7B7FB2B492022203123
:1025300008A8FEF7B1FB042E00DD042606EB4600DA
:10254000694601EB400608A901EB400000213DE08F
:10255000038835F911C0226813FB0C2202F50053E1
:102560004FF40047B7EBA33F01DC7F1E06E01B4F93
:10257000B7EBA33F01DB7F1C00E09F13B0F80280A4
:10258000636818FB0C387388C2F30E09C3F1000CA2
:102590001CFB09F3D2131CFB02FC0CEBE33308EB2E
:1025A00043032360838835F811C013FB0CF8B3880C
:1025B000C3F1000C1CFB09F31CFB02F202EBE3323B
:1025C00008EB420262602BF81170491C5145BFDBD9
:1025D00011B0BDE8F08F0000E84B01000080FFFF64
:1025E00070B5002392101AE030F8025B31F8026BEC
:1025F000002415FB064430F8025B31F8026B15FB32
:10260000064430F8045B31F8046B15FB064430F8DF
:10261000025C31F8026C15FB064403EBA413521E56
:10262000E2D2184670BD00002DE9FF4F9DB08246F2
:102630001F980024AAEB40056E4605EB4401504666
:10264000891F209AFFF7CCFF46F82400641C072C52
:10265000F3DBDFF8F4B00025B1460020C5EBC5067A
:102660000022D0F1030100D50021C0F10A03072B9D
:1026700000DD07230BEB460811E000EB010C09EB32
:102680008C0738F8114057F80C7CC7F30E0C14FB7C
:102690000CFC02EBEC32FF1314FB0722491C99429D
:1026A000EBDB09EB860101EB8001401C4B46CA6164
:1026B0000728D5DB6D1C032DCFDB0025009A2E46A5
:1026C0002C46C4EBC400002103EB800757F821001F
:1026D000904202DD024626460D46491C0729F5DBDD
:1026E000641C042CEDDB1F980023401B25E0002513
:1026F000002E15DDC6EBC60100220BEB4107191AAF
:1027000007EB420401EB020834F80ECC0AEB480454
:1027100034F80C4C14FB0C55521C072AF0DB05E076
:102720001A1A0AEB420131F9061CCD031E9905F570
:102730008045EA1321F813205B1C20998B42D6DBDD
:1027400021B0C01CBDE8F08FBC4B01001CB50021BE
:102750001F20032300910A46019102F0CDFC1CBD0D
:1027600010B51B2002F0ECFC4FF0A0414FF00060D0
:10277000C1F80C0510BD2DE9FF4F85B00446069841
:102780004FF0000900EBD0704710781C8500CDF8A1
:1027900000902846FEF754FB02902846FEF750FBB7
:1027A0000346834602984FF400511D1D1960021D17
:1027B0000160002119E0069E34F911C0761A04EB7D
:1027C000460636F9028CC44453F8048BACEB080C73
:1027D00045F804CB34F911C036F9026C491CACEB56
:1027E000060650F804CB664440C2B942E3DB5846C3
:1027F0000022029908E003689B1C9B1008C00B682C
:102800009B1C9B1008C1521CBA42F4DB5BF82700EA
:10281000001DC1104BF82710029850F82700001D2A
:10282000C110029840F82710781C40000446FEF7BB
:1028300007FB04902046FEF703FB019000207B1C61
:102840000BE0049A3BF8201022F810100299019A2C
:1028500031F8201022F81010401C9842F1DB0026BD
:102860004FF48045304638E05FEAC87001D00198E7
:1028700000E0049803903A462946139BFEF79EFF1A
:1028800004464FF4804A23E015FB05F040F38F30F7
:102890004DF6C0214843AAEB2040129900B24843AC
:1028A00004F2FF1140F2FF3240F3CF30914201D2E7
:1028B000401C4010281A06B23A463146139B039832
:1028C000FEF77CFF90EA040F1CD4DCB104463546C9
:1028D00016F5804FD8DA08F1010006998046884243
:1028E000C2DBDDE90040FEF7A9FA0498FEF7A6FA7C
:1028F0005846FEF7A3FA0298FEF7A0FA09B0204660
:10290000BDE8F08F0098401C0090002016E0681C85
:102910004110701C01EB600000B2814601463A464E
:10292000139B0398FEF74AFF90EA040F03D414B1F7
:1029300004464D4600E04E460AF1010008998246E1
:102940008842E4DD484604F014FD07994D4621F81D
:102950001800C0E72DE9F0438946DDE90715099C19
:1029600046F28846361B89032DB201F5804191FB62
:10297000F5F10DB2C5F580410FB236B2002112E07B
:1029800030F811C01CFB07FC0CF5005C4FEAAC38BA
:1029900039F811C01CFB05FC0CF5005C08EBAC3CE5
:1029A00022F811C0491C9942EADBB2F90000A042AA
:1029B00000DA148002EB430030F9021CB14201DD61
:1029C00020F8026C01205B1E17E002EB400132F997
:1029D000106031F9025C2544AE4201DA22F8105051
:1029E000B1F9021032F91050091B8D4204DD6D104F
:1029F00005EB610122F81010401C9842E5DBBDE8B0
:102A0000F0832DE9F04706460027924689466FF08D
:102A1000004C0C46384612E00022114608E036F819
:102A2000115014F9018BA5EB481515FB0522491C23
:102A30009942F4DB624501DA94460746401C504552
:102A4000EADB002107FB03F009E009EB01028256F3
:102A500036F81140A4EB421226F81120491C994285
:102A6000F3DB3846BDE8F0872DE9F041064686B035
:102A700098460C461546002004E036F8101024F85D
:102A80001010401CA842F8DB01A92046FFF75CF8B3
:102A9000002009E0C10634F8102001F10061A2EB2A
:102AA000214124F81010401CA842F3DB2B464022A1
:102AB00023492046FFF7A5FF01460622404603F0C2
:102AC00032FF002005E034F81010490024F81010FF
:102AD000401CA842F7DB052740231A4A01A92046DB
:102AE000009700F00DFA01460622404603F01BFF56
:102AF0004023154A0DF10E0104F10A00009700F081
:102B0000FFF901460622404603F00DFF002006E0D3
:102B100034F91010491C491024F81010401CA84228
:102B2000F6DB002007E036F8101034F81020891A80
:102B300024F81010401CA842F5DB06B0BDE8F08177
:102B4000A64C0100264F0100665001002DE9FF4F01
:102B500083465610701C840085B092462046FEF7CE
:102B60006FF90546701C0AF1030778438000804620
:102B7000FEF766F903902046FEF762F904464046E8
:102B8000FEF75EF9029000200CE0039A00FB07F1CB
:102B900002EB810245F82020029A02EB810144F801
:102BA0002010401CB042F0DD4FEA4A00FEF748F921
:102BB00001464FF4805700204FF4AA7CC7F100086B
:102BC0004FF4005941E03BF9102043F244239A426C
:102BD00019DA12FB02F202F5805242F34F325342ED
:102BE00003EB830307EB43030CEB633313FB02F3A9
:102BF00003F5805308EB633313FB02F202F58052B6
:102C000009EB62321CE046F288439A1A12FB02F288
:102C100002F5805242F34F32534203EB830307EB3A
:102C200043030CEB633313FB02F303F5805308EB10
:102C3000633313FB02F202F5805209EB6232524217
:102C400012B2920021F81020401C5045BBDB00203E
:102C50004FF48012844617E055F82030C3F804C0C2
:102C600055F820309A6055F82070082303EBC00314
:102C7000FA5054F82070C7F804C054F82070BA60B5
:102C800054F82070401CFA50B042E5DD2A680888EC
:102C90009268931310FB03F3C2F30D0210FB02F0D2
:102CA0006A6803EBA0304042D0602268488892688E
:102CB000931310FB03F3C2F30D0210FB02F06268E2
:102CC00003EBA0304042D060002001900090012032
:102CD00083E0012303EB400301EB800B049341E00D
:102CE00055F82030042707EB820E31F8207053F896
:102CF0000EC04FEAAC3818FB07F8CCF30D0C1CFBE8
:102D000007F708EBA73C082707EB820753F8078073
:102D100053F82230A8EB0C0C634405EB800CDCF874
:102D200004C04CF8073054F82030BBF802C0994674
:102D300053F80EE04FEAAE3313FB0CF8CEF30D035D
:102D400013FB0CF308EBA33C59F80730A3EB0C0C76
:102D500059F82230521C634404EB800CDCF804C0A8
:102D60004CF80730049B9342BADC55F820C004238A
:102D700003EB820E31F820305CF80E704FEAA73872
:102D800018FB03F8C7F30D0717FB03F35CF8227079
:102D900008EBA333FF1A05EB8003D3F804C0082324
:102DA00003EB82094CF8097054F820C0BBF80230DC
:102DB0005CF80E704FEAA73818FB03F8C7F30D074D
:102DC00017FB03F35CF8222008EBA333D21A04EBC1
:102DD0008003401C5F6847F80920B0424FF00102B1
:102DE000FFF677AF23E0082055F8263000EB82008D
:102DF00054F826701B583F58009803EB070C844486
:102E00000198CDE90037ACEB00008030001210F5DE
:102E1000004F01DC104804E0B0F5004F01DB47F63D
:102E2000FF70069B03EB4203521C23F8020C524531
:102E3000D9DD0846FEF702F80298FDF7FFFF2046AD
:102E4000FDF7FCFF0398FDF7F9FF09B02846BDE840
:102E5000F04FFDF7F3BF00000180FFFF70B504469F
:102E60001546002006E0C20602F10062121424F8A2
:102E70001020401C8842F6DB0621284603F0C9FDDD
:102E800001461C4B002001EB810200EB420634F8A6
:102E900010109E5701EB461124F81010401C0A2810
:102EA000F3DB0621284603F0B4FD0146124B002057
:102EB00001EB8102161834F810109E5701EB061131
:102EC00024F81010401C0528F4DB0621284603F0E6
:102ED000A0FD0146094A002001EB810504EB4001F9
:102EE0002E184B899657401C03EB06134B8105287F
:102EF000F4DB70BDA64C0100264F010066500100B6
:102F00002DE9F04F9E4605464FF0000892468B464D
:102F10006FF0004913464046099E1DE0002211460D
:102F200013E035F8114013F9017BA4EB47173BF888
:102F3000114017FB07F7C7F30E0C14FB0CFC02EB58
:102F4000EC32FF1314FB0722491CB142E9DB4A456E
:102F500001DA91468046401C7045DFDB002008FB0B
:102F600006F109E00AEB00028A5635F81030A3EBAF
:102F7000421225F81020401CB042F3DB4046BDE869
:102F8000F08F00001CB5FEF7B3FA00200E21CDE94A
:102F9000001003464FF4807205A1074805F068FD54
:102FA0000648016841F00401016005F047F8FEE7BA
:102FB0006D61696E00000000D124000010ED00E09A
:102FC0002DE9FE4F0546DDE90C4088460021834689
:102FD000A0000191FDF734FF0646014650235A46F2
:102FE0002846FFF721FB0E998B4505DD4FEA4B0282
:102FF00006EB4401502304E006EB44015023CBF1DF
:1030000000022846FFF710FB002047F6FE720AE098
:1030100035F9103043F6FF711944914202D901206D
:10302000019004E0401CA042F2DB0198A0B1002016
:1030300005E035F91010491025F81010401CA04289
:10304000F7DB002005E036F91010491026F81010C3
:10305000401CB0EB440FF6DB314622460846FFF732
:10306000BFFA00F57A7004F0E8F9824606EB4400F6
:10307000224601460290FFF7B3FA00F57A7004F099
:10308000DCF98146294622460846FFF7A9FA401C8A
:1030900004F0D3F90746224629463046FFF7A0FA46
:1030A0000090002801DA002000902246294602986C
:1030B000FFF796FA002800DA00200122B7EB8A1FFA
:1030C00003DD07F1200102EBA11AB7EB891F03DD35
:1030D00007F1200102EBA1191AFB07F200998A42BD
:1030E00002DA4FF4804109E001EB670191FBF7F14F
:1030F0008A0302EB6A0292FBFAF109B219FB07F2AA
:10310000824202DA4FF4804209E000EB670090FB54
:10311000F7F0820302EB690292FBF9F002B2380287
:1031200000EB6A0797FBFAF30FFA83FA00EB6903E7
:1031300093FBF9F007B20F98002813DD43F2333305
:10314000584340F6F60303EBE03000B2A0F6F60376
:1031500046F6146C13FB0CFC4FF4804303EBAC33CA
:103160001BB201E00020034613FB01FC4FEAEC3CDC
:103170001CFB01F147F6FF7CACEB613109B213FB9C
:1031800002F3DB1313FB02F2ACEB623212B28142A8
:1031900000DA0146824200DA0246830303EB610053
:1031A00090FBF1F003EB620191FBF2F10E9B00B298
:1031B0000AB29B4510FB0AF040F38F300CDD4BF256
:1031C00034314843011412FB07F0801342F2666267
:1031D00010FB02F0C2130BE049F69A1148430114A8
:1031E00012FB07F040F38F3049F69A125043021455
:1031F000002011E036F8103013FB01F3071936F800
:10320000177012FB0733803335F910701B1207FA61
:1032100083F328F81030401CA042EBDB21464046E7
:10322000FEF701FD074621462846FEF7FCFC012873
:1032300000DA0120012F00DA0127B84200DD38460C
:10324000800300EB670090FBF7F002B2002007E07C
:1032500038F8101011FB02F18B1328F81030401CC5
:10326000A042F5DB0198F8B1002005E035F8101018
:10327000490025F81010401CA042F7DB4FF48045B0
:103280006A1E0020D7437B1C0CE038F91010A942BD
:1032900001DB114602E0B94200DC1946490028F87A
:1032A0001010401CA042F0DB3046BDE8FE4FFDF799
:1032B000C5BD00002DE9F74FADF51C7D4FF0000AAC
:1032C000CDF85CA2CDF864A288928146476900F5EA
:1032D0002D70C9F800049D982825D3464C46D04649
:1032E000B0B3D4F88C0400286CD0FE4E9D9803F047
:1032F0007CFB052850DB01219D9803F08AFB30B34D
:1033000003219D9803F085FB56F8201000293DDB32
:10331000091F9D9803F0CDFA9D9803F066FB0528E0
:103320003ADB01219D9803F074FB80B103219D9845
:1033300003F06FFB56F82010002927DB091F9D982A
:1033400003F0B7FA01219D9803F063FBF0B90CE09C
:10335000FFE7D4F8000610B1C4F8948432E03A468E
:103360004846889900F0A0FCFEE39D9803F03DFBE1
:10337000042811DB04219D9803F04BFB0F280BD090
:103380000E280CD00D2811D0082819DD6FF001008F
:103390000DF51F7DBDE8F08F4FF0FF30F8E74A468E
:1033A00004F29C419D9803F099FB06E0D4F8E035C7
:1033B0004946D4F8E4259D989847002896D0E7E739
:1033C000C4F894044FF42A7204F5AC7104F11800A7
:1033D000FDF762FCD4F89014D4F8940451F820005E
:1033E00088B343690A2183A89D9A9847A06838B397
:1033F0000021084683AE04EB400236F910C0B2F952
:103400000434B3EB0C0201D5ACEB0302401C1144B5
:103410000A28F0DBC81344F6CD43C340002004EB78
:103420008001401CD1F82C2442F3CF36C2F30E02A7
:103430005E435A4306EBE232C1F82C240A28EEDB45
:10344000606878BB2FE0FFE70A2303AA04F58361D5
:1034500047F20A70FEF79BF9A021D4F80004FEF7AA
:10346000E2FB8146002504F591663146484603F0AB
:1034700063FBD4F8001421F815006D1CA02DF4DBBB
:103480000120606004F22C400A21CDE9001002976F
:10349000A023D4F8000403A9889AFCF79AFFC4F883
:1034A0000880FBE301E0A06850B1002083A904EB91
:1034B000400331F81020401CA3F804240A28F6DB4E
:1034C000D4F89014D4F8940451F820000068401CFB
:1034D00005D007219D9803F09CFA00F1110AD4F859
:1034E0009014D4F8940451F82000406860B104218D
:1034F0009D9803F08EFA800140F6890110FB01F0DF
:1035000000F58040C013999005219D9803F081FA41
:103510007449B43951F8200046F6F661C21312FB23
:1035200001F1C0F30E0246F6F66012FB00F001EB6B
:10353000D039D4F89404012807D104219D9803F0D0
:1035400068FA0F282AD0C4F80086D4F89404012819
:1035500001DDC4F800860020949004F591609A90F3
:1035600000209890949800EB8000C0000090D4F860
:10357000001401EB4006D4F86C0418B1009900EB7C
:103580004100989050213046FDF7ADFB04F5926064
:1035900003C850F82100C06920B109E00120C4F837
:1035A0000006D2E740F223624FA158A0FEF724F8AC
:1035B00004F5926003C850F821E0DEF80000411CD9
:1035C0007DD068B1AAEB0002521C112A00DA112248
:1035D0000AEB0008B8F1900F04DD4FF0900801E00D
:1035E0005246D0460099B4F97C34A0684FF0000CE4
:1035F000CDE90701CDE9093C9D9895A993ABCDE9AB
:1036000004100393069799982823DEF820108DE87C
:103610000B00DEF81CC043465BA93046E0474FF084
:103620007A62282351425BA803F089F8BDF956124B
:10363000002900DA4942BDF95402002801DC40109B
:1036400040420144BDF95802002801DC40104042CC
:10365000084400B297995845014409B2979119DD81
:103660009399C1EB4502002A01D5A1EB4502032A3B
:1036700010DB05EB4502521A02D5A5EB85020A4480
:10368000042A07DBC1EB8502002A01D5A1EB8502E4
:10369000052A6CDA44F6CD420BFB02F1B0EBE13FB8
:1036A0001ADD93994B4215EB430201D5C5EB41025C
:1036B000032A5CDBA1EB8102521904D500E071E022
:1036C00001EB4102521B042A51DB15EB830201D5A9
:1036D000C5EB8102052A4ADB45F2C35110FB01F21A
:1036E00028E000007C5301002E2E5C537065657845
:1036F0005C53706565785C6C696273706565785C55
:103700006E625F63656C702E6300000061737365A9
:103710007274696F6E206661696C65643A205355F6
:10372000424D4F4445286C74705F756E7175616EC3
:1037300074290000BBEBE23F1DDA9399C1EB45020F
:10374000002A01D5A1EB4502032A10DB05EB450257
:10375000521A02D5A5EB85020A44042A07DBC1EB05
:103760008502002A01D5A1EB8502052A03DA0D4660
:10377000584500DD8346A0210BA8FDF7B4FA04F5F7
:10378000926003C850F82100806803280CD00128FB
:1037900010D0C84604F5926003C850F82100806A32
:1037A000D8B121E0112218E703219D9803F031F9E7
:1037B000F84905E001219D9803F02BF9F54994396A
:1037C00031F81000C9F30D0110FB01F24FEAA931E5
:1037D00010FB01F000EBA238DCE740F26F62AFF2C1
:1037E000F801EDA0FDF708FF9A982822CDE90070B6
:1037F00004F592609D9B03C850F82100D0E90AC1EE
:103800000BA8E0470BA928234246084603F03AF8E4
:10381000D4F89014D4F8940451F820000290C068B1
:1038200078B3A02133A80397FDF75DFA9A98282270
:10383000CDE9007002989D9BD0E90A7133A8B84782
:103840004FEAE83043F62F2110FB01F1C8F30E00D8
:1038500043F62F2210FB02F001EBD03233A92823CC
:10386000084603F00FF8002033AA0BA952F8207085
:1038700051F820303B4441F82030401C2828F5DB2B
:10388000039F00200DF5B67E4FF400580BA95EF89B
:1038900020C051F820304FF4005101EB4C01194485
:1038A0004FF40043B3EBA13F01DC591E06E0C64BC9
:1038B000B3EBA13F01DB591C00E0891326F810107F
:1038C000401C2828E2DB989860B100200BA951F831
:1038D000202002F500529313989A22F81030401CD1
:1038E0002828F4DBD4F8940401287DD199980D3868
:1038F00000EB400108EB413040F38F305FEA0008F5
:1039000001D5002003E0B8F1400F01DD40208046E2
:1039100050213046FDF7E7F90FFA8AF04000019098
:1039200009F50050801318FB00F0203040F38F1091
:103930000090D4F8FC0511E0002809DB019803F0A1
:10394000FAFD009910FB01F0D4F8FC1526F81100DF
:10395000D4F8FC1501EB0A00C4F8FC052828EBDBC1
:103960002838C4F8FC05002047F6FF726FF4D973BD
:1039700018FB03F1114409B24D22009118FB02F12A
:103980000AB20BAB36F810E053F82030009903F57B
:1039900000539B1311FB03F1CB13D4F8F41501F57D
:1039A0000051891312FB01F1A3EBE1310BB2B4F822
:1039B000F01542F2666C11FB0CF14FEAE13C45F662
:1039C0009A181EFB08F1C9130CFA81F103FA81F170
:1039D00026F810100BA9A4F8F0E551F82010C4F84F
:1039E000F415B4F8F81500E018E046F2666311FB30
:1039F00003F136F8103040F6CD4C13FB0CF301EB1D
:103A0000430101F58041C913A4F8F81536F81030C8
:103A1000591A26F81010401C2828B2DB9498401C34
:103A200094900428FFF69CADD4F8980450B104F5A6
:103A3000926003C850F82100B0F93000002801DD81
:103A4000A168E1B3D4F800144FF4A07250398898FB
:103A5000FDF722F9A06848B3A021D4F80004FEF7CE
:103A6000E2F8401C40F34E0209EB020100B291FB68
:103A7000F0F0B0F5004F01DB47F6FF7002B2002016
:103A80006FF04F03D4F8001431F8106016FB02F603
:103A9000B61321F81060D4F8001403EB40068E5BD7
:103AA000889921F81060401CA028EBDB04F2044048
:103AB00000264FF4005B0DF50978039000E085E0E7
:103AC000889906EB860001EB001A1020042100966D
:103AD000CDE901100A238EAA83A90398FEF73AFFC5
:103AE0003B460A2289A98EA8FFF730F859460020E4
:103AF000424602EB400332F910C0B3F90230801C99
:103B0000A3EB0C0319440A28F3DB04EB86005246AE
:103B1000C0F85C1404F22C400A21CDE900102823DF
:103B2000029704F583611046FCF753FC00204146E0
:103B300004EB400331F81020401CA3F818240A2895
:103B4000F6DB761C042EB9DBD4F8080678B104F253
:103B500054400090D4F8040600B10220889940F047
:103B60000103A022084600E098E0FEF7D1FC09F529
:103B70000050012303EBA03000B2A4F87004B4F8A5
:103B8000721447F6B86211FB02F1B0EBE13F45DA7F
:103B9000C91344E056530100617373657274696F11
:103BA0006E206661696C65643A205355424D4F44FE
:103BB0004528696E6E6F766174696F6E5F756E71A0
:103BC00075616E74290000000080FFFF28264FF009
:103BD0005008CDE90260CDE900850497D4F80004CF
:103BE00004F583620A23924650388899FFF7E8F972
:103BF00004F592600A2303C8524650F82100B0F938
:103C00003000CDE90085CDE902600497D4F80004C6
:103C100088995030A031FFF7D3F91BE701460AB26B
:103C2000A4F87224B4F8741444F2A40611FB06F14B
:103C3000891303FA81F636B2864202DA03FA81F07A
:103C400000B2A4F87404401C824201DAA4F87204A1
:103C5000002083A904EB400331F81020401CA3F896
:103C600004240A28F6DB00226260C4F87854A260BB
:103C70009798801C8110A4F87C14D4F8840404EB79
:103C80004003401CC4F88404A3F87E14D4F88404D0
:103C9000022801DDC4F88424A4F810900DF51F7DDE
:103CA0000020BDE8F08F00002DE9FE4F00F52D73D8
:103CB0000446C0F80034806891468A460A2803DA30
:103CC000514931F9105000E00025B4F97E24B4F9CF
:103CD0008014B4F982048A4204DA814204DB82420D
:103CE00007DB05E0884201DA084602E0904200DB8B
:103CF0001046B4F97C14814201DDA4F87C04B4F9C7
:103D00007C04362800DD3620400215FB00F040F32D
:103D1000CF37A0211846FDF786FF17FB07F147F6BE
:103D2000FF72A2EBE13111FB05F1C91311FB00F0A9
:103D300040F3CF384FF42A7204F5AC7104F1180047
:103D4000FCF7AAFF208904F59161401C00B28B4664
:103D500002F0F2FED4F8781401EBA036902E01DDCB
:103D6000902602E0112E00DA112600255946404621
:103D700002F0E2FE0146D4F80004AA1B30F812203B
:103D800012FB07F201EBE23120F815106D1CA02D9B
:103D9000ECDB04F583620A231546114647F67150A1
:103DA000FDF7F5FC04F22C400A22CDE90020CDF805
:103DB0000890D4F80004A023524629465038FCF756
:103DC00008FB04F25440514600900123A02208460B
:103DD000FEF79EFB00216160A06807F58077401C1C
:103DE000A060D4F884047A1204EB4003401CC4F8A9
:103DF0008404A3F87E24D4F88404022801DDC4F8E6
:103E00008414BDE8FE8F00006653010070B51546AE
:103E100004461A2977D016DC4FF0A00209292CD0CD
:103E200008DC09296ED2DFE801F02B2FBB32BBBBC7
:103E3000242824001339072964D2DFE801F02A403E
:103E4000B158B13B3E00642970D00ADCA1F12401D5
:103E50000A2957D2DFE801F06B6FA472A4A4A4A4CE
:103E60007579653906294DD2DFE801F07D9A8D908C
:103E700093982868C4F894048EE0D4F8940417E06A
:103E80002868C4F8980487E0D4F8980410E02A6001
:103E900082E004F5926003C850F8210018B1406B2D
:103EA000E168484302E0E06800EB800090FBF2F03C
:103EB000286071E02868E0606EE0E068F8E7D5E926
:103EC000000100EB800004EB8000C0F8A01428681B
:103ED000A96800EB800004EB8000C0F8A4142868F7
:103EE00000EB800104EB8101C1F89C0454E0686898
:103EF000C4F8E005A868C4F8E4052868C4F8DC053F
:103F00004AE000E04CE00020014604EB8002401C47
:103F1000C2F82C140A28F8DB00204FF4987204EB46
:103F20004003401C19839042F9DD35E010E0106831
:103F3000C4F88C0430E0D4F88C0400E02820106031
:103F40002AE01068C4F8080626E0D4F80806F6E768
:103F5000002004EB8001D1F85C1445F82010401CCF
:103F60000428F6DB18E00026D4F8000406EB8601EE
:103F700000EB01102821FDF756FE25F81600761CEF
:103F8000042EF1DB08E0D4F80006D8E7C4F86C246E
:103F900002E01068C4F80406002070BD6069CEE736
:103FA0004FF0FF3070BD03F00DBF00002DE9F04170
:103FB0000746066840F20C60012102F0E9FA0400AD
:103FC00047D02760002565610127C4F88C7406F18D
:103FD0001C006760C4F89004F06D04F294424FF442
:103FE000187181C204F11800FCF77DFE2820A5603D
:103FF000C4F87804A4F88254A4F88054A4F87E5439
:104000004FF47A70C4F88454C4F88804C000E060A7
:10401000114804F5BC61258221C1002000EB80011C
:1040200004EB8101401CC1F8A0541028F6DBA4F871
:10403000F855C4F8F455A4F8F055C4F8FC55C4F884
:10404000005604F5BE64A4F5BE60C4E90557BDE89A
:10405000F0810020FBE70000B36A00002DE9F74F74
:10406000ADF5926D0446CDF83C14066B00F5D470A6
:10407000C4F8E80204F582604FF49275C4F8500564
:104080002A4604F5E27104F18400FCF705FE2A4695
:1040900004F22C4104F53B70FCF7FEFDD4F88806D1
:1040A00070B104F24C600090D4F8840608B1022389
:1040B00000E00023DDF83C14A0220846FEF728FAB1
:1040C000002038A9D4F8542504EB400332F810201E
:1040D0009B8E12FB03F2D21321F81020401C2828DB
:1040E000F0DB0FE0D4F8542532F81030DDF83C2432
:1040F00002EB400232F8502C13FB02F2D21321F8EB
:104100001020401CC828EDDBC8230B2202A938A8C8
:10411000FDF774FABDF90800A18D10FB01F1C91378
:1041200000FA81F0ADF80800002002A9D4F8582563
:1041300031F8103032F8102012FB03F2D21321F8BC
:104140001020401C0B28F1DBBDF808000A22401C9F
:10415000ADF808000DF58860FDF78AFA41F6991070
:10416000CDE900060A23D3AA19460DF58860FEF7AB
:1041700002FB0A280AD00020D3A904EB4002B2F8BF
:104180005C2521F81020401C0A28F6DB60682827EF
:104190004FF0100B58B100200DF21442D3A931F8A2
:1041A000103022F81030401C0A28F8DB0BE00822FF
:1041B00004218DE806080A230DF21442D3A904F263
:1041C0005C50FEF7C7FB33460A22D8A90DF2144013
:1041D000FEF7BCFC04F5CF604FF00A0A03C850F8A4
:1041E000210058B1D4F86816022902DD816803293C
:1041F00004DB416811B90068401C77D0B4F928008D
:104200000A23C4AAD8A9FDF7C2FAB4F92A000A23DE
:10421000C9AAD8A9FDF7BBFA7A0004F13401D4F891
:104220005005FCF739FDD4F85005C7F1A0014A004C
:1042300000EB4700DDF83C14FCF72EFD04F2D450EF
:10424000A022CDE90206CDE9002AD4F85005C9AA7A
:104250000346C4A9FCF72AF80DF128090DF110084E
:104260000622494640468DE84700A02390221121AE
:10427000D4F8500500F0B2FFBDF92800049D0121DB
:10428000CC4646F6CD4210FB02F361903CF911009A
:10429000B0EBE33F25DD58F82100C5EB4002002AD2
:1042A00001D5A5EB4002022A1ADD00EB4002521BA9
:1042B00002D5A0EB80022A44032A11DDC5EB80025F
:1042C000002A01D5A5EB8002042A09DD00EB80025B
:1042D000521B03D5424202EB82022A44052A00DC2B
:1042E0000546491C0629D1DB02E0FFE70025619560
:1042F0004FF00A0904F2FC58CDF80090CDE9018690
:1043000004F13400D4F8E8223B46D8A96290FCF7C7
:1043100033FDCDF80090CDE90186D4F8E802C7F16D
:10432000A00300EB4702D8A9DDF83C04FCF724FD0C
:10433000A021D4F8E802FDF776FC0746D4F87C0605
:10434000012814D0002D12DD619810FB00F0400010
:104350004CF6CD4110FB01F04FF0805101EB4000D5
:1043600003F0E9F8F449484310FB27F000E0B803F4
:104370008046D4F8740660B101220021DDF898046B
:1043800002F0D1FA0422D4F87C16DDF8980402F089
:10439000CAFA04F5CF6003C850F82100E0B36068A2
:1043A00050B10020D3A904EB400331F81020401C89
:1043B000A3F85C250A28F6DB04F5CF600A2203C8BF
:1043C000DDF8983450F821000DF585610769D3A810
:1043D000B84704F5CF6003C850F821000068401CBE
:1043E00006D00722A5F11101DDF8980402F09BFA2E
:1043F00004F5CF6003C850F821004068C8B3619845
:104400004EF2666148430014C0EB00102030871163
:104410000F2F2FDD0F2730E0FFE700200546D4F8EF
:10442000501521F81050D4F8E81221F81050401C13
:10443000A028F4DB002004EB8001401CC1F8AC553F
:104440000A28F8DB01206060E060DDF83C145022AF
:10445000F0316298FCF720FC002004EB8001401C46
:10446000C1F884550A28F8DB00200DF29C4DBDE808
:10447000F08F11E0002F00DA002704223946DDF822
:10448000980402F050FAB80140F6890110FB01F0DF
:1044900000F58040C01361902022A849404602F0F8
:1044A00076F90146A54846F6F66350F82100C21396
:1044B00012FB03F2C0F30E0010FB03F002EBD03945
:1044C0000522DDF8980402F02EFA606858B1002049
:1044D0000DF5856104EB400331F81020401CA3F872
:1044E00070250A28F6DB04F25C50649014304FF01B
:1044F0000008639008EB8800D4F8E8124FEAC00B7C
:1045000001EB4B07D4F85015CDF8008001EB4B00C0
:10451000609010200421CDE901104FF0280A0A23F1
:104520000DF21442D3A96498FEF714FA1021042066
:10453000CDF80080CDE901010A230DF254420DF5BA
:1045400085616398FEF706FA33460A22D8A90DF270
:104550001440FEF7FBFA33460A22CEA90DF254406E
:10456000FEF7F4FA4FF400510020CEAA02EB40030C
:1045700032F910C0B3F90230801CA3EB0C031944CC
:104580000A28F3DB04EB88003890C0F85416B4F91D
:1045900028000A23C4AAD8A9FDF7F9F8B4F92A001B
:1045A0000A23C9AAD8A9FDF7F2F8B8F1000F15D06F
:1045B000DDF83C0408EB880100EB01105038049052
:1045C0000020049931F81020609921F81020401C37
:1045D0002828F6DBD4F8680610B103E06298EEE70D
:1045E0004FEA6A0A0A20CDF800A0CDE90106B0AB77
:1045F000C9AAC4A9CEA8FDF713F95046002203E0CA
:10460000B0A921F81020401C2828F9DB00200DF566
:104610008D6104EB8003D3F884355B0041F82030D2
:10462000401C0A28F5DB0020002227F81020401C3F
:104630002828F9DB8A460A21CDE9001A3A462823C0
:104640000296CEA91046FBF7C4FE0020514604EBAB
:104650008002D2F8AC25520041F82020401C0A28E4
:10466000F5DB0A202822CDE90020CDE902A63B4651
:10467000C9AAC4A91846FBF719FE0020514604EB4D
:104680008002D2F8AC2541F82020401C0A28F6DB35
:104690000A212822CDE90021CDE902A6609BC9AA02
:1046A000C4A91846FBF702FED4F8680650B90020EA
:1046B000514604EB800351F82020401CC3F8AC2580
:1046C0000A28F6DB0020609931F9103037F9101014
:1046D000491CA3EB6101B1F5004F02DB47F6FF7106
:1046E00003E011F5004F00DC15499CAA22F81010D8
:1046F000401C2828E7DB0020049931F8101027F827
:104700001010401C2828F7DB04F224600A21CDE9B0
:1047100000103A4628230296CEA91046FCF72CFB3F
:1047200004F5CF6003C850F821008069F8B940F261
:10473000863204A118E0000098190100C852010057
:104740000180FFFF2E2E5C53706565785C537065A9
:1047500065785C6C696273706565785C6E625F63D6
:10476000656C702E63000000EDA0FCF745FF04F5BA
:10477000CF6003C850F821E0DEF80000411C11D0E2
:1047800068B10F318D4200DA0D46C0F19001A942A7
:1047900000DA0D46291A01F1010A284405E02846ED
:1047A000AA4602E04FF0110A9020E16819B159467B
:1047B000584500DD08460DF1300BD4F8681604F1B9
:1047C000080C0022D4F870368BE80E10B0A9DDF882
:1047D0009824CDE90A71CDE90826619B28210A2297
:1047E000CDE90621CDE90403DEF820005246C9AB2D
:1047F000009303920DF55D7ACDE901A0DEF818C0B3
:10480000C4ABCEAA9CA86099E04738998861A021E2
:1048100010A8FCF768FA0020524637F8103052F81A
:104820002010934601F58051A3EB613127F8101059
:10483000401C2828F1DB28213846FDF7F4F98103D4
:1048400009F5005040F3CE321144801391FBF0F093
:10485000B0F5004F01DA00B201E047F6FF7004F551
:10486000CF6106C951F82210896859B303291AD0BB
:104870000222B54901F07DFF824601460122DDF8A2
:10488000980402F050F8B049891C31F81A00C9F3B5
:104890000D0110FB01F24FEAA93110FB01F000EB12
:1048A000A230824610E0A8490822883101F061FF59
:1048B000824601460322DDF8980402F034F8A2494A
:1048C0009631E2E74846CA4602469CA92823084694
:1048D00001F087FF04F5CF6003C850F82100406A5B
:1048E00030B94FF47672AFF2A41198A0FCF784FEB1
:1048F00004F5CD6410ABD4E90401DDF8982450F838
:1049000021C02168DCF80C00CDE90710CDE90526AF
:10491000B0A8CDE9033028210A22CDE90121DCF835
:104920002C000090DCF824C0C9ABC4AACEA99CA876
:10493000E04710A928235246084601F0A3FFD4E916
:104940000401A4F5CD6450F82100C068E8B3A021AB
:1049500038A80996FCF7C7F900209CA94FF48052AB
:1049600031F8103042F2333C13FB0CF302EB4303FB
:104970005B1321F81030401C2828F1DB0020D4F80C
:104980006816DDF89824CDE90710CDE90526282022
:1049900038AACDE90202B0A90A2304F5CF60019339
:1049A000049103C8C9ABC4AA50F82100C16A0091A0
:1049B000466ACEA99CA8B0474FEAEA3043F62F21B9
:1049C00010FB01F1CAF30E0000E018E043F62F22BD
:1049D00010FB02F001EBD03238A92823084601F081
:1049E00051FF002038AA10A952F8206051F8203059
:1049F000334441F82030401C2828F5DB099EDFF8BD
:104A000078E100200DF1400A5A464FF4005352F865
:104A100020C05AF8201003EB4C0C61444FF4004CBA
:104A2000BCEBA13F02DC47F6FF7106E0BEEBA13F05
:104A300002DB5149491C00E0891327F81010401C83
:104A40002828E4DBD4F8640638B128215046FDF765
:104A5000AAF8D4F8642622F818004FF00A0A04F2E3
:104A60008450CDF800A0CDE901062823CEA9384610
:104A7000609AFBF7AEFCD4F8680660B12822CDE955
:104A8000002A04F2AC50CDE90206609BC9AAC4A971
:104A90001846FBF70BFC08F10108B8F1040FFFF60C
:104AA00029ADD4F87C06012820DB0020D3A904EB33
:104AB000400331F81020401CA3F85C250A28F6DBDF
:104AC00000200DF5856104EB400331F81020401CF7
:104AD000A3F870250A28F6DBD4F87C06012805D156
:104AE00004220021DDF8980401F01DFF0025656017
:104AF000DDF83C145022F0316298FCF7CDF8D4F880
:104B00007816D4F87C061D4A51F82010496A914263
:104B100003D010B1E5600120A7E40120E060FAE7CE
:104B2000617373657274696F6E206661696C656428
:104B30003A205355424D4F4445286C74705F71754F
:104B4000616E742900000000C0520100617373653A
:104B50007274696F6E206661696C65643A205355A2
:104B6000424D4F444528696E6E6F766174696F6E71
:104B70005F7175616E7429000080FFFF534E000065
:104B80007CB51546002204461A2970D013DCA1F129
:104B900003014FF0A00317296AD2DFE801F0232AAE
:104BA000F125272527F1F1F1F1F1F13D45485DF1BE
:104BB000F1F1F17276002D297ED00ADCA1F12401F9
:104BC0000929E9D2DFE801F09B9FDCA2A4ADDCDC7F
:104BD000B000643907294BD2DFE801F0ADB8D2D27A
:104BE000C8CBD0002B60C7E0286810E0D4F87C0662
:104BF00045E02868002801DA002002E00A2800DDEC
:104C00000A202168602202EB800009680858C4F875
:104C10007C06C4F88006AFE02868C4F8680600285F
:104C200001DAC4F86826A7E0D4F8680627E00A206D
:104C300000902D686A460421204601F04AFF01AA2F
:104C40001321204601F045FF0198A84203DD00989A
:104C5000401E0090EED58FE004F5CF6003C850F8F9
:104C6000210030B1406BD4F86C16484305E00FE0EA
:104C700086E0D4F86C0600EB800090FBF3F028602F
:104C80007AE02868C4F86C0676E0D4F86C06F6E79B
:104C90000120E060606000200B23411C46F2884543
:104CA00011FB05F191FBF3F104EB4005401CA5F865
:104CB0005C150A28F1DB00E03AE0002004EB8001FB
:104CC000401CC1F8FC25C1F88425C1F8D425C1F8E1
:104CD000AC250A28F2DB00204FF4987304EB400166
:104CE000401CA1F8EC22A1F884209842F6DD0020B7
:104CF00004EB4001401C8A862828F9DB3CE0286848
:104D0000C4F8740638E0D4F87406B8E72820B6E78B
:104D10002868C4F8700664282EDD6420C4F8700684
:104D20002AE0D4F87006AAE72868C4F8880623E0C9
:104D3000D0F88806A3E7002004EB8001D1F85416D0
:104D400045F82010401C0428F6DB15E00026D4F8B6
:104D5000E80206EB860100EB01102821FCF763FF57
:104D600025F81600761C042EF1DB05E0C4F8645625
:104D700002E02868C4F8840600207CBD206B7EE732
:104D80004FF0FF307CBD03F01DB8000070B5064643
:104D9000046840F28C60012101F0FAFB00283CD04D
:104DA000002506600563A18A0185E18A4185218B82
:104DB000818504F11C01C0F87816E16DC0F88016F9
:104DC0000123C360C0F87436C0F87C169902816074
:104DD0001249C0F8541512494360C0F85815002113
:104DE0000B244A1C46F2884612FB06F292FBF4F2B0
:104DF00000EB4106491CA6F85C250A29F1DB0221DB
:104E0000C0F8701600F26460C0E900514FF4FA5126
:104E10008160C0E90853A0F2646070BDB253010024
:104E20009C53010029B14FF0FF33012903D01846EC
:104E30007047006806E0116831B100EB8100C0697D
:104E400020B1406B106002E00520FBE713600020FA
:104E500070472DE9FF4F85B09A46DDE9144567009C
:104E600093463846DDF84C90DDF86080FBF7E8FFAC
:104E7000CDE90004CDE902980646DDE90501534677
:104E80005A4601F027FC002008E055F8201036F9BA
:104E9000102001EB022145F82010401CA042F4DB59
:104EA00039460598FBF71FFF09B03046BDE8F04FC3
:104EB000FBF7C4BF70B506460125002008E056F890
:104EC0002040002C00DA6442AC4200DB2546401C46
:104ED0009842F4DB002001E06D10401C9542FBDCA1
:104EE000002205E056F82240044121F81240521CED
:104EF0009A42F7DB70BD000070B50C4691B22246B5
:104F0000104C0346204600F050F90125C4F8005526
:104F10004FF48271204600F03CF94FF48A7120462C
:104F200000F037F94FF48471204600F032F9252063
:104F3000FCF71CFB2520FCF733FB2220C4F80403FC
:104F4000256070BD0050024070B511490125202038
:104F5000C1F88001BFF34F8FBFF36F8F2520FCF79F
:104F600005FB0C4C65602220C4F808034FF48271E5
:104F7000204600F00EF94FF48A71204600F009F93E
:104F80002046BDE870404FF4847100F002B9000083
:104F900004E000E00050024010B5104C606828B9F1
:104FA00003220021012003F0DFFA6060A06828B925
:104FB00003220021012003F0D7FAA060E06818B9AD
:104FC000012003F0BFFAE0602069002805D100222B
:104FD0004221052003F0C8FA206110BD0400002022
:104FE00000283ED01F4A2049126800BF00BF00BF02
:104FF00000BF00BF00BF00BF00BF8A422FD000BF6C
:1050000000BF00BF00BF00BF00BF00BF00BF00BFA8
:1050100000BF00BF00BF00BF00BF00BF00BF00BF98
:1050200000BF00BF00BF00BF00BF00BF00BF00BF88
:1050300000BF00BF00BF00BF00BF00BF00BF00BF78
:1050400000BF00BF00BF00BF00BF00BF00BF00BF68
:1050500000BF00BF00BF00BF00BF00BF00BF0138DE
:10506000C3D17047800100200024F40000283ED006
:105070001F4A2049126800BF00BF00BF00BF00BF29
:1050800000BF00BF00BF8A422FD000BF00BF00BFDB
:1050900000BF00BF00BF00BF00BF00BF00BF00BF18
:1050A00000BF00BF00BF00BF00BF00BF00BF00BF08
:1050B00000BF00BF00BF00BF00BF00BF00BF00BFF8
:1050C00000BF00BF00BF00BF00BF00BF00BF00BFE8
:1050D00000BF00BF00BF00BF00BF00BF00BF00BFD8
:1050E00000BF00BF00BF00BF00BF0138C3D1704781
:1050F000800100200024F40070B541EA4201DDE99E
:1051000004454FF0A04641EA830141EA042106EB41
:10511000800041EA0541C0F8001770BD70B541EA52
:105120004201DDE904454FF0A04641EA830141EA2E
:10513000042106EB800041EA0541C0F8001770BD6C
:105140001CB5002100910B46012201911146FFF789
:10515000D3FF1CBD1CB5002100910B46012201911B
:105160001146FFF7DBFF1CBD4FF0A042012181403B
:1051700002F20C52116070474FF0A04201218140B1
:1051800002F5A162116070474058002800D001204C
:10519000704708B5002242504058009008BDD0F832
:1051A0000403084000D001207047C0F85015C0F833
:1051B00038250AB1012100E00021C0F80815C0F827
:1051C00040350BB1012100E00021C0F80C157047FB
:1051D00008B5002242504058009008BD2DE9FF4F0D
:1051E0008BB00446002003900D988A46A0EB0A007D
:1051F0000290401C4000DDF860901A9E0546FBF7C7
:105200001FFE00902846FBF71BFE83460298401CB9
:105210008000FBF715FE80460190B0000546FBF7C5
:105220000FFE07462846FBF70BFE05460020421EF0
:1052300007E047F82020002145F8201049F820A079
:10524000401CB042F5DB0D9843F6FF7240420590DA
:105250000AE034F910108B1847F6FE718B4202D920
:105260000120039005E0401C0E998842F1DB039871
:1052700050B1059805E034F91010491024F81010C9
:10528000401C0E998842F6DBA4EB4A000A46014610
:10529000FDF7A6F9C8F80000214608460E9AFDF76A
:1052A0009FF9079050464FF0000C1CE0A4EB400122
:1052B00031F8021C11FB01F3A0EB0A0258F822108E
:1052C00001EBA3130E99091A04EB410131F8021CFA
:1052D00011FB01F108EB8202B3EBA111516001D582
:1052E000C2F804C0401C0D998842DFDB029B47F6E0
:1052F000FE72594640465B1CFFF7DCFD06900D9898
:10530000A4EB40000A90019809900E98089002982A
:10531000401C0490002010E00A98089A00EB480115
:105320002046FDF75DF90499A1EB0802099901EB0C
:10533000820141F8040C08F101000499804688427A
:10534000EADBDDE90010029BB4225B1CFFF7B2FD33
:105350000490039850B1059805E034F81010490006
:1053600024F81010401C0E998842F6DB51465AE092
:105370000098A1EB0A0330F8130010FB00F007EBD4
:10538000860402B23BF813C034F8040C0CF1010C93
:1053900010FB0CF805EB860030F804CC1CFB02FC7B
:1053A000E0453FDA44F8042C3BF91340A6F1010C28
:1053B000641C40F8044C09EB860040F8041C0020F3
:1053C0002EE03BF8134037F82080641C18FB04F4EF
:1053D00035F8208018FB02F8444520DA741E12E0EC
:1053E00007EB840C5CF804CC47F824C005EB840C74
:1053F0005CF804CC45F824C009EB840C5CF8048C00
:1054000049F82480641E8442EADC47F820203BF9F6
:105410001320521C45F8202049F8201002E0401CBF
:105420006045CEDB491C0D988142A1DD199858B327
:10543000002026E059F828000290079802F03CF876
:10544000044602980699A0EB0A0002903BF910006E
:10545000884002F031F814FB00F00A2101EBA012A1
:105460000099029831F910000499884090FBF2F0FD
:1054700000B2002800DA0020199921F8180008F17C
:1054800001008046B042D5DB2846FBF7D7FC384602
:10549000FBF7D4FC0198FBF7D1FC5846FBF7CEFC98
:1054A00000980FB0BDE8F04FFBF7C8BC10B50B4C2F
:1054B0002068002810D002F071FC02F07BF802F0A6
:1054C00077FC206802F0F4FC002020606069BDE8F1
:1054D0001040002103F066B810BD00003C01002020
:1054E00070B54FF42075284601F05EF8154CE06069
:1054F000284601F059F82061284601F055F860600F
:10550000284601F051F8A060FBF7E4FC01F05EF9D9
:1055100002F07CFF00220121042003F025F86061E5
:10552000E06928B900221621282003F01DF8E06167
:10553000A069002805D100221621282003F014F8C4
:10554000A06170BD3C0100201CB50B48006800281C
:1055500011D1FBF7DDFDFBF7D3FD07480B21CDE9AA
:10556000001000234FF4006204A1064803F080FA03
:10557000012800D0FEE71CBD3C0100206F7341757F
:1055800064696F00E97600001CB500200D21CDE9AB
:10559000001003464FF4807203A1044803F068FA38
:1055A000012800D0FEE71CBD6B657900457800003E
:1055B0001CB501210022084602F0D6FF0849086008
:1055C00000200E21CDE9001003464FF4807205A1A2
:1055D000064803F04DFA012800D0FEE71CBD00008C
:1055E000600100206F73524600000000B578000093
:1055F0001CB500220121042002F0B6FF0849086012
:1056000000200E21CDE9001003464FF4007205A1E1
:10561000064803F02DFA012800D0FEE71CBD00006B
:105620006401002073796E6300000000617900005E
:105630002DE9FF4FA3B006468020359C209004EB57
:105640004400DDF8C0B0DDF8E0A03D9F339D400090
:10565000FBF7F6FB1A906000FBF7F2FB8146B7F50B
:10566000802F01DD1F2020901A98129000EB44003B
:1056700013901A98002100EB8400149005E03A98EA
:1056800036F8112020F81120491CA142F7DB34988C
:105690006E1E8000FBF7D4FBA21B07462146002AA2
:1056A00000DD3146002006E0A0EB060C3AF81CC0F5
:1056B00029F810C0401C8842F6DB521B21464FF0EF
:1056C0000008002A08DD711906E0821B531B3AF816
:1056D000133029F81030401C8842F6DB02E029F82C
:1056E0001080401CA042FADB3E98A8B1002005E0E3
:1056F00039F910104A1029F81020401CA042F7DB9D
:10570000002007E03A9931F910104A103A9921F82F
:105710001020401CA042F5DB002002E047F820806A
:10572000401C34998842F9DB37980091CDE901702B
:105730004A46234610462499FAF74BFE002002E021
:1057400047F82080401C34998842F9DB37980A21B9
:10575000CDE90270CDE90041DDE925124B4618463E
:10576000FAF7A4FD002005E0149A39F8101022F889
:105770001010401CA042F7DB3846FBF75FFB01210D
:10578000661E4A1B0AEB420030F9022C3E9800B11B
:1057900052103998008810FB02F012AB871353F8AF
:1057A0002100009003EB810E07800020022714E007
:1057B000DEF8043033F810C0399B03EB40035B88FC
:1057C00013FB02F303F500530CEBA333DDF800C029
:1057D00007EB4008401C2CF80830B042E8DB491EBB
:1057E000CFD500261BAF0DF14808224658F82600F9
:1057F0003A99FCF7F5FE47F82600761C032EF4DBF9
:10580000002707EB470009A9002601EB800811E0FB
:1058100012A8224650F8261050F82700FCF7E0FEA8
:1058200006EB460209A901EB820141F8270048F87E
:105830002600761CBE42EBDD7F1C032FE1DB1D98AA
:1058400000901C9801901B9802900E9803900A9863
:1058500004900B980590119806900D980790099860
:1058600008903C98022801DA022002E01E2801DD9F
:105870001E203C90009840F28F224000009001983A
:10588000400001900298400002900398400003906D
:105890000498400004900598400005903C9810FB47
:1058A00002F00699CA1310FB0211069AC2F30E0207
:1058B00010FB02F201EBE23106910799CA1310FBCB
:1058C0000211079AC2F30E0210FB02F201EBE23161
:1058D00007910899CA1310FB0211089AC2F30E022D
:1058E00010FB02F001EBE0300890092347F6FF724D
:1058F00015A96846FFF7DEFADDE9310115AA209BFC
:1059000000F088F8319901EB800191F900202032F4
:10591000ADF87820209291F901202032ADF87A205C
:10592000219291F902102031ADF87C1022913B991F
:105930000860A1005846FBF7D6F900200090291A0C
:10594000491CA6468C4200DD8E46009A00201EAB04
:10595000C2F102020DE0A0EB010833F812605BF81F
:1059600020703AF818C0F60116FB0C774BF820703F
:10597000401C76467045EEDB4819A046A04200DA8E
:10598000804630469E460EE03EF812305BF82070AE
:10599000DB01461AA6EB050C3AF81C6013FB0676F1
:1059A0004BF82060401C4045EEDB0098401C009006
:1059B0000328C4DB00201BE0149931F81020209943
:1059C00012FB01F2139931F81030219911FB0322D7
:1059D000129931F81030229911FB03213A9A2031A3
:1059E00032F81020A2EBA1113A9A22F81010401CB4
:1059F000A042E1DB3A9922460846FCF7F1FD044655
:105A00004846FBF71BFA1A98FBF718FA27B020460E
:105A1000BDE8F08F2DE9FF4F83464FF000098E4619
:105A20002F4E4025484654E00BEB800797F9004085
:105A300097F9013097F9021097F903A00027203455
:105A400014FB05FCB2F800801CFB0877203313FB25
:105A500005FCB2F802801CFB0877203111FB05FC25
:105A6000B2F804801CFB087714FB03FCB2F9068033
:105A70000FFA8CFC0CFB187711FB03FCB2F90880C1
:105A80000FFA8CFC0CFB187711FB04FCB2F90A80AE
:105A90000FFA8CFC0CFB187714FB04F4B2F90CC061
:105AA00024B204FB1C7413FB03F3B2F90E701BB297
:105AB00003FB174311FB01F1B2F9104009B201FBDE
:105AC0001431B14204DD039CA24501DC0E4681463F
:105AD000401C7045A8DB04B04846BDE8F08F0000CC
